:100000000C94E2020C948E180C9467180C940C0358
:100010000C940C030C940C030C9426190C940C03F4
:100020000C940C030C940C030C940C030C940C0314
:100030000C940C030C940C030C940C030C940C0304
:100040000C94DC1F0C940C030C94F4180C94CE1834
:100050000C940C030C940C030C940C030C940C03E4
:100060000C940C030C940C0320554E0020504F00B0
:100070002045580020424F0020574400525F464C14
:100080004720307800524F4D2042616400474D5365
:10009000470052544320496E6974003D424F4F540B
:1000A0003D004F4646004F4E00536C703D005700D8
:1000B000412C2050524D533D0049524D533D004D6F
:1000C00074723D003A003A0020002D002D002F00F0
:1000D00054696D653D002E002E002E004E65742083
:1000E00049643D0042616420436D64004C454420F6
:1000F00050756C7365286D73293D00426164204C16
:1001000045442074696D65004C454454004C454499
:100110003D313A00426164204C454420726174656F
:10012000004C454452004F4646004F4E00547374F5
:100130003D0054455354004D747220496E74766CE2
:100140003D004D54524900496D702F6B57683D007A
:1001500042616420496D702F6B5768004D545252B4
:1001600000536574204D74722056616C3D004D54EF
:1001700052560041766720525353494047773D001D
:100180004C617374204777205353493D0054677482
:1001900020525353493D00545820506F773D004240
:1001A0006164205458506F77005458505700426192
:1001B0006420525353490054525353004E6F4964C4
:1001C0003D00426164204E6F4964004E4F49440037
:1001D000477749643D00426164204777496400479E
:1001E000574944004261642041646472004E4554A2
:1001F00049004B65793D00426164204B65790045BB
:100200004B4559004C6F674C65763D004261642058
:100210004C6F674C657600444542554700494E4651
:100220004F005741524E004552524F52004C4F47DB
:100230004C004261642054696D650054494D45008D
:10024000524346470043543D4E0043543D590043FA
:1002500054434C004E005900536C6570743D00537C
:100260006C703D0052414D3D00426174743D005040
:100270006F702049783D00507573682049783D00C3
:100280004C617374204D55503D00436C6F73656431
:1002900020456E743D005261773D002C2056616C04
:1002A0003D00426173653D0044554D500048454C4A
:1002B00050004E6F207072696F7220656E74727993
:1002C000004D524542004D55505F004D5550430082
:1002D00042617474657279205620286D56293D005C
:1002E00047494E52004C454420313A004D73674D0A
:1002F0006772206661696C002C204176672052533A
:1003000053493D005458506F773D00556E6B206D3A
:1003100073673A2000476F742062636173743A20F8
:10032000004D4E4F4900476F7420505253502E20BD
:100330004E6F207570646174650020746F200047F3
:100340006F7420505253503A20005052535000477F
:100350006F7420626164204D504C4900204C45442C
:100360002050756C736520286D73293D00476F74AC
:10037000204D504C493A20004D504C4900476F7475
:1003800020626164204D494E4900207365637320EB
:10039000746F2000476F74204D494E493A20004D3C
:1003A000494E4900476F7420626164204D564149AF
:1003B00000476F74204D5641493A20004D5641493F
:1003C00000476F74206261642047495452007300F3
:1003D0007320666F722000476F7420474954523A69
:1003E000200047495452002E2052535349203D20AB
:1003F00000476F743A200053656E64206661696C33
:100400003A20004E6F2041434B20726563760053C3
:10041000656E64696E673A20004D736720746F6F74
:10042000206C6F6E673A20005A003000203E20009A
:10043000205768002000AD0228044F02A8024002A5
:100440003B022D02FF01ED01DF01CB01B701A90144
:100450006E015C014201320121010801436D6473A8
:100460003A20003D005D002C002C002C003D5B007C
:100470004F70656E65642000436C6F736564200087
:10048000416C676E3E3A30300000000000250028C5
:10049000002B000000000800020100000304070018
:1004A0000000000000000000000000240027002AD7
:1004B00000010204081020408001020408102001FD
:1004C00002040810200404040404040404020202C8
:1004D0000202020303030303035052455100003E8E
:1004E000800052F4F4D0003415004FF4F4D0001A18
:1004F0000B009DF4F4D0000D05013BF4F4D0000690
:10050000830275F3F3D000034104EAF2F2D0000253
:100510002C07AEE2E2D00001000800E1E1D00000CB
:10052000801000E0E0D000024003334242D0013EA0
:10053000800052F4F5D0013415004FF4F4D0011AC4
:100540000B009DF4F4D0010D05013BF4F4D001063D
:10055000830275F3F3D001034104EAF2F2D0010201
:100560002C07AEE2E2D00101000800E1E1D0010079
:10057000801000E0E0D001024003334242D0087D09
:100580000000108888D008682B0010F1F1D00834E2
:10059000150010F5F5D0081A0B0010F4F4D0080D72
:1005A000050010F3F3D00806830010F2F2D0080320
:1005B000E80010E2E2D06364696E6F70737578587A
:1005C0005B005A2F20925D0711241FBECFEFD8E0A9
:1005D000DEBFCDBF12E0A0E0B1E0E6EBF9E702C07C
:1005E00005900D92AA37B107D9F727E0AAE7B2E044
:1005F00001C01D92AD35B207E1F712E0C2EED2E0C4
:1006000004C02197FE010E948F30C13ED107C9F777
:100610000E9426200C94D93C0C9400001F93CF9389
:10062000DF93CDB7DEB728970FB6F894DEBF0FBEC5
:10063000CDBF0E94500B6093D6027093D702809377
:10064000D8029093D9028091C4059091C505DC0130
:10065000ED91FC910190F081E02D0995882309F43A
:1006600089C08091C6050E94F7148091CF060E9430
:10067000F71484EF91E09093CD058093CC0583E04F
:100680008093CE0548E050E06EEE74E0CE01019616
:100690000E943939BE016F5F7F4F80ED96E00E9466
:1006A000AC1A44EE67E080ED96E00E94D71940EC6A
:1006B00068E080ED96E00E94D71940E069E080EDA7
:1006C00096E00E94D7196091DB0280ED96E00E94CF
:1006D000E3148091E00289838091DF028A83809114
:1006E000DE028B838091DD028C836EE280ED96E0EA
:1006F0000E94281A182F24E0AE014F5F5F4F6FE26F
:1007000080ED96E00E948919412F477C48696EE28E
:1007100080ED96E00E94D71920E141EE52E06EE3B1
:1007200080ED96E00E9489196DE380ED96E00E94CD
:10073000281A482F41606DE380ED96E00E94D7199A
:1007400080ED96E00E94131A6091D6027091D70254
:100750008091D8029091D90220E040E00E94CA1115
:1007600028960FB6F894DEBF0FBECDBFDF91CF91B4
:100770001F91089561E070E08CEE92E00E94C00E3F
:1007800074CFCF93C62F80932C03109219035C98DB
:10079000E99886EE96E190930A0180930901809191
:1007A0002C03882349F088E49AE090930A0180930F
:1007B000090181E090E008C08FE09AE090930A017F
:1007C0008093090182E090E00E945B1860E070E095
:1007D00085EE92E00E94EC0D80912C0360E070E0C9
:1007E00090E00E946913CC2319F0CF910C945B0A1E
:1007F000CF9108952F923F924F925F926F927F9286
:100800008F929F92AF92BF92CF92DF92EF92FF9220
:100810000F931F93CF93DF9300D000D000D0CDB7BC
:10082000DEB7082F762E5CE4E52E54E0F52EF701B6
:1008300001900020E9F73197EC54F440FD9758F00F
:1008400061E070E089E194E00E94EC0D81E090E0CD
:100850000E94DD1324C58CE38D83E0ECF3E0DF011F
:100860001D928A95E9F763E070E08FE094E00E94C2
:10087000EC0D83E090E00E94DD13F7010190002071
:10088000E9F73197AF014C5454406CE474E080ECCC
:1008900093E00E942E33A895BD81BE831091CB05B5
:1008A0001F5F1093CB0520E0812C912C5401939471
:1008B00066246394620E9091CE05921708F4B3C03B
:1008C0008091C4059091C505DC01ED91FC91048CEB
:1008D000F58DE02D612F09958091C4059091C50596
:1008E000DC01ED91FC91068CF78DE02D40E860E095
:1008F0000995402F6E8180EC93E00E9421150E94A3
:1009000016150F3F09F4ABC0B1E0B61598F480910D
:10091000C7059091C805A091C905B091CA05019677
:10092000A11DB11D8093C7059093C805A093C9056B
:10093000B093CA050E94DA161B012C01E090CC0589
:10094000F090CD050E94FF36A50194010E94613C04
:100950009B01AC01D7010E94803CA50194010E943B
:10096000613C2E0D3F1D72016101C20ED31EE11CC0
:10097000F11C0E94DA16A7019601261B370B480BC3
:10098000590BCA01B901262D1616170618061906A5
:100990000CF08ECFA091C405B091C505ED91FC91EE
:1009A00011970088F189E02DCD010995882309F37D
:1009B0008091C4059091C505DC01ED91FC91048006
:1009C000F581E02D40E050E060E070E0099588237B
:1009D00081F29E012F5F3F4FAE014E5F5F4FBE0120
:1009E0006D5F7F4FCE0104960E947815882309F22F
:1009F0006C81898160130AC02B819091C6052913EF
:100A000005C087FF03C09A81911749F187FDB1CFD7
:100A10008A81E62FF0E0EC53FA4F93858913A9CF32
:100A20000E944415A6CF62E070E087EF93E00E9439
:100A3000EC0D82E090E00E94DD138091BF038F5F98
:100A40008093BF0383302CF08091DB028D300CF457
:100A500087C0A89580ED96E00E94131A20C41092DA
:100A6000BF03A8957720A9F30E94DA166B017C01D9
:100A700038EEC30E33E0D31EE11CF11C0E94DA16DF
:100A8000A7019601261B370B480B590BCA01B90168
:100A900012161306140615060CF05BC0A091C405CF
:100AA000B091C505ED91FC9111970088F189E02D79
:100AB000CD010995882311F38091C4059091C50556
:100AC000DC01ED91FC910280F381E02D09958823F2
:100AD000A9F28091C4059091C505DC01ED91FC91CE
:100AE0000480F581E02DAE014B5F5F4F60EC73E059
:100AF0000995882319F29E012F5F3F4FAE014E5F8B
:100B00005F4FBE016D5F7F4FCE0104960E94781546
:100B1000182F882309F4B2CF898187FDAFCF9B813D
:100B20008091C605981304C06C818A810E94441587
:100B30008A819C81E92FF0E0EC53FA4F23858217DC
:100B400009F49CCF9093BE038387112309F496CFB9
:100B50000BC063E070E083E094E00E94C00E79CFA8
:100B60008CE98093DA0275CFA8958091DE06809398
:100B70002B0364E070E081EF93E00E94EC0D64E0F1
:100B800070E080EC93E00E940D0E64E070E087EE70
:100B900093E00E94EC0D80912B0364E070E0082E3E
:100BA000000C990B0E94691369EA71E08CE494E0EF
:100BB0000E94373360EC73E08CE494E00E9437339A
:100BC00062EE73E08CE494E00E94510D813009F0F4
:100BD00093C01092BA031092BB031092BC03109200
:100BE000BD031092B6031092B7031092B80310928F
:100BF000B90385EB93E09F938F9386EB93E09F93EC
:100C00008F938AEB93E09F938F9383E092E09F937F
:100C10008F938CE494E09F938F930E94883340914C
:100C2000BA035091BB036091BC037091BD03DB011B
:100C3000CA010A97A109B1090FB6F894DEBF0FBE29
:100C4000CDBF8F349240A105B10508F04EC0809110
:100C5000B6039091B703A091B803B091B9038C018A
:100C60009D010A501109210931090F3A1B40210544
:100C70003105D8F55093010140930001909337035B
:100C8000809336030E94500B6093380370933903AE
:100C900080933A0390933B0363E070E087ED93E029
:100CA0000E94EC0D6091BA037091BB038091BC036C
:100CB0009091BD0343E050E00E945D0E63E070E060
:100CC00080ED93E00E94EC0D6091B6037091B70344
:100CD0008091B8039091B90343E050E00E945D0E0B
:100CE00063E070E08EEC93E004C061E070E081ECC2
:100CF00093E00E94C00EF0C16CEB73E08CE494E0D2
:100D00000E94510D182F813009F066C085EB93E0E9
:100D10009F938F9381EB93E09F938F9387E192E072
:100D20009F938F938CE494E09F938F930E948833DA
:100D30008091B1039091B203A091B303B091B40339
:100D4000AC01BD0141505109610971090FB6F89418
:100D5000DEBF0FBECDBF4F3F5D45604D724BB8F556
:100D600080931F0390932003A0932103B093220349
:100D70000E94500B01E020E030E0A9010E94EC103D
:100D800063E070E081EB93E00E94EC0DE0914A0497
:100D90004EE0E49FF0011124E85CFA4F2481358194
:100DA0004681578160911F03709120038091210338
:100DB000909122030E94850D43E050E00E947D0E39
:100DC00083E090E00E948F0E10931E0385C161E0C6
:100DD00070E084EA93E08DCF6FE973E08CE494E0F7
:100DE0000E94510D813009F054C085EB93E09F9330
:100DF0008F938DEA93E09F938F9387E192E09F9387
:100E00008F938CE494E09F938F930E9488330FB666
:100E1000F894DEBF0FBECDBF8091AD039091AE03BD
:100E2000A091AF03B091B0038F3F9105A105B1052B
:100E300009F050F563E070E084E993E00E94EC0D66
:100E400060912F0370E080E090E043E050E00E946A
:100E5000280E63E070E08AE893E00E94EC0D609158
:100E6000AD037091AE038091AF039091B00343E066
:100E700050E00E945D0E83E090E00E948F0E809112
:100E8000AD0380932F037BC061E070E08DE793E0BA
:100E900030CF68E773E08CE494E00E94510D81301C
:100EA00009F075C01092A9031092AA031092AB0327
:100EB0001092AC031092A5031092A6031092A70300
:100EC0001092A80385EB93E09F938F9385EA93E0BC
:100ED0009F938F9389EA93E09F938F9383E092E0AF
:100EE0009F938F938CE494E09F938F930E94883319
:100EF0000FB6F894DEBF0FBECDBF8091A9039091CD
:100F0000AA03A091AB03B091AC038F3F9105A1055B
:100F1000B10509F0B8F58091A5039091A603A091C1
:100F2000A703B091A803893BEBE09E07A105B1059B
:100F300048F590932E0380932D0363E070E08DE6D7
:100F400093E00E94C00E60E08091A9030E94C1035B
:100F500060912C0370E080E090E043E050E00E945C
:100F6000280E63E070E08CE593E00E94EC0D63E0F6
:100F700070E080912D0390912E030E9478130E94BF
:100F80005B0AAAC061E070E08FE493E0B2CE6AE44D
:100F900073E08CE494E00E94510D813009F064C04C
:100FA0001092A1031092A2031092A3031092A40323
:100FB00010929D0310929E0310929F031092A00323
:100FC00085EB93E09F938F938CE993E09F938F93AE
:100FD0008DE993E09F938F9381EA93E09F938F93A2
:100FE00087E292E09F938F938CE494E09F938F939A
:100FF0000E9488330E94500B0091A1031091A2031C
:101000002091A3033091A403DC01CB01801B910B41
:10101000A20BB30B0FB6F894DEBF0FBECDBF049783
:10102000A105B10508F002C180919D0390919E0336
:10103000A0919F03B091A003892B8A2B8B2B09F4DD
:10104000F5C00E94500B20919D0330919E03621BBE
:10105000730BCB0177FF04C088279927861B970B5A
:1010600004970CF081C0E2C061E273E08CE494E08C
:101070000E94510D8130A9F485EB93E09F938F93EB
:1010800080E492E09F938F938CE494E09F938F93FE
:101090000E9488330F900F900F900F900F900F9039
:1010A0001BC06DE870E08CE494E00E94510D81302B
:1010B00049F464E070E085E193E00E94EC0D84E087
:1010C00090E008C062E070E08BE093E00E94EC0DDD
:1010D00082E090E00E94DD1369EA71E08CE494E024
:1010E0000E9437338091B50387FF13C02091DA0245
:1010F000222359F0082E000C990B820F911D27FD19
:101100009A9597FD0196959587958093DA021092AE
:10111000B5038091DC0287FF9CCC8091DA0287FFC7
:1011200098CC8091980390919903A0919A03B091E3
:101130009B03892B8A2B8B2B09F47DC00E94500BBB
:10114000009198031091990320919A0330919B0389
:10115000DC01CB01801B910BA20BB30BCC97A1053B
:10116000B10508F068C075CC0E94500B0091A10336
:101170001091A2032091A3033091A403DC01CB01C1
:10118000801B910BA20BB30BB695A79597958795EE
:1011900000919D0310919E0320919F033091A00325
:1011A000800F911FA21FB31F80939D0390939E03F6
:1011B000A0939F03B093A00364E070E08FE393E0FB
:1011C0000E94EC0D0E94500B44E050E00E945D0E26
:1011D00064E070E08AE393E00E94EC0D60919D036F
:1011E00070919E0380919F039091A00344E050E092
:1011F0000E945D0E84E090E00E948F0E80919C031F
:10120000813011F010929C0321E080919C03813089
:1012100009F020E060919D0370919E0380919F03EF
:101220009091A00341E00E94CA1156CF63E070E0A4
:1012300086E293E05ECD2091DA023091DC02822FCB
:10124000022E000C990B831B910937FD939597FF94
:1012500003C09195819591090B9794F023173CF465
:101260008091DB028F5F8E3E14F08E30A4F0321737
:101270003CF48091DB0281508E3E14F08E305CF0A5
:101280000E94500B609398037093990380939A0384
:1012900090939B03DECB60E00E946809F1CF269615
:1012A0000FB6F894DEBF0FBECDBFDF91CF911F9177
:1012B0000F91FF90EF90DF90CF90BF90AF909F90F5
:1012C0008F907F906F905F904F903F902F900895F8
:1012D000CF93DF9392E1980F903210F080E060C0DE
:1012E000D62FC82F63E070E084E093E00E94EC0DFD
:1012F0006C2F0C2E000C770B880B990B43E050E001
:101300000E94280E63E070E088EF92E00E94EC0DEE
:101310008091DA0263E070E0082E000C990B0E94C5
:101320006913C093DB021092DA02D1110E945B0AAA
:101330006091DB0280ED96E00E94E3148DE890E07E
:101340009F938F93CCE4D4E0DF93CF930E947539C1
:101350008091DB02282F082E000C330B3F938F93D4
:101360008CE492E09F938F93DF93CF9387E592E095
:101370009F938F93DF93CF930E94653360E08091BA
:101380002A030E94FA0380ED96E00E94131A8DB79B
:101390009EB70E960FB6F8949EBF0FBE8DBF81E02C
:1013A000DF91CF91089583E090E0909306018093C0
:1013B000050160E080E00E94C10384E690E0909324
:1013C0002E0380932D038CE380932F0388EE93E00C
:1013D00090933103809330038DE08093DB0285EBA3
:1013E0008093DC0282E08093CF0681E080932A0321
:1013F0001092E0021092DF028093DE028093DD0201
:1014000080E1E5E1F1E0A1EEB2E001900D928A9574
:10141000E1F7109223030E945B0A0C940E03809163
:101420002803909129030196909329038093280320
:10143000A89580912C03882351F120912D033091A0
:101440002E03232B99F0813089F08091190382308B
:1014500068F080912C038230D0F090911903923083
:1014600088F490911903923090F40FC05C9A0E9416
:10147000DA1660931A0370931B0380931C039093F6
:101480001D03E7CF809119038150809319030895BC
:1014900089B1887080931E04883011F40C940F0A6F
:1014A0005C980895BC0181EF92E00E944D3981EF74
:1014B00092E00C94CB130F931F93CF93DF931F9263
:1014C000CDB7DEB7A895809105018983BE016F5F16
:1014D0007F4F80E090E00E94691F6CE273E081E042
:1014E00090E00E94691F6DE273E082E090E00E944C
:1014F000421F6FE273E084E090E00E94691F60E3A6
:1015000073E085E090E00E94421F6BED72E087E09F
:1015100090E00E942A1FA8956CED72E088E090E0B0
:101520000E942A1F6FEC76E089E090E00E94691F1C
:101530006AE273E08AE090E00E94691F60EE72E068
:101540008BE090E00E94691F6FED72E08CE090E00C
:101550000E94691F6EED72E08DE090E00E94691FAD
:101560006DED72E08EE090E00E94691F0FE010E0E8
:10157000B8016E527D4FC8010E94691F0F5F1F4F57
:101580000F311105A9F763E273E08FE190E00E944B
:10159000691F0F90DF91CF911F910F910895EF92E6
:1015A000FF920F931F93CF93DF93CDB7DEB72797AB
:1015B0000FB6F894DEBF0FBECDBF7C0160E087E0C0
:1015C0000E94CB1507E010E09E012F5F3F4F40E0E7
:1015D00062E085E395E00E949D1E8981982F969593
:1015E000969596959E70292F220F220F920F8F703D
:1015F000890FF70180838A81982F96959695969505
:101600009E70292F220F220F920F8F70890F8183D6
:101610008B81982F9695969596959670292F220FE7
:10162000220F920F8F70890F82838C81982F96954D
:10163000969596959670292F220F220F920F8F70F4
:10164000890F84838D81877083838E81982F9695EF
:10165000969596959270292F220F220F920F8F70D8
:10166000890F85838F81982F9695969596959E7173
:10167000292F220F220F920F8F70890F868361E02E
:1016800087E00E94CB1527960FB6F894DEBF0FBEF9
:10169000CDBFDF91CF911F910F91FF90EF900895F3
:1016A0008F929F92AF92BF92CF92DF92EF92FF9272
:1016B0000F931F93CF93DF938FE194E00E94CF0AA3
:1016C000E0912504AE2FB0E020E833E341EE51E095
:1016D0000E94803C4B015C0122EB37E0FD01C4E637
:1016E000D0E000E911E0C901825B97408E179F07A7
:1016F000DCF4C90183709927892B99F4C901BE01D3
:101700000E947B30892B31F4C901B8010E947B30E3
:10171000892B39F480E8880E81E5981E81E0A81EA7
:10172000B11C2F5F3F4FDFCF0091240410E0EE5437
:10173000F84FCF0164E670E00E947B307C01CF015E
:1017400060E971E00E947B306C01C1E0D0E0E370A1
:10175000FF27C017D10724F5C230D10581F4309797
:1017600071F4E114F10419F4C114D10441F480E8D6
:10177000880E8BE3981E86E2A81EB11C0FC0DE0106
:10178000AC5DBE4FAC91B0E020E831E541E050E007
:101790000E94803C860E971EA81EB91E2196D9CFA6
:1017A000409120042091210430E0A0E1BEE00E949D
:1017B000CA3C6B017C01242F30E0ACE3B0E00E9416
:1017C000CA3CDC01CB018C0D9D1DAE1DBF1D2091BF
:1017D0001F046C017D01C20ED11CE11CF11CA09103
:1017E0002304B0E0119720E831E541E050E00E9489
:1017F0008B3CDC01CB018C0D9D1DAE1DBF1DBC01C2
:10180000CD01680D791D8A1D9B1DDF91CF911F9120
:101810000F91FF90EF90DF90CF90BF90AF909F908F
:101820008F9008958F929F92AF92BF92CF92DF9246
:10183000EF92FF920F931F93CF93DF93EC016A0116
:101840007B0188809980AA80BB800E94500BC80CC5
:10185000D91CEA1CFB1C97018601061B170B280BE1
:10186000390B480159010093260490922704A09255
:101870002804B092290410922A0410922B0410928A
:101880002C0410922D04088319832A833B83DF9153
:10189000CF911F910F91FF90EF90DF90CF90BF906D
:1018A000AF909F908F9008954F925F926F927F922A
:1018B0008F929F92AF92BF92CF92DF92EF92FF9260
:1018C000CF93DF9380912303811104C0C12CD12CCD
:1018D0007601D6C08EE480937C0062E070E080E008
:1018E00090E00E94A01680917A00806480937A0034
:1018F00080917A0086FDFCCF80917800209179005C
:1019000030E0322F2227A901330F660B770B9A01A3
:10191000AB01282B60E070E381E190E00E94613C24
:1019200069017A01C8ECD5E0809190020E94891685
:101930009093A1028093A002BC01990F880B990B90
:101940000E94AC314B015C014090B2025090B30256
:101950006090B4027090B502A30192010E9495308C
:1019600020E030E040E85AE30E943D329B01AC01A8
:10197000C301B2010E9496309B01AC016093B20298
:101980007093B3028093B4029093B502C501B40181
:101990000E9495306093AA027093AB028093AC02D0
:1019A0009093AD029B01AC010E943D326093C20254
:1019B0007093C3028093C4029093C5022091C60223
:1019C0003091C7024091C8025091C9020E949630DE
:1019D0006093C6027093C7028093C8029093C902B5
:1019E000219709F0A1CF20E030E049EB54E40E94B8
:1019F00002310E94B0324B015C01B601DD0C880B54
:101A0000990B0E94AC3120E030E04AE754E40E9498
:101A1000023120E030E040E85AE30E943D3220915C
:101A200096023091970240919802509199020E943B
:101A30003D32A50194010E943D326B017C0160930F
:101A40008A0270938B0280938C0290938D02109285
:101A5000C6021092C7021092C8021092C902609387
:101A600015047093160480931704909318042AE9C0
:101A700039E949E95EE30E94383218160CF026CFA6
:101A8000C701B601DF91CF91FF90EF90DF90CF902B
:101A9000BF90AF909F908F907F906F905F904F908E
:101AA00008950F931F93CF93DF938C01EB0184E193
:101AB00094E00E944D3963E674E084E194E00E9472
:101AC0004239E4E1F4E001900020E9F73197AF01F9
:101AD0004451544064E174E0C8010E943E33892BB4
:101AE00069F0CE010E945439AC01BE01C8010E94C8
:101AF0005D3921E0892B19F020E001C022E0822F1E
:101B0000DF91CF911F910F9108958F929F92AF9285
:101B1000BF92CF92DF92EF92FF9249015A010E9449
:101B2000AA3120E030E040E05FE30E9496306B0194
:101B30007C01C501B4010E94AA314B015C01809176
:101B4000300390913103BC0180E090E00E94AA3103
:101B50009B01AC0160E070E08AE794E40E940231EE
:101B60009B01AC01C501B4010E943D329B01AC0157
:101B7000C701B6010E9496300E947B31FF90EF9022
:101B8000DF90CF90BF90AF909F908F900895CF93AC
:101B9000009701F1C62F8130910519F487E292E098
:101BA00010C08230910519F482E292E00AC08330BD
:101BB000910519F48DE192E004C0049721F487E1C6
:101BC00092E00E94520ACC2329F080E692E0CF9165
:101BD0000C94CB13CF910895CF93DF9320910501FF
:101BE00030910601261737077CF09B01EC018091AC
:101BF0000401882321F061E0C9010E94C70DCE01D4
:101C00000E94321410920401DF91CF91089560E098
:101C100070E08CE294E00C94EC0DCF93DF93209174
:101C2000050130910601261737077CF09B01EC0176
:101C300080910401882321F061E0C9010E94C70D51
:101C4000CE010E94CB1310920401DF91CF91089531
:101C5000CF93DF93EA019F938F937F936F9383E6F4
:101C600092E09F938F9388E094E09F938F930E94DC
:101C700065338DB79EB708960FB6F8949EBF0FBE1A
:101C80008DBFBE0188E094E0DF91CF910C940D0EE2
:101C9000CF93DF93EC010A9734F460E070E08AE2BE
:101CA00094E00E94EC0DBE01DD0F880B990B40E023
:101CB00050E0DF91CF910C94280ECF93DF93EA018F
:101CC0009F938F937F936F9385E792E09F938F937A
:101CD0008CEF93E09F938F930E9465338DB79EB7EF
:101CE00008960FB6F8949EBF0FBE8DBFBE018CEF55
:101CF00093E0DF91CF910C940D0E2091050130916E
:101D000006012417350754F040E050E00E945D0EB4
:101D100060E070E080E394E00C94EC0D0895209175
:101D2000050130910601281739073CF087E692E05B
:101D30000E94CB1381E0809304010895CF93DF9339
:101D40000E94070E60E070E08CE594E00E94EC0DCC
:101D5000C6E3D4E0FE01859194910E94520A60E0AE
:101D600070E084E394E00E94EC0D229684E0CA3592
:101D7000D80781F780E090E0DF91CF910C948F0E2F
:101D80000F931F93CF93DF938C01EB01809105019B
:101D900090910601861797075CF0809104018823D3
:101DA00021F061E0CE010E94C70DC8010E943214EB
:101DB000CE01DF91CF911F910F910C948F0ECF9395
:101DC000DF93C82F0E94070E0E94070E6C2F70E051
:101DD00080E090E040E050E00E94280E60E070E07B
:101DE0008DE694E00E94EC0D8EE0C89FE001112486
:101DF000C85CDA4F688179818A819B8140E050E03C
:101E00000E945D0E60E070E08BE694E00E94EC0DB5
:101E10006C817D818E819F8140E050E00E945D0E4B
:101E200060E070E089E694E00E94EC0D68857985B9
:101E30008A859B850E94FB1360E070E087E694E052
:101E40000E94EC0D6C857D85072E000C880B990B8C
:101E500040E050E00E94280E60E070E085E694E0EB
:101E6000DF91CF910C94C00ECF92DF92EF92FF9250
:101E7000CF93A895882389F0E0904A04F12C0E9422
:101E8000540C2EE02E9DF0012F9DF00D1124E85CE6
:101E9000FA4F6087718782879387E0914A048EE0CA
:101EA000E89FF0011124E85CFA4F82E090E095870A
:101EB000848764E070E088E794E00E94EC0D8091F4
:101EC000050190910601049724F080914A040E9434
:101ED000DF0E80914A0490E001966AE070E00E9473
:101EE0007B3080934A0420914B042A3018F42F5FF2
:101EF00020934B04009719F0EFEFE80F01C0E9E0E1
:101F000020912F03CEE0CE9FF0011124E85CFA4F20
:101F1000C080D180E280F380C20ED11CE11CF11C94
:101F2000C89FF001C99FF00D1124E85CFA4FC082F0
:101F3000D182E282F3820E94500B6C157D058E05E2
:101F40009F0580F4E0904A04F12C0E94500BCE9D36
:101F5000F001CF9DF00D1124E85CFA4F608371838E
:101F600082839383E0914A048E2F90E0009711F0D2
:101F7000E15001C0E9E02EE02E9FF0011124E85C61
:101F8000FA4F4481558166817781289FF001299F0E
:101F9000F00D1124E85CFA4F448355836683778300
:101FA000108611861286138681E090E095878487DB
:101FB00064E070E080E794E00E94EC0D8091050100
:101FC00090910601049724F080914A040E94DF0E4C
:101FD0008091490490914A04891308C090E00196C9
:101FE0006AE070E00E947B3080934904CF91FF90BB
:101FF000EF90DF90CF9008950F931F93CF93A89504
:1020000080910301882381F00E94500B00912E04DF
:1020100010912F0420913004309131046017710722
:102020008207930708F0A2C080912F03882319F13B
:102030000E94500BE0914A042EE0E29FF00111242F
:10204000E85CFA4F0081118122813381AB01BC0130
:10205000401B510B620B730B80912F0390E0A0E0AB
:10206000B0E0481759076A077B0728F084859585F3
:10207000019709F4A8C0E0914A04CEE0CE9FF00198
:102080001124E85CFA4F84859585029709F0A0C079
:102090000E94500B20912F0330E0220F331F890143
:1020A000330F220B330BDC01CB01801B910BA20BF6
:1020B000B30BE0914A04CE9FF0011124E85CFA4F83
:1020C0000081118122813381081719072A073B07F4
:1020D00030F50E94500BE0914A04CE9FF00111248C
:1020E000E85CFA4F0081118122813381601B710B02
:1020F000820B930B20912F0330E040E050E00E94D0
:102100003F3CDA01C9010197A109B1098093190483
:1021100090931A04A0931B04B0931C0408C010925F
:10212000190410921A0410921B0410921C0481E0EE
:1021300090912303911101C080E00E94340FC0E010
:102140008C2F90E0A0E0B0E04091190450911A0467
:1021500060911B0470911C0484179507A607B707AC
:10216000B8F580E00E94340FCF5FEACF63E070E003
:1021700080E894E00E94C00E81E0909123039111C9
:1021800001C080E00E94340FE0914A048EE0E89F95
:10219000F0011124E85CFA4F80912E0490912F04F5
:1021A000A0913004B091310480839183A283B383E2
:1021B0001092030110922E0410922F0410923004FA
:1021C0001092310431CF82E090E09587848753CF1D
:1021D000CF911F910F9108958F929F92AF92BF92CE
:1021E000CF92DF92EF92FF920F93CF93DF934B0149
:1021F0005C0169017A0180912F03882309F447C0AB
:10220000011145C00E94FC0FE0914A04CE2FD0E09E
:102210003EE0E39FF0011124E85CFA4F8480958052
:10222000A680B7808C0C9D1CAE1CBF1C60911F0348
:10223000709120038091210390912203A5019401C4
:102240000E94850D21E061157A4E86459A4F08F46B
:1022500020E020931D04222369F010921F031092A6
:102260002003109221031092220381E080931E0329
:10227000460157018EE08C9FF0018D9FF00D1124D7
:10228000E85CFA4F84829582A682B78277C0E0919B
:102290004A048EE0E89FF0011124E85CFA4F848143
:1022A0009581A681B781892B8A2B8B2B41F081E008
:1022B00090912303911101C080E00E94340FE091BE
:1022C0004A04CE2FD0E03EE0E39FF0011124E85C09
:1022D000FA4F80829182A282B38284819581A68105
:1022E000B781A7019601280F391F4A1F5B1F609114
:1022F0001F037091200380912103909122030E947B
:10230000850D21E061157A4E86459A4F08F420E04C
:1023100020931D04222341F010921F0310922003EA
:10232000109221031092220381E080931E038EE01D
:102330008C9FF0018D9FF00D1124E85CFA4FC48250
:10234000D582E682F78281E090912303911101C04A
:1023500080E00E94340F002389F0C0914A04D0E04D
:102360000E94500B2EE02C9FF0012D9FF00D1124A8
:10237000E85CFA4F6083718382839383DF91CF910E
:102380000F91FF90EF90DF90CF90BF90AF909F9014
:102390008F9008952F923F924F925F926F927F920B
:1023A0008F929F92AF92BF92CF92DF92EF92FF9265
:1023B0000F931F93CF93DF93CDB7DEB72D970FB653
:1023C000F894DEBF0FBECDBF6B017C014887298723
:1023D000AB01BC018CE393E00E94120CB701A60193
:1023E00082E393E00E94120CB701A60188E393E018
:1023F0000E94120CB701A60184E293E00E94120C25
:10240000B701A6018FE497E00E94120CB701A60164
:1024100088E993E00E94120C8CE3882E912CA12C69
:10242000B12CC701B601A50194010E943F3C562E74
:10243000CA01B901A50194010E943F3C462ECA0180
:10244000B90128E130E040E050E00E943F3C6901E2
:102450007A01362ECA01B9016C5F7F4F8F4F9F4FB3
:1024600027E030E040E050E00E943F3C22242394EB
:10247000260E812C912C540140E094E6692E712C9B
:1024800000E911E0242F30E02E54384FF901E370B9
:10249000FF27309789F4C901B3010E947B30892B53
:1024A00031F4C901B8010E947B30892B29F48EE6F2
:1024B00091E0A0E0B0E004C08DE691E0A0E0B0E0E3
:1024C000880E991EAA1EBB1ED501C401AA27BB27D0
:1024D000C816D906EA06FB0610F04F5FD3CF309737
:1024E00099F4C90164E670E00E947B30892B39F4CD
:1024F000C90160E971E00E947B30892B29F48EE6E6
:1025000091E0A0E0B0E004C08DE691E0A0E0B0E092
:10251000881A990AAA0ABB0AC818D908EA08FB0847
:10252000C90164E670E00E947B308C01C90160E95A
:1025300071E00E947B30A5E2B1E030E0313041F43F
:10254000309751F40115110529F4009729F402C0C0
:102550002C9103C02DE101C02CE1822E912CA12CE5
:10256000B12CC814D904EA04FB0440F0C818D908F7
:10257000EA08FB083F5F11963C3001F73F5FC394C8
:102580002AE0852D622F0E945B3050E1859FB001CB
:102590001124692B6983842D622F0E945B3050E1E6
:1025A000859FB0011124692B6A83832D622F0E94BD
:1025B0005B3050E1859FB0011124692B6B838C2D1A
:1025C000622F0E945B30592F60E1869FC001112469
:1025D000852B8C83822D622F0E945B309D83832FFD
:1025E0000E945B30392F50E1859FC0011124832B5D
:1025F0008E83842F0E945B30292F60E1869FC0016B
:102600001124822B8F8307E010E09E012F5F3F4F44
:1026100041E062E085E395E00E949D1E8985882364
:1026200001F10E94500B6B017C010E94500B2CE3C6
:10263000C20ED11CE11CF11C2CE330E040E050E064
:102640000E943F3CC61AD70AE80AF90AC0922E0433
:10265000D0922F04E0923004F092310481E0809314
:10266000030138853323E1F0E0914A045EE0E59F01
:10267000F0011124E85CFA4F2481358146815781AD
:102680002A873B874C875D870E94500B01E02A8593
:102690003B854C855D850E94EC1081E080931E0394
:1026A0002D960FB6F894DEBF0FBECDBFDF91CF9150
:1026B0001F910F91FF90EF90DF90CF90BF90AF9060
:1026C0009F908F907F906F905F904F903F902F9052
:1026D0000895CF93DF93EB01BC01990F880B990B01
:1026E000AE010E94280ECE01DF91CF910C948F0E87
:1026F000CF93DF93EB01BC0180E090E0AE010E943C
:102700005D0ECE01DF91CF910C948F0EEF92FF9270
:102710000F931F93CF93DF931F92CDB7DEB77C014A
:10272000FC0100811181C80169830E94193C698103
:10273000681719F0C8010E94213CC7010F90DF9172
:10274000CF911F910F91FF90EF9008953FB7F894AC
:102750008091360490913704A0913804B0913904E7
:1027600026B5A89B05C02F3F19F00196A11DB11DEC
:102770003FBFBA2FA92F982F8827820F911DA11D27
:10278000B11DBC01CD0142E0660F771F881F991F64
:102790004A95D1F70895009769F0FC010190002057
:1027A000E9F73197AF01481B590BBC0188E994E068
:1027B0000C94E71680E090E00895CF93DF9320918A
:1027C0000501309106012817390794F0EC0180913A
:1027D0000401882321F061E0CE010E94C70D8CE442
:1027E00094E00E94CB13CE01DF91CF910C948F0E19
:1027F000DF91CF910895CF92DF92EF92FF926B011C
:102800007C0120E030E048EC52E40E943D320E941E
:102810007431CB0164E670E00E947B309F938F930C
:10282000C701B6010E9474317F936F938AE692E0EC
:102830009F938F9385E397E09F938F930E946533D7
:102840008DB79EB708960FB6F8949EBF0FBE8DBF8A
:1028500060E070E085E397E0FF90EF90DF90CF902D
:102860000C940D0E0F931F93CF93DF938C01C0E058
:10287000D0E0F801EC0FFD1F6491662371F0E09148
:102880009804F09199040190F081E02D88E994E09A
:102890000995892B11F02196ECCFCE01DF91CF91D4
:1028A0001F910F910895CF93C82F0E94FC0F209184
:1028B0004B04211102C080E084C0CC23F9F0909138
:1028C0004A0440E050E08EE0BA0162507109623083
:1028D000710568F0992311F0915001C099E0899F2A
:1028E000F0011124E85CFA4F44855585EDCF9093B3
:1028F0003207509334074093330710C0E0914904E6
:10290000E09332078EE0E89FF0011124E85CFA4F73
:10291000848595859093340780933307E09132073F
:102920004E2F50E08EE0E89FF0011124E85CFA4F52
:1029300080819181A281B38180933B0490933C0478
:10294000A0933D04B0933E0484819581A681B78114
:1029500080933F0490934004A0934104B0934204B9
:10296000848595859093480480934704808591855C
:10297000A285B3858093430490934404A0934504B7
:10298000B09346048091330790913407029709F081
:1029900092CF83E090E095878487CA0101966AE030
:1029A00070E00E947B3080934904CC2319F0109290
:1029B0004B0406C0222321F08FEF820F80934B043B
:1029C00081E0CF910895FC016E3E14F0678F02C044
:1029D0008EEE878F878D8E3014F08DE0878F478D38
:1029E0004E5E4F71406861E1CF010C94D7191F937F
:1029F000CF93DF93182FC4ECD5E088819981DC0157
:102A0000ED91FC910688F789E02D612F0995888169
:102A10009981DC01ED91FC91028CF38DE02D612F09
:102A200009951A83DF91CF911F9108958091C40574
:102A30009091C505DC01ED91FC910484F585E02DB4
:102A40000994FF920F931F93CF93DF938C01F62E7F
:102A5000C4ECD5E088819981DC01ED91FC91008C7A
:102A6000F18DE02D642F099588819981DC01ED912C
:102A7000FC910680F781E02D4F2DB801DF91CF91B9
:102A80001F910F91FF900994FF920F931F93CF9383
:102A9000DF931F92CDB7DEB7F62E04EC15E0F801F8
:102AA000A081B181ED91FC911197048CF58DE02D01
:102AB000682FCD010995D8018D919C91DC01ED9194
:102AC000FC91068CF78DE02D40E060E8099581E2ED
:102AD00089834F2D61E0CE0101960E9421150E944D
:102AE00016150F90DF91CF911F910F91FF900895D0
:102AF000CF92DF92EF92FF920F931F93CF93DF93CA
:102B00006C017B018A01E901892B69F08091C40580
:102B10009091C505DC01ED91FC9104A0F5A1E02D9B
:102B20000995F6018083E114F10469F08091C405F0
:102B30009091C505DC01ED91FC9102A0F3A1E02D7F
:102B40000995F70180830115110569F08091C4058D
:102B50009091C505DC01ED91FC9106A0F7A1E02D57
:102B60000995F8018083209761F08091C4059091C8
:102B7000C505DC01ED91FC9100A4F1A5E02D0995BE
:102B8000888381E0DF91CF911F910F91FF90EF90AB
:102B9000DF90CF90089590E0FC01ED56FB4F34910B
:102BA000FC01EF54FB4F2491FC01EB53FB4FE491EC
:102BB000EE2309F43BC0332339F1333091F038F47C
:102BC0003130A9F0323001F584B58F7D12C0373035
:102BD00091F03830A1F03430B9F4809180008F7DCD
:102BE00003C0809180008F77809380000DC084B5F2
:102BF0008F7784BD09C08091B0008F7703C080912A
:102C0000B0008F7D8093B000F0E0EE0FFF1FE7571C
:102C1000FB4FA591B4918FB7F894EC91611103C06B
:102C200020952E2301C02E2B2C938FBF0895CF9378
:102C3000DF9390E0FC01EF54FB4F2491FC01EB5338
:102C4000FB4F8491882361F190E0880F991FFC016C
:102C5000E955FB4FC591D491FC01E757FB4FA59176
:102C6000B491611109C09FB7F8948881209582239F
:102C70008883EC912E230BC0623061F49FB7F894E7
:102C80003881822F809583238883EC912E2B2C937F
:102C90009FBF06C08FB7F894E8812E2B28838FBF83
:102CA000DF91CF910895CF93CFB7F89480913A04F4
:102CB000811127C0EFECF4E08491EBEBF4E0949108
:102CC000E82FF0E0EE0FFF1FE955FB4FA591B491FF
:102CD000EC91E92321F461E08AE00E94CB1561E0E8
:102CE0008AE00E9417168CB580618CBD8CB580641B
:102CF0008CBD61E08DE00E94171661E08BE00E94C0
:102D0000171680913A048F5F80933A04CFBFCF911A
:102D100008958E3008F08E508770806480937C0018
:102D200080917A00806480937A0080917A0086FD99
:102D3000FCCF809178002091790090E0922B08954B
:102D40008F929F92AF92BF92CF92DF92EF92FF92BB
:102D50006B017C010E94A6134B015C01C114D104DC
:102D6000E104F104F1F00E94A613DC01CB01881903
:102D70009909AA09BB09883E9340A105B10570F3E2
:102D800021E0C21AD108E108F10888EE880E83E03C
:102D9000981EA11CB11CC114D104E104F10419F75F
:102DA000DDCFFF90EF90DF90CF90BF90AF909F90DE
:102DB0008F9008952FB7F894609132047091330486
:102DC00080913404909135042FBF08950895CF92D7
:102DD000DF92EF92FF920F931F93CF93DF936C01DB
:102DE0007A018B01C0E0D0E0CE15DF0589F0D80173
:102DF0006D918D01D601ED91FC910190F081E02D56
:102E0000C6010995892B11F47E0102C02196ECCFF1
:102E1000C701DF91CF911F910F91FF90EF90DF904D
:102E2000CF900895089580E090E00895FC01538DBF
:102E3000448D252F30E0842F90E0821B930B541794
:102E400010F0CF96089501970895FC01918D828D21
:102E5000981761F0828DDF01A80FB11D5D968C91EE
:102E6000928D9F5F9F73928F90E008958FEF9FEFF9
:102E70000895FC01918D828D981731F0828DE80FB5
:102E8000F11D858D90E008958FEF9FEF0895FC016F
:102E9000918D228D892F90E0805C9F4F821B91093C
:102EA0008F739927089588E994E00E94471721E0DD
:102EB000892B09F420E0822F0895FC01848DDF0125
:102EC000A80FB11DA35ABF4F2C91848D90E001969D
:102ED0008F739927848FA689B7892C93A089B1898C
:102EE0008C9180648C93938D848D981306C0028896
:102EF000F389E02D80818F7D80830895EF92FF928A
:102F00000F931F93CF93DF93EC0181E0888F9B8D0C
:102F10008C8D981305C0E889F989808185FD24C0CE
:102F2000F62E0B8D10E00F5F1F4F0F731127E02E51
:102F30008C8DE8120CC00FB607FCFACFE889F9892E
:102F4000808185FFF5CFCE010E945D17F1CF8B8D7B
:102F5000FE01E80FF11DE35AFF4FF0820B8FEA8963
:102F6000FB898081806207C0EE89FF896083E889E0
:102F7000F98980818064808381E090E0DF91CF9146
:102F80001F910F91FF90EF900895CF93DF93EC0185
:102F9000888D8823C9F0EA89FB89808185FD05C079
:102FA000A889B9898C9186FD0FC00FB607FCF5CFB3
:102FB000808185FFF2CFA889B9898C9185FFEDCFFB
:102FC000CE010E945D17E7CFDF91CF91089580E099
:102FD00090E0892B29F00E94531781110C94000076
:102FE0000895FC01738362830895FC0177836683EF
:102FF0000895FC01758364830895089508958CE312
:1030000008950E942933CF93DF93EC01888D998D29
:10301000DC01ED91FC910680F781E02D099561E0DE
:103020008A8D0E94171661E08A8D0E94CB1564E696
:1030300070E080E090E00E94A01681E0DF91CF91E7
:103040000895CF92DF92EF92FF920F931F93CF9349
:10305000DF93EC016B018A01E881F9810280F38141
:10306000E02D0995F82E8823E1F0C114D104B1F0C8
:103070000115110599F0EFB6F89488A1F801908137
:10308000891710F488A18083F801408150E0BE01C7
:103090006F5D7F4FC6010E942E33EFBEC35ADF4FD4
:1030A00018828F2DDF91CF911F910F91FF90EF909C
:1030B000DF90CF900895E9E6F0E02081880F991F16
:1030C000880F991F237F822B8083E99A08951F928E
:1030D0000F920FB60F9211242F933F934F935F934C
:1030E0006F937F938F939F93AF93BF93EF93FF93D0
:1030F000E0910901F0910A010995FF91EF91BF91CB
:10310000AF919F918F917F916F915F914F913F917F
:103110002F910F900FBE0F901F9018951F920F9236
:103120000FB60F9211242F933F934F935F936F939A
:103130007F938F939F93AF93BF93EF93FF93E09110
:103140000701F09108010995FF91EF91BF91AF91AF
:103150009F918F917F916F915F914F913F912F91AF
:103160000F900FBE0F901F901895952F8230A8F4E6
:10317000E82FF0E0EE0FFF1FE95FFE4F71836083E1
:10318000813041F0809169008C7F482B4093690029
:10319000E89A0895842F0C945B1808951F920F925B
:1031A0000FB60F9211242F933F934F935F936F931A
:1031B0007F938F939F93AF93BF93EF93FF9388E990
:1031C00094E00E945D17FF91EF91BF91AF919F91A5
:1031D0008F917F916F915F914F913F912F910F90C0
:1031E0000FBE0F901F9018951F920F920FB60F925F
:1031F00011242F938F939F93EF93FF93E091A80453
:10320000F091A9048081E091AE04F091AF0482FDB9
:1032100012C090818091B1048F5F8F732091B204AE
:10322000821751F0E091B104F0E0E856FB4F958F22
:103230008093B10401C08081FF91EF919F918F91A4
:103240002F910F900FBE0F901F9018951F920F9205
:103250000FB60F9211248F930FB6F894A895809112
:103260006000886180936000109260000FBE8F91B3
:103270000F900FBE0F901F9018954115510529F41E
:10328000EAE7F0E080818F7780836A307105A9F0EA
:1032900063FD02C088E001C088E26770682B88E1A6
:1032A0000FB6F894A895809360000FBE60936000FD
:1032B000E0E6F0E0808180648083232BA1F483B773
:1032C000817F846083BFF89483B7816083BF85B7B3
:1032D000806685BF8F7D85BF7894889583B78E7F04
:1032E00083BF78940EC083B7817F846083BFF894D6
:1032F00083B7816083BF7894889583B78E7F83BFBF
:103300007894452B29F4EAE7F0E080818068808397
:103310000895AF92BF92DF92EF92FF920F931F93A7
:10332000CF93DF9300D0CDB7DEB78C01E62EF42E1D
:10333000DFB6F89460E0DC015A968C9129835A83B9
:103340000E94CB15F801808D918DDC01ED91FC91EF
:103350006E2D60680190F081E02D0995E82EAF2C6C
:103360005A81B52E2981F20EFA1471F0F801808D80
:10337000918DD5016D915D01DC01ED91FC91019084
:10338000F081E02D0995F0CF61E0F801828D0E9477
:10339000CB15DFBE8E2D0F900F90DF91CF911F9137
:1033A0000F91FF90EF90DF90BF90AF900895EF9254
:1033B000FF920F931F93CF93DF931F92CDB7DEB78A
:1033C0007C01162F0FB7F89460E0DC015A968C91BF
:1033D00049830E94CB15F701808D918DDC01ED9121
:1033E000FC91612F60680190F081E02D0995182F04
:1033F000F701808D918DDC01ED91FC910190F081C0
:10340000E02D4981642F099561E0F701828D0E94CA
:10341000CB150FBF812F0F90DF91CF911F910F918F
:10342000FF90EF900895CF93DF93FC0122813381C9
:103430002130310549F0EC0140E061E00E94D719EC
:1034400081E090E09B838A8381E0DF91CF910895B2
:103450000F931F93CF93DF93EC01162F0FB7F894C0
:1034600060E08A8D0E94CB15888D998DDC01ED91ED
:10347000FC91612F6F770190F081E02D0995888D87
:10348000998DDC01ED91FC910190F081E02D60E0DF
:103490000995182F61E08A8D0E94CB150FBF812FEF
:1034A000DF91CF911F910F9108950F931F93CF93A9
:1034B0008C01C62F61E00E94281A837ECC71482FB0
:1034C0004C2B61E0C8010E94D71967E2C8010E9435
:1034D000281A87FFFACFCF911F910F910895CF93AC
:1034E000DF93FC01228133812330310519F1EC0196
:1034F000828193810497D1F0878D823154F045E524
:103500006AE5CF010E94D71940E76CE5CE010E9421
:10351000D71940E465E2CE010E94D71960E1CE01DF
:103520000E94551A84E090E09B838A83C35ADF4F40
:10353000888101C080E0DF91CF910895CF93DF9320
:10354000EC016DE30E94281A482F4E7F6DE3CE01F7
:10355000DF91CF910C94D7190F931F93CF93DF93E3
:10356000EC018B0125E0AB0162E00E948919A80102
:103570004B5F5F4F22E069E1CE010E948919F8019B
:10358000478167E3CE01DF91CF911F910F910C949A
:10359000D719CF93DF93FC0122813381223031058B
:1035A000B1F0EC01878D823154F045E56AE5CF0139
:1035B0000E94D71940E76CE5CE010E94D7196D8DA6
:1035C000CE010E94551A82E090E09B838A83DF91AE
:1035D000CF910895BF92CF92DF92EF92FF920F9317
:1035E0001F93CF93DF93EC01B62EC72E142F4D33CC
:1035F00010F000E08BC0E881F9810484F585E02DAE
:103600000995CE010E94C91AE881F9810288F389DF
:10361000E02DCE010995082F882359F3DFB6F894E1
:1036200060E08A8D0E94CB15888D998DDC01ED912B
:10363000FC910190F081E02D60E80995A88DB98D8D
:10364000ED91FC9111970190F081E02D64E0610F04
:10365000CD010995888D998DDC01ED91FC9101904A
:10366000F081E02D6A850995888D998DDC01ED91B9
:10367000FC910190F081E02D6B850995888D998DE5
:10368000DC01ED91FC910190F081E02D6C850995B4
:10369000888D998DDC01ED91FC910190F081E02DF8
:1036A0006D850995EB2CFC2C115068F0888D998D57
:1036B000F70161917F01DC01ED91FC910190F081B6
:1036C000E02D0995F1CF61E08A8D0E94CB15DFBE18
:1036D0008A819B810397D1F08F8D823154F04DE523
:1036E0006AE5CE010E94D7194CE76CE5CE010E9435
:1036F000D71940E065E2CE010E94D7196CE0CE01F7
:103700000E94551A83E090E09B838A83802FDF918B
:10371000CF911F910F91FF90EF90DF90CF90BF90CE
:103720000895EF92FF920F931F93CF93DF93EC01D5
:1037300068E20E94281A182F8A819B81039711F44E
:1037400013FD08C08A819B81049709F0A2C012FD75
:103750000BC09FC0CE010E94C91A2B893C892F5FE4
:103760003F4F3C8B2B8BEECF64E2CE010E94281A98
:10377000869581958E870E94DA16FE01E25AFF4FE8
:103780006083718382839383CE010E94C91AFFB63E
:10379000F89460E08A8D0E94CB15888D998DDC01AC
:1037A000ED91FC910190F081E02D60E00995888D0C
:1037B000998DDC01ED91FC910190F081E02D60E0AC
:1037C0000995082F8CEF800F8D3300F5888D998D2A
:1037D000DC01ED91FC910190F081E02D60E0099514
:1037E0008E838D81811118C09E818C819817A1F0E4
:1037F0008E818F3F59F410C089899A8901969A8BDE
:10380000898B81E0FE01E35AFF4F808361E08A8D5E
:103810000E94CB15FFBE3DC0888D998DDC01ED91D6
:10382000FC910190F081E02D60E009958F83888DF7
:10383000998DDC01ED91FC910190F081E02D60E02B
:1038400009958887888D998DDC01ED91FC91019017
:10385000F081E02D60E00995898718A210E00450FE
:10386000110988A190E08017910734F6E8A0888DAF
:10387000998DDC01ED91FC910190F081E02D60E0EB
:103880000995FE01EE0DF11D81A388A18F5F88A32C
:10389000E8CFDF91CF911F910F91FF90EF900895A6
:1038A00080914D0790914E07009711F00C94911B59
:1038B000089580914B0790914C07009711F00C945C
:1038C000911B08958091490790914A07009711F044
:1038D0000C94911B08959FB7F89480913A04882323
:1038E00019F0815080933A0480913A04811105C007
:1038F0008CB58F7B8CBD109254079FBF08958CB5FB
:103900008F778CBD08958CB580688CBD08959CB56B
:10391000282F23709C7F922B9CBD2DB582FB99276D
:1039200090F9822F8E7F892B8DBD089580E00895B8
:10393000FC0181850895FC0180850895FC01878143
:103940000895FC0186810895FC01409595854923E1
:10395000642B65870895FC0164870895FC016387E3
:103960000895FC0162870895FC0164830895FC01B9
:103970006583089580E00895FC012281338123301E
:103980003105D1F381E00895CF93DF93EC01E88115
:10399000F9810280F381E02DCE0109958823B9F3E6
:1039A000DF91CF91089581E008958EBD00000DB4A0
:1039B00007FEFDCF8EB50895862F0C94D51CEF928F
:1039C000FF920F931F93CF93DF93CDB7DEB72A9764
:1039D0000FB6F894DEBF0FBECDBF8C010E94031856
:1039E000E82E811102C0E12CA5C0F801838D823040
:1039F00029F08330C1F7FF24F39401C0F12C60E17A
:103A0000C8010E94281AF801868F9FEF980F9E3FE9
:103A100050F760E0F801838D0E941716F801848D3D
:103A20008F3F49F4809155078430E8F691E0980F74
:103A300090935507848FF801948DE92FF0E0EE0FF5
:103A4000FF1FE75BF84F11830083911105C043E02E
:103A500050E062E67CE10EC0913029F443E050E092
:103A600069E57CE107C0923009F0BDCF43E050E04A
:103A700060E57CE18F2D0E94B518C8010E94C91A2B
:103A80004FE86CE3C8010E94D71940E36FE6C80114
:103A90000E94D71945E56AE5C8010E94D71940E799
:103AA0006CE5C8010E94D7198DE2898784ED8A8769
:103AB0006EE2C8010E94281AF82E22E0AE01475F8C
:103AC0005F4F6FE2C8010E9489194F2D477C4868FB
:103AD0006EE2C8010E94D71948E050E06EE675E03A
:103AE000CE0101960E943939BE016F5F7F4FC80138
:103AF0000E94AC1A40E06CE2C8010E94D71944E071
:103B00006DE2C8010E94D7194CE667E0C8010E9427
:103B1000D71940E868E0C8010E94D71940E069E081
:103B2000C8010E94D719C8010E949E1A6DE0C80101
:103B30000E94E3148E2D2A960FB6F894DEBF0FBEB6
:103B4000CDBFDF91CF911F910F91FF90EF9008951E
:103B5000CF93FC01268137812115310549F02130B1
:103B6000310541F02230310539F02330310531F093
:103B700020E005C024E003C028E001C02CE09CB593
:103B8000937F922B9CBD848195810197C1F48CB564
:103B900080628CBD8281938101978430910528F4E5
:103BA000FC01E957FE4FC08101C0C1E08C2F0E948B
:103BB000871C0E9453168C2FCF910C94871C9CB5A8
:103BC0009F7D9CBDE7CF8F929F92AF92BF92CF9285
:103BD000DF92EF92FF92CF93DF93EC016B010E9493
:103BE000DA164B015C01E12CF12C0E94DA16DC01A3
:103BF000CB0188199909AA09BB098C159D05AE0549
:103C0000BF0530F48A819B81039779F381E001C07D
:103C100080E0DF91CF91FF90EF90DF90CF90BF9049
:103C2000AF909F908F9008958F929F92AF92BF9286
:103C3000CF92DF92EF92FF92CF93DF93EC016B0173
:103C40000E94DA164B015C01E12CF12C0E94DA167D
:103C5000DC01CB0188199909AA09BB098C159D05BE
:103C6000AE05BF0550F4E881F9810280F381E02DB3
:103C7000CE010995882351F301C080E0DF91CF91F7
:103C8000FF90EF90DF90CF90BF90AF909F908F907C
:103C900008958F929F92AF92BF92CF92DF92EF9250
:103CA000FF92CF93DF93FC0126893789232B11F4F0
:103CB00081E038C0EC010E94DA166B017C0189E0DA
:103CC000882E912CA12CB12CE881F9810488F589EA
:103CD000E02DCE010995882359F30E94DA16AB0135
:103CE000BC014C195D096E097F098E899F89A0E08E
:103CF000B0E084179507A607B70798F00E94FF3633
:103D0000A50194010E94613C9B01AC012F5F3F4FD4
:103D10004F4F5F4FA4E6B0E00E94803C0E94A01687
:103D2000D3CF80E0DF91CF91FF90EF90DF90CF90E5
:103D3000BF90AF909F908F900895BF92CF92DF92E7
:103D4000EF92FF920F931F93CF93DF937C01C62FC7
:103D5000D42EB22EC32EFC01218182819091540772
:103D6000992379F09FB7F89430915407313039F4A2
:103D70003DB3309353073DB33DBB9FBF02C090930B
:103D800053072CBD8DBD61E0F70180810E94CB15EA
:103D9000DD2011F080E101C080E98C2B0E94D51C50
:103DA000CB2DDC2D0C0F1D1FC017D10761F0D110DA
:103DB00005C080E00E94D51C888303C088810E94D2
:103DC000D51C2196F1CF60E0F70180810E94CB15D0
:103DD00080915407882361F09FB7F894209154078D
:103DE00080915307213019F48DBB9FBF01C08FBF55
:103DF000DF91CF911F910F91FF90EF90DF90CF90C7
:103E0000BF900895CF93DF93EB010E94193C888304
:103E1000CE01DF91CF9108950F931F93CF93DF933E
:103E20008C01EB010E94193C8883C80101960E9415
:103E3000193C8983CE01DF91CF911F910F91089595
:103E4000CF93DF93EB010E94193C8883CE01DF9171
:103E5000CF9108950F931F93CF93DF9300D0CDB7E9
:103E6000DEB78B01FB0160819A838983CE010196C5
:103E70000E948613C8010F900F90DF91CF911F9180
:103E80000F910895EF92FF920F931F93CF93DF93BB
:103E900000D0CDB7DEB78C017B01FB0160819A8336
:103EA0008983CE0101960E948613F70161810F5F1D
:103EB0001F4F1A830983CE0101960E948613C70102
:103EC0000F900F90DF91CF911F910F91FF90EF9086
:103ED00008950F931F93CF93DF9300D0CDB7DEB734
:103EE0008B01FB0160819A838983CE0101960E9438
:103EF0008613C8010F900F90DF91CF911F910F9102
:103F000008950F931F93CF93DF9380914F07909164
:103F10005007A0915107B0915207892B8A2B8B2B08
:103F2000A9F00E94500B00914F071091500720916B
:103F3000510730915207DC01CB01801B910BA20B82
:103F4000B30B84389340A105B10588F189ED94E065
:103F50009F938F93CCE4D4E0DF93CF930E94753985
:103F60000E94500B9F938F937F936F93DF93CF9318
:103F700082E792E09F938F93DF93CF930E94653304
:103F800061E080912A030E94FA030E94500B609323
:103F90004F077093500780935107909352078DB746
:103FA0009EB70E960FB6F8949EBF0FBE8DBFDF91E1
:103FB000CF911F910F9108951F920F920FB60F92FC
:103FC00011242F933F938F939F93AF93BF9380912F
:103FD000320490913304A0913404B09135043091AF
:103FE000560723E0230F2D3720F40196A11DB11DA4
:103FF00005C026E8230F0296A11DB11D2093560788
:104000008093320490933304A0933404B093350426
:104010008091360490913704A0913804B09139040E
:104020000196A11DB11D8093360490933704A0938F
:104030003804B0933904BF91AF919F918F913F9114
:104040002F910F900FBE0F901F901895CF93DF9375
:10405000CDB7DEB7AF970FB6F894DEBF0FBECDBFBA
:10406000789484B5826084BD84B5816084BD85B553
:10407000826085BD85B5816085BD80916E0081605F
:1040800080936E0010928100809181008260809305
:104090008100809181008160809381008091800007
:1040A0008160809380008091B10084608093B10032
:1040B0008091B00081608093B00080917A0084602C
:1040C00080937A0080917A00826080937A00809158
:1040D0007A00816080937A0080917A008068809372
:1040E0007A001092C10060E086E00E94171661E03D
:1040F00084E00E94171660E084E00E94CB1560E027
:104100008EE00E94171660E083E00E9417168091EF
:104110002303882311F060E001C062E08FE00E9479
:10412000171662E085E00E94171662E088E00E94A0
:10413000171662E089E00E94171662E080E10E9493
:10414000171662E081E10E94171662E082E10E9488
:10415000171662E083E10E941716E091A804F0911F
:10416000A90482E08083E091A404F091A504108268
:10417000E091A604F091A70480E180831092B0043E
:10418000E091AC04F091AD0486E08083E091AA0454
:10419000F091AB04808180618083E091AA04F0916A
:1041A000AB04808188608083E091AA04F091AB0425
:1041B000808180688083E091AA04F091AB048081C3
:1041C0008F7D808380E090E00E948F0E80E090E001
:1041D0000E948F0E60E070E08BE990E00E94C00EBC
:1041E00010915D0760E070E08CE790E00E94EC0DBC
:1041F000C12ED12CE12CF12C19A2CE018196B70150
:10420000A6014F7055276627772724E0F694E79498
:10421000D794C7942A95D1F701974A305105610583
:10422000710510F4405D01C0495CDC014C93C11480
:10423000D104E104F10419F70E94CB1313FF07C066
:1042400060E070E088E790E00E94EC0D177F12FFBD
:1042500007C060E070E084E790E00E94EC0D1B7FF7
:1042600011FF07C060E070E080E790E00E94EC0D75
:104270001D7F10FF07C060E070E08CE690E00E94B8
:10428000EC0D1E7F112331F060E070E088E690E0D5
:104290000E94EC0D80E090E00E948F0E1DA21CA2F7
:1042A0001BA21AA2FE013196F8A7EFA380E111929A
:1042B0008A95E9F7A895BE016B5D7F4F80E090E09D
:1042C0000E94201F8DA1853038F490E09093060164
:1042D0008093050111E001C010E0BE016B5D7F4FCE
:1042E00081E090E00E94201F8DA18F3F21F060E0CF
:1042F0000E94C10301C010E0BE016E5D7F4F82E0ED
:1043000090E00E940C1F8AA19BA1893BFBE09F07C4
:1043100028F490932E0380932D0301C010E0BE017A
:104320006B5D7F4F84E090E00E94201F8DA18F3F46
:1043300019F080932F0301C010E0BE016E5D7F4F26
:1043400085E090E00E940C1F8AA19BA19C01215056
:104350003109283E3D4F28F4909331038093300378
:1043600001C010E0BE016C5D7F4F87E090E00E94CD
:10437000021F8CA192E1980F903208F45FC310E005
:10438000BE016C5D7F4F88E090E00E94021F8CA10F
:1043900094E6980F953618F48093DC0201C010E083
:1043A000A895BE016B5D7F4F89E090E00E94201FC1
:1043B0008DA19FEF980F9E3F18F48093CF0601C008
:1043C00010E0BE016B5D7F4F8AE090E00E94201FED
:1043D0008DA19FEF980F9E3F18F480932A0301C090
:1043E00010E0BE016B5D7F4F8BE090E00E94201FCC
:1043F0008DA18F3F19F08093E00201C010E0BE0153
:104400006B5D7F4F8CE090E00E94201F8DA18F3F5D
:1044100019F08093DF0201C010E0BE016B5D7F4F99
:104420008DE090E00E94201F8DA19FEF980F9E3F8E
:1044300018F48093DE0201C010E0BE016B5D7F4F77
:104440008EE090E00E94201F8DA19FEF980F9E3F6D
:1044500018F48093DD0201C010E080E1AFA1B8A59F
:104460001D928A95E9F7FE0131967F019FE0C92EE2
:10447000D12C0FA1005FB701C6010E94201FF701D8
:104480008081FFEFEF1AFF0A80528F3508F010E0AD
:104490002FEFC21AD20A0E11EECF112381F080E164
:1044A000E1EEF2E0DF01282F1D922A95E9F7FE01E7
:1044B0003196A1EEB2E001900D928A95E1F7BE012E
:1044C0006B5D7F4F8FE190E00E94201F8DA18230B5
:1044D00058F061E070E085E890E00E94C00E0E9414
:1044E000D3090E945B0A04C080932303112389F33C
:1044F0000E940E0364E070E082E990E00E94C00E2A
:1045000088E5898301E010E09E012F5F3F4F41E085
:1045100060E085E395E00E949D1E0E94811F0E943D
:10452000500B6093D6027093D7028093D802909379
:10453000D9028B019C0100581644284638450138A1
:104540001F4222413E4338F020E041E060E876E43B
:1045500088E698E512C0E0914A04AEE0EA9FF001D7
:104560001124E85CFA4F0081118122813381012BF3
:10457000022B032B21F421E041E00E94CA1113E039
:104580005C9A64EF71E080E090E00E94A0165C9875
:104590006AEF70E080E090E00E94A016115081F771
:1045A0008091D6029091D702A091D802B091D90201
:1045B00080933C0390933D03A0933E03B0933F034D
:1045C0008DE890E09F938F930CE414E01F930F937A
:1045D0000E94753980915D071F928F931F928AE028
:1045E0008F931F930F938BE891E09F938F931F936B
:1045F0000F930E94653360E080912A030E94FA03C2
:104600000FB6F894DEBF0FBECDBF8091230381307B
:10461000F1F48FE090E0909391028093900283E315
:1046200093E3AEEDB2E48093960290939702A09349
:104630009802B093990280E090E0A0E0B4E4809307
:10464000B2029093B302A093B402B093B50299E280
:1046500088E10FB6F894A895809360000FBE909300
:1046600060009E012F5F3F4F6901CE0182969EA799
:104670008DA71E0194E2290E311C8CE4E82E84E003
:10468000F82E81E080939703DE019596BAA7A9A73B
:10469000FE01B696FCA7EBA780919703873008F040
:1046A000CAC188E994E00E942517A8951816190632
:1046B0000CF04DC0E0919603E1111DC09C012F7DCF
:1046C0002A353105C1F49091020181E08927809358
:1046D000020160E070E089EA90E00E94EC0D8091B8
:1046E0000201811103C082EA90E002C086EA90E0F4
:1046F00060E070E018C09C0120523109203631057D
:1047000048F08D30910511F40C94552F88309105A7
:1047100069F01DC0E732D8F40BC00E94070E60E0BC
:1047200070E08CE092E00E94C00E11C0E73220F4ED
:104730008830910509F045C4E150E0939603F0E01C
:10474000E15BFC4F108286EA91E00E94CB138091DE
:104750007C038823D1F080917B03882309F475C101
:104760000E94DA1600917703109178032091790363
:1047700030917A03DC01CB01801B910BA20BB30BB0
:104780000A97A105B10508F05CC1A8958091960330
:1047900081112EC080912D0390912E03892B41F120
:1047A00080911A0390911B03A0911C03B0911D03EB
:1047B000892B8A2B8B2BE1F00E94DA1600911A03C9
:1047C00010911B0320911C0330911D03AB01BC0110
:1047D000401B510B620B730B80912D0390912E03A4
:1047E000A0E0B0E0481759076A077B0708F053C1FB
:1047F00080919603811119C18091970380FFA5C014
:104800008091280390912903892B89F00091280336
:10481000109129030E94500B980140E050E000E005
:104820000E94EC10109229031092280302C00E94EB
:10483000FC0F80911E03811112C080914B048823CC
:1048400009F464C08091240390912503A09126036C
:10485000B0912703892B8A2B8B2B09F057C081E05D
:104860000E945314882309F449C081EC92E09F937D
:104870008F93FF92EF920E94753920913F043091FF
:104880004004409141045091420460911F03709193
:10489000200380912103909122030E94850D9F9314
:1048A0008F937F936F9380913E048F9380913D040B
:1048B0008F9380913C048F9380913B048F93FF9260
:1048C000EF928EEB91E09F938F93FF92EF920E9475
:1048D000653360E080912A030E94FA030E94500B26
:1048E00060932403709325038093260390932703FA
:1048F0000FB6F894DEBF0FBECDBF06C061E070E01A
:1049000082EB92E00E94C00E10921E0380914B0435
:10491000843008F0CCC0882309F487C00E94500B73
:104920000091240310912503209126033091270341
:10493000DC01CB01801B910BA20BB30B8C3291409D
:10494000A105B10508F0B3C070C0823009F04DC0B8
:10495000809100019091010188359240E1F00E9420
:10496000500B009138031091390320913A03309194
:104970003B03AB01BC01401B510B620B730B8091DD
:10498000360390913703A0E0B0E0481759076A0753
:104990007B0708F0C6C18091320390913303A09148
:1049A0003403B0913503892B8A2B8B2B09F4C0C1BA
:1049B0000E94500B00913203109133032091340375
:1049C00030913503AB01BC01401B510B620B730BE3
:1049D0008091000190910101A0E0B0E048175907D3
:1049E0006A077B0708F0A4C120C0843019F40E9434
:1049F000811F1BC08630C9F4809102018823A9F071
:104A00000E94500B00913C0310913D0320913E0306
:104A100030913F03DC01CB01801B910BA20BB30B48
:104A20000F97A105B10508F06EC2809197038F5FC3
:104A30008093970331CE0E94E71723CE8093DB0249
:104A40009FCC10927B035C981BC00E94DA160091E9
:104A50007703109178032091790330917A03DC0178
:104A6000CB01801B910BA20BB30B883E9340A10599
:104A7000B10508F48ACE81E080937B030E940F0A7F
:104A80000E94DA166093770370937803809379031A
:104A900090937A037ACE5C9810921A0310921B03BB
:104AA00010921C0310921D0310921903A1CE809145
:104AB0002303813019F48BEC92E002C086EC92E083
:104AC0009F938F93FF92EF920E9475390F900F90F2
:104AD0000F900F9080912303813011F084E001C08A
:104AE00082E080938303E0914904FEE0EF9FD001D0
:104AF0001124A85CBA4F4D905D906D907C9021E0A0
:104B0000421A510861087108EE2311F0E15001C00A
:104B1000E9E03EE0E39FF0011124E85CFA4F2481D4
:104B200035814681578160911F03709120038091E8
:104B30002103909122030E94850D4B015C01BF92DD
:104B4000AF929F926F937F926F925F924F92FF927C
:104B5000EF928EEB91E09F938F93FF92EF920E94E2
:104B6000653381E080938203809381030FB6F894CC
:104B7000DEBF0FBECDBF1EE080918103882309F404
:104B8000C0C09091820380918303891708F4B9C053
:104B900080E00E94531480938103882309F4ABC002
:104BA00020913F04309140044091410450914204CF
:104BB00060911F0370912003809121039091220343
:104BC0000E94850D60937D0370937E0380937F0325
:104BD0009093800320913B0430913C0440913D042C
:104BE00050913E04241535054605570508F464C068
:104BF000681579058A059B0508F45EC0DC01CB01C8
:104C000088199909AA09BB09BF93AF939F938F9302
:104C1000E09149041E9FF0011124E85CFA4F808165
:104C20009181A281B381821B930BA40BB50BBF931F
:104C3000AF939F938F93FF92EF92A9ECB1E0BF9354
:104C4000AF93FF92EF920E9465330FB6F894DEBFE8
:104C50000FBECDBF80912303813071F54090430496
:104C600050904404609045047090460420E030E089
:104C700048EC52E4C301B2010E943D320E947431FB
:104C8000CB0164E670E00E947B309F938F93C30159
:104C9000B2010E9474317F936F93FF92EF92A4ED63
:104CA000B1E0BF93AF93FF92EF920E9465330FB6CE
:104CB000F894DEBF0FBECDBFE09149041E9FF00106
:104CC0001124E85CFA4F40805180628073808091AB
:104CD0003B0490913C04A0913D04B0913E04481ADD
:104CE000590A6A0A7B0A80907D0390907E03A09007
:104CF0007F03B0908003809182038F5F8093820353
:104D00003BCF60E080912A030E94FA030E94500B7F
:104D100060932403709325038093260390932703C5
:104D200084CE88E592E0909301018093000133CE18
:104D30001092860310918603133068F48EE00E946F
:104D4000891664E670E080E090E00E94A0161F5F84
:104D500010938603EFCF1092850310928403109274
:104D60008603109186031A3088F48EE00E9489161B
:104D70002091840330918503820F931F90938503C4
:104D8000809384031F5F10938603EBCF809184038D
:104D9000909185036AE070E00E94673080E090E0C7
:104DA0000E94AA3126E636E24BE953E40E94023122
:104DB0002DEC3CEC4CE650E40E943D3220E030E02B
:104DC0004AE754E40E943D320E947B31709388038D
:104DD0006093870364E070E080ED92E00E94EC0D48
:104DE00064E070E080918703909188030E947813BB
:104DF0000E94500B00913C0310913D0320913E0313
:104E000030913F03DC01CB01801B910BA20BB30B54
:104E10008093890390938A03A0938B03B0938C03B0
:104E200080EE92E09F938F93FF92EF920E947539EC
:104E3000F0913003A0913103E0912F0360912D0395
:104E400070912E0330912C0320912B03422F022EC0
:104E5000000C550B80915707909158070F900F90B9
:104E60000F900F90009711F48EE597E0AF93FF93AA
:104E70001F92EF937F936F931F923F935F932F93B4
:104E8000D601A81BB90BCD019F93AF9380919003DE
:104E90008F9380918F038F9380918E038F93809156
:104EA0008D038F9380918C038F9380918B038F93CD
:104EB00080918A038F93809189038F9380918803D7
:104EC0008F93809187038F93FF92EF928FED91E004
:104ED0009F938F93FF92EF920E94653361E08091E0
:104EE0002A030E94FA030E94500B609332037093CE
:104EF000330380933403909335030FB6F894DEBFE9
:104F00000FBECDBF92CD0E94500B60939203709361
:104F10009303809394039093950380ED96E00E9411
:104F2000131A61E08AE00E94CB1561E087E00E94DD
:104F3000CB1588E994E00E94C5170FB6F894A895A0
:104F400080916000886180936000109260000FBEC5
:104F500020E030E040E050E06AE070E081E993E07A
:104F60000E943D1999E288E10FB6F894A8958093C4
:104F700060000FBE909360000E94500B00918D0363
:104F800010918E0320918F033091900340909203F3
:104F90005090930360909403709095030419150941
:104FA00026093709DC01CB01800F911FA21FB31F17
:104FB00080938D0390938E03A0938F03B0939003FF
:104FC00034CD8D30910509F05CC780E090E00E94FF
:104FD0008F0E8091960310929603882309F4B7CB25
:104FE00084E1AFA1B8A51D928A95E9F710927D03DF
:104FF00010927E0310927F03109280036DEA72E09C
:105000008FE493E00E94510D813029F40E949E0E9E
:1050100001E010E002C000E010E068EA72E08FE416
:1050200093E00E94510D813009F03BC1E0914A04A8
:105030008EE08E9FF0011124E85CFA4FABE3B4E000
:1050400001900D928A95E1F70E94070E60E070E0F2
:1050500082EA92E00E94EC0D60911F0370912003A0
:10506000809121039091220320E030E0A9010E9469
:10507000850D40E050E00E947D0E60E070E08BE91D
:1050800092E00E94EC0D20913F0430914004409149
:1050900041045091420460911F037091200380915C
:1050A0002103909122030E94850D40E050E00E9470
:1050B0007D0E80E090E00E948F0E0E94540C609361
:1050C00040037093410380934203909343030E94F3
:1050D000070E60E070E089EB90E00E94EC0D6091BB
:1050E00040037091410380914203909143030E94D9
:1050F000FB1360E070E080EB90E00E94EC0D20E09C
:1051000030E046E653E460914003709141038091A2
:105110004203909143030E943D320E94FB1360E0E2
:1051200070E08EEA90E00E94C00E0E94070E60E0E0
:1051300070E086E992E00E94EC0D80912803909146
:10514000290360E070E00E9478130E94070E60E07F
:1051500070E08AE892E00E94EC0D80914B0460E0E0
:1051600070E090E00E9469130E94070E60E070E01A
:1051700080E892E00E94EC0D609124037091250379
:10518000809126039091270340E050E00E945D0E3D
:1051900080E090E00E948F0E0E94070E60E070E0B9
:1051A00087E792E00E94EC0D80914A0460E070E095
:1051B00090E00E9469130E94070E60E070E08FE6A5
:1051C00092E00E94EC0D8091490460E070E090E074
:1051D0000E9469130E94070E60E070E08FEB90E080
:1051E0000E94C00E10E0812F0E94DF0E1F5F1A3058
:1051F000D1F70E94070E60E070E089E692E00E941D
:10520000EC0D60E070E080918703909188030E942C
:1052100078130E94070E60E070E084E692E00E943E
:10522000EC0D8091570790915807009711F48EE587
:1052300097E060E070E0EDA5FEA5E81BF90BCF015B
:105240000E9478130E94070E60E070E08FE592E004
:105250000E94EC0D80910201811103C084E592E06F
:1052600002C086E592E060E070E00E94C00E0E94FD
:10527000070E60E070E088E592E00E94EC0D60911E
:105280008D0370918E0380918F039091900340E085
:1052900050E00E945D0E80E090E00E948F0E02E0E0
:1052A00010E06FE472E08FE493E00E94510D8130D2
:1052B00051F490912303913009F480E0809323030B
:1052C00001E010E003C00230110541F06FE472E02C
:1052D0008FE493E00E94510D813069F40E94070E23
:1052E00080912303813009F474C585E492E060E085
:1052F00070E00E94C00E60E472E08FE493E00E94D0
:10530000510D813021F40E94D30901E010E06BE3DC
:1053100072E08FE493E00E94510D823081F5EFE45A
:10532000F3E001900020E9F7AF014555534064E5F3
:1053300073E0C6010E94563340E050E060E070E048
:10534000C6010E941E3860937D0370937E03809394
:105350007F0390938003611571058105910539F0F4
:1053600020E041E00E94CA1101E010E00BC00E9461
:10537000070E60E070E082E392E00E94EC0D0230E4
:10538000110549F06BE372E08FE493E00E94510D48
:10539000882309F46CC00E94070E84E493E00E9405
:1053A000CF0A60E070E080ED90E00E94EC0D20916B
:1053B000440340904503709046035090480360902A
:1053C000490380914A03409105015091060157FD20
:1053D00039C090E08E54984F2FA70E94480E60E08D
:1053E00070E08CEC90E00E94EC0D862D90E00E9425
:1053F000480E60E070E08AEC90E00E94EC0D852D94
:1054000090E00E94480E60E070E088EC90E00E941E
:10541000EC0D872D90E00E94480E60E070E086EC75
:1054200090E00E94EC0D842D90E00E94480E60E018
:1054300070E084EC90E00E94EC0D2FA5822F90E0AC
:105440000E94480E60E070E08EEC90E00E94EC0D4F
:105450000E94500B40E050E00E945D0E80E090E022
:105460000E948F0E0230110511F001E010E06DE294
:1054700072E08FE493E00E94510D823009F043C046
:10548000EFE4F3E001900020E9F7AF014555534008
:1054900064E573E081EF92E00E94563367E272E0C8
:1054A00081EF92E00E94510D813019F481E090E08B
:1054B00021C062E272E081EF92E00E94510D8130E2
:1054C00019F482E090E016C06DE172E081EF92E0A5
:1054D0000E94510D813019F483E090E00BC067E128
:1054E00072E081EF92E00E94510D813009F015C900
:1054F00084E090E090930601809305010E945B0A8E
:1055000001E010E003C00230110541F06DE272E0ED
:105510008FE493E00E94510D8823C1F00E94070E92
:1055200060E070E084E092E00E94EC0D60E0809129
:105530000501909106010E94C70D80E090E00E9455
:105540008F0E0230110511F001E010E06FEF71E0F5
:105550008FE493E00E94510D823079F5EFE4F3E09F
:1055600001900020E9F7AF014555534064E573E031
:1055700081EF92E00E945633E1EFF2E001900020CB
:10558000E9F7E250F34049F00E94070E60E070E056
:1055900087EF91E00E94C00E10C080E1E1EFF2E0E1
:1055A000A1EEB2E001900D928A95E1F70E945B0AAC
:1055B0000E940E0301E010E003C00230110541F02B
:1055C0006FEF71E08FE493E00E94510D8823C9F0E2
:1055D0000E94070E60E070E082EF91E00E94EC0D07
:1055E00040E150E061EE72E088E994E00E94E71645
:1055F00080E090E00E948F0E0230110511F001E072
:1056000010E06DEE71E08FE493E00E94510D823066
:1056100009F04CC0EFE4F3E001900020E9F7AF019E
:105620004555534064E573E081EF92E00E945633A4
:105630001EA21DA21CA21AA23EA53F934DA54F93E8
:105640003F922F928AA58F9399A59F93ACA5AF9374
:10565000BBA5BF938AEA91E09F938F9381EF92E07D
:105660009F938F930E9488330FB6F894DEBF0FBECE
:10567000CDBF049749F00E94070E60E070E084EE11
:1056800091E00E94C00E12C08EA18093E0028DA115
:105690008093DF028CA18093DE028AA18093DD02D9
:1056A0000E945B0A0E940E0301E010E00230110527
:1056B00009F492C36DEE71E08FE493E00E94510D06
:1056C00081118AC36FED71E08FE493E00E94510D68
:1056D0008230D9F5EFE4F3E001900020E9F7AF0163
:1056E0004555534064E573E0C6010E94563340E0DF
:1056F00050E060E070E0C6010E941E3860937D03B8
:1057000070937E0380937F03909380032B013C0171
:10571000F1E04F1A5108610871082DEF421651044B
:105720006104710448F00E94070E60E070E086EDAD
:1057300091E00E94C00E09C060932A030E945B0A98
:105740000E940E0301E010E003C00230110541F099
:105750006FED71E08FE493E00E94510D8823A1F07A
:105760000E94070E60E070E080ED91E00E94EC0D79
:1057700080912A0360E070E090E00E94691302309B
:10578000110511F001E010E06BEC71E08FE493E0A3
:105790000E94510D8230D9F5EFE4F3E00190002032
:1057A000E9F7AF014555534064E573E0C6010E9437
:1057B000563340E050E060E070E0C6010E941E38C1
:1057C00060937D0370937E0380937F0390938003A7
:1057D0002B013C0131E0431A5108610871084DEF7B
:1057E000441651046104710448F00E94070E60E001
:1057F00070E082EC91E00E94C00E09C06093CF0679
:105800000E945B0A0E940E0301E010E003C0023018
:10581000110541F06BEC71E08FE493E00E94510DB3
:105820008823A1F00E94070E60E070E08CEB91E00D
:105830000E94EC0D8091CF0660E070E090E00E9445
:1058400069130230110511F001E010E067EB71E01F
:105850008FE493E00E94510D823069F5EFE4F3E0AC
:1058600001900020E9F7AF014555534064E573E02E
:10587000C6010E94563340E050E060E070E0C6018F
:105880000E940D3770934E0360934D039B012C597A
:105890003F4F2536310548F00E94070E60E070E06A
:1058A0008EEA91E00E94C00E06C06093DC020E9466
:1058B0005B0A01E010E069EA71E08FE493E00E9486
:1058C000510D823059F5EFE4F3E001900020E9F743
:1058D000AF014555534064E573E0C6010E9456335D
:1058E00040E050E060E070E0C6010E940D37862F76
:1058F00060934B0370934C0392E1960F903230F417
:1059000061E00E94680901E010E00BC00E94070EF0
:1059100060E070E08FE991E00E94C00E0230110556
:1059200089F067EB71E08FE493E00E94510D8111E3
:1059300009C069EA71E08FE493E00E94510D882369
:1059400009F449C00E94070E60E070E087E991E029
:105950000E94EC0D8091DB0260E070E0082E000CEC
:10596000990B0E9469130E94070E60E070E08DE8B9
:1059700091E00E94EC0D8091DC0260E070E0082E66
:10598000000C990B0E9469130E94070E60E070E002
:1059900080E891E00E94EC0D80912B0360E070E0C4
:1059A000082E000C990B0E9469130E94070E60E0FC
:1059B00070E083E791E00E94EC0D8091DA0260E0F4
:1059C00070E0082E000C990B0E946913023011053B
:1059D00011F001E010E06EE671E08FE493E00E94C8
:1059E000510D823009F05FC0EFE4F3E00190002038
:1059F000E9F7AF014555534064E573E0C6010E94E5
:105A0000563340E050E060E070E0C6010E941E386E
:105A100060937D0370937E0380937F039093800354
:105A20006115AEE57A07A0ED8A07A2EB9A07D8F5D3
:105A300060931F03709320038093210390932203AC
:105A40000E94500B01E020E030E0A9010E94EC1020
:105A50000E94070E60E070E081E691E00E94EC0D8C
:105A6000E0914A04BEE0EB9FF0011124E85CFA4F9C
:105A7000248135814681578160911F0370912003F5
:105A800080912103909122030E94850D40E050E017
:105A90000E947D0E80E090E00E948F0E81E0809356
:105AA0001E0301E010E06CE571E08FE493E00E94DA
:105AB000510D823009F046C0EFE4F3E00190002080
:105AC000E9F7AF014555534064E573E0C6010E9414
:105AD000563340E050E060E070E0C6010E941E389E
