:100000000C94EA020C94EB040C94C4040C941403B6
:100010000C9414030C9414030C946A050C941403AC
:100020000C9414030C9414030C9414030C941403F4
:100030000C9414030C9414030C9414030C941403E4
:100040000C9412200C9414030C9438050C94120593
:100050000C9414030C9414030C9414030C941403C4
:100060000C9414030C94140320554E0020504F00A0
:100070002045580020424F0020574400525F464C14
:100080004720307800524F4D2042616400474D5365
:10009000470052544320496E6974003D424F4F540B
:1000A0003D005700412C2050524D533D0049524DC8
:1000B000533D004D74723D003A003A0020002D007F
:1000C0002D002F0054696D653D002E002E002E007E
:1000D0004E65742049643D0042616420436D6400B4
:1000E0004C45442050756C7365286D73293D004262
:1000F0006164204C45442074696D65004C4544544E
:10010000004C45443D313A00426164204C45442056
:1001100072617465004C454452004F4646004F4E94
:10012000005473743D0054455354004D747220497B
:100130006E74766C3D004D54524900496D702F6BC2
:1001400057683D0042616420496D702F6B5768000D
:100150004D54525200536574204D74722056616C98
:100160003D004D545256004176672052535349404A
:1001700047773D004C617374204777205353493DC6
:100180000054677420525353493D00545820506F17
:10019000773D00426164205458506F7700545850A6
:1001A0005700426164205253534900545253530044
:1001B0004E6F49643D00426164204E6F4964004EB9
:1001C0004F494400477749643D00426164204777C6
:1001D00049640047574944004261642041646472A5
:1001E000004E455449004B65793D00426164204B07
:1001F000657900454B4559004C6F674C65763D006D
:10020000426164204C6F674C657600444542554717
:1002100000494E464F005741524E004552524F52F0
:10022000004C4F474C004261642054696D65005496
:10023000494D4500524346470043543D4E00435408
:100240003D59004354434C004E005900536C6570B7
:10025000743D00536C703D0052414D3D004261744D
:10026000743D00506F702049783D005075736820D0
:1002700049783D004C617374204D55503D00436CEE
:100280006F73656420456E743D005261773D002CAC
:100290002056616C3D00426173653D0044554D50F0
:1002A0000048454C500041646A204F666600416436
:1002B0006A204F6E004E6F207072696F7220656EFB
:1002C000747279004D524542004D55505F004D55B6
:1002D00050430042617474657279205620286D562F
:1002E000293D0047494E5200003E800052F4F4D0B0
:1002F000003415004FF4F4D0001A0B009DF4F4D034
:10030000000D05013BF4F4D00006830275F3F3D031
:1003100000034104EAF2F2D000022C07AEE2E2D080
:100320000001000800E1E1D00000801000E0E0D012
:1003300000024003334242D0013E800052F4F5D027
:10034000013415004FF4F4D0011A0B009DF4F4D0E1
:10035000010D05013BF4F4D00106830275F3F3D0DF
:1003600001034104EAF2F2D001022C07AEE2E2D02E
:100370000101000800E1E1D00100801000E0E0D0C0
:1003800001024003334242D0087D0000108888D02B
:1003900008682B0010F1F1D00834150010F5F5D0E5
:1003A000081A0B0010F4F4D0080D050010F3F3D078
:1003B0000806830010F2F2D00803E80010E2E2D051
:1003C0005A003000203E2000205768002000A10283
:1003D000C00343029C0234022F022102F301E10117
:1003E000D301BF01AB019D0162015001360126011D
:1003F0001501FC00436D64733A20003D005D002C44
:10040000002C002C003D5B004F70656E6564200081
:10041000436C6F7365642000416C676E3E3A303008
:10042000004C454420313A004D73674D6772206699
:1004300061696C002C2041766720525353493D007E
:100440005458506F773D004F4646004F4E00536C56
:10045000703D00556E6B206D73673A2000476F74D6
:100460002062636173743A20004D4E4F4900476F1C
:100470007420505253502E204E6F2075706461745A
:10048000650020746F2000476F7420505253503A1B
:1004900020005052535000476F7420626164204D19
:1004A000504C4900204C45442050756C7365202801
:1004B0006D73293D00476F74204D504C493A200020
:1004C0004D504C4900476F7420626164204D494E85
:1004D0004900207365637320746F2000476F742098
:1004E0004D494E493A20004D494E4900476F74200E
:1004F000626164204D56414900476F74204D56415A
:10050000493A20004D56414900476F7420626164AA
:1005100020474954520073007320666F72200047D1
:100520006F7420474954523A200047495452002ED4
:100530002052535349203D2000476F743A20005306
:10054000656E64206661696C3A20004E6F204143FD
:100550004B20726563760053656E64696E673A205E
:10056000004D736720746F6F206C6F6E673A2000C8
:1005700000000000250028002B00000000080002F9
:10058000010000030407000000000000000000005C
:100590000000240027002A000102040810204080E7
:1005A00001020408102001020408102004040404BD
:1005B000040404040202020202020303030303030D
:1005C00050524551006364696E6F70737578585B63
:1005D0000000AC302092670711241FBECFEFD8E097
:1005E000DEBFCDBF12E0A0E0B1E0EAE5FCE702C06B
:1005F00005900D92AA37B107D9F727E0AAE7B2E034
:1006000001C01D92A736B207E1F712E0CAEED2E0B0
:1006100004C02197FE010E94E131C93ED107C9F70C
:100620000E945C200C942B3E0C9400000895CF9205
:10063000DF92EF92FF920F931F93CF93DF936C01A2
:100640007A018B01C0E0D0E0CE15DF0589F0D8013A
:100650006D918D01D601ED91FC910190F081E02D1D
:10066000C6010995892B11F47E0102C02196ECCFB9
:10067000C701DF91CF911F910F91FF90EF90DF9015
:10068000CF900895089580E090E00895FC01538D87
:10069000448D252F30E0842F90E0821B930B54175C
:1006A00010F0CF96089501970895FC01918D828DE9
:1006B000981761F0828DDF01A80FB11D5D968C91B6
:1006C000928D9F5F9F73928F90E008958FEF9FEFC1
:1006D0000895FC01918D828D981731F0828DE80F7D
:1006E000F11D858D90E008958FEF9FEF0895FC0137
:1006F000918D228D892F90E0805C9F4F821B910904
:100700008F73992708958AEA94E00E94770321E085
:10071000892B09F420E0822F0895FC01848DDF01EC
:10072000A80FB11DA35ABF4F2C91848D90E0019664
:100730008F739927848FA689B7892C93A089B18953
:100740008C9180648C93938D848D981306C002885D
:10075000F389E02D80818F7D80830895EF92FF9251
:100760000F931F93CF93DF93EC0181E0888F9B8DD4
:100770008C8D981305C0E889F989808185FD24C096
:10078000F62E0B8D10E00F5F1F4F0F731127E02E19
:100790008C8DE8120CC00FB607FCFACFE889F989F6
:1007A000808185FFF5CFCE010E948D03F1CF8B8D27
:1007B000FE01E80FF11DE35AFF4FF0820B8FEA892B
:1007C000FB898081806207C0EE89FF896083E889A8
:1007D000F98980818064808381E090E0DF91CF910E
:1007E0001F910F91FF90EF900895CF93DF93EC014D
:1007F000888D8823C9F0EA89FB89808185FD05C041
:10080000A889B9898C9186FD0FC00FB607FCF5CF7A
:10081000808185FFF2CFA889B9898C9185FFEDCFC2
:10082000CE010E948D03E7CFDF91CF91089580E044
:1008300090E0892B29F00E94830381110C94000021
:100840000895FC01738362830895FC0177836683B6
:100850000895FC01758364830895089508958CE3D9
:1008600008959FB7F89480914C04882319F0815023
:1008700080934C0480914C04811105C08CB58F7B12
:100880008CBD1092A2039FBF08950E947B34CF932A
:10089000DF93EC01888D998DDC01ED91FC91068050
:1008A000F781E02D099561E08A8D0E94961C61E038
:1008B0008A8D0E944A1C64E670E080E090E00E940D
:1008C0001F1D81E0DF91CF910895CF92DF92EF92CB
:1008D000FF920F931F93CF93DF93EC016B018A017B
:1008E000E881F9810280F381E02D0995F82E8823B3
:1008F000E1F0C114D104B1F00115110599F0EFB682
:10090000F89488A1F8019081891710F488A1808358
:10091000F801408150E0BE016F5D7F4FC6010E942B
:100920008034EFBEC35ADF4F18828F2DDF91CF91F5
:100930001F910F91FF90EF90DF90CF900895E9E61F
:10094000F0E02081880F991F880F991F237F822B49
:100950008083E99A0895952F8230A8F4E82FF0E07B
:10096000EE0FFF1FED5FFE4F71836083813041F01A
:10097000809169008C7F482B40936900E89A089524
:10098000842F0C949F0408951F920F920FB60F921C
:1009900011242F933F934F935F936F937F938F9384
:1009A0009F93AF93BF93EF93FF93E0910501F09175
:1009B00006010995FF91EF91BF91AF919F918F91A2
:1009C0007F916F915F914F913F912F910F900FBE4B
:1009D0000F901F9018951F920F920FB60F9211242F
:1009E0002F933F934F935F936F937F938F939F9337
:1009F000AF93BF93EF93FF93E0910301F091040154
:100A00000995FF91EF91BF91AF919F918F917F9148
:100A10006F915F914F913F912F910F900FBE0F906B
:100A20001F9018951F920F920FB60F9211242F93BB
:100A30003F934F935F936F937F938F939F93AF9366
:100A4000BF93EF93FF938AEA94E00E948D03FF9196
:100A5000EF91BF91AF919F918F917F916F915F9136
:100A60004F913F912F910F900FBE0F901F901895AF
:100A70001F920F920FB60F9211242F938F939F9373
:100A8000EF93FF93E091BA04F091BB048081E09171
:100A9000C004F091C10482FD12C090818091C30412
:100AA0008F5F8F732091C404821751F0E091C304CB
:100AB000F0E0E655FB4F958F8093C30401C0808121
:100AC000FF91EF919F918F912F910F900FBE0F90FB
:100AD0001F9018951F920F920FB60F9211248F93AB
:100AE0000FB6F894A89580916000886180936000AB
:100AF000109260000FBE8F910F900FBE0F901F904D
:100B000018954115510529F4EAE7F0E080818F77C7
:100B100080836A307105A9F063FD02C088E001C0DE
:100B200088E26770682B88E10FB6F894A8958093E7
:100B300060000FBE60936000E0E6F0E080818064BA
:100B40008083232BA1F483B7817F846083BFF894D3
:100B500083B7816083BF85B7806685BF8F7D85BF82
:100B60007894889583B78E7F83BF78940EC083B7BF
:100B7000817F846083BFF89483B7816083BF78945A
:100B8000889583B78E7F83BF7894452B29F4EAE755
:100B9000F0E08081806880830895AF92BF92DF92F9
:100BA000EF92FF920F931F93CF93DF9300D0CDB7B7
:100BB000DEB78C01E62EF42EDFB6F89460E0DC019F
:100BC0005A968C9129835A830E944A1CF801808D81
:100BD000918DDC01ED91FC916E2D60680190F081AA
:100BE000E02D0995E82EAF2C5A81B52E2981F20E01
:100BF000FA1471F0F801808D918DD5016D915D0130
:100C0000DC01ED91FC910190F081E02D0995F0CF90
:100C100061E0F801828D0E944A1CDFBE8E2D0F908C
:100C20000F90DF91CF911F910F91FF90EF90DF9088
:100C3000BF90AF900895EF92FF920F931F93CF93C1
:100C4000DF931F92CDB7DEB77C01162F0FB7F89454
:100C500060E0DC015A968C9149830E944A1CF7019E
:100C6000808D918DDC01ED91FC91612F6068019088
:100C7000F081E02D0995182FF701808D918DDC0111
:100C8000ED91FC910190F081E02D4981642F09954F
:100C900061E0F701828D0E944A1C0FBF812F0F90E7
:100CA000DF91CF911F910F91FF90EF900895CF9317
:100CB000DF93FC01228133812130310549F0EC01C1
:100CC00040E061E00E941B0681E090E09B838A8304
:100CD00081E0DF91CF9108950F931F93CF93DF931E
:100CE000EC01162F0FB7F89460E08A8D0E944A1C21
:100CF000888D998DDC01ED91FC91612F6F770190CA
:100D0000F081E02D0995888D998DDC01ED91FC91A4
:100D10000190F081E02D60E00995182F61E08A8D47
:100D20000E944A1C0FBF812FDF91CF911F910F911D
:100D300008950F931F93CF938C01C62F61E00E94FB
:100D40006C06837ECC71482F4C2B61E0C8010E9459
:100D50001B0667E2C8010E946C0687FFFACFCF919D
:100D60001F910F910895CF93DF93FC01228133816E
:100D70002330310519F1EC01828193810497D1F080
:100D8000878D823154F045E56AE5CF010E941B064C
:100D900040E76CE5CE010E941B0640E465E2CE010F
:100DA0000E941B0660E1CE010E94990684E090E05B
:100DB0009B838A83C35ADF4F888101C080E0DF9123
:100DC000CF910895CF93DF93FC01228133812230AC
:100DD0003105B1F0EC01878D823154F045E56AE5CB
:100DE000CF010E941B0640E76CE5CE010E941B0666
:100DF0006D8DCE010E94990682E090E09B838A83EC
:100E0000DF91CF910895BF92CF92DF92EF92FF9240
:100E10000F931F93CF93DF93EC01B62EC72E142FA1
:100E20004D3310F000E08BC0E881F9810484F58532
:100E3000E02D0995CE010E94E206E881F981028841
:100E4000F389E02DCE010995082F882359F3DFB6E9
:100E5000F89460E08A8D0E944A1C888D998DDC018F
:100E6000ED91FC910190F081E02D60E80995A88D4D
:100E7000B98DED91FC9111970190F081E02D64E026
:100E8000610FCD010995888D998DDC01ED91FC9163
:100E90000190F081E02D6A850995888D998DDC019E
:100EA000ED91FC910190F081E02D6B850995888D85
:100EB000998DDC01ED91FC910190F081E02D6C8524
:100EC0000995888D998DDC01ED91FC910190F0815F
:100ED000E02D6D850995EB2CFC2C115068F0888D68
:100EE000998DF70161917F01DC01ED91FC910190F9
:100EF000F081E02D0995F1CF61E08A8D0E944A1CB6
:100F0000DFBE8A819B810397D1F08F8D823154F0AF
:100F10004DE56AE5CE010E941B064CE76CE5CE016B
:100F20000E941B0640E065E2CE010E941B066CE0B9
:100F3000CE010E94990683E090E09B838A83802FF4
:100F4000DF91CF911F910F91FF90EF90DF90CF90A5
:100F5000BF900895EF92FF920F931F93CF93DF936B
:100F6000EC0168E20E946C06182F8A819B8103972E
:100F700011F413FD08C08A819B81049709F0A2C077
:100F800012FD0BC09FC0CE010E94E2062B893C8956
:100F90002F5F3F4F3C8B2B8BEECF64E2CE010E9444
:100FA0006C06869581958E870E94591DFE01E25A36
:100FB000FF4F6083718382839383CE010E94E20698
:100FC000FFB6F89460E08A8D0E944A1C888D998D46
:100FD000DC01ED91FC910190F081E02D60E009953C
:100FE000888D998DDC01ED91FC910190F081E02DCF
:100FF00060E00995082F8CEF800F8D3300F5888D08
:10100000998DDC01ED91FC910190F081E02D60E083
:1010100009958E838D81811118C09E818C819817CE
:10102000A1F08E818F3F59F410C089899A89019669
:101030009A8B898B81E0FE01E35AFF4F808361E048
:101040008A8D0E944A1CFFBE3DC0888D998DDC01AF
:10105000ED91FC910190F081E02D60E009958F8386
:10106000888D998DDC01ED91FC910190F081E02D4E
:1010700060E009958887888D998DDC01ED91FC9160
:101080000190F081E02D60E00995898718A210E0B9
:101090000450110988A190E08017910734F6E8A068
:1010A000888D998DDC01ED91FC910190F081E02D0E
:1010B00060E00995FE01EE0DF11D81A388A18F5F0F
:1010C00088A3E8CFDF91CF911F910F91FF90EF9010
:1010D00008958091A8039091A903009711F00C94B2
:1010E000AA0708958091A6039091A703009711F095
:1010F0000C94AA0708958091A4039091A5030097EA
:1011000011F00C94AA070895CF93DF93EC016DE3DF
:101110000E946C06482F4E7F6DE3CE01DF91CF9188
:101120000C941B060F931F93CF93DF93EC018B015D
:1011300025E0AB0162E00E94CD05A8014B5F5F4F47
:1011400022E069E1CE010E94CD05F801478167E305
:10115000CE01DF91CF911F910F910C941B06EF925E
:10116000FF920F931F93CF93DF93CDB7DEB72A97EC
:101170000FB6F894DEBF0FBECDBF8C010E944704AE
:10118000E82E811102C0E12CA5C0F801838D8230C8
:1011900029F08330C1F7FF24F39401C0F12C60E102
:1011A000C8010E946C06F801868F9FEF980F9E3F42
:1011B00050F760E0F801838D0E94961CF801848D41
:1011C0008F3F49F48091A3038430E8F691E0980FB3
:1011D0009093A303848FF801948DE92FF0E0EE0F34
:1011E000FF1FEC55FC4F11830083911105C043E0B4
:1011F00050E06BE778E00EC0913029F443E050E016
:1012000062E778E007C0923009F0BDCF43E050E0DC
:1012100069E678E08F2D0E94AB04C8010E94E206C7
:101220004FE86CE3C8010E941B0640E36FE6C8016B
:101230000E941B0645E56AE5C8010E941B0640E7BF
:101240006CE5C8010E941B068DE2898784ED8A87C0
:101250006EE2C8010E946C06F82E22E0AE01475FE4
:101260005F4F6FE2C8010E94CD054F2D477C486853
:101270006EE2C8010E941B0648E050E068E773E098
:10128000CE0101960E948B3ABE016F5F7F4FC8016D
:101290000E94920840E06CE2C8010E941B0644E0F4
:1012A0006DE2C8010E941B064CE667E0C8010E947F
:1012B0001B0640E868E0C8010E941B0640E069E0A8
:1012C000C8010E941B06C8010E9484086DE0C80185
:1012D0000E94621B8E2D2A960FB6F894DEBF0FBEB9
:1012E000CDBFDF91CF911F910F91FF90EF900895A7
:1012F000809128039091290301969093290380936C
:101300002803A89580912C03882351F120912D0367
:1013100030912E03232B99F0813089F080911903AD
:10132000823068F080912C038230D0F090911903C4
:10133000923088F490911903923090F40FC05C9A27
:101340000E94591D60931A0370931B0380931C0322
:1013500090931D03E7CF8091190381508093190367
:10136000089589B188708093CC03883011F40C946F
:1013700078095C980895BC0181EF92E00E949F3A41
:1013800081EF92E00C944A1A0F931F93CF93DF934F
:101390001F92CDB7DEB7A895809109018983BE0160
:1013A0006F5F7F4F80E090E00E94861F6CE273E0E9
:1013B00081E090E00E94861F6DE273E082E090E0A1
:1013C0000E945F1F6FE273E084E090E00E94861F3E
:1013D00060E373E085E090E00E945F1F6BED72E0D8
:1013E00087E090E00E94471FA8956CED72E088E0CE
:1013F00090E00E94471F61EE76E089E090E00E9455
:10140000861F6AE273E08AE090E00E94861F60EE29
:1014100072E08BE090E00E94861F6FED72E08CE03E
:1014200090E00E94861F6EED72E08DE090E00E94D9
:10143000861F6DED72E08EE090E00E94861F0FE047
:1014400010E0B8016E527D4FC8010E94861F0F5FE9
:101450001F4F0F311105A9F763E273E08FE190E0B0
:101460000E94861F0F90DF91CF911F910F910895D9
:10147000EF92FF920F931F93CF93DF93CDB7DEB719
:1014800027970FB6F894DEBF0FBECDBF7C0160E09A
:1014900087E00E944A1C07E010E09E012F5F3F4F4B
:1014A00040E062E087E495E00E94BA1E8981982FAF
:1014B0009695969596959E70292F220F220F920F42
:1014C0008F70890FF70180838A81982F9695969562
:1014D00096959E70292F220F220F920F8F70890FE1
:1014E00081838B81982F9695969596959670292F46
:1014F000220F220F920F8F70890F82838C81982F79
:101500009695969596959670292F220F220F920FF9
:101510008F70890F84838D81877083838E81982F4C
:101520009695969596959270292F220F220F920FDD
:101530008F70890F85838F81982F969596959695B4
:101540009E71292F220F220F920F8F70890F868391
:1015500061E087E00E944A1C27960FB6F894DEBF30
:101560000FBECDBFDF91CF911F910F91FF90EF90F4
:1015700008958F929F92AF92BF92CF92DF92EF9297
:10158000FF920F931F93CF93DF938DEC93E00E9414
:10159000380AE091D303AE2FB0E020E833E341EE08
:1015A00051E00E94D23D4B015C0122EB37E0FD018E
:1015B000C4E6D0E000E911E0C901825B97408E17D4
:1015C0009F07DCF4C90183709927892B99F4C9011D
:1015D000BE010E94CD31892B31F4C901B8010E94AE
:1015E000CD31892B39F480E8880E81E5981E81E0A1
:1015F000A81EB11C2F5F3F4FDFCF0091D20310E038
:10160000EE54F84FCF0164E670E00E94CD317C01CA
:10161000CF0160E971E00E94CD316C01C1E0D0E002
:10162000E370FF27C017D10724F5C230D10581F43C
:10163000309771F4E114F10419F4C114D10441F4A8
:1016400080E8880E8BE3981E86E2A81EB11C0FC0AE
:10165000DE01AC5EBE4FAC91B0E020E831E541E088
:1016600050E00E94D23D860E971EA81EB91E2196FC
:10167000D9CF4091CE032091CF0330E0A0E1BEE06E
:101680000E941C3E6B017C01242F30E0ACE3B0E0F3
:101690000E941C3EDC01CB018C0D9D1DAE1DBF1DAB
:1016A0002091CD036C017D01C20ED11CE11CF11C07
:1016B000A091D103B0E0119720E831E541E050E07E
:1016C0000E94DD3DDC01CB018C0D9D1DAE1DBF1DBB
:1016D000BC01CD01680D791D8A1D9B1DDF91CF9145
:1016E0001F910F91FF90EF90DF90CF90BF90AF9040
:1016F0009F908F9008958F929F92AF92BF92CF92BA
:10170000DF92EF92FF920F931F93CF93DF93EC0141
:101710006A017B0188809980AA80BB800E94B90AF7
:10172000C80CD91CEA1CFB1C97018601061B170B71
:10173000280B390B480159010093D4039092D5032B
:10174000A092D603B092D7031092D8031092D90377
:101750001092DA031092DB03088319832A833B83F8
:10176000DF91CF911F910F91FF90EF90DF90CF907D
:10177000BF90AF909F908F9008954F925F926F921D
:101780007F928F929F92AF92BF92CF92DF92EF9211
:10179000FF92CF93DF9380912303811104C0C12C6A
:1017A000D12C7601D6C08EE480937C0062E070E09C
:1017B00080E090E00E941F1D80917A0080648093F9
:1017C0007A0080917A0086FDFCCF8091780020918C
:1017D000790030E0322F2227A901330F660B770BF7
:1017E0009A01AB01282B60E070E381E190E00E9458
:1017F000B33D69017A01C8ECD5E0809190020E9466
:10180000081D9093A1028093A002BC01990F880B40
:10181000990B0E94FE324B015C014090B202509045
:10182000B3026090B4027090B502A30192010E94CD
:10183000E73120E030E040E85AE30E948F339B011B
:10184000AC01C301B2010E94E8319B01AC0160937D
:10185000B2027093B3028093B4029093B502C501B3
:10186000B4010E94E7316093AA027093AB028093A7
:10187000AC029093AD029B01AC010E948F33609348
:10188000C2027093C3028093C4029093C502209158
:10189000C6023091C7024091C8025091C9020E940D
:1018A000E8316093C6027093C7028093C802909398
:1018B000C902219709F0A1CF20E030E049EB54E4C0
:1018C0000E9454320E9402344B015C01B601DD0CCF
:1018D000880B990B0E94FE3220E030E04AE754E486
:1018E0000E94543220E030E040E85AE30E948F33F7
:1018F000209196023091970240919802509199025E
:101900000E948F33A50194010E948F336B017C01EB
:1019100060938A0270938B0280938C0290938D0265
:101920001092C6021092C7021092C8021092C90209
:101930006093C3037093C4038093C5039093C6035D
:101940002AE939E949E95EE30E948A3318160CF066
:1019500026CFC701B601DF91CF91FF90EF90DF90C6
:10196000CF90BF90AF909F908F907F906F905F903F
:101970004F9008950F931F93CF93DF938C01EB014A
:1019800082EC93E00E949F3A6BEF73E082EC93E06D
:101990000E94943AE2ECF3E001900020E9F73197DD
:1019A000AF01425C534062EC73E0C8010E94903486
:1019B000892B69F0CE010E94A63AAC01BE01C80194
:1019C0000E94AF3A21E0892B19F020E001C022E00B
:1019D000822FDF91CF911F910F9108958F929F9247
:1019E000AF92BF92CF92DF92EF92FF9249015A01DC
:1019F0000E94FC3220E030E040E05FE30E94E831EA
:101A00006B017C01C501B4010E94FC324B015C01F9
:101A10008091300390913103BC0180E090E00E94FE
:101A2000FC329B01AC0160E070E08AE794E40E9424
:101A300054329B01AC01C501B4010E948F339B015C
:101A4000AC01C701B6010E94E8310E94CD32FF907F
:101A5000EF90DF90CF90BF90AF909F908F900895C0
:101A6000CF93009701F1C62F8130910519F48BE1D6
:101A700092E010C08230910519F486E192E00AC02C
:101A80008330910519F481E192E004C0049721F4B8
:101A90008BE092E00E94BB09CC2329F083E092E026
:101AA000CF910C944A1ACF910895CF93DF93209150
:101AB000090130910A01261737077CF09B01EC01E0
:101AC00080910801882321F061E0C9010E94300D56
:101AD000CE010E94B11A10920801DF91CF910895B2
:101AE00060E070E084EC93E00C94550DCF93DF93AD
:101AF0002091090130910A01261737077CF09B01DC
:101B0000EC0180910801882321F061E0C9010E9465
:101B1000300DCE010E944A1A10920801DF91CF9138
:101B20000895CF93DF93EA019F938F937F936F93F1
:101B300086E092E09F938F9386EB93E09F938F9341
:101B40000E94B7348DB79EB708960FB6F8949EBF23
:101B50000FBE8DBFBE0186EB93E0DF91CF910C9459
:101B6000760DCF93DF93EC010A9734F460E070E0D8
:101B700082EC93E00E94550DBE01DD0F880B990B9E
:101B800040E050E0DF91CF910C94910DCF93DF9323
:101B9000EA019F938F937F936F9385E792E09F93E2
:101BA0008F938AEA93E09F938F930E94B7348DB707
:101BB0009EB708960FB6F8949EBF0FBE8DBFBE01AC
:101BC0008AEA93E0DF91CF910C94760D2091090180
:101BD00030910A012417350754F040E050E00E948C
:101BE000C60D60E070E088EC93E00C94550D08950C
:101BF0002091090130910A01281739073CF08AE049
:101C000092E00E944A1A81E0809308010895CF93E0
:101C1000DF930E94700D60E070E084EF93E00E941B
:101C2000550DCEECD3E0FE01859194910E94BB0945
:101C300060E070E08CEC93E00E94550D229683E00A
:101C4000C23FD80781F780E090E0DF91CF910C94FC
:101C5000F80D0F931F93CF93DF938C01EB018091CD
:101C6000090190910A01861797075CF0809108019D
:101C7000882321F061E0CE010E94300DC8010E944E
:101C8000B11ACE01DF91CF911F910F910C94F80DF5
:101C9000CF93DF93C82F0E94700D0E94700D6C2FA0
:101CA00070E080E090E040E050E00E94910D60E044
:101CB00070E085E094E00E94550D8EE0C89FE00141
:101CC0001124C65BDA4F688179818A819B8140E06B
:101CD00050E00E94C60D60E070E083E094E00E9456
:101CE000550D6C817D818E819F8140E050E00E9486
:101CF000C60D60E070E081E094E00E94550D6885BB
:101D000079858A859B850E947A1A60E070E08FEF62
:101D100093E00E94550D6C857D85072E000C880B85
:101D2000990B40E050E00E94910D60E070E08DEF73
:101D300093E0DF91CF910C94290ECF92DF92EF9236
:101D4000FF92CF93A895882389F0E0905C04F12C52
:101D50000E94BD0B2EE02E9DF0012F9DF00D112451
:101D6000E65BFA4F6087718782879387E0915C0416
:101D70008EE0E89FF0011124E65BFA4F82E090E0EC
:101D80009587848764E070E080E194E00E94550DBF
:101D90008091090190910A01049724F080915C04DC
:101DA0000E94480E80915C0490E001966AE070E029
:101DB0000E94CD3180935C0420915D042A3018F498
:101DC0002F5F20935D04009719F0EFEFE80F01C03B
:101DD000E9E020912F03CEE0CE9FF0011124E65BD5
:101DE000FA4FC080D180E280F380C20ED11CE11C8A
:101DF000F11CC89FF001C99FF00D1124E65BFA4F5A
:101E0000C082D182E282F3820E94B90A6C157D05FC
:101E10008E059F0580F4E0905C04F12C0E94B90AC5
:101E2000CE9DF001CF9DF00D1124E65BFA4F60834B
:101E3000718382839383E0915C048E2F90E00097FE
:101E400011F0E15001C0E9E02EE02E9FF0011124D5
:101E5000E65BFA4F4481558166817781289FF001C6
:101E6000299FF00D1124E65BFA4F44835583668366
:101E70007783108611861286138681E090E095871D
:101E8000848764E070E088E094E00E94550D8091C2
:101E9000090190910A01049724F080915C040E944A
:101EA000480E80915B0490915C04891308C090E017
:101EB00001966AE070E00E94CD3180935B04CF917F
:101EC000FF90EF90DF90CF9008950F931F93CF93E3
:101ED000A89580910701882381F00E94B90A00919A
:101EE000DC031091DD032091DE033091DF036017E6
:101EF00071078207930708F0A2C080912F038823FF
:101F000019F10E94B90AE0915C042EE0E29FF00111
:101F10001124E65BFA4F0081118122813381AB01EC
:101F2000BC01401B510B620B730B80912F0390E09F
:101F3000A0E0B0E0481759076A077B0728F08485BE
:101F40009585019709F4A8C0E0915C04CEE0CE9F8E
:101F5000F0011124E65BFA4F84859585029709F01C
:101F6000A0C00E94B90A20912F0330E0220F331F36
:101F70008901330F220B330BDC01CB01801B910B4A
:101F8000A20BB30BE0915C04CE9FF0011124E65B41
:101F9000FA4F0081118122813381081719072A071E
:101FA0003B0730F50E94B90AE0915C04CE9FF00136
:101FB0001124E65BFA4F0081118122813381601B7D
:101FC000710B820B930B20912F0330E040E050E027
:101FD0000E94913DDA01C9010197A109B1098093DD
:101FE000C7039093C803A093C903B093CA0308C062
:101FF0001092C7031092C8031092C9031092CA032B
:1020000081E090912303911101C080E00E949D0E18
:10201000C0E08C2F90E0A0E0B0E04091C703509169
:10202000C8036091C9037091CA0384179507A60776
:10203000B707B8F580E00E949D0ECF5FEACF63E05E
:1020400070E088E194E00E94290E81E090912303E2
:10205000911101C080E00E949D0EE0915C048EE031
:10206000E89FF0011124E65BFA4F8091DC03909128
:10207000DD03A091DE03B091DF0380839183A2830F
:10208000B383109207011092DC031092DD031092CB
:10209000DE031092DF0331CF82E090E095878487E2
:1020A00053CFCF911F910F9108958F929F92AF922E
:1020B000BF92CF92DF92EF92FF920F93CF93DF9375
:1020C0004B015C0169017A0180912F03882309F497
:1020D00047C0011145C00E94650FE0915C04CE2FFE
:1020E000D0E03EE0E39FF0011124E65BFA4F8480EC
:1020F0009580A680B7808C0C9D1CAE1CBF1C609187
:102100001F03709120038091210390912203A50168
:1021100094010E94EE0C21E061157A4E86459A4F9B
:1021200008F420E02093CB03222369F010921F03D0
:1021300010922003109221031092220381E08093D9
:102140001E03460157018EE08C9FF0018D9FF00D1C
:102150001124E65BFA4F84829582A682B78277C00B
:10216000E0915C048EE0E89FF0011124E65BFA4FF9
:1021700084819581A681B781892B8A2B8B2B41F095
:1021800081E090912303911101C080E00E949D0E97
:10219000E0915C04CE2FD0E03EE0E39FF0011124FB
:1021A000E65BFA4F80829182A282B382848195811C
:1021B000A681B781A7019601280F391F4A1F5B1F0F
:1021C00060911F037091200380912103909122035D
:1021D0000E94EE0C21E061157A4E86459A4F08F474
:1021E00020E02093CB03222341F010921F03109292
:1021F0002003109221031092220381E080931E039A
:102200008EE08C9FF0018D9FF00D1124E65BFA4F5C
:10221000C482D582E682F78281E0909123039111F6
:1022200001C080E00E949D0E002389F0C0915C04F3
:10223000D0E00E94B90A2EE02C9FF0012D9FF00DF6
:102240001124E65BFA4F6083718382839383DF916D
:10225000CF910F91FF90EF90DF90CF90BF90AF9014
:102260009F908F9008952F923F924F925F926F921E
:102270007F928F929F92AF92BF92CF92DF92EF9216
:10228000FF920F931F93CF93DF93CDB7DEB72D97B8
:102290000FB6F894DEBF0FBECDBF6B017C0148873F
:1022A0002987AB01BC018CE393E00E947B0BB70153
:1022B000A60182E393E00E947B0BB701A60188E3AD
:1022C00093E00E947B0BB701A60184E293E00E9499
:1022D0007B0BB701A6018BE597E00E947B0BB70152
:1022E000A60180EE93E00E947B0B8CE3882E912C5C
:1022F000A12CB12CC701B601A50194010E94913D0A
:10230000562ECA01B901A50194010E94913D462EA5
:10231000CA01B90128E130E040E050E00E94913D5F
:1023200069017A01362ECA01B9016C5F7F4F8F4F68
:102330009F4F27E030E040E050E00E94913D222492
:102340002394260E812C912C540140E094E6692EB2
:10235000712C00E911E0242F30E02E54384FF901A0
:10236000E370FF27309789F4C901B3010E94CD3192
:10237000892B31F4C901B8010E94CD31892B29F490
:102380008EE691E0A0E0B0E004C08DE691E0A0E030
:10239000B0E0880E991EAA1EBB1ED501C401AA2753
:1023A000BB27C816D906EA06FB0610F04F5FD3CF4D
:1023B000309799F4C90164E670E00E94CD31892B11
:1023C00039F4C90160E971E00E94CD31892B29F40B
:1023D0008EE691E0A0E0B0E004C08DE691E0A0E0E0
:1023E000B0E0881A990AAA0ABB0AC818D908EA08EC
:1023F000FB08C90164E670E00E94CD318C01C9017F
:1024000060E971E00E94CD31A5E1B1E030E031300A
:1024100041F4309751F40115110529F4009729F47E
:1024200002C02C9103C02DE101C02CE1822E912C21
:10243000A12CB12CC814D904EA04FB0440F0C8183C
:10244000D908EA08FB083F5F11963C3001F73F5F6F
:10245000C3942AE0852D622F0E94AD3150E1859F03
:10246000B0011124692B6983842D622F0E94AD3144
:1024700050E1859FB0011124692B6A83832D622F5F
:102480000E94AD3150E1859FB0011124692B6B830F
:102490008C2D622F0E94AD31592F60E1869FC001C3
:1024A0001124852B8C83822D622F0E94AD319D8358
:1024B000832F0E94AD31392F50E1859FC001112437
:1024C000832B8E83842F0E94AD31292F60E1869F5C
:1024D000C0011124822B8F8307E010E09E012F5F43
:1024E0003F4F41E062E087E495E00E94BA1E898593
:1024F000882301F10E94B90A6B017C010E94B90A8C
:102500002CE3C20ED11CE11CF11C2CE330E040E0B6
:1025100050E00E94913DC61AD70AE80AF90AC09213
:10252000DC03D092DD03E092DE03F092DF0381E072
:102530008093070138853323E1F0E0915C045EE08D
:10254000E59FF0011124E65BFA4F24813581468135
:1025500057812A873B874C875D870E94B90A01E033
:102560002A853B854C855D850E94551081E08093CE
:102570001E032D960FB6F894DEBF0FBECDBFDF91C0
:10258000CF911F910F91FF90EF90DF90CF90BF9070
:10259000AF909F908F907F906F905F904F903F9003
:1025A0002F900895CF93DF93EB01BC01990F880B17
:1025B000990BAE010E94910DCE01DF91CF910C9449
:1025C000F80DCF93C62F80932C03109219035C98BB
:1025D000E99886E193E0909306018093050180914C
:1025E0002C03882349F081EB99E0909306018093B6
:1025F000050181E090E008C088E799E0909306012A
:102600008093050182E090E00E949F0460E070E00A
:1026100081E294E00E94550D80912C0360E070E00F
:1026200090E00E94D212CC2319F0CF910C94C409EF
:10263000CF910895CF93DF93EB01BC0180E090E050
:10264000AE010E94C60DCE01DF91CF910C94F80D22
:10265000EF92FF920F931F93CF93DF931F92CDB70B
:10266000DEB77C01FC0100811181C80169830E94F1
:102670006B3D6981681719F0C8010E94733DC7015D
:102680000F90DF91CF911F910F91FF90EF900895E0
:102690009091020181E089278093020160E070E05F
:1026A0008EE494E00E94550D80910201811103C0D7
:1026B00087E494E002C08BE494E060E070E00C9466
:1026C000290ECF93DF9392E1980F903210F080E0C3
:1026D00060C0D62FC82F63E070E080E494E00E94D1
:1026E000550D6C2F0C2E000C770B880B990B43E0CB
:1026F00050E00E94910D63E070E084E394E00E945A
:10270000550D8091DA0263E070E0082E000C990B01
:102710000E94D212C093DB021092DA02D1110E9401
:10272000C4096091DB0282EE96E00E94621B8DE894
:1027300090E09F938F93CEE5D4E0DF93CF930E94F8
:10274000C73A8091DB02282F082E000C330B3F93F1
:102750008F938DE092E09F938F93DF93CF9388E1E7
:1027600092E09F938F93DF93CF930E94B73460E002
:1027700080912A030E94CC1382EE96E00E945706B5
:102780008DB79EB70E960FB6F8949EBF0FBE8DBF45
:1027900081E0DF91CF9108952F923F924F925F9207
:1027A0006F927F928F929F92AF92BF92CF92DF9261
:1027B000EF92FF920F931F93CF93DF9300D000D03F
:1027C00000D0CDB7DEB7082F762E5EE5E52E54E0BB
:1027D000F52EF70101900020E9F73197EE55F4400E
:1027E000FD9758F061E070E081E695E00E94550D9C
:1027F00081E090E00E945C1A23C58CE38D83E8E0C1
:10280000F4E0DF011D928A95E9F763E070E087E567
:1028100095E00E94550D83E090E00E945C1AF7015C
:1028200001900020E9F73197AF014E5554406EE515
:1028300074E088E094E00E948034A895BD81BE8356
:102840001091DD051F5F1093DD0520E0812C912C98
:102850005401939466246394620E9091E00592175C
:1028600008F4B3C08091D6059091D705DC01ED91B5
:10287000FC91048CF58DE02D612F09958091D60592
:102880009091D705DC01ED91FC91068CF78DE02D40
:1028900040E860E00995402F6E8188E094E00E9456
:1028A000A01B0E94951B0F3F09F4ABC0B1E0B61509
:1028B00098F48091D9059091DA05A091DB05B0914B
:1028C000DC050196A11DB11D8093D9059093DA0511
:1028D000A093DB05B093DC050E94591D1B012C0160
:1028E000E090DE05F090DF050E945138A5019401CB
:1028F0000E94B33D9B01AC01D7010E94D23DA501CE
:1029000094010E94B33D2E0D3F1D72016101C20E64
:10291000D31EE11CF11C0E94591DA7019601261B24
:10292000370B480B590BCA01B901262D161617068D
:10293000180619060CF08ECFA091D605B091D705D8
:10294000ED91FC9111970088F189E02DCD01099559
:10295000882309F38091D6059091D705DC01ED918C
:10296000FC910480F581E02D40E050E060E070E0F3
:102970000995882381F29E012F5F3F4FAE014E5F84
:102980005F4FBE016D5F7F4FCE0104960E94F71B23
:10299000882309F26C81898160130AC02B81909190
:1029A000D805291305C087FF03C09A81911749F103
:1029B00087FDB1CF8A81E62FF0E0EA52FA4F938586
:1029C0008913A9CF0E94C31BA6CF62E070E08FE3FA
:1029D00095E00E94550D82E090E00E945C1A809183
:1029E00007048F5F8093070483302CF08091DB0213
:1029F0008D300CF487C0A89582EE96E00E945706B1
:102A00001FC410920704A8957720A9F30E94591DAE
:102A10006B017C0138EEC30E33E0D31EE11CF11CC8
:102A20000E94591DA7019601261B370B480B590B15
:102A3000CA01B90112161306140615060CF05BC084
:102A4000A091D605B091D705ED91FC911197008822
:102A5000F189E02DCD010995882311F38091D605E8
:102A60009091D705DC01ED91FC910280F381E02D7E
:102A700009958823A9F28091D6059091D705DC01AC
:102A8000ED91FC910480F581E02DAE014B5F5F4F2D
:102A900068E074E00995882319F29E012F5F3F4F8B
:102AA000AE014E5F5F4FBE016D5F7F4FCE0104965A
:102AB0000E94F71B182F882309F4B2CF898187FD64
:102AC000AFCF9B818091D805981304C06C818A8117
:102AD0000E94C31B8A819C81E92FF0E0EA52FA4FE1
:102AE0002385821709F49CCF9093060483871123D2
:102AF00009F496CF0BC063E070E08BE495E00E9490
:102B0000290E79CF8CE98093DA0275CF8091F00697
:102B100080932B0364E070E089E395E00E94550DFB
:102B200064E070E088E094E00E94760D64E070E07C
:102B30008FE295E00E94550D80912B0364E070E0D8
:102B4000082E000C990B0E94D21269EA71E08EE502
:102B500094E00E94893468E074E08EE594E00E947D
:102B600089346AE275E08EE594E00E94BA0C813007
:102B700009F093C01092020410920304109204040E
:102B8000109205041092FE031092FF0310920004AD
:102B9000109201048DEF93E09F938F938EEF93E05B
:102BA0009F938F9382E094E09F938F9381E292E0D2
:102BB0009F938F938EE594E09F938F930E94DA34D6
:102BC0004091020450910304609104047091050443
:102BD000DB01CA010A97A109B1090FB6F894DEBF5B
:102BE0000FBECDBF8F349240A105B10508F04EC095
:102BF0008091FE039091FF03A0910004B091010425
:102C00008C019D010A501109210931090F3A1B401D
:102C100021053105D8F550930101409300019093AF
:102C20003703809336030E94B90A60933803709388
:102C3000390380933A0390933B0363E070E08FE1A4
:102C400095E00E94550D60910204709103048091FB
:102C500004049091050443E050E00E94C60D63E037
:102C600070E088E195E00E94550D6091FE0370913F
:102C7000FF03809100049091010443E050E00E9422
:102C8000C60D63E070E086E195E004C061E070E0AD
:102C900089E095E00E94290EF0C164E075E08EE5C0
:102CA00094E00E94BA0C182F813009F066C08DEFB5
:102CB00093E09F938F9389EF93E09F938F9385E3A6
:102CC00092E09F938F938EE594E09F938F930E9461
:102CD000DA348091F9039091FA03A091FB03B0914B
:102CE000FC03AC01BD0141505109610971090FB6E6
:102CF000F894DEBF0FBECDBF4F3F5D45604D724BB8
:102D0000B8F580931F0390932003A0932103B09301
:102D100022030E94B90A01E020E030E0A9010E94EC
:102D2000551063E070E089EF94E00E94550DE0914A
:102D30005C044EE0E49FF0011124E65BFA4F24812D
:102D400035814681578160911F03709120038091E6
:102D50002103909122030E94EE0C43E050E00E9478
:102D6000E60D83E090E00E94F80D10931E0385C1EC
:102D700061E070E08CEE94E08DCF67EE74E08EE55C
:102D800094E00E94BA0C813009F054C08DEF93E0BA
:102D90009F938F9385EF93E09F938F9385E392E0CA
:102DA0009F938F938EE594E09F938F930E94DA34E4
:102DB0000FB6F894DEBF0FBECDBF8091F5039091A2
:102DC000F603A091F703B091F8038F3F9105A10599
:102DD000B10509F050F563E070E08CED94E00E94DD
:102DE000550D60912F0370E080E090E043E050E0EB
:102DF0000E94910D63E070E082ED94E00E94550D19
:102E00006091F5037091F6038091F7039091F803B8
:102E100043E050E00E94C60D83E090E00E94F80D70
:102E20008091F50380932F037BC061E070E085EC17
:102E300094E030CF60EC74E08EE594E00E94BA0C30
:102E4000813009F075C01092F1031092F2031092D4
:102E5000F3031092F4031092ED031092EE0310921C
:102E6000EF031092F0038DEF93E09F938F938DEE1D
:102E700093E09F938F9381EF93E09F938F9381E2F1
:102E800092E09F938F938EE594E09F938F930E949F
:102E9000DA340FB6F894DEBF0FBECDBF8091F103D8
:102EA0009091F203A091F303B091F4038F3F910549
:102EB000A105B10509F0B8F58091ED039091EE03FD
:102EC000A091EF03B091F003893BEBE09E07A105D1
:102ED000B10548F590932E0380932D0363E070E0D5
:102EE00085EB94E00E94290E60E08091F1030E943E
:102EF000E11260912C0370E080E090E043E050E04C
:102F00000E94910D63E070E084EA94E00E94550D08
:102F100063E070E080912D0390912E030E941A13BC
:102F20000E94C409AAC061E070E087E994E0B2CED3
:102F300062E974E08EE594E00E94BA0C813009F0F9
:102F400064C01092E9031092EA031092EB0310920E
:102F5000EC031092E5031092E6031092E70310923F
:102F6000E8038DEF93E09F938F9384EE93E09F931C
:102F70008F9385EE93E09F938F9389EE93E09F93D9
:102F80008F9385E492E09F938F938EE594E09F93D7
:102F90008F930E94DA340E94B90A0091E9031091DC
:102FA000EA032091EB033091EC03DC01CB01801BA1
:102FB000910BA20BB30B0FB6F894DEBF0FBECDBFC3
:102FC0000497A105B10508F002C18091E503909135
:102FD000E603A091E703B091E803892B8A2B8B2BA2
:102FE00009F4F5C00E94B90A2091E5033091E60387
:102FF000621B730BCB0177FF04C088279927861BC0
:10300000970B04970CF081C0E2C069E674E08EE58E
:1030100094E00E94BA0C8130A9F48DEF93E09F9365
:103020008F938EE592E09F938F938EE594E09F932C
:103030008F930E94DA340F900F900F900F900F90A3
:103040000F901BC06DE870E08EE594E00E94BA0C12
:10305000813049F464E070E08DE594E00E94550D04
:1030600084E090E008C062E070E083E594E00E94B4
:10307000550D82E090E00E945C1A69EA71E08EE5ED
:1030800094E00E9489348091FD0387FF13C0209152
:10309000DA02222359F0082E000C990B820F911DA1
:1030A00027FD9A9597FD0196959587958093DA026D
:1030B0001092FD038091DC0287FF9DCC8091DA02A3
:1030C00087FF99CC8091E0039091E103A091E20306
:1030D000B091E303892B8A2B8B2B09F47DC00E94CE
:1030E000B90A0091E0031091E1032091E2033091CD
:1030F000E303DC01CB01801B910BA20BB30BCC973C
:10310000A105B10508F068C076CC0E94B90A00910B
:10311000E9031091EA032091EB033091EC03DC0109
:10312000CB01801B910BA20BB30BB695A79597957E
:1031300087950091E5031091E6032091E703309114
:10314000E803800F911FA21FB31F8093E5039093A4
:10315000E603A093E703B093E80364E070E087E838
:1031600094E00E94550D0E94B90A44E050E00E948C
:10317000C60D64E070E082E894E00E94550D609115
:10318000E5037091E6038091E7039091E80344E042
:1031900050E00E94C60D84E090E00E94F80D8091FE
:1031A000E403813011F01092E40321E08091E40304
:1031B000813009F020E06091E5037091E603809191
:1031C000E7039091E80341E00E94331156CF63E09A
:1031D00070E08EE694E05ECD2091DA023091DC0260
:1031E000822F022E000C990B831B910937FD9395BA
:1031F00097FF03C09195819591090B9794F0231740
:103200003CF48091DB028F5F8E3E14F08E30A4F090
:1032100032173CF48091DB0281508E3E14F08E30E8
:103220005CF00E94B90A6093E0037093E10380931D
:10323000E2039093E303DFCB60E00E946113F1CFE0
:1032400026960FB6F894DEBF0FBECDBFDF91CF91AB
:103250001F910F91FF90EF90DF90CF90BF90AF90B4
:103260009F908F907F906F905F904F903F902F90A6
:1032700008951F93CF93DF93CDB7DEB728970FB68E
:10328000F894DEBF0FBECDBF0E94B90A6093D6028C
:103290007093D7028093D8029093D9028091D6057B
:1032A0009091D705DC01ED91FC910190F081E02D2A
:1032B0000995882309F486C08091D8050E94761B61
:1032C0008091E1060E94761B88EE93E09093DF05E3
:1032D0008093DE0548E050E068EF72E0CE01019691
:1032E0000E948B3ABE016F5F7F4F82EE96E00E9494
:1032F000920844EE67E082EE96E00E941B0640ECE6
:1033000068E082EE96E00E941B0640E069E082EEF3
:1033100096E00E941B066091DB0282EE96E00E941E
:10332000621B8091E00289838091DF028A83809111
:10333000DE028B838091DD028C836EE282EE96E06A
:103340000E946C06182F24E0AE014F5F5F4F6FE2C2
:1033500082EE96E00E94CD05412F477C48696EE2DF
:1033600082EE96E00E941B0620E141EE52E06EE301
:1033700082EE96E00E94CD056DE382EE96E00E941B
:103380006C06482F41606DE382EE96E00E941B06BA
:1033900082EE96E00E9457066091D6027091D702A5
:1033A0008091D8029091D90220E040E00E94331130
:1033B00028960FB6F894DEBF0FBECDBFDF91CF9138
:1033C0001F91089561E070E088E294E00E94290E68
:1033D00077CF83E090E090930A018093090160E049
:1033E00080E00E94E11284E690E090932E038093A7
:1033F0002D038CE380932F0388EE93E090933103A9
:10340000809330038DE08093DB0285EB8093DC02B8
:1034100082E08093E10681E080932A031092E0022B
:103420001092DF028093DE028093DD0280E1E1E210
:10343000F1E0A1EEB2E001900D928A95E1F71092D1
:1034400023030E94C4090C9439193FB7F894809162
:10345000480490914904A0914A04B0914B0426B5C8
:10346000A89B05C02F3F19F00196A11DB11D3FBFBC
:10347000BA2FA92F982F8827820F911DA11DB11D4A
:10348000BC01CD0142E0660F771F881F991F4A9546
:10349000D1F70895009769F0FC0101900020E9F749
:1034A0003197AF01481B590BBC018AEA94E00C9498
:1034B000170380E090E00895CF93DF9320910901F6
:1034C00030910A012817390794F0EC018091080126
:1034D000882321F061E0CE010E94300D8EE594E05A
:1034E0000E944A1ACE01DF91CF910C94F80DDF9122
:1034F000CF910895CF92DF92EF92FF926B017C0102
:1035000020E030E048EC52E40E948F330E94C63243
:10351000CB0164E670E00E94CD319F938F93C70189
:10352000B6010E94C6327F936F938AE692E09F9322
:103530008F9387E497E09F938F930E94B7348DB762
:103540009EB708960FB6F8949EBF0FBE8DBF60E081
:1035500070E087E497E0FF90EF90DF90CF900C94BD
:10356000760D0F931F93CF93DF938C01C0E0D0E0D3
:10357000F801EC0FFD1F6491662371F0E091AA043D
:10358000F091AB040190F081E02D8AEA94E0099576
:10359000892B11F02196ECCFCE01DF91CF911F91B5
:1035A0000F910895CF93C82F0E94650F20915D045D
:1035B000211102C080E084C0CC23F9F090915C041A
:1035C00040E050E08EE0BA0162507109623071054E
:1035D00068F0992311F0915001C099E0899FF001A2
:1035E0001124E65BFA4F44855585EDCF909344074F
:1035F000509346074093450710C0E0915B04E09369
:1036000044078EE0E89FF0011124E65BFA4F8485C1
:1036100095859093460780934507E09144074E2F88
:1036200050E08EE0E89FF0011124E65BFA4F8081C4
:103630009181A281B38180934D0490934E04A09315
:103640004F04B093500484819581A681B781809303
:10365000510490935204A0935304B093540484856E
:10366000958590935A048093590480859185A2850D
:10367000B3858093550490935604A0935704B09358
:1036800058048091450790914607029709F092CF20
:1036900083E090E095878487CA0101966AE070E034
:1036A0000E94CD3180935B04CC2319F010925D040D
:1036B00006C0222321F08FEF820F80935D0481E00A
:1036C000CF910895FC016E3E14F0678F02C08EEE1C
:1036D000878F878D8E3014F08DE0878F478D4E5EFB
:1036E0004F71406861E1CF010C941B061F93CF938B
:1036F000DF93182FC6EDD5E088819981DC01ED912B
:10370000FC910688F789E02D612F099588819981C0
:10371000DC01ED91FC91028CF38DE02D612F099578
:103720001A83DF91CF911F9108958091D6059091D2
:10373000D705DC01ED91FC910484F585E02D099419
:10374000FF920F931F93CF93DF938C01F62EC6ED5C
:10375000D5E088819981DC01ED91FC91008CF18D9F
:10376000E02D642F099588819981DC01ED91FC9110
:103770000680F781E02D4F2DB801DF91CF911F9189
:103780000F91FF900994FF920F931F93CF93DF93B4
:103790001F92CDB7DEB7F62E06ED15E0F801A08139
:1037A000B181ED91FC911197048CF58DE02D682F7E
:1037B000CD010995D8018D919C91DC01ED91FC9191
:1037C000068CF78DE02D40E060E8099581E2898361
:1037D0004F2D61E0CE0101960E94A01B0E94951B17
:1037E0000F90DF91CF911F910F91FF900895CF928D
:1037F000DF92EF92FF920F931F93CF93DF936C01B1
:103800007B018A01E901892B69F08091D6059091AD
:10381000D705DC01ED91FC9104A0F5A1E02D0995FF
:10382000F6018083E114F10469F08091D60590914E
:10383000D705DC01ED91FC9102A0F3A1E02D0995E3
:10384000F70180830115110569F08091D6059091EB
:10385000D705DC01ED91FC9106A0F7A1E02D0995BB
:10386000F8018083209761F08091D6059091D7056B
:10387000DC01ED91FC9100A4F1A5E02D0995888370
:1038800081E0DF91CF911F910F91FF90EF90DF903A
:10389000CF90089590E0FC01E658FA4F3491FC0176
:1038A000E856FA4F2491FC01E455FA4FE491EE23D7
:1038B00009F43BC0332339F1333091F038F431301F
:1038C000A9F0323001F584B58F7D12C0373091F008
:1038D0003830A1F03430B9F4809180008F7D03C07E
:1038E000809180008F77809380000DC084B58F77A2
:1038F00084BD09C08091B0008F7703C08091B00073
:103900008F7D8093B000F0E0EE0FFF1FE059FA4F7B
:10391000A591B4918FB7F894EC91611103C02095F3
:103920002E2301C02E2B2C938FBF0895CF93DF93AE
:1039300090E0FC01E856FA4F2491FC01E455FA4F5F
:103940008491882361F190E0880F991FFC01E25770
:10395000FA4FC591D491FC01E059FA4FA591B49169
:10396000611109C09FB7F8948881209582238883CC
:10397000EC912E230BC0623061F49FB7F89438812C
:10398000822F809583238883EC912E2B2C939FBFCD
:1039900006C08FB7F894E8812E2B28838FBFDF9164
:1039A000CF910895CF93CFB7F89480914C048111B3
:1039B00027C0E6EBF5E08491E2EAF5E09491E82F88
:1039C000F0E0EE0FFF1FE257FA4FA591B491EC9192
:1039D000E92321F461E08AE00E944A1C61E08AE068
:1039E0000E94961C8CB580618CBD8CB580648CBDAA
:1039F00061E08DE00E94961C61E08BE00E94961CC5
:103A000080914C048F5F80934C04CFBFCF91089579
:103A10008E3008F08E508770806480937C00809197
:103A20007A00806480937A0080917A0086FDFCCFD2
:103A3000809178002091790090E0922B08958F92E8
:103A40009F92AF92BF92CF92DF92EF92FF926B0163
:103A50007C010E94251A4B015C01C114D104E104D0
:103A6000F104F1F00E94251ADC01CB0188199909B3
:103A7000AA09BB09883E9340A105B10570F321E076
:103A8000C21AD108E108F10888EE880E83E0981E7A
:103A9000A11CB11CC114D104E104F10419F7DDCF5C
:103AA000FF90EF90DF90CF90BF90AF909F908F905E
:103AB00008952FB7F8946091440470914504809163
:103AC0004604909147042FBF08958CB58F778CBD25
:103AD00008958CB580688CBD08959CB5282F2370FF
:103AE0009C7F922B9CBD2DB582FB992790F9822F4C
:103AF0008E7F892B8DBD089580E00895FC0181851E
:103B00000895FC0180850895FC0187810895FC01DA
:103B100086810895FC01409595854923642B65872E
:103B20000895FC0164870895FC0163870895FC01F2
:103B300062870895FC0164830895FC0165830895FC
:103B400080E00895FC012281338123303105D1F3D7
:103B500081E00895CF93DF93EC01E881F981028041
:103B6000F381E02DCE0109958823B9F3DF91CF9140
:103B7000089581E008958EBD00000DB407FEFDCFCD
:103B80008EB50895862F0C94BB1DCF93FC01268122
:103B900037812115310549F02130310541F02230BE
:103BA000310539F02330310531F020E005C024E043
:103BB00003C028E001C02CE09CB5937F922B9CBDF4
:103BC000848195810197C1F48CB580628CBD82811E
:103BD000938101978430910528F4FC01E957FE4F49
:103BE000C08101C0C1E08C2F0E946D1D0E94D21CBB
:103BF0008C2FCF910C946D1D9CB59F7D9CBDE7CF04
:103C00008F929F92AF92BF92CF92DF92EF92FF92EC
:103C1000CF93DF93EC016B010E94591D4B015C01B6
:103C2000E12CF12C0E94591DDC01CB018819990966
:103C3000AA09BB098C159D05AE05BF0530F48A8124
:103C40009B81039779F381E001C080E0DF91CF9100
:103C5000FF90EF90DF90CF90BF90AF909F908F90AC
:103C600008958F929F92AF92BF92CF92DF92EF9280
:103C7000FF92CF93DF93EC016B010E94591D4B0122
:103C80005C01E12CF12C0E94591DDC01CB0188194B
:103C90009909AA09BB098C159D05AE05BF0550F40D
:103CA000E881F9810280F381E02DCE010995882316
:103CB00051F301C080E0DF91CF91FF90EF90DF9052
:103CC000CF90BF90AF909F908F9008958F929F92CA
:103CD000AF92BF92CF92DF92EF92FF92CF93DF939A
:103CE000FC0126893789232B11F481E038C0EC01CF
:103CF0000E94591D6B017C0189E0882E912CA12C1A
:103D0000B12CE881F9810488F589E02DCE0109956F
:103D1000882359F30E94591DAB01BC014C195D0960
:103D20006E097F098E899F89A0E0B0E0841795070E
:103D3000A607B70798F00E945138A50194010E9488
:103D4000B33D9B01AC012F5F3F4F4F4F5F4FA4E648
:103D5000B0E00E94D23D0E941F1DD3CF80E0DF91D2
:103D6000CF91FF90EF90DF90CF90BF90AF909F905A
:103D70008F900895BF92CF92DF92EF92FF920F93B0
:103D80001F93CF93DF937C01C62FD42EB22EC32E68
:103D9000FC01218182819091A203992379F09FB740
:103DA000F8943091A203313039F43DB330935F077A
:103DB0003DB33DBB9FBF02C090935F072CBD8DBD3F
:103DC00061E0F70180810E944A1CDD2011F080E152
:103DD00001C080E98C2B0E94BB1DCB2DDC2D0C0F6C
:103DE0001D1FC017D10761F0D11005C080E00E94EF
:103DF000BB1D888303C088810E94BB1D2196F1CF23
:103E000060E0F70180810E944A1C8091A203882310
:103E100061F09FB7F8942091A20380915F07213051
:103E200019F48DBB9FBF01C08FBFDF91CF911F9150
:103E30000F91FF90EF90DF90CF90BF900895CF93B8
:103E4000DF93EB010E946B3D8883CE01DF91CF9120
:103E500008950F931F93CF93DF938C01EB010E9482
:103E60006B3D8883C80101960E946B3D8983CE011A
:103E7000DF91CF911F910F910895CF93DF93EB01C5
:103E80000E946B3D8883CE01DF91CF9108950F93FF
:103E90001F93CF93DF9300D0CDB7DEB78B01FB012B
:103EA00060819A838983CE0101960E942813C801FC
:103EB0000F900F90DF91CF911F910F910895EF9286
:103EC000FF920F931F93CF93DF9300D0CDB7DEB750
:103ED0008C017B01FB0160819A838983CE0101966D
:103EE0000E942813F70161810F5F1F4F1A83098316
:103EF000CE0101960E942813C7010F900F90DF9109
:103F0000CF911F910F91FF90EF9008950F931F9302
:103F1000CF93DF9300D0CDB7DEB78B01FB0160817B
:103F20009A838983CE0101960E942813C8010F90BD
:103F30000F90DF91CF911F910F910895CF93DF9351
:103F4000D82FC1E0DC1780F05C9A64EF71E080E06C
:103F500090E00E941F1D5C986AEF70E080E090E0A6
:103F60000E941F1DCF5FEECFDF91CF9108950F9379
:103F70001F93CF93DF9380915B0790915C07A09193
:103F80005D07B0915E07892B8A2B8B2BA9F00E94CD
:103F9000B90A00915B0710915C0720915D07309191
:103FA0005E07DC01CB01801B910BA20BB30B8438A5
:103FB0009340A105B10588F180EC95E09F938F9324
:103FC000CEE5D4E0DF93CF930E94C73A0E94B90AAE
:103FD0009F938F937F936F93DF93CF9382E792E0CA
:103FE0009F938F93DF93CF930E94B73461E08091CA
:103FF0002A030E94CC130E94B90A60935B07709356
:104000005C0780935D0790935E078DB79EB70E9611
:104010000FB6F8949EBF0FBE8DBFDF91CF911F9159
:104020000F9108951F920F920FB60F9211242F93A4
:104030003F938F939F93AF93BF938091440490914C
:104040004504A0914604B09147043091600723E0F5
:10405000230F2D3720F40196A11DB11D05C026E8C0
:10406000230F0296A11DB11D209360078093440485
:1040700090934504A0934604B0934704809148046C
:1040800090914904A0914A04B0914B040196A11D5E
:10409000B11D8093480490934904A0934A04B093BF
:1040A0004B04BF91AF919F918F913F912F910F90B2
:1040B0000FBE0F901F901895CF93DF93CDB7DEB74B
:1040C000E9970FB6F894DEBF0FBECDBF789484B5E4
:1040D000826084BD84B5816084BD85B5826085BD04
:1040E00085B5816085BD80916E00816080936E0092
:1040F0001092810080918100826080938100809184
:104100008100816080938100809180008160809334
:1041100080008091B10084608093B1008091B000F4
:1041200081608093B00080917A00846080937A00EF
:1041300080917A00826080937A0080917A00816019
:1041400080937A0080917A00806880937A00109240
:10415000C10060E086E00E94961C61E084E00E945D
:10416000961C60E084E00E944A1C60E08EE00E94A1
:10417000961C60E083E00E94961C809123038823B4
:1041800011F060E001C062E08FE00E94961C62E0E6
:1041900085E00E94961C62E088E00E94961C62E026
:1041A00089E00E94961C62E080E10E94961C62E019
:1041B00081E10E94961C62E082E10E94961C62E00E
:1041C00083E10E94961CE091BA04F091BB0482E066
:1041D0008083E091B604F091B7041082E091B804B6
:1041E000F091B90480E180831092C204E091BE0492
:1041F000F091BF0486E08083E091BC04F091BD049F
:10420000808180618083E091BC04F091BD04808155
:1042100088608083E091BC04F091BD048081806857
:104220008083E091BC04F091BD0480818F7D808308
:1042300080E090E00E94F80D80E090E00E94F80D90
:1042400060E070E08BE990E00E94290E1091670712
:1042500060E070E08CE790E00E94550DC12ED12CFB
:10426000E12CF12C19A2CE018196B701A6014F7065
:1042700055276627772724E0F694E794D794C794C8
:104280002A95D1F701974A3051056105710510F45F
:10429000405D01C0495CDC014C93C114D104E104D0
:1042A000F10419F70E944A1A13FF07C060E070E09A
:1042B00088E790E00E94550D177F12FF07C060E06D
:1042C00070E084E790E00E94550D1B7F11FF07C04E
:1042D00060E070E080E790E00E94550D1D7F10FFC8
:1042E00007C060E070E08CE690E00E94550D1E7FF4
:1042F000112331F060E070E088E690E00E94550DF7
:1043000080E090E00E94F80D1DA21CA21BA21AA240
:10431000FE013196FFABEEAB80E111928A95E9F791
:10432000A895BE016B5D7F4F80E090E00E943D1F2D
:104330008DA1853038F490E090930A0180930901B3
:1043400011E001C010E0BE016B5D7F4F81E090E0A5
:104350000E943D1F8DA18F3F21F060E00E94E1127D
:1043600001C010E01E01F2E22F0E311CB10182E00B
:1043700090E00E94291F8AA19BA1893B2BE0920714
:1043800028F490932E0380932D0301C010E0BE010A
:104390006B5D7F4F84E090E00E943D1F8DA18F3FB9
:1043A00019F080932F0301C010E0B10185E090E087
:1043B0000E94291F8AA19BA19C0121503109283EFE
:1043C0003D4F28F4909331038093300301C010E0F7
:1043D000CE01849699AF88AFBC0187E090E00E943F
:1043E0001F1F8CA192E1980F903208F4DEC310E0F9
:1043F000BE016C5D7F4F88E090E00E941F1F8CA182
:1044000094E6980F953618F48093DC0201C010E012
:10441000A895BE016B5D7F4F89E090E00E943D1F33
:104420008DA19FEF980F9E3F18F48093E10601C085
:1044300010E0BE016B5D7F4F8AE090E00E943D1F5F
:104440008DA19FEF980F9E3F18F480932A0301C01F
:1044500010E0BE016B5D7F4F8BE090E00E943D1F3E
:104460008DA18F3F19F08093E00201C010E0BE01E2
:104470006B5D7F4F8CE090E00E943D1F8DA18F3FD0
:1044800019F08093DF0201C010E0BE016B5D7F4F29
:104490008DE090E00E943D1F8DA19FEF980F9E3F01
:1044A00018F48093DE0201C010E0BE016B5D7F4F07
:1044B0008EE090E00E943D1F8DA19FEF980F9E3FE0
:1044C00018F48093DD0201C010E080E1AEA9BFA91D
:1044D0001D928A95E9F7FE0131967F019FE0692ED2
:1044E000712C0EA9005FB701C3010E943D1FF701A7
:1044F0008081FFEFEF1AFF0A80528F3508F010E03D
:104500002FEF621A720A0E11EECF112381F080E1B3
:10451000E1EEF2E0DF01882E1D928A94E9F7FE01B8
:104520003196A1EEB2E001900D928A95E1F7BE01BD
:104530006B5D7F4F8FE190E00E943D1F8DA1823027
:1045400058F061E070E085E890E00E94290E0E943A
:10455000E9190E94C40904C080932303112389F33D
:104560000E94391964E070E082E990E00E94290E0F
:1045700088E5898301E010E09E012F5F3F4F41E015
:1045800060E087E495E00E94BA1E0E94B71F0E9477
:10459000B90A6093D6027093D7028093D8029093A1
:1045A000D9028B019C010058164428463845013831
:1045B0001F4222413E4338F020E041E060E876E4CB
:1045C00088E698E512C0E0915C045EE0E59FF001AA
:1045D0001124E65BFA4F0081118122813381012B86
:1045E000022B032B21F421E041E00E94331183E0F0
:1045F0000E949E1F8091D6029091D702A091D8026E
:10460000B091D90280933C0390933D03A0933E0365
:10461000B0933F038DE890E09F938F930EE514E0F5
:104620001F930F930E94C73A809167071F928F9341
:104630001F928AE08F931F930F938BE891E09F93D3
:104640008F931F930F930E94B73460E080912A03E9
:104650000E94CC130FB6F894DEBF0FBECDBF809181
:1046600023038130F1F48FE090E0909391028093E6
:10467000900283E393E3AEEDB2E4809396029093CD
:104680009702A0939802B093990280E090E0A0E096
:10469000B4E48093B2029093B302A093B402B093B7
:1046A000B50299E288E10FB6F894A895809360006E
:1046B0000FBE90936000DE0111966D01FE01B2966F
:1046C000FCA7EBA78EE5E82E84E0F82E81E080932E
:1046D000A1039E012B5D3F4F38A72FA3AE014A5D7A
:1046E0005F4F5AA749A78091A103873008F05AC2AB
:1046F0008AEA94E00E945503A895181619067CF5DD
:10470000E091A003E11108C09C012F7D2A353105FD
:1047100019F40E94481323C09C012052310920360D
:10472000310548F08D30910511F40C94A730883094
:10473000910521F014C0E73290F402C0E73220F472
:104740008830910509F016C5E150E093A003F0E030
:10475000E15BFC4F108286EA91E00E944A1A19B18F
:1047600016FB882780F911E01827109380038091A9
:104770000201882339F0112309F44BC00E94481329
:1047800083E016C280917B031123C9F040917C0322
:1047900050917D0360917E0370917F03452B462BE2
:1047A000472B69F481110BC00E94591D60937C0353
:1047B00070937D0380937E0390937F032AC08111C1
:1047C00020C011111EC040907C0350907D0360906A
:1047D0007E0370907F03411451046104710489F0D9
:1047E0000E94591DDC01CB0184199509A609B7095E
:1047F000893E9340A105B10520F40E94481385E04D
:10480000D7C180917B03811104C0112311F40C9452
:10481000383080917B03882309F450C00E94591DD1
:1048200000917703109178032091790330917A03F6
:10483000DC01CB01801B910BA20BB30B883E934094
:10484000A105B105D8F10E94591D609377037093BB
:1048500078038093790390937A030E94591D009105
:104860007C0310917D0320917E0330917F03DC0156
:10487000CB01801B910BA20BB30B81369A4EA10585
:10488000B105E0F060E070E086EA92E00E94290E57
:1048900010927C0310927D0310927E0310927F038E
:1048A00010927703109278031092790310927A0392
:1048B00010927B0360E080E00E94E1128091860309
:1048C0008823D1F080918503882309F480C10E9458
:1048D000591D00918103109182032091830330912F
:1048E0008403DC01CB01801B910BA20BB30B0A9755
:1048F000A105B10508F067C1A8958091A0038111B9
:104900002EC080912D0390912E03892B41F180912F
:104910001A0390911B03A0911C03B0911D03892BD6
:104920008A2B8B2BE1F00E94591D00911A031091E4
:104930001B0320911C0330911D03AB01BC01401BE4
:10494000510B620B730B80912D0390912E03A0E00D
:10495000B0E0481759076A077B0708F05EC18091ED
:10496000A003811119C18091A10380FFA5C080918E
:10497000280390912903892B89F000912803109135
:1049800029030E94B90A980140E050E000E00E942B
:104990005510109229031092280302C00E94650F3F
:1049A00080911E03811112C080915D04882309F457
:1049B00064C08091240390912503A0912603B091B7
:1049C0002703892B8A2B8B2B09F057C081E00E948B
:1049D000D21A882309F449C084EC92E09F938F9304
:1049E000FF92EF920E94C73A2091510430915204F5
:1049F000409153045091540460911F03709120031F
:104A000080912103909122030E94EE0C9F938F933B
:104A10007F936F93809150048F9380914F048F9375
:104A200080914E048F9380914D048F93FF92EF926B
:104A30008EEB91E09F938F93FF92EF920E94B73499
:104A400060E080912A030E94CC130E94B90A60930F
:104A500024037093250380932603909327030FB6B6
:104A6000F894DEBF0FBECDBF06C061E070E085EBFD
:104A700092E00E94290E10921E0380915D04843002
:104A800008F0D7C0882309F487C00E94B90A0091B2
:104A90002403109125032091260330912703DC0184
:104AA000CB01801B910BA20BB30B8C329140A10563
:104AB000B10508F0BEC070C0823009F04DC08091D1
:104AC00000019091010188359240E1F00E94B90AFD
:104AD000009138031091390320913A0330913B0340
:104AE000AB01BC01401B510B620B730B8091360371
:104AF00090913703A0E0B0E0481759076A077B0799
:104B000008F0E8C18091320390913303A0913403FF
:104B1000B0913503892B8A2B8B2B09F4E2C10E94BB
:104B2000B90A00913203109133032091340330917C
:104B30003503AB01BC01401B510B620B730B809121
:104B4000000190910101A0E0B0E0481759076A0701
:104B50007B0708F0C6C120C0843019F40E94B71F3B
:104B60001BC08630C9F4809102018823A9F00E94FD
:104B7000B90A00913C0310913D0320913E0330910E
:104B80003F03DC01CB01801B910BA20BB30B0F97F2
:104B9000A105B10508F090C28091A1038F5F8093B9
:104BA000A103A1CD0E94170491CD8093DB0220CCFC
:104BB0000E949E1F10927C0310927D0310927E0330
:104BC00010927F0326CE109285035C981BC00E9432
:104BD000591D00918103109182032091830330912C
:104BE0008403DC01CB01801B910BA20BB30B883E2D
:104BF0009340A105B10508F47FCE81E08093850341
:104C00000E9478090E94591D60938103709382036A
:104C100080938303909384036FCE5C9810921A0361
:104C200010921B0310921C0310921D031092190383
:104C300096CE80912303813019F48EEC92E002C06D
:104C400089EC92E09F938F93FF92EF920E94C73A74
:104C50000F900F900F900F9080912303813011F0EF
:104C600084E001C082E080938D03E0915B04FEE06C
:104C7000EF9FD0011124A65BBA4F4D905D906D90CF
:104C80007C90A301920121503109410951092DA7BE
:104C90003EA74FA758ABEE2311F0E15001C0E9E069
:104CA0003EE0E39FF0011124E65BFA4F2481358159
:104CB0004681578160911F037091200380912103E9
:104CC000909122030E94EE0C2B013C017F926F9287
:104CD0005F926F9348A94F935FA55F938EA58F93C3
:104CE0009DA59F93FF92EF928EEB91E09F938F9300
:104CF000FF92EF920E94B73481E080938C038093FF
:104D00008B030FB6F894DEBF0FBECDBF1EE08091BF
:104D10008B03882309F4CEC090918C0380918D037E
:104D2000891708F4C7C080E00E94D21A80938B03D1
:104D3000882309F4B9C02091510430915204409164
:104D400053045091540460911F037091200380918B
:104D50002103909122030E94EE0C609387037093CD
:104D600088038093890390938A0380904D049090E8
:104D70004E04A0904F04B09050048AAA9BAAACAAFB
:104D8000BDAA2DA53EA54FA558A982169306A40637
:104D9000B50608F464C0641575058605970508F422
:104DA0005EC0DC01CB0184199509A609B709BF9340
:104DB000AF939F938F93E0915B041E9FF0011124AA
:104DC000E65BFA4F80819181A281B38188199909AC
:104DD000AA09BB09BF93AF939F938F93FF92EF9262
:104DE000A9ECB1E0BF93AF93FF92EF920E94B7346A
:104DF0000FB6F894DEBF0FBECDBF80912303813084
:104E000071F540905504509056046090570470908E
:104E1000580420E030E048EC52E4C301B2010E94A3
:104E20008F330E94C632CB0164E670E00E94CD3120
:104E30009F938F93C301B2010E94C6327F936F93F9
:104E4000FF92EF92A4EDB1E0BF93AF93FF92EF9288
:104E50000E94B7340FB6F894DEBF0FBECDBFE0910D
:104E60005B041E9FF0011124E65BFA4F40805180E5
:104E70006280738080914D0490914E04A0914F0404
:104E8000B091500453014201881A990AAA0ABB0A38
:104E90008DA69EA6AFA6B8AA40908703509088031F
:104EA0006090890370908A0380918C038F5F809358
:104EB0008C032DCF60E080912A030E94CC130E94C6
:104EC000B90A60932403709325038093260390937B
:104ED000270362CE88E592E0909301018093000160
:104EE00011CE1092900310919003133068F48EE06D
:104EF0000E94081D64E670E080E090E00E941F1DA3
:104F00001F5F10939003EFCF10928F0310928E03C8
:104F100010929003109190031A3088F48EE00E9452
:104F2000081D20918E0330918F03820F931F909361
:104F30008F0380938E031F5F10939003EBCF8091BC
:104F40008E0390918F036AE070E00E94B93180E097
:104F500090E00E94FC3226E636E24BE953E40E94E0
:104F600054322DEC3CEC4CE650E40E948F3320E0B0
:104F700030E04AE754E40E948F330E94CD327093B0
:104F800092036093910364E070E083ED92E00E94ED
:104F9000550D64E070E080919103909192030E941E
:104FA0001A130E94B90A00913C0310913D0320910D
:104FB0003E0330913F03DC01CB01801B910BA20B20
:104FC000B30B8093930390939403A0939503B093B2
:104FD000960383EE92E09F938F93FF92EF920E944D
:104FE000C73AF0913003A0913103E0912F03609113
:104FF0002D0370912E0330912C0320912B03422F0F
:10500000022E000C550B80916107909162070F9062
:105010000F900F900F90009711F488E697E0AF93F0
:10502000FF931F92EF937F936F931F923F935F9332
:105030002F93A601481B590BCA019F934F93809150
:105040009A038F93809199038F93809198038F9304
:10505000809197038F93809196038F93809195030E
:105060008F93809194038F93809193038F9380917A
:1050700092038F93809191038F93FF92EF928FED24
:1050800091E09F938F93FF92EF920E94B73461E07B
:1050900080912A030E94CC130E94B90A60933203C4
:1050A0007093330380933403909335030FB6F894D1
:1050B000DEBF0FBECDBF70CD0E94B90A60939C03C6
:1050C00070939D0380939E0390939F0382EE96E0DE
:1050D0000E94570661E08AE00E944A1C61E087E076
:1050E0000E944A1C8AEA94E00E94F5030FB6F894E5
:1050F000A8958091600088618093600010926000A4
:105100000FBE20E030E040E050E06AE070E08BE964
:1051100093E00E94810599E288E10FB6F894A89582
:10512000809360000FBE909360000E94B90A0091C6
:105130009703109198032091990330919A0340901E
:105140009C0350909D0360909E0370909F030419F0
:10515000150926093709DC01CB01800F911FA21F19
:10516000B31F8093970390939803A0939903B093F0
:105170009A0312CD8D30910509F066C780E090E06A
:105180000E94F80D8091A0031092A003882309F4D7
:10519000E6CA84E1AEA9BFA91D928A95E9F71092EB
:1051A0008703109288031092890310928A0361EAA0
:1051B00072E08FE493E00E94BA0C813029F40E94DF
:1051C000070E01E010E002C000E010E06CE972E0C0
:1051D0008FE493E00E94BA0C813009F03AC1E0916B
:1051E0005C048EE08E9FF0011124E65BFA4FADE483
:1051F000B4E001900D928A95E1F70E94700D60E095
:1052000070E086E992E00E94550D60911F03709155
:105210002003809121039091220320E030E0A90136
:105220000E94EE0C40E050E00E94E60D60E070E06D
:105230008FE892E00E94550D209151043091520464
:10524000409153045091540460911F0370912003C6
:1052500080912103909122030E94EE0C40E050E0E7
:105260000E94E60D80E090E00E94F80D0E94BD0BC8
:1052700060934003709341038093420390934303F0
:105280000E94700D60E070E08DEA90E00E94550D84
:1052900060914003709141038091420390914303D8
:1052A0000E947A1A60E070E084EA90E00E94550D56
:1052B00020E030E046E653E4609140037091410302
:1052C00080914203909143030E948F330E947A1A87
:1052D00060E070E082EA90E00E94290E0E94700D6A
:1052E00060E070E08AE892E00E94550D809128030A
:1052F0009091290360E070E00E941A130E94700DE3
:1053000060E070E08EE792E00E94550D80915D04B0
:1053100060E070E090E00E94D2120E94700D60E0A8
:1053200070E084E792E00E94550D60912403709133
:105330002503809126039091270340E050E00E94CE
:10534000C60D80E090E00E94F80D0E94700D60E0B4
:1053500070E08BE692E00E94550D80915C0460E065
:1053600070E090E00E94D2120E94700D60E070E048
:1053700083E692E00E94550D80915B0460E070E04E
:1053800090E00E94D2120E94700D60E070E083EB0A
:1053900090E00E94290E10E0812F0E94480E1F5FAE
:1053A0001A30D1F70E94700D60E070E08DE592E058
:1053B0000E94550D60E070E08091910390919203FE
:1053C0000E941A130E94700D60E070E088E592E080
:1053D0000E94550D8091610790916207009711F42A
:1053E00088E697E060E070E0F101E81BF90BCF017F
:1053F0000E941A130E94700D60E070E083E592E055
:105400000E94550D80910201811103C088E492E051
:1054100002C08AE492E060E070E00E94290E0E94DF
:10542000700D60E070E08CE492E00E94550D609198
:105430009703709198038091990390919A0340E0AB
:1054400050E00E94C60D80E090E00E94F80D02E05E
:1054500010E063E472E08FE493E00E94BA0C8130C4
:1054600051F490912303913009F480E08093230359
:1054700001E010E003C00230110541F063E472E086
:105480008FE493E00E94BA0C813069F40E94700DA1
:1054900080912303813009F479C589E392E060E0CB
:1054A00070E00E94290E64E372E08FE493E00E94B2
:1054B000BA0C813021F40E94E91901E010E06FE29A
:1054C00072E08FE493E00E94BA0C823081F5EFE441
:1054D000F3E001900020E9F7AF014555534064E542
:1054E00073E0C6010E94A83440E050E060E070E044
:1054F000C6010E947039609387037093880380937C
:10550000890390938A03611571058105910539F02E
:1055100020E041E00E94331101E010E00BC00E9446
:10552000700D60E070E086E292E00E94550D02305E
:10553000110549F06FE272E08FE493E00E94BA0C2B
:10554000882309F46CC00E94700D84E493E00E94EB
:10555000380A60E070E084EC90E00E94550D4090C5
:105560004403709045035090460360904803209197
:10557000490380914A034091090150910A0157FD66
:1055800039C090E08E54984F29AB0E94B10D60E075
:1055900070E080EC90E00E94550D29A9822F90E0E8
:1055A0000E94B10D60E070E08EEB90E00E94550D1E
:1055B000862D90E00E94B10D60E070E08CEB90E0F1
:1055C0000E94550D852D90E00E94B10D60E070E0C5
:1055D0008AEB90E00E94550D872D90E00E94B10D5E
:1055E00060E070E088EB90E00E94550D842D90E023
:1055F0000E94B10D60E070E082EC90E00E94550DD9
:105600000E94B90A40E050E00E94C60D80E090E0A0
:105610000E94F80D0230110511F001E010E061E286
:1056200072E08FE493E00E94BA0C823009F04BC024
:10563000EFE4F3E001900020E9F7AF014555534056
:1056400064E573E081EF92E00E94A8346BE172E0C0
:1056500081EF92E00E94BA0C813019F481E090E071
:1056600020C066E172E081EF92E00E94BA0C8130C6
:1056700019F482E090E015C061E172E081EF92E000
:105680000E94BA0C813019F483E090E00AC06BE00C
:1056900072E081EF92E00E94BA0C813059F484E00C
:1056A00090E090930A01809309010E94C40901E0EF
:1056B00010E00CC00E94700D60E070E080E092E0AD
:1056C0000E94290E4CC80230110541F061E272E0DF
:1056D0008FE493E00E94BA0C8823C1F00E94700D01
:1056E00060E070E088EF91E00E94550D60E08091ED
:1056F000090190910A010E94300D80E090E00E9423
:10570000F80D0230110511F001E010E063EF71E0D7
:105710008FE493E00E94BA0C823079F5EFE4F3E075
:1057200001900020E9F7AF014555534064E573E06F
:1057300081EF92E00E94A834E1EFF2E001900020B6
:10574000E9F7E250F34049F00E94700D60E070E02C
:105750008BEE91E00E94290E10C080E1E1EFF2E0B3
:10576000A1EEB2E001900D928A95E1F70E94C40982
:105770000E94391901E010E003C00230110541F028
:1057800063EF71E08FE493E00E94BA0C8823C9F0C4
:105790000E94700D60E070E086EE91E00E94550D71
:1057A00040E150E061EE72E08AEA94E00E94170363
:1057B00080E090E00E94F80D0230110511F001E048
:1057C00010E061EE71E08FE493E00E94BA0C823049
:1057D00009F04EC0EFE4F3E001900020E9F7AF01DB
:1057E0004555534064E573E081EF92E00E94A83490
:1057F0001EA21DA21CA21AA23CA53F934BA54F932B
:1058000059AD5F9388AD8F9398A59F93AFA1AF9348
:10581000BAA5BF93E9A5EF938AEA91E09F938F938E
:1058200081EF92E09F938F930E94DA340FB6F89441
:10583000DEBF0FBECDBF049749F00E94700D60E03F
:1058400070E088ED91E00E94290E12C08EA1809335
:10585000E0028DA18093DF028CA18093DE028AA1F9
:105860008093DD020E94C4090E94391901E010E012
:105870000230110509F48DC361EE71E08FE493E00D
:105880000E94BA0C811185C363ED71E08FE493E04F
:105890000E94BA0C8230D9F5EFE4F3E001900020C9
:1058A000E9F7AF014555534064E573E0C6010E9436
:1058B000A83440E050E060E070E0C6010E9470391A
:1058C00060938703709388038093890390938A037E
:1058D0002B013C0131E0431A5108610871084DEF7A
:1058E000441651046104710448F00E94700D60E098
:1058F00070E08AEC91E00E94290E09C060932A03AF
:105900000E94C4090E94391901E010E003C002306E
:10591000110541F063ED71E08FE493E00E94BA0C51
:105920008823A1F00E94700D60E070E084EC91E0AB
:105930000E94550D80912A0360E070E090E00E9483
:10594000D2120230110511F001E010E06FEB71E0AE
:105950008FE493E00E94BA0C8230D9F5EFE4F3E0D3
:1059600001900020E9F7AF014555534064E573E02D
:10597000C6010E94A83440E050E060E070E0C6013B
:105980000E94703960938703709388038093890322
:1059900090938A032B013C0151E0451A510861089C
:1059A0007108ADEF4A1651046104710448F00E9479
:1059B000700D60E070E086EB91E00E94290E09C056
:1059C0006093E1060E94C4090E94391901E010E0C9
:1059D00003C00230110541F06FEB71E08FE493E0FA
:1059E0000E94BA0C8823A1F00E94700D60E070E064
:1059F00080EB91E00E94550D8091E10660E070E03F
:105A000090E00E94D2120230110511F001E010E086
:105A10006BEA71E08FE493E00E94BA0C823069F582
:105A2000EFE4F3E001900020E9F7AF014555534062
:105A300064E573E0C6010E94A83440E050E060E0F5
:105A400070E0C6010E945F3870934E0360934D036F
:105A50009B012C593F4F2536310548F00E94700DAF
:105A600060E070E082EA91E00E94290E06C0609337
:105A7000DC020E94C40901E010E06DE971E08FE4EE
:105A800093E00E94BA0C823031F5EFE4F3E001902C
:105A90000020E9F7AF014555534064E573E0C601C6
:105AA0000E94A83440E050E060E070E0C6010E942F
:105AB0005F38862F60934B0370934C0392E1960FEF
:105AC000903208F4A9C20E94700D60E070E083E992
:105AD00091E00E94290E0230110589F06BEA71E015
