:100000000C94EA020C946C150C9445150C94140392
:100010000C9414030C9414030C9404160C94140301
:100020000C9414030C9414030C9414030C941403F4
:100030000C9414030C9414030C9414030C941403E4
:100040000C9428200C9414030C94D2150C94AC1529
:100050000C9414030C9414030C9414030C941403C4
:100060000C9414030C94140320554E0020504F00A0
:100070002045580020424F0020574400525F464C14
:100080004720307800524F4D2042616400474D5365
:10009000470052544320496E6974003D424F4F540B
:1000A0003D005700412C2050524D533D0049524DC8
:1000B000533D004D74723D003A003A0020002D007F
:1000C0002D002F0054696D653D002E002E002E007E
:1000D0004E65742049643D0042616420436D6400B4
:1000E0004C45442050756C7365286D73293D004262
:1000F0006164204C45442074696D65004C4544544E
:10010000004C45443D313A00426164204C45442056
:1001100072617465004C454452004F4646004F4E94
:10012000005473743D0054455354004D747220497B
:100130006E74766C3D004D54524900496D702F6BC2
:1001400057683D0042616420496D702F6B5768000D
:100150004D54525200536574204D74722056616C98
:100160003D004D545256004176672052535349404A
:1001700047773D004C617374204777205353493DC6
:100180000054677420525353493D00545820506F17
:10019000773D00426164205458506F7700545850A6
:1001A0005700426164205253534900545253530044
:1001B0004E6F49643D00426164204E6F4964004EB9
:1001C0004F494400477749643D00426164204777C6
:1001D00049640047574944004261642041646472A5
:1001E000004E455449004B65793D00426164204B07
:1001F000657900454B4559004C6F674C65763D006D
:10020000426164204C6F674C657600444542554717
:1002100000494E464F005741524E004552524F52F0
:10022000004C4F474C004261642054696D65005496
:10023000494D4500524346470043543D4E00435408
:100240003D59004354434C004E005900536C6570B7
:10025000743D00536C703D0052414D3D004261744D
:10026000743D00506F702049783D005075736820D0
:1002700049783D004C617374204D55503D00436CEE
:100280006F73656420456E743D005261773D002CAC
:100290002056616C3D00426173653D0044554D50F0
:1002A0000048454C500041646A204F666600416436
:1002B0006A204F6E004E6F207072696F7220656EFB
:1002C000747279004D524542004D55505F004D55B6
:1002D00050430042617474657279205620286D562F
:1002E000293D0047494E52005A003000203E200070
:1002F000205768002000A102E80243029C02340259
:100300002F022102F301E101D301BF01AB019D01E5
:1003100062015001360126011501FC00436D647332
:100320003A20003D005D002C002C002C003D5B00BD
:100330004F70656E65642000436C6F7365642000C8
:10034000416C676E3E3A3030004C454420313A00F3
:100350004D73674D6772206661696C002C20417691
:100360006720525353493D005458506F773D004F1A
:100370004646004F4E00536C703D00556E6B206D2D
:1003800073673A2000476F742062636173743A2088
:10039000004D4E4F4900476F7420505253502E204D
:1003A0004E6F207570646174650020746F20004783
:1003B0006F7420505253503A20005052535000470F
:1003C0006F7420626164204D504C4900204C4544BC
:1003D0002050756C736520286D73293D00476F743C
:1003E000204D504C493A20004D504C4900476F7405
:1003F00020626164204D494E49002073656373207B
:10040000746F2000476F74204D494E493A20004DCB
:10041000494E4900476F7420626164204D5641493E
:1004200000476F74204D5641493A20004D564149CE
:1004300000476F7420626164204749545200730082
:100440007320666F722000476F7420474954523AF8
:10045000200047495452002E2052535349203D203A
:1004600000476F743A200053656E64206661696CC2
:100470003A20004E6F2041434B2072656376005353
:10048000656E64696E673A20004D736720746F6F04
:10049000206C6F6E673A20000000000025002800E5
:1004A0002B00000000080002010000030407000008
:1004B00000000000000000000000240027002A00C7
:1004C00001020408102040800102040810200102EB
:1004D00004081020040404040404040402020202B8
:1004E00002020303030303035052455100003E8000
:1004F0000052F4F4D0003415004FF4F4D0001A0B7D
:10050000009DF4F4D0000D05013BF4F4D000068307
:100510000275F3F3D000034104EAF2F2D000022C9A
:1005200007AEE2E2D00001000800E1E1D000008067
:100530001000E0E0D000024003334242D0013E8090
:100540000052F4F5D0013415004FF4F4D0011A0B29
:10055000009DF4F4D0010D05013BF4F4D0010683B5
:100560000275F3F3D001034104EAF2F2D001022C48
:1005700007AEE2E2D00101000800E1E1D001008015
:100580001000E0E0D001024003334242D0087D0079
:1005900000108888D008682B0010F1F1D0083415BD
:1005A0000010F5F5D0081A0B0010F4F4D0080D0572
:1005B0000010F3F3D00806830010F2F2D00803E82D
:1005C0000010E2E2D06364696E6F70737578585BF7
:1005D0000000C2302092670711241FBECFEFD8E081
:1005E000DEBFCDBF12E0A0E0B1E0E6E8FCE702C06C
:1005F00005900D92AA37B107D9F727E0AAE7B2E034
:1006000001C01D92A736B207E1F712E0CAEED2E0B0
:1006100004C02197FE010E94F731C93ED107C9F7F6
:100620000E9472200C94413E0C940000809128039B
:100630009091290301969093290380932803A8950C
:1006400080912C03882351F120912D0330912E03AA
:10065000232B99F0813089F080911903823068F062
:1006600080912C038230D0F090911903923088F45D
:1006700090911903923090F40FC05C9A0E941C2054
:1006800060931A0370931B0380931C0390931D03C4
:10069000E7CF80911903815080931903089589B1A0
:1006A00088708093C403883011F40C9416035C980E
:1006B0000895BC0181EF92E00E94B53A81EF92E08B
:1006C0000C9496190F931F93CF93DF931F92CDB77E
:1006D000DEB7A895809109018983BE016F5F7F4FC6
:1006E00080E090E00E94901F6CE273E081E090E077
:1006F0000E94901F6DE273E082E090E00E94691F0B
:100700006FE273E084E090E00E94901F60E373E08A
:1007100085E090E00E94691F6BED72E087E090E059
:100720000E94511FA8956CED72E088E090E00E9455
:10073000511F6BED76E089E090E00E94901F6AE225
:1007400073E08AE090E00E94901F60EE72E08BE020
:1007500090E00E94901F6FED72E08CE090E00E94AC
:10076000901F6EED72E08DE090E00E94901F6DEDA5
:1007700072E08EE090E00E94901F0FE010E0B80160
:100780006E527D4FC8010E94901F0F5F1F4F0F31A7
:100790001105A9F763E273E08FE190E00E94901FDA
:1007A0000F90DF91CF911F910F910895EF92FF92DB
:1007B0000F931F93CF93DF93CDB7DEB727970FB675
:1007C000F894DEBF0FBECDBF7C0160E087E00E94E1
:1007D000821B07E010E09E012F5F3F4F40E062E088
:1007E00081E495E00E94C41E8981982F9695969584
:1007F00096959E70292F220F220F920F8F70890FCE
:10080000F70180838A81982F9695969596959E708C
:10081000292F220F220F920F8F70890F81838B81D6
:10082000982F9695969596959670292F220F220FC0
:10083000920F8F70890F82838C81982F9695969551
:1008400096959670292F220F220F920F8F70890F85
:1008500084838D81877083838E81982F969596955A
:1008600096959270292F220F220F920F8F70890F69
:1008700085838F81982F9695969596959E71292FB1
:10088000220F220F920F8F70890F868361E087E01D
:100890000E94821B27960FB6F894DEBF0FBECDBF15
:1008A000DF91CF911F910F91FF90EF9008958F925C
:1008B0009F92AF92BF92CF92DF92EF92FF920F93EF
:1008C0001F93CF93DF9385EC93E00E94D603E091D2
:1008D000CB03AE2FB0E020E833E341EE51E00E94BD
:1008E000E83D4B015C0122EB37E0FD01C4E6D0E0BE
:1008F00000E911E0C901825B97408E179F07DCF485
:10090000C90183709927892B99F4C901BE010E94FE
:10091000E331892B31F4C901B8010E94E331892BFD
:1009200039F480E8880E81E5981E81E0A81EB11C8C
:100930002F5F3F4FDFCF0091CA0310E0EE54F84F16
:10094000CF0164E670E00E94E3317C01CF0160E9F1
:1009500071E00E94E3316C01C1E0D0E0E370FF2759
:10096000C017D10724F5C230D10581F4309771F456
:10097000E114F10419F4C114D10441F480E8880EA3
:100980008BE3981E86E2A81EB11C0FC0DE01AC5E90
:10099000BE4FAC91B0E020E831E541E050E00E946C
:1009A000E83D860E971EA81EB91E2196D9CF40910C
:1009B000C6032091C70330E0A0E1BEE00E94323EB2
:1009C0006B017C01242F30E0ACE3B0E00E94323EAA
:1009D000DC01CB018C0D9D1DAE1DBF1D2091C503FB
:1009E0006C017D01C20ED11CE11CF11CA091C90358
:1009F000B0E0119720E831E541E050E00E94F33D7E
:100A0000DC01CB018C0D9D1DAE1DBF1DBC01CD01B8
:100A1000680D791D8A1D9B1DDF91CF911F910F914C
:100A2000FF90EF90DF90CF90BF90AF909F908F900E
:100A300008958F929F92AF92BF92CF92DF92EF92E2
:100A4000FF920F931F93CF93DF93EC016A017B0119
:100A500088809980AA80BB800E945704C80CD91C4A
:100A6000EA1CFB1C97018601061B170B280B390B90
:100A7000480159010093CC039092CD03A092CE037C
:100A8000B092CF031092D0031092D1031092D203F0
:100A90001092D303088319832A833B83DF91CF917C
:100AA0001F910F91FF90EF90DF90CF90BF90AF908C
:100AB0009F908F9008954F925F926F927F928F9246
:100AC0009F92AF92BF92CF92DF92EF92FF92CF931D
:100AD000DF9380912303811104C0C12CD12C7601B6
:100AE000D6C08EE480937C0062E070E080E090E00D
:100AF0000E94571C80917A00806480937A008091D4
:100B00007A0086FDFCCF809178002091790030E05A
:100B1000322F2227A901330F660B770B9A01AB0105
:100B2000282B60E070E381E190E00E94C93D6901FB
:100B30007A01C8ECD5E0809190020E94401C90930D
:100B4000A1028093A002BC01990F880B990B0E940F
:100B500014334B015C014090B2025090B30260909C
:100B6000B4027090B502A30192010E94FD3120E011
:100B700030E040E85AE30E94A5339B01AC01C30179
:100B8000B2010E94FE319B01AC016093B2027093EE
:100B9000B3028093B4029093B502C501B4010E94E0
:100BA000FD316093AA027093AB028093AC029093E4
:100BB000AD029B01AC010E94A5336093C202709309
:100BC000C3028093C4029093C5022091C602309163
:100BD000C7024091C8025091C9020E94FE31609341
:100BE000C6027093C7028093C8029093C9022197EE
:100BF00009F0A1CF20E030E049EB54E40E946A32D2
:100C00000E9418344B015C01B601DD0C880B990B76
:100C10000E94143320E030E04AE754E40E946A3234
:100C200020E030E040E85AE30E94A533209196028C
:100C30003091970240919802509199020E94A533F9
:100C4000A50194010E94A5336B017C0160938A0287
:100C500070938B0280938C0290938D021092C60247
:100C60001092C7021092C8021092C9026093BB038F
:100C70007093BC038093BD039093BE032AE939E9C6
:100C800049E95EE30E94A03318160CF026CFC70195
:100C9000B601DF91CF91FF90EF90DF90CF90BF90A2
:100CA000AF909F908F907F906F905F904F9008953E
:100CB0000F931F93CF93DF938C01EB018AEB93E0AB
:100CC0000E94B53A63E273E08AEB93E00E94AA3A8D
:100CD000EAEBF3E001900020E9F73197AF014A5BBE
:100CE00053406AEB73E0C8010E94A634892B69F077
:100CF000CE010E94BC3AAC01BE01C8010E94C53AB7
:100D000021E0892B19F020E001C022E0822FDF9141
:100D1000CF911F910F9108958F929F92AF92BF92A2
:100D2000CF92DF92EF92FF9249015A010E94123353
:100D300020E030E040E05FE30E94FE316B017C0187
:100D4000C501B4010E9412334B015C018091300354
:100D500090913103BC0180E090E00E9412339B012E
:100D6000AC0160E070E08AE794E40E946A329B0183
:100D7000AC01C501B4010E94A5339B01AC01C701C0
:100D8000B6010E94FE310E94E332FF90EF90DF90A7
:100D9000CF90BF90AF909F908F900895CF93009782
:100DA00001F1C62F8130910519F48BE192E010C05A
:100DB0008230910519F486E192E00AC083309105F2
:100DC00019F481E192E004C0049721F48BE092E0F1
:100DD0000E945903CC2329F083E092E0CF910C9438
:100DE0009619CF910895CF93DF9320910901309107
:100DF0000A01261737077CF09B01EC01809108015E
:100E0000882321F061E0C9010E94CE06CE010E9434
:100E1000FD1910920801DF91CF91089560E070E014
:100E20008CEE92E00C94F306CF93DF9320910901AE
:100E300030910A01261737077CF09B01EC01809165
:100E40000801882321F061E0C9010E94CE06CE018D
:100E50000E94961910920801DF91CF910895CF93C7
:100E6000DF93EA019F938F937F936F9386E092E0E5
:100E70009F938F938EEA93E09F938F930E94CD343C
:100E80008DB79EB708960FB6F8949EBF0FBE8DBF64
:100E9000BE018EEA93E0DF91CF910C941407CF93BB
:100EA000DF93EC010A9734F460E070E08AEE92E0A0
:100EB0000E94F306BE01DD0F880B990B40E050E065
:100EC000DF91CF910C942F07CF93DF93EA019F938B
:100ED0008F937F936F9385E792E09F938F9382EA3E
:100EE00093E09F938F930E94CD348DB79EB7089661
:100EF0000FB6F8949EBF0FBE8DBFBE0182EA93E08D
:100F0000DF91CF910C9414072091090130910A01CF
:100F10002417350754F040E050E00E94640760E079
:100F200070E080EF92E00C94F3060895209109019F
:100F300030910A01281739073CF08AE092E00E94BC
:100F4000961981E0809308010895CF93DF930E9462
:100F50000E0760E070E08CE193E00E94F306C6EFBC
:100F6000D2E0FE01859194910E94590360E070E007
:100F700084EF92E00E94F306229683E0CA31D807FC
:100F800081F780E090E0DF91CF910C9496070F936A
:100F90001F93CF93DF938C01EB0180910901909116
:100FA0000A01861797075CF080910801882321F0D9
:100FB00061E0CE010E94CE06C8010E94FD19CE015B
:100FC000DF91CF911F910F910C949607CF93DF93F0
:100FD000C82F0E940E070E940E076C2F70E080E061
:100FE00090E040E050E00E942F0760E070E08DE26A
:100FF00093E00E94F3068EE0C89FE0011124CC5BD1
:10100000DA4F688179818A819B8140E050E00E94BB
:10101000640760E070E08BE293E00E94F3066C816D
:101020007D818E819F8140E050E00E94640760E0F6
:1010300070E089E293E00E94F306688579858A85ED
:101040009B850E94C61960E070E087E293E00E94F1
:10105000F3066C857D85072E000C880B990B40E00C
:1010600050E00E942F0760E070E085E293E0DF919E
:10107000CF910C94C707CF92DF92EF92FF92CF935C
:10108000A895882389F0E0905604F12C0E945B0516
:101090002EE02E9DF0012F9DF00D1124EC5BFA4FF8
:1010A0006087718782879387E09156048EE0E89F7E
:1010B000F0011124EC5BFA4F82E090E09587848781
:1010C00064E070E088E393E00E94F30680910901F8
:1010D00090910A01049724F0809156040E94E6073B
:1010E0008091560490E001966AE070E00E94E3313E
:1010F00080935604209157042A3018F42F5F2093D0
:101100005704009719F0EFEFE80F01C0E9E02091D4
:101110002F03CEE0CE9FF0011124EC5BFA4FC0808C
:10112000D180E280F380C20ED11CE11CF11CC89F6B
:10113000F001C99FF00D1124EC5BFA4FC082D182FF
:10114000E282F3820E9457046C157D058E059F058F
:1011500080F4E0905604F12C0E945704CE9DF001DB
:10116000CF9DF00D1124EC5BFA4F60837183828375
:101170009383E09156048E2F90E0009711F0E15098
:1011800001C0E9E02EE02E9FF0011124EC5BFA4F44
:101190004481558166817781289FF001299FF00D58
:1011A0001124EC5BFA4F4483558366837783108662
:1011B00011861286138681E090E09587848764E02B
:1011C00070E080E393E00E94F30680910901909122
:1011D0000A01049724F0809156040E94E60780914A
:1011E000550490915604891308C090E001966AE076
:1011F00070E00E94E33180935504CF91FF90EF900F
:10120000DF90CF9008950F931F93CF93A89580916F
:101210000301882381F00E9457040091D4031091A8
:10122000D5032091D6033091D70360177107820749
:10123000930708F0A2C080912F03882319F10E9420
:101240005704E09156042EE0E29FF0011124EC5B7C
:10125000FA4F0081118122813381AB01BC01401B17
:10126000510B620B730B80912F0390E0A0E0B0E074
:10127000481759076A077B0728F0848595850197E9
:1012800009F4A8C0E0915604CEE0CE9FF0011124ED
:10129000EC5BFA4F84859585029709F0A0C00E9407
:1012A000570420912F0330E0220F331F8901330FA1
:1012B000220B330BDC01CB01801B910BA20BB30B78
:1012C000E0915604CE9FF0011124EC5BFA4F0081AF
:1012D000118122813381081719072A073B0730F54E
:1012E0000E945704E0915604CE9FF0011124EC5B5C
:1012F000FA4F0081118122813381601B710B820BB7
:10130000930B20912F0330E040E050E00E94A73D76
:10131000DA01C9010197A109B1098093BF03909334
:10132000C003A093C103B093C20308C01092BF03CF
:101330001092C0031092C1031092C20381E09091F9
:101340002303911101C080E00E943B08C0E08C2F74
:1013500090E0A0E0B0E04091BF035091C0036091E5
:10136000C1037091C20384179507A607B707B8F5A4
:1013700080E00E943B08CF5FEACF63E070E080E44A
:1013800093E00E94C70781E090912303911101C06F
:1013900080E00E943B08E09156048EE0E89FF00157
:1013A0001124EC5BFA4F8091D4039091D503A09166
:1013B000D603B091D70380839183A283B383109225
:1013C00003011092D4031092D5031092D603109209
:1013D000D70331CF82E090E09587848753CFCF91B8
:1013E0001F910F9108958F929F92AF92BF92CF92CB
:1013F000DF92EF92FF920F93CF93DF934B015C014B
:1014000069017A0180912F03882309F447C00111F3
:1014100045C00E940309E0915604CE2FD0E03EE083
:10142000E39FF0011124EC5BFA4F84809580A68045
:10143000B7808C0C9D1CAE1CBF1C60911F0370916B
:1014400020038091210390912203A50194010E9421
:101450008C0621E061157A4E86459A4F08F420E00B
:101460002093C303222369F010921F0310922003DC
:10147000109221031092220381E080931E03460103
:1014800057018EE08C9FF0018D9FF00D1124EC5BD5
:10149000FA4F84829582A682B78277C0E091560483
:1014A0008EE0E89FF0011124EC5BFA4F8481958176
:1014B000A681B781892B8A2B8B2B41F081E09091FB
:1014C0002303911101C080E00E943B08E091560483
:1014D000CE2FD0E03EE0E39FF0011124EC5BFA4F09
:1014E00080829182A282B38284819581A681B78114
:1014F000A7019601280F391F4A1F5B1F60911F0328
:101500007091200380912103909122030E948C0608
:1015100021E061157A4E86459A4F08F420E0209329
:10152000C303222341F010921F0310922003109254
:1015300021031092220381E080931E038EE08C9F92
:10154000F0018D9FF00D1124EC5BFA4FC482D5821F
:10155000E682F78281E090912303911101C080E03F
:101560000E943B08002389F0C0915604D0E00E94FD
:1015700057042EE02C9FF0012D9FF00D1124EC5B01
:10158000FA4F6083718382839383DF91CF910F91B0
:10159000FF90EF90DF90CF90BF90AF909F908F9093
:1015A00008952F923F924F925F926F927F928F9207
:1015B0009F92AF92BF92CF92DF92EF92FF920F93E2
:1015C0001F93CF93DF93CDB7DEB72D970FB6F89467
:1015D000DEBF0FBECDBF6B017C0148872987AB0101
:1015E000BC018CE393E00E941905B701A60182E3D8
:1015F00093E00E941905B701A60188E393E00E94D9
:101600001905B701A60184E293E00E941905B7010C
:10161000A60185E597E00E941905B701A60188EDAE
:1016200093E00E9419058CE3882E912CA12CB12CFB
:10163000C701B601A50194010E94A73D562ECA011B
:10164000B901A50194010E94A73D462ECA01B90126
:1016500028E130E040E050E00E94A73D69017A01B6
:10166000362ECA01B9016C5F7F4F8F4F9F4F27E025
:1016700030E040E050E00E94A73D22242394260E53
:10168000812C912C540140E094E6692E712C00E9E4
:1016900011E0242F30E02E54384FF901E370FF277A
:1016A000309789F4C901B3010E94E331892B31F4E9
:1016B000C901B8010E94E331892B29F48EE691E03B
:1016C000A0E0B0E004C08DE691E0A0E0B0E0880EBC
:1016D000991EAA1EBB1ED501C401AA27BB27C81686
:1016E000D906EA06FB0610F04F5FD3CF309799F486
:1016F000C90164E670E00E94E331892B39F4C90125
:1017000060E971E00E94E331892B29F48EE691E0D3
:10171000A0E0B0E004C08DE691E0A0E0B0E0881A5F
:10172000990AAA0ABB0AC818D908EA08FB08C9011D
:1017300064E670E00E94E3318C01C90160E971E068
:101740000E94E331A5E1B1E030E0313041F430975F
:1017500051F40115110529F4009729F402C02C91C8
:1017600003C02DE101C02CE1822E912CA12CB12CC3
:10177000C814D904EA04FB0440F0C818D908EA08E0
:10178000FB083F5F11963C3001F73F5FC3942AE0AE
:10179000852D622F0E94C33150E1859FB001112435
:1017A000692B6983842D622F0E94C33150E1859F8C
:1017B000B0011124692B6A83832D622F0E94C331EB
:1017C00050E1859FB0011124692B6B838C2D622F12
:1017D0000E94C331592F60E1869FC0011124852BDF
:1017E0008C83822D622F0E94C3319D83832F0E94A0
:1017F000C331392F50E1859FC0011124832B8E8383
:10180000842F0E94C331292F60E1869FC0011124DB
:10181000822B8F8307E010E09E012F5F3F4F41E056
:1018200062E081E495E00E94C41E8985882301F16D
:101830000E9457046B017C010E9457042CE3C20EE6
:10184000D11CE11CF11C2CE330E040E050E00E9490
:10185000A73DC61AD70AE80AF90AC092D403D09263
:10186000D503E092D603F092D70381E08093030181
:1018700038853323E1F0E09156045EE0E59FF00106
:101880001124EC5BFA4F24813581468157812A87E8
:101890003B874C875D870E94570401E02A853B8582
:1018A0004C855D850E94F30981E080931E032D968F
:1018B0000FB6F894DEBF0FBECDBFDF91CF911F9161
:1018C0000F91FF90EF90DF90CF90BF90AF909F90DF
:1018D0008F907F906F905F904F903F902F900895E2
:1018E000CF93DF93EB01BC01990F880B990BAE01ED
:1018F0000E942F07CE01DF91CF910C949607CF93D2
:10190000C62F80932C03109219035C98E99884ECFD
:1019100093E1909307018093060180912C03882323
:1019200049F08FE493E0909307018093060181E0F2
:1019300090E008C086E193E0909307018093060150
:1019400082E090E00E94391560E070E089E493E065
:101950000E94F30680912C0360E070E090E00E940A
:10196000700CCC2319F0CF910C946203CF910895A1
:10197000CF93DF93EB01BC0180E090E0AE010E94C9
:101980006407CE01DF91CF910C949607EF92FF92FE
:101990000F931F93CF93DF931F92CDB7DEB77C01D8
:1019A000FC0100811181C80169830E94813D698128
:1019B000681719F0C8010E94893DC7010F90DF9197
:1019C000CF911F910F91FF90EF9008959091020198
:1019D00081E089278093020160E070E086E793E070
:1019E0000E94F30680910201811103C08FE693E00B
:1019F00002C083E793E060E070E00C94C707CF93E8
:101A0000DF9392E0980F973110F080E061C0D62FFD
:101A1000C82F63E070E088E693E00E94F3066C2F25
:101A20000C2E000C770B880B990B43E050E00E94C2
:101A30002F0763E070E08CE593E00E94F30680914D
:101A4000DA0263E070E0082E000C990B0E94700C23
:101A5000C093DB021092DA02D1110E94620341E0CE
:101A60006091DB028CED96E00E94A7178DE890E074
:101A70009F938F93C8E5D4E0DF93CF930E94DD3A24
:101A80008091DB02282F082E000C330B3F938F939D
:101A90008DE092E09F938F93DF93CF9388E192E064
:101AA0009F938F93DF93CF930E94CD3460E080911A
:101AB0002A030E946B0D8CED96E00E94F1168DB703
:101AC0009EB70E960FB6F8949EBF0FBE8DBF81E0F5
:101AD000DF91CF9108952F923F924F925F926F9234
:101AE0007F928F929F92AF92BF92CF92DF92EF92AE
:101AF000FF920F931F93CF93DF9300D000D000D0BD
:101B0000CDB7DEB7082F762E58E5E52E54E0F52E3A
:101B1000F70101900020E9F73197E855F440FD976F
:101B200058F061E070E089E894E00E94F30681E0FB
:101B300090E00E94A81923C58CE38D83E0E0F4E0D7
:101B4000DF011D928A95E9F763E070E08FE794E08A
:101B50000E94F30683E090E00E94A819F70101902B
:101B60000020E9F73197AF014855544068E574E02B
:101B700080E094E00E949634A895BD81BE831091C8
:101B8000D7051F5F1093D70520E0812C912C5401BD
:101B9000939466246394620E9091DA05921708F488
:101BA000B3C08091D0059091D105DC01ED91FC91FD
:101BB000048CF58DE02D612F09958091D0059091D1
:101BC000D105DC01ED91FC91068CF78DE02D40E80C
:101BD00060E00995402F6E8180E094E00E94D81A61
:101BE0000E94CD1A0F3F09F4ABC0B1E0B61598F4CE
:101BF0008091D3059091D405A091D505B091D605DB
:101C00000196A11DB11D8093D3059093D405A09397
:101C1000D505B093D6050E941C201B012C01E09035
:101C2000D805F090D9050E946738A50194010E945B
:101C3000C93D9B01AC01D7010E94E83DA50194017B
:101C40000E94C93D2E0D3F1D72016101C20ED31EBF
:101C5000E11CF11C0E941C20A7019601261B370BDA
:101C6000480B590BCA01B901262D1616170618067E
:101C700019060CF08ECFA091D005B091D105ED9151
:101C8000FC9111970088F189E02DCD0109958823F9
:101C900009F38091D0059091D105DC01ED91FC9183
:101CA0000480F581E02D40E050E060E070E00995AF
:101CB000882381F29E012F5F3F4FAE014E5F5F4F41
:101CC000BE016D5F7F4FCE0104960E942F1B8823BB
:101CD00009F26C81898160130AC02B819091D20531
:101CE000291305C087FF03C09A81911749F187FD29
:101CF000B1CF8A81E62FF0E0E053FA4F9385891344
:101D0000A9CF0E94FB1AA6CF62E070E087E694E0BC
:101D10000E94F30682E090E00E94A8198091FF03E0
:101D20008F5F8093FF0383302CF08091DB0284313E
:101D30000CF487C0A8958CED96E00E94F1161FC4A4
:101D40001092FF03A8957720A9F30E941C206B0135
:101D50007C0138EEC30E33E0D31EE11CF11C0E945F
:101D60001C20A7019601261B370B480B590BCA01F3
:101D7000B90112161306140615060CF05BC0A091EB
:101D8000D005B091D105ED91FC9111970088F189B2
:101D9000E02DCD010995882311F38091D005909114
:101DA000D105DC01ED91FC910280F381E02D0995D4
:101DB0008823A9F28091D0059091D105DC01ED91A5
:101DC000FC910480F581E02DAE014B5F5F4F60E038
:101DD00074E00995882319F29E012F5F3F4FAE01F1
:101DE0004E5F5F4FBE016D5F7F4FCE0104960E9434
:101DF0002F1B182F882309F4B2CF898187FDAFCF1D
:101E00009B818091D205981304C06C818A810E94C5
:101E1000FB1A8A819C81E92FF0E0E053FA4F238579
:101E2000821709F49CCF9093FE038387112309F452
:101E300096CF0BC063E070E083E794E00E94C70791
:101E400079CF8CE98093DA0275CF8091EA0680938E
:101E50002B0364E070E081E694E00E94F30664E006
:101E600070E080E094E00E94140764E070E087E591
:101E700094E00E94F30680912B0364E070E0082E4A
:101E8000000C990B0E94700C69EA71E088E594E0FF
:101E90000E949F3460E074E088E594E00E949F34E3
:101EA00062E574E088E594E00E945806813009F00C
:101EB00093C01092FA031092FB031092FC0310924D
:101EC000FD031092F6031092F7031092F80310929C
:101ED000F90385EF93E09F938F9386EF93E09F93B1
:101EE0008F938AEF93E09F938F9381E292E09F9389
:101EF0008F9388E594E09F938F930E94F0344091F4
:101F0000FA035091FB036091FC037091FD03DB0128
:101F1000CA010A97A109B1090FB6F894DEBF0FBE36
:101F2000CDBF8F349240A105B10508F04EC080911D
:101F3000F6039091F703A091F803B091F9038C0197
:101F40009D010A501109210931090F3A1B40210551
:101F50003105D8F550930101409300019093370368
:101F6000809336030E9457046093380370933903BB
:101F700080933A0390933B0363E070E087E494E03E
:101F80000E94F3066091FA037091FB038091FC03B9
:101F90009091FD0343E050E00E94640763E070E02D
:101FA00080E494E00E94F3066091F6037091F703D9
:101FB0008091F8039091F90343E050E00E94640798
:101FC00063E070E08EE394E004C061E070E081E3E0
:101FD00094E00E94C707F0C16CE274E088E594E0E9
:101FE0000E945806182F813009F066C085EF93E0F3
:101FF0009F938F9381EF93E09F938F9385E392E07C
:102000009F938F9388E594E09F938F930E94F03481
:102010008091F1039091F203A091F303B091F40346
:10202000AC01BD0141505109610971090FB6F89425
:10203000DEBF0FBECDBF4F3F5D45604D724BB8F563
:1020400080931F0390932003A0932103B093220356
:102050000E94570401E020E030E0A9010E94F3094A
:1020600063E070E081E294E00E94F306E0915604A0
:102070004EE0E49FF0011124EC5BFA4F248135819E
:102080004681578160911F03709120038091210345
:10209000909122030E948C0643E050E00E94840746
:1020A00083E090E00E94960710931E0385C161E0D3
:1020B00070E084E194E08DCF6FE074E088E594E017
:1020C0000E945806813009F054C085EF93E09F9339
:1020D0008F938DEE93E09F938F9385E392E09F9390
:1020E0008F9388E594E09F938F930E94F0340FB60E
:1020F000F894DEBF0FBECDBF8091ED039091EE034B
:10210000A091EF03B091F0038F3F9105A105B105B8
:1021100009F050F563E070E084E094E00E94F3067B
:1021200060912F0370E080E090E043E050E00E9477
:102130002F0763E070E08AEF93E00E94F30660915E
:10214000ED037091EE038091EF039091F00343E073
:1021500050E00E94640783E090E00E94960780911F
:10216000ED0380932F037BC061E070E08DEE93E080
:1021700030CF68EE73E088E594E00E945806813025
:1021800009F075C01092E9031092EA031092EB0374
:102190001092EC031092E5031092E6031092E7030D
:1021A0001092E80385EF93E09F938F9385EE93E081
:1021B0009F938F9389EE93E09F938F9381E292E0B8
:1021C0009F938F9388E594E09F938F930E94F034C0
:1021D0000FB6F894DEBF0FBECDBF8091E90390919A
:1021E000EA03A091EB03B091EC038F3F9105A105A9
:1021F000B10509F0B8F58091E5039091E603A0914F
:10220000E703B091E803893BEBE09E07A105B10528
:1022100048F590932E0380932D0363E070E08DEDDD
:1022200093E00E94C70760E08091E9030E947F0C61
:1022300060912C0370E080E090E043E050E00E9469
:102240002F0763E070E08CEC93E00E94F30663E0FC
:1022500070E080912D0390912E030E94B80C0E9493
:102260006203AAC061E070E08FEB93E0B2CE6AEB4C
:1022700073E088E594E00E945806813009F064C05C
:102280001092E1031092E2031092E3031092E40330
:102290001092DD031092DE031092DF031092E00330
:1022A00085EF93E09F938F938CED93E09F938F93B3
:1022B0008DED93E09F938F9381EE93E09F938F93A7
:1022C00085E492E09F938F9388E594E09F938F93AA
:1022D0000E94F0340E9457040091E1031091E20340
:1022E0002091E3033091E403DC01CB01801B910BCF
:1022F000A20BB30B0FB6F894DEBF0FBECDBF049791
:10230000A105B10508F002C18091DD039091DE03C3
:10231000A091DF03B091E003892B8A2B8B2B09F46A
:10232000F5C00E9457042091DD033091DE03621B4B
:10233000730BCB0177FF04C088279927861B970B67
:1023400004970CF081C0E2C061E973E088E594E095
:102350000E9458068130A9F485EF93E09F938F93F4
:102360008EE592E09F938F9388E594E09F938F93FF
:102370000E94F0340F900F900F900F900F900F90DD
:102380001BC06DE870E088E594E00E94580681303B
:1023900049F464E070E085E893E00E94F30684E08D
:1023A00090E008C062E070E08BE793E00E94F306E3
:1023B00082E090E00E94A81969EA71E088E594E063
:1023C0000E949F348091F50387FF13C02091DA02A9
:1023D000222359F0082E000C990B820F911D27FD26
:1023E0009A9597FD0196959587958093DA021092BC
:1023F000F5038091DC0287FF9DCC8091DA0287FF94
:1024000099CC8091D8039091D903A091DA03B0912F
:10241000DB03892B8A2B8B2B09F47DC00E94570488
:102420000091D8031091D9032091DA033091DB0396
:10243000DC01CB01801B910BA20BB30BCC97A10548
:10244000B10508F068C076CC0E9457040091E10302
:102450001091E2032091E3033091E403DC01CB010E
:10246000801B910BA20BB30BB695A79597958795FB
:102470000091DD031091DE032091DF033091E00332
:10248000800F911FA21FB31F8093DD039093DE0383
:10249000A093DF03B093E00364E070E08FEA93E081
:1024A0000E94F3060E94570444E050E00E94640733
:1024B00064E070E08AEA93E00E94F3066091DD0335
:1024C0007091DE038091DF039091E00344E050E0DF
:1024D0000E94640784E090E00E9496078091DC03EC
:1024E000813011F01092DC0321E08091DC03813017
:1024F00009F020E06091DD037091DE038091DF033D
:102500009091E00341E00E94D10A56CF63E070E071
:1025100086E993E05ECD2091DA023091DC02822FD1
:10252000022E000C990B831B910937FD939597FFA1
:1025300003C09195819591090B9794F023173CF472
:102540008091DB028F5F8E3F14F08531A4F032174B
:102550003CF48091DB0281508E3F14F085315CF0B9
:102560000E9457046093D8037093D9038093DA03D1
:102570009093DB03DFCB60E00E94FF0CF1CF269647
:102580000FB6F894DEBF0FBECDBFDF91CF911F9184
:102590000F91FF90EF90DF90CF90BF90AF909F9002
:1025A0008F907F906F905F904F903F902F90089505
:1025B0001F93CF93DF93CDB7DEB728970FB6F8946C
:1025C000DEBF0FBECDBF0E9457046093D60270934A
:1025D000D7028093D8029093D9028091D005909130
:1025E000D105DC01ED91FC910190F081E02D099580
:1025F000882309F487C08091D2050E94AE1A809189
:10260000DB060E94AE1A88EE93E09093D905809382
:10261000D80548E050E065EF74E0CE0101960E94D5
:10262000A13ABE016F5F7F4F8CED96E00E948A1742
:1026300044EE67E08CED96E00E94B51640EC68E051
:102640008CED96E00E94B51640E069E08CED96E0D6
:102650000E94B51641E06091DB028CED96E00E948D
:10266000A7178091E00289838091DF028A8380919D
:10267000DE028B838091DD028C836EE28CED96E02E
:102680000E940617182F24E0AE014F5F5F4F6FE2E4
:102690008CED96E00E946716412F477C48696EE2F8
:1026A0008CED96E00E94B51620E141EE52E06EE31B
:1026B0008CED96E00E9467166DE38CED96E00E942B
:1026C0000617482F41606DE38CED96E00E94B51629
:1026D0008CED96E00E94F1166091D6027091D702BF
:1026E0008091D8029091D90220E040E00E94D10A66
:1026F00028960FB6F894DEBF0FBECDBFDF91CF9105
:102700001F91089561E070E080E593E00E94C707A3
:1027100076CF83E090E090930A018093090160E016
:1027200080E00E947F0C84E690E090932E038093DB
:102730002D038CE380932F0388EE93E09093310375
:10274000809330038DE08093DB021092DC0282E004
:102750008093DB0681E080932A031092E0021092BE
:10276000DF028093DE028093DD0280E1E1E2F1E0AE
:10277000A1EEB2E001900D928A95E1F71092230349
:102780000E9462030C94D8120895CF92DF92EF92C8
:10279000FF920F931F93CF93DF936C017A018B010C
:1027A000C0E0D0E0CE15DF0589F0D8016D918D0134
:1027B000D601ED91FC910190F081E02DC6010995C3
:1027C000892B11F47E0102C02196ECCFC701DF9165
:1027D000CF911F910F91FF90EF90DF90CF900895D0
:1027E000089580E090E00895FC01538D448D252FDD
:1027F00030E0842F90E0821B930B541710F0CF969B
:10280000089501970895FC01918D828D981761F0CC
:10281000828DDF01A80FB11D5D968C91928D9F5F17
:102820009F73928F90E008958FEF9FEF0895FC01C2
:10283000918D828D981731F0828DE80FF11D858D75
:1028400090E008958FEF9FEF0895FC01918D228D08
:10285000892F90E0805C9F4F821B91098F7399278D
:10286000089584EA94E00E94251421E0892B09F45C
:1028700020E0822F0895FC01848DDF01A80FB11D97
:10288000A35ABF4F2C91848D90E001968F739927A6
:10289000848FA689B7892C93A089B1898C91806493
:1028A0008C93938D848D981306C00288F389E02D54
:1028B00080818F7D80830895EF92FF920F931F9305
:1028C000CF93DF93EC0181E0888F9B8D8C8D9813E3
:1028D00005C0E889F989808185FD24C0F62E0B8D1D
:1028E00010E00F5F1F4F0F731127E02E8C8DE81241
:1028F0000CC00FB607FCFACFE889F989808185FF03
:10290000F5CFCE010E943B14F1CF8B8DFE01E80F75
:10291000F11DE35AFF4FF0820B8FEA89FB8980811A
:10292000806207C0EE89FF896083E889F989808128
:102930008064808381E090E0DF91CF911F910F91BF
:10294000FF90EF900895CF93DF93EC01888D88235B
:10295000C9F0EA89FB89808185FD05C0A889B9890C
:102960008C9186FD0FC00FB607FCF5CF808185FFE7
:10297000F2CFA889B9898C9185FFEDCFCE010E9455
:102980003B14E7CFDF91CF91089580E090E0892B51
:1029900029F00E94311481110C9400000895FC016B
:1029A000738362830895FC01778366830895FC0135
:1029B000758364830895089508958CE308950E94B3
:1029C0009134CF93DF93EC01888D998DDC01ED91EB
:1029D000FC910680F781E02D099561E08A8D0E94C7
:1029E000CE1B61E08A8D0E94821B64E670E080E06D
:1029F00090E00E94571C81E0DF91CF910895CF9223
:102A0000DF92EF92FF920F931F93CF93DF93EC012E
:102A10006B018A01E881F9810280F381E02D09953B
:102A2000F82E8823E1F0C114D104B1F0011511058D
:102A300099F0EFB6F89488A1F8019081891710F405
:102A400088A18083F801408150E0BE016F5D7F4F17
:102A5000C6010E949634EFBEC35ADF4F18828F2DF5
:102A6000DF91CF911F910F91FF90EF90DF90CF906A
:102A70000895E9E6F0E02081880F991F880F991FDB
:102A8000237F822B8083E99A08951F920F920FB6BD
:102A90000F9211242F933F934F935F936F937F93E4
:102AA0008F939F93AF93BF93EF93FF93E0910601B2
:102AB000F09107010995FF91EF91BF91AF919F911F
:102AC0008F917F916F915F914F913F912F910F90D7
:102AD0000FBE0F901F9018951F920F920FB60F9276
:102AE00011242F933F934F935F936F937F938F9313
:102AF0009F93AF93BF93EF93FF93E0910401F09105
:102B000005010995FF91EF91BF91AF919F918F9131
:102B10007F916F915F914F913F912F910F900FBED9
:102B20000F901F901895952F8230A8F4E82FF0E0B1
:102B3000EE0FFF1FEC5FFE4F71836083813041F029
:102B4000809169008C7F482B40936900E89A089532
:102B5000842F0C94391508951F920F920FB60F927F
:102B600011242F933F934F935F936F937F938F9392
:102B70009F93AF93BF93EF93FF9384EA94E00E94F7
:102B80003B14FF91EF91BF91AF919F918F917F91F6
:102B90006F915F914F913F912F910F900FBE0F90CA
:102BA0001F9018951F920F920FB60F9211242F931A
:102BB0008F939F93EF93FF93E091B404F091B5044A
:102BC0008081E091BA04F091BB0482FD12C0908133
:102BD0008091BD048F5F8F732091BE04821751F0E6
:102BE000E091BD04F0E0EC55FB4F958F8093BD0460
:102BF00001C08081FF91EF919F918F912F910F9054
:102C00000FBE0F901F9018951F920F920FB60F9244
:102C100011248F930FB6F894A89580916000886175
:102C200080936000109260000FBE8F910F900FBED6
:102C30000F901F9018954115510529F4EAE7F0E02F
:102C400080818F7780836A307105A9F063FD02C0AF
:102C500088E001C088E26770682B88E10FB6F894BD
:102C6000A895809360000FBE60936000E0E6F0E0FE
:102C7000808180648083232BA1F483B7817F84606B
:102C800083BFF89483B7816083BF85B7806685BFB3
:102C90008F7D85BF7894889583B78E7F83BF789426
:102CA0000EC083B7817F846083BFF89483B781604F
:102CB00083BF7894889583B78E7F83BF7894452BA4
:102CC00029F4EAE7F0E08081806880830895AF927C
:102CD000BF92DF92EF92FF920F931F93CF93DF93F8
:102CE00000D0CDB7DEB78C01E62EF42EDFB6F89417
:102CF00060E0DC015A968C9129835A830E94821BE2
:102D0000F801808D918DDC01ED91FC916E2D606854
:102D10000190F081E02D0995E82EAF2C5A81B52E57
:102D20002981F20EFA1471F0F801808D918DD50190
:102D30006D915D01DC01ED91FC910190F081E02D40
:102D40000995F0CF61E0F801828D0E94821BDFBE01
:102D50008E2D0F900F90DF91CF911F910F91FF90CB
:102D6000EF90DF90BF90AF900895EF92FF920F9396
:102D70001F93CF93DF931F92CDB7DEB77C01162F41
:102D80000FB7F89460E0DC015A968C9149830E9459
:102D9000821BF701808D918DDC01ED91FC91612FFB
:102DA00060680190F081E02D0995182FF701808D62
:102DB000918DDC01ED91FC910190F081E02D498134
:102DC000642F099561E0F701828D0E94821B0FBF7D
:102DD000812F0F90DF91CF911F910F91FF90EF9076
:102DE0000895CF93DF93FC01228133812130310597
:102DF00049F0EC0140E061E00E94B51681E090E00E
:102E00009B838A8381E0DF91CF9108950F931F9375
:102E1000CF93DF93EC01162F0FB7F89460E08A8D03
:102E20000E94821B888D998DDC01ED91FC91612FB0
:102E30006F770190F081E02D0995888D998DDC01E7
:102E4000ED91FC910190F081E02D60E00995182F43
:102E500061E08A8D0E94821B0FBF812FDF91CF918D
:102E60001F910F9108950F931F93CF938C01C62F3D
:102E700061E00E940617837ECC71482F4C2B61E0E5
:102E8000C8010E94B51667E2C8010E94061787FFB5
:102E9000FACFCF911F910F910895CF93DF93FC014B
:102EA000228133812330310519F1EC018281938134
:102EB0000497D1F0878D823154F045E56AE5CF0162
:102EC0000E94B51640E76CE5CE010E94B51640E4BD
:102ED00065E2CE010E94B51660E1CE010E94331773
:102EE00084E090E09B838A83C35ADF4F888101C0CE
:102EF00080E0DF91CF910895CF93DF93EC016DE3F4
:102F00000E940617482F4E7F6DE3CE01DF91CF91CF
:102F10000C94B5160F931F93CF93DF93EC018B01A5
:102F200025E0AB0162E00E946716A8014B5F5F4F8E
:102F300022E069E1CE010E946716F801478167E34C
:102F4000CE01DF91CF911F910F910C94B516FC012A
:102F5000678F442399F06E3F14F48EEF878F478D6F
:102F60004E3024F44E5E4F71406415C042311CF067
:102F7000455F4F7101C0425F40660DC06E3E14F464
:102F80008EEE878F878D8E3014F08DE0878F478D82
:102F90004E5E4F71406861E1CF010C94B516CF933E
:102FA000DF93FC012281338122303105B1F0EC0145
:102FB000878D823154F045E56AE5CF010E94B51650
:102FC00040E76CE5CE010E94B5166D8DCE010E94E2
:102FD000331782E090E09B838A83DF91CF9108953D
:102FE000BF92CF92DF92EF92FF920F931F93CF93F6
:102FF000DF93EC01B62EC72E142F4D3310F000E0F6
:103000008BC0E881F9810484F585E02D0995CE0116
:103010000E94CF17E881F9810288F389E02DCE0163
:103020000995082F882359F3DFB6F89460E08A8D5C
:103030000E94821B888D998DDC01ED91FC9101909D
:10304000F081E02D60E80995A88DB98DED91FC9196
:1030500011970190F081E02D64E0610FCD01099599
:10306000888D998DDC01ED91FC910190F081E02D2E
:103070006A850995888D998DDC01ED91FC9101900F
:10308000F081E02D6B850995888D998DDC01ED919E
:10309000FC910190F081E02D6C850995888D998DCA
:1030A000DC01ED91FC910190F081E02D6D85099599
:1030B000EB2CFC2C115068F0888D998DF7016191F3
:1030C0007F01DC01ED91FC910190F081E02D0995EB
:1030D000F1CF61E08A8D0E94821BDFBE8A819B81D5
:1030E0000397D1F08F8D823154F04DE56AE5CE0122
:1030F0000E94B5164CE76CE5CE010E94B51640E083
:1031000065E2CE010E94B5166CE0CE010E94331735
:1031100083E090E09B838A83802FDF91CF911F9182
:103120000F91FF90EF90DF90CF90BF900895EF92B6
:10313000FF920F931F93CF93DF93EC0168E20E94FD
:103140000617182F8A819B81039711F413FD08C07D
:103150008A819B81049709F0A2C012FD0BC09FC019
:10316000CE010E94CF172B893C892F5F3F4F3C8BAC
:103170002B8BEECF64E2CE010E94061786958195D7
:103180008E870E941C20FE01E25AFF4F60837183EC
:1031900082839383CE010E94CF17FFB6F89460E03C
:1031A0008A8D0E94821B888D998DDC01ED91FC91A6
:1031B0000190F081E02D60E00995888D998DDC010A
:1031C000ED91FC910190F081E02D60E00995082FD0
:1031D0008CEF800F8D3300F5888D998DDC01ED919A
:1031E000FC910190F081E02D60E009958E838D8146
:1031F000811118C09E818C819817A1F08E818F3F1C
:1032000059F410C089899A8901969A8B898B81E03B
:10321000FE01E35AFF4F808361E08A8D0E94821B8A
:10322000FFBE3DC0888D998DDC01ED91FC91019030
:10323000F081E02D60E009958F83888D998DDC0108
:10324000ED91FC910190F081E02D60E00995888777
:10325000888D998DDC01ED91FC910190F081E02D3C
:1032600060E00995898718A210E00450110988A12F
:1032700090E08017910734F6E8A0888D998DDC01E5
:10328000ED91FC910190F081E02D60E00995FE0147
:10329000EE0DF11D81A388A18F5F88A3E8CFDF9198
:1032A000CF911F910F91FF90EF900895809140046E
:1032B00090914104009711F00C9497180895809113
:1032C0003E0490913F04009711F00C9497180895D4
:1032D00080913C0490913D04009711F00C94971854
:1032E00008953FB7F8948091420490914304A091CF
:1032F0004404B091450426B5A89B05C02F3F19F0A2
:103300000196A11DB11D3FBFBA2FA92F982F882765
:10331000820F911DA11DB11DBC01CD0142E0660FC0
:10332000771F881F991F4A95D1F70895009769F074
:10333000FC0101900020E9F73197AF01481B590BC0
:10334000BC0184EA94E00C94C51380E090E00895F9
:10335000CF93DF932091090130910A012817390793
:1033600094F0EC0180910801882321F061E0CE0106
:103370000E94CE0688E594E00E949619CE01DF9166
:10338000CF910C949607DF91CF910895CF92DF9261
:10339000EF92FF926B017C0120E030E048EC52E4B8
:1033A0000E94A5330E94DC32CB0164E670E00E94EB
:1033B000E3319F938F93C701B6010E94DC327F9364
:1033C0006F938AE692E09F938F9381E497E09F93B7
:1033D0008F930E94CD348DB79EB708960FB6F894A0
:1033E0009EBF0FBE8DBF60E070E081E497E0FF906C
:1033F000EF90DF90CF900C9414070F931F93CF930F
:10340000DF938C01C0E0D0E0F801EC0FFD1F649168
:10341000662371F0E091A404F091A5040190F0817D
:10342000E02D84EA94E00995892B11F02196ECCFE8
:10343000CE01DF91CF911F910F910895CF93C82FA7
:103440000E94030920915704211102C080E084C02A
:10345000CC23F9F09091560440E050E08EE0BA01A0
:10346000625071096230710568F0992311F0915032
:1034700001C099E0899FF0011124EC5BFA4F44856B
:103480005585EDCF90933E075093400740933F07FB
:1034900010C0E0915504E0933E078EE0E89FF001F4
:1034A0001124EC5BFA4F84859585909340078093B7
:1034B0003F07E0913E074E2F50E08EE0E89FF0017D
:1034C0001124EC5BFA4F80819181A281B3818093BA
:1034D000470490934804A0934904B0934A0484811C
:1034E0009581A681B78180934B0490934C04A0935F
:1034F0004D04B0934E048485958590935404809335
:10350000530480859185A285B38580934F04909361
:103510005004A0935104B093520480913F079091BE
:103520004007029709F092CF83E090E09587848767
:10353000CA0101966AE070E00E94E331809355046D
:10354000CC2319F01092570406C0222321F08FEFEC
:10355000820F8093570481E0CF9108951F93CF93FA
:10356000DF93182FC0EDD5E088819981DC01ED91C2
:10357000FC910688F789E02D612F09958881998152
:10358000DC01ED91FC91028CF38DE02D612F09950A
:103590001A83DF91CF911F9108958091D00590916A
:1035A000D105DC01ED91FC910484F585E02D0994B1
:1035B000FF920F931F93CF93DF938C01F62EC0EDF4
:1035C000D5E088819981DC01ED91FC91008CF18D31
:1035D000E02D642F099588819981DC01ED91FC91A2
:1035E0000680F781E02D4F2DB801DF91CF911F911B
:1035F0000F91FF900994FF920F931F93CF93DF9346
:103600001F92CDB7DEB7F62E00ED15E0F801A081D0
:10361000B181ED91FC911197048CF58DE02D682F0F
:10362000CD010995D8018D919C91DC01ED91FC9122
:10363000068CF78DE02D40E060E8099581E28983F2
:103640004F2D61E0CE0101960E94D81A0E94CD1A3A
:103650000F90DF91CF911F910F91FF900895CF921E
:10366000DF92EF92FF920F931F93CF93DF936C0142
:103670007B018A01E901892B69F08091D005909145
:10368000D105DC01ED91FC9104A0F5A1E02D099597
:10369000F6018083E114F10469F08091D0059091E6
:1036A000D105DC01ED91FC9102A0F3A1E02D09957B
:1036B000F70180830115110569F08091D005909183
:1036C000D105DC01ED91FC9106A0F7A1E02D099553
:1036D000F8018083209761F08091D0059091D10509
:1036E000DC01ED91FC9100A4F1A5E02D0995888302
:1036F00081E0DF91CF911F910F91FF90EF90DF90CC
:10370000CF90089590E0FC01EE55FB4F3491FC0101
:10371000E054FB4F2491FC01EC52FB4FE491EE236B
:1037200009F43BC0332339F1333091F038F43130B0
:10373000A9F0323001F584B58F7D12C0373091F099
:103740003830A1F03430B9F4809180008F7D03C00F
:10375000809180008F77809380000DC084B58F7733
:1037600084BD09C08091B0008F7703C08091B00004
:103770008F7D8093B000F0E0EE0FFF1FE856FB4F07
:10378000A591B4918FB7F894EC91611103C0209585
:103790002E2301C02E2B2C938FBF0895CF93DF9340
:1037A00090E0FC01E054FB4F2491FC01EC52FB4FF4
:1037B0008491882361F190E0880F991FFC01EA54FD
:1037C000FB4FC591D491FC01E856FB4FA591B491F4
:1037D000611109C09FB7F89488812095822388835E
:1037E000EC912E230BC0623061F49FB7F8943881BE
:1037F000822F809583238883EC912E2B2C939FBF5F
:1038000006C08FB7F894E8812E2B28838FBFDF91F5
:10381000CF910895CF93CFB7F8948091460481114A
:1038200027C0EEEDF4E08491EAECF4E09491E82F07
:10383000F0E0EE0FFF1FEA54FB4FA591B491EC911D
:10384000E92321F461E08AE00E94821B61E08AE0C2
:103850000E94CE1B8CB580618CBD8CB580648CBD04
:1038600061E08DE00E94CE1B61E08BE00E94CE1BE8
:10387000809146048F5F80934604CFBFCF91089517
:103880008E3008F08E508770806480937C00809129
:103890007A00806480937A0080917A0086FDFCCF64
:1038A000809178002091790090E0922B08958F927A
:1038B0009F92AF92BF92CF92DF92EF92FF926B01F5
:1038C0007C010E9471194B015C01C114D104E10417
:1038D000F104F1F00E947119DC01CB0188199909FA
:1038E000AA09BB09883E9340A105B10570F321E008
:1038F000C21AD108E108F10888EE880E83E0981E0C
:10390000A11CB11CC114D104E104F10419F7DDCFED
:10391000FF90EF90DF90CF90BF90AF909F908F90EF
:1039200008959FB7F89480914604882319F0815038
:103930008093460480914604811105C08CB58F7B2D
:103940008CBD10925A079FBF08958CB58F778CBDA0
:1039500008958CB580688CBD08959CB5282F237080
:103960009C7F922B9CBD2DB582FB992790F9822FCD
:103970008E7F892B8DBD089580E00895FC0181859F
:103980000895FC0180850895FC0187810895FC015C
:1039900086810895FC01409595854923642B6587B0
:1039A0000895FC0164870895FC0163870895FC0174
:1039B00062870895FC0164830895FC01658308957E
:1039C00080E00895FC012281338123303105D1F359
:1039D00081E00895CF93DF93EC01E881F9810280C3
:1039E000F381E02DCE0109958823B9F3DF91CF91C2
:1039F000089581E008958EBD00000DB407FEFDCF4F
:103A00008EB50895862F0C94FB1CEF92FF920F93B6
:103A10001F93CF93DF93CDB7DEB72A970FB6F894F5
:103A2000DEBF0FBECDBF8C010E94E114E82E8111D4
:103A300002C0E12CA6C0F801838D823029F08330CA
:103A4000C1F7FF24F39401C0F12C60E1C8010E948A
:103A50000617F801868F9FEF980F9E3F50F760E0A2
:103A6000F801838D0E94CE1BF801848D8F3F49F4AD
:103A700080915B078430E8F691E0980F90935B07A4
:103A8000848FF801948DE92FF0E0EE0FFF1FE45CC6
:103A9000FB4F11830083911105C043E050E068E6BD
:103AA00079E10EC0913029F443E050E06FE579E10F
:103AB00007C0923009F0BDCF43E050E066E579E100
:103AC0008F2D0E949315C8010E94CF174FE86CE319
:103AD000C8010E94B51640E36FE6C8010E94B51602
:103AE00045E56AE5C8010E94B51640E76CE5C801E6
:103AF0000E94B5168DE2898784ED8A876EE2C8013F
:103B00000E940617F82E22E0AE01475F5F4F6FE27A
:103B1000C8010E9467164F2D477C48686EE2C801B5
:103B20000E94B51648E050E06DE775E0CE010196C1
:103B30000E94A13ABE016F5F7F4FC8010E948A17A1
:103B400040E06CE2C8010E94B51644E06DE2C80195
:103B50000E94B5164CE667E0C8010E94B51640E821
:103B600068E0C8010E94B51640E069E0C8010E9403
:103B7000B516C8010E947C1740E06DE0C8010E94A4
:103B8000A7178E2D2A960FB6F894DEBF0FBECDBFB5
:103B9000DF91CF911F910F91FF90EF900895CF93F8
:103BA000FC01268137812115310549F0213031058D
:103BB00041F02230310539F02330310531F020E079
:103BC00005C024E003C028E001C02CE09CB5937F31
:103BD000922B9CBD848195810197C1F48CB5806244
:103BE0008CBD8281938101978430910528F4FC017A
:103BF000E957FE4FC08101C0C1E08C2F0E94AD1C6F
:103C00000E940A1C8C2FCF910C94AD1C9CB59F7DFB
:103C10009CBDE7CF8F929F92AF92BF92CF92DF92DF
:103C2000EF92FF92CF93DF93EC016B010E941C2077
:103C30004B015C01E12CF12C0E941C20DC01CB012A
:103C400088199909AA09BB098C159D05AE05BF0500
:103C500030F48A819B81039779F381E001C080E091
:103C6000DF91CF91FF90EF90DF90CF90BF90AF901A
:103C70009F908F9008958F929F92AF92BF92CF9214
:103C8000DF92EF92FF92CF93DF93EC016B010E94E2
:103C90001C204B015C01E12CF12C0E941C20DC015A
:103CA000CB0188199909AA09BB098C159D05AE0598
:103CB000BF0550F4E881F9810280F381E02DCE0147
:103CC0000995882351F301C080E0DF91CF91FF90E7
:103CD000EF90DF90CF90BF90AF909F908F9008951E
:103CE0008F929F92AF92BF92CF92DF92EF92FF920C
:103CF000CF93DF93FC0126893789232B11F481E0D0
:103D000038C0EC010E941C206B017C0189E0882EE8
:103D1000912CA12CB12CE881F9810488F589E02D42
:103D2000CE010995882359F30E941C20AB01BC01E8
:103D30004C195D096E097F098E899F89A0E0B0E06A
:103D400084179507A607B70798F00E946738A50162
:103D500094010E94C93D9B01AC012F5F3F4F4F4F23
:103D60005F4FA4E6B0E00E94E83D0E94571CD3CF0D
:103D700080E0DF91CF91FF90EF90DF90CF90BF90E8
:103D8000AF909F908F900895BF92CF92DF92EF9265
:103D9000FF920F931F93CF93DF937C01C62FD42EF6
:103DA000B22EC32EFC012181828190915A07992362
:103DB00079F09FB7F89430915A07313039F43DB318
:103DC000309359073DB33DBB9FBF02C09093590745
:103DD0002CBD8DBD61E0F70180810E94821BDD203A
:103DE00011F080E101C080E98C2B0E94FB1CCB2DDF
:103DF000DC2D0C0F1D1FC017D10761F0D11005C0BD
:103E000080E00E94FB1C888303C088810E94FB1C09
:103E10002196F1CF60E0F70180810E94821B8091A2
:103E20005A07882361F09FB7F89420915A07809130
:103E30005907213019F48DBB9FBF01C08FBFDF919F
:103E4000CF911F910F91FF90EF90DF90CF90BF9097
:103E50000895CF93DF93EB010E94813D8883CE01CB
:103E6000DF91CF9108950F931F93CF93DF938C0130
:103E7000EB010E94813D8883C80101960E94813D2B
:103E80008983CE01DF91CF911F910F910895CF9338
:103E9000DF93EB010E94813D8883CE01DF91CF91BA
:103EA00008950F931F93CF93DF9300D0CDB7DEB764
:103EB0008B01FB0160819A838983CE0101960E9468
:103EC000C60CC8010F900F90DF91CF911F910F91F9
:103ED0000895EF92FF920F931F93CF93DF9300D03B
:103EE000CDB7DEB78C017B01FB0160819A838983AA
:103EF000CE0101960E94C60CF70161810F5F1F4F32
:103F00001A830983CE0101960E94C60CC7010F9047
:103F10000F90DF91CF911F910F91FF90EF90089537
:103F20000F931F93CF93DF9300D0CDB7DEB78B01F4
:103F3000FB0160819A838983CE0101960E94C60CA1
:103F4000C8010F900F90DF91CF911F910F910895AD
:103F5000CF93DF93D82FC1E0DC1780F05C9A64EF39
:103F600071E080E090E00E94571C5C986AEF70E07E
:103F700080E090E00E94571CCF5FEECFDF91CF91A1
:103F800008950F931F93CF93DF93809155079091DE
:103F90005607A0915707B0915807892B8A2B8B2B76
:103FA000A9F00E94570400915507109156072091DF
:103FB000570730915807DC01CB01801B910BA20BF6
:103FC000B30B84389340A105B10588F188EE94E0E5
:103FD0009F938F93C8E5D4E0DF93CF930E94DD3A9F
:103FE0000E9457049F938F937F936F93DF93CF9398
:103FF00082E792E09F938F93DF93CF930E94CD341B
:1040000061E080912A030E946B0D0E945704609327
:1040100055077093560780935707909358078DB7AD
:104020009EB70E960FB6F8949EBF0FBE8DBFDF9160
:10403000CF911F910F9108952FB7F89460915D076C
:1040400070915E0780915F07909160072FBF089580
:104050001F920F920FB60F9211242F933F938F93BD
:104060009F93AF93BF9380915D0790915E07A0915E
:104070005F07B091600730915C0723E0230F2D3775
:1040800020F40196A11DB11D05C026E8230F02965C
:10409000A11DB11D20935C0780935D0790935E077F
:1040A000A0935F07B093600780914204909143040E
:1040B000A0914404B09145040196A11DB11D8093C7
:1040C000420490934304A0934404B0934504BF91E9
:1040D000AF919F918F913F912F910F900FBE0F90B5
:1040E0001F901895CF93DF93CDB7DEB7E9970FB642
:1040F000F894DEBF0FBECDBF789484B5826084BDD6
:1041000084B5816084BD85B5826085BD85B58160DB
:1041100085BD80916E00816080936E001092810059
:104120008091810082608093810080918100816014
:1041300080938100809180008160809380008091D5
:10414000B10084608093B1008091B0008160809361
:10415000B00080917A00846080937A0080917A0028
:10416000826080937A0080917A00816080937A00E7
:1041700080917A00806880937A001092C10060E09C
:1041800086E00E94CE1B61E084E00E94CE1B60E0CE
:1041900084E00E94821B60E08EE00E94CE1B60E003
:1041A00083E00E94CE1B80912303882311F060E0FE
:1041B00001C062E08FE00E94CE1B62E085E00E94B9
:1041C000CE1B62E088E00E94CE1B62E089E00E9484
:1041D000CE1B62E080E10E94CE1B62E081E10E9482
:1041E000CE1B62E082E10E94CE1B62E083E10E946E
:1041F000CE1BE091B404F091B50482E08083E0919D
:10420000B004F091B1041082E091B204F091B304D3
:1042100080E180831092BC04E091B804F091B9046D
:1042200086E08083E091B604F091B70480818061DC
:104230008083E091B604F091B70480818860808328
:10424000E091B604F091B704808180688083E091AA
:10425000B604F091B70480818F7D808380E090E088
:104260000E94960780E090E00E94960760E070E070
:104270008BE990E00E94C7071091670760E070E04B
:104280008CE790E00E94F306C12ED12CE12CF12C9A
:1042900019A2CE018196B701A6014F705527662756
:1042A000772724E0F694E794D794C7942A95D1F71A
:1042B00001974A3051056105710510F4405D01C058
:1042C000495CDC014C93C114D104E104F10419F7F9
:1042D0000E94961913FF07C060E070E088E790E045
:1042E0000E94F306177F12FF07C060E070E084E7CA
:1042F00090E00E94F3061B7F11FF07C060E070E0B2
:1043000080E790E00E94F3061D7F10FF07C060E089
:1043100070E08CE690E00E94F3061E7F112331F0DE
:1043200060E070E088E690E00E94F30680E090E0B4
:104330000E9496071DA21CA21BA21AA2FE01319682
:10434000FFABEEAB80E111928A95E9F7A895BE012B
:104350006B5D7F4F80E090E00E94471F8DA185300C
:1043600038F490E090930A018093090111E001C0B4
:1043700010E0BE016B5D7F4F81E090E00E94471F1F
:104380008DA18F3F21F060E00E947F0C01C010E002
:104390001E01F2E22F0E311CB10182E090E00E947A
:1043A000331F8AA19BA1893B2BE0920728F49093AD
:1043B0002E0380932D0301C010E0BE016B5D7F4F83
:1043C00084E090E00E94471F8DA18F3F19F08093F9
:1043D0002F0301C010E0B10185E090E00E94331F7F
:1043E0008AA19BA19C0121503109283E3D4F28F410
:1043F000909331038093300301C010E0CE01849686
:1044000099AF88AFBC0187E090E00E94291F8CA182
:1044100092E0980F973108F4DEC310E0BE016C5DA6
:104420007F4F88E090E00E94291F8CA194E6980FAE
:10443000953618F48093DC0201C010E0A895BE0107
:104440006B5D7F4F89E090E00E94471F8DA19FEF39
:10445000980F9E3F18F48093DB0601C010E0BE0168
:104460006B5D7F4F8AE090E00E94471F8DA19FEF18
:10447000980F9E3F18F480932A0301C010E0BE01FC
:104480006B5D7F4F8BE090E00E94471F8DA18F3FB7
:1044900019F08093E00201C010E0BE016B5D7F4F18
:1044A0008CE090E00E94471F8DA18F3F19F0809310
:1044B000DF0201C010E0BE016B5D7F4F8DE090E038
:1044C0000E94471F8DA19FEF980F9E3F18F4809385
:1044D000DE0201C010E0BE016B5D7F4F8EE090E018
:1044E0000E94471F8DA19FEF980F9E3F18F4809365
:1044F000DD0201C010E080E1AEA9BFA91D928A953E
:10450000E9F7FE0131967F019FE0692E712C0EA91B
:10451000005FB701C3010E94471FF7018081FFEFD1
:10452000EF1AFF0A80528F3508F010E02FEF621A61
:10453000720A0E11EECF112381F080E1E1EEF2E07C
:10454000DF01882E1D928A94E9F7FE013196A1EED3
:10455000B2E001900D928A95E1F7BE016B5D7F4F4D
:104560008FE190E00E94471F8DA1823058F061E0FA
:1045700070E085E890E00E94C7070E9489130E94BE
:10458000620304C080932303112389F30E94D8128D
:1045900064E070E082E990E00E94C70788E58983C3
:1045A00001E010E09E012F5F3F4F41E060E081E4B9
:1045B00095E00E94C41E0E94C11F0E945704609390
:1045C000D6027093D7028093D8029093D9028B01C0
:1045D0009C01005816442846384501381F422241A4
:1045E0003E4338F020E041E060E876E488E698E574
:1045F00012C0E09156045EE0E59FF0011124EC5BEF
:10460000FA4F0081118122813381012B022B032B70
:1046100021F421E041E00E94D10A83E00E94A81F1A
:104620008091D6029091D702A091D802B091D90280
:1046300080933C0390933D03A0933E03B0933F03CC
:104640008DE890E09F938F9308E514E01F930F93FC
:104650000E94DD3A809167071F928F931F928AE034
:104660008F931F930F938BE891E09F938F931F93EA
:104670000F930E94CD3460E080912A030E946B0D5D
:104680000FB6F894DEBF0FBECDBF809123038130FB
:10469000F1F48FE090E0909391028093900283E395
:1046A00093E3AEEDB2E48093960290939702A093C9
:1046B0009802B093990280E090E0A0E0B4E4809387
:1046C000B2029093B302A093B402B093B50299E200
:1046D00088E10FB6F894A895809360000FBE909380
:1046E0006000DE0111966D01FE01B296FCA7EBA7FA
:1046F00088E5E82E84E0F82E81E08093A1039E01F6
:104700002B5D3F4F38A72FA3AE014A5D5F4F5AA7DD
:1047100049A78091A103873008F05AC284EA94E047
:104720000E940314A895181619067CF5E091A003C1
:10473000E11108C09C012F7D2A35310519F40E9432
:10474000E60C23C09C01205231092036310548F087
:104750008D30910511F40C94BD308830910521F015
:1047600014C0E73290F402C0E73220F4883091059B
:1047700009F016C5E150E093A003F0E0E15BFC4FC7
:10478000108286EA91E00E94961919B116FB8827DB
:1047900080F911E01827109380038091020188238B
:1047A00039F0112309F44BC00E94E60C83E016C2D5
:1047B00080917B031123C9F040917C0350917D03CC
:1047C00060917E0370917F03452B462B472B69F444
:1047D00081110BC00E941C2060937C0370937D03A9
:1047E00080937E0390937F032AC0811120C0111112
:1047F0001EC040907C0350907D0360907E037090BB
:104800007F03411451046104710489F00E941C204B
:10481000DC01CB0184199509A609B709893E9340AB
:10482000A105B10520F40E94E60C85E0D7C1809176
:104830007B03811104C0112311F40C944E3080913C
:104840007B03882309F450C00E941C200091770349
:10485000109178032091790330917A03DC01CB0128
:10486000801B910BA20BB30B883E9340A105B105B1
:10487000D8F10E941C206093770370937803809393
:10488000790390937A030E941C2000917C0310917D
:104890007D0320917E0330917F03DC01CB01801BDF
:1048A000910BA20BB30B81369A4EA105B105E0F036
:1048B00060E070E086EA92E00E94C70710927C03F5
:1048C00010927D0310927E0310927F031092770363
:1048D000109278031092790310927A0310927B035E
:1048E00060E080E00E947F0C809186038823D1F0F5
:1048F00080918503882309F480C10E941C200091C7
:104900008103109182032091830330918403DC01A1
:10491000CB01801B910BA20BB30B0A97A105B1052C
:1049200008F067C1A8958091A00381112EC08091E5
:104930002D0390912E03892B41F180911A039091C0
:104940001B03A0911C03B0911D03892B8A2B8B2B79
:10495000E1F00E941C2000911A0310911B0320918A
:104960001C0330911D03AB01BC01401B510B620BBA
:10497000730B80912D0390912E03A0E0B0E04817B7
:1049800059076A077B0708F05EC18091A003811177
:1049900019C18091A10380FFA5C080912803909147
:1049A0002903892B89F000912803109129030E9483
:1049B0005704980140E050E000E00E94F309109293
:1049C00029031092280302C00E94030980911E034C
:1049D000811112C080915704882309F464C080912A
:1049E000240390912503A0912603B0912703892BDE
:1049F0008A2B8B2B09F057C081E00E941E1A882356
:104A000009F449C084EC92E09F938F93FF92EF9258
:104A10000E94DD3A20914B0430914C0440914D04AA
:104A200050914E0460911F037091200380912103E7
:104A3000909122030E948C069F938F937F936F9394
:104A400080914A048F93809149048F938091480408
:104A50008F93809147048F93FF92EF928EEB91E0BA
:104A60009F938F93FF92EF920E94CD3460E08091EC
:104A70002A030E946B0D0E945704609324037093D5
:104A8000250380932603909327030FB6F894DEBF87
:104A90000FBECDBF06C061E070E085EB92E00E94E2
:104AA000C70710921E0380915704843008F0D7C0C6
:104AB000882309F487C00E945704009124031091B1
:104AC00025032091260330912703DC01CB01801BB5
:104AD000910BA20BB30B8C329140A105B10508F0EC
:104AE000BEC070C0823009F04DC08091000190912D
:104AF000010188359240E1F00E945704009138038B
:104B00001091390320913A0330913B03AB01BC0172
:104B1000401B510B620B730B80913603909137034E
:104B2000A0E0B0E0481759076A077B0708F0E8C122
:104B30008091320390913303A0913403B0913503F7
:104B4000892B8A2B8B2B09F4E2C10E945704009118
:104B50003203109133032091340330913503AB01BC
:104B6000BC01401B510B620B730B809100019091B3
:104B70000101A0E0B0E0481759076A077B0708F079
:104B8000C6C120C0843019F40E94C11F1BC08630EA
:104B9000C9F4809102018823A9F00E945704009172
:104BA0003C0310913D0320913E0330913F03DC0113
:104BB000CB01801B910BA20BB30B0F97A105B10585
:104BC00008F090C28091A1038F5F8093A103A1CDD3
:104BD0000E94C51491CD8093DB0220CC0E94A81FB7
:104BE00010927C0310927D0310927E0310927F033B
:104BF00026CE109285035C981BC00E941C20009159
:104C00008103109182032091830330918403DC019E
:104C1000CB01801B910BA20BB30B883E9340A105E7
:104C2000B10508F47FCE81E0809385030E941603CE
:104C30000E941C20609381037093820380938303FE
:104C4000909384036FCE5C9810921A0310921B030A
:104C500010921C0310921D031092190396CE80919E
:104C60002303813019F48EEC92E002C089EC92E0CB
:104C70009F938F93FF92EF920E94DD3A0F900F90D7
:104C80000F900F9080912303813011F084E001C0D8
:104C900082E080938D03E0915504FEE0EF9FD00108
:104CA0001124AC5BBA4F4D905D906D907C90A30148
:104CB000920121503109410951092DA73EA74FA763
:104CC00058ABEE2311F0E15001C0E9E03EE0E39F74
:104CD000F0011124EC5BFA4F248135814681578124
:104CE00060911F0370912003809121039091220312
:104CF0000E948C062B013C017F926F925F926F9312
:104D000048A94F935FA55F938EA58F939DA59F9311
:104D1000FF92EF928EEB91E09F938F93FF92EF9231
:104D20000E94CD3481E080938C0380938B030FB677
:104D3000F894DEBF0FBECDBF1EE080918B038823A9
:104D400009F4CEC090918C0380918D03891708F4EB
:104D5000C7C080E00E941E1A80938B03882309F449
:104D6000B9C020914B0430914C0440914D045091B6
:104D70004E0460911F037091200380912103909154
:104D800022030E948C0660938703709388038093AC
:104D9000890390938A038090470490904804A090E0
:104DA0004904B0904A048AAA9BAAACAABDAA2DA520
:104DB0003EA54FA558A982169306A406B50608F489
:104DC00064C0641575058605970508F45EC0DC01AE
:104DD000CB0184199509A609B709BF93AF939F9397
:104DE0008F93E09155041E9FF0011124EC5BFA4F64
:104DF00080819181A281B38188199909AA09BB098F
:104E0000BF93AF939F938F93FF92EF92A9ECB1E082
:104E1000BF93AF93FF92EF920E94CD340FB6F894F8
:104E2000DEBF0FBECDBF80912303813071F540906E
:104E30004F0450905004609051047090520420E050
:104E400030E048EC52E4C301B2010E94A5330E9455
:104E5000DC32CB0164E670E00E94E3319F938F93D4
:104E6000C301B2010E94DC327F936F93FF92EF92F5
:104E7000A4EDB1E0BF93AF93FF92EF920E94CD34C7
:104E80000FB6F894DEBF0FBECDBFE09155041E9F54
:104E9000F0011124EC5BFA4F4080518062807380F6
:104EA0008091470490914804A0914904B0914A042C
:104EB00053014201881A990AAA0ABB0A8DA69EA626
:104EC000AFA6B8AA409087035090880360908903EA
:104ED00070908A0380918C038F5F80938C032DCF19
:104EE00060E080912A030E946B0D0E94570460933A
:104EF000240370932503809326039093270362CEA7
:104F000088E592E0909301018093000111CE109208
:104F1000900310919003133068F48EE00E94401CBF
:104F200064E670E080E090E00E94571C1F5F1093E1
:104F30009003EFCF10928F0310928E031092900384
:104F4000109190031A3088F48EE00E94401C20914A
:104F50008E0330918F03820F931F90938F03809362
:104F60008E031F5F10939003EBCF80918E0390917F
:104F70008F036AE070E00E94CF3180E090E00E94F1
:104F8000123326E636E24BE953E40E946A322DECF6
:104F90003CEC4CE650E40E94A53320E030E04AE7C8
:104FA00054E40E94A5330E94E3327093920360930D
:104FB000910364E070E083ED92E00E94F30664E008
:104FC00070E080919103909192030E94B80C0E942E
:104FD000570400913C0310913D0320913E03309112
:104FE0003F03DC01CB01801B910BA20BB30B809321
:104FF000930390939403A0939503B093960383EE49
:1050000092E09F938F93FF92EF920E94DD3AF0918E
:105010003003A0913103E0912F0360912D03709133
:105020002E0330912C0320912B03422F022E000CD3
:10503000550B80916107909162070F900F900F9030
:105040000F90009711F488E697E0AF93FF931F92BB
:10505000EF937F936F931F923F935F932F93A601DC
:10506000481B590BCA019F934F9380919A038F93CA
:10507000809199038F93809198038F9380919703E8
:105080008F93809196038F93809195038F93809156
:1050900094038F93809193038F93809192038F93C6
:1050A000809191038F93FF92EF928FED91E09F9308
:1050B0008F93FF92EF920E94CD3461E080912A039A
:1050C0000E946B0D0E945704609332037093330368
:1050D00080933403909335030FB6F894DEBF0FBE70
:1050E000CDBF70CD0E94570460939C0370939D03C5
:1050F00080939E0390939F038CED96E00E94F1169F
:1051000061E08AE00E94821B61E087E00E94821BCE
:1051100084EA94E00E94A3140FB6F894A8958091B5
:105120006000886180936000109260000FBE20E0F4
:1051300030E040E050E06AE070E08BE993E00E94EC
:105140001B1699E288E10FB6F894A8958093600049
:105150000FBE909360000E94570400919703109136
:1051600098032091990330919A0340909C035090AA
:105170009D0360909E0370909F03041915092609F2
:105180003709DC01CB01800F911FA21FB31F809351
:10519000970390939803A0939903B0939A0312CD29
:1051A0008D30910509F066C780E090E00E94960777
:1051B0008091A0031092A003882309F4E6CA84E139
:1051C000AEA9BFA91D928A95E9F7109287031092A4
:1051D00088031092890310928A0361EA72E08FE4D7
:1051E00093E00E945806813029F40E94A50701E04F
:1051F00010E002C000E010E06CE972E08FE493E0A0
:105200000E945806813009F03AC1E09156048EE0C0
:105210008E9FF0011124EC5BFA4FA7E4B4E00190FB
:105220000D928A95E1F70E940E0760E070E086E932
:1052300092E00E94F30660911F0370912003809119
:1052400021039091220320E030E0A9010E948C0606
:1052500040E050E00E94840760E070E08FE892E058
:105260000E94F30620914B0430914C0440914D0470
:1052700050914E0460911F0370912003809121038F
:10528000909122030E948C0640E050E00E94840727
:1052900080E090E00E9496070E945B0560934003C7
:1052A0007093410380934203909343030E940E073F
:1052B00060E070E08DEA90E00E94F30660914003A8
:1052C0007091410380914203909143030E94C6195B
:1052D00060E070E084EA90E00E94F30620E030E0B5
:1052E00046E653E46091400370914103809142038C
:1052F000909143030E94A5330E94C61960E070E0BC
:1053000082EA90E00E94C7070E940E0760E070E00A
:105310008AE892E00E94F306809128039091290385
:1053200060E070E00E94B80C0E940E0760E070E040
:105330008EE792E00E94F3068091570460E070E0EF
:1053400090E00E94700C0E940E0760E070E084E71D
:1053500092E00E94F30660912403709125038091EE
:1053600026039091270340E050E00E94640780E00C
:1053700090E00E9496070E940E0760E070E08BE6C6
:1053800092E00E94F3068091560460E070E090E0A5
:105390000E94700C0E940E0760E070E083E692E0CD
:1053A0000E94F3068091550460E070E090E00E9456
:1053B000700C0E940E0760E070E083EB90E00E94AA
:1053C000C70710E0812F0E94E6071F5F1A30D1F750
:1053D0000E940E0760E070E08DE592E00E94F30607
:1053E00060E070E080919103909192030E94B80C6C
:1053F0000E940E0760E070E088E592E00E94F306EC
:105400008091610790916207009711F488E697E018
:1054100060E070E0F101E81BF90BCF010E94B80CCD
:105420000E940E0760E070E083E592E00E94F306C0
:1054300080910201811103C088E492E002C08AE4F5
:1054400092E060E070E00E94C7070E940E0760E0F3
:1054500070E08CE492E00E94F306609197037091F3
:1054600098038091990390919A0340E050E00E9444
:10547000640780E090E00E94960702E010E063E499
:1054800072E08FE493E00E945806813051F49091CD
:105490002303913009F480E08093230301E010E0BE
:1054A00003C00230110541F063E472E08FE493E041
:1054B0000E945806813069F40E940E0780912303F0
:1054C000813009F479C589E392E060E070E00E94E0
:1054D000C70764E372E08FE493E00E9458068130CE
:1054E00021F40E94891301E010E06FE272E08FE482
:1054F00093E00E945806823081F5EFE4F3E00190DA
:105500000020E9F7AF014555534064E573E0C6015B
:105510000E94BE3440E050E060E070E0C6010E94AE
:1055200086396093870370938803809389039093EF
:105530008A03611571058105910539F020E041E08C
:105540000E94D10A01E010E00BC00E940E0760E04B
:1055500070E086E292E00E94F3060230110549F005
:105560006FE272E08FE493E00E945806882309F40A
:105570006CC00E940E0784E493E00E94D60360E0B2
:1055800070E084EC90E00E94F30640904403709039
:105590004503509046036090480320914903809151
:1055A0004A034091090150910A0157FD39C090E02A
:1055B0008E54984F29AB0E944F0760E070E080EC5A
:1055C00090E00E94F30629A9822F90E00E944F07E5
:1055D00060E070E08EEB90E00E94F306862D90E094
:1055E0000E944F0760E070E08CEB90E00E94F306B1
:1055F000852D90E00E944F0760E070E08AEB90E01C
:105600000E94F306872D90E00E944F0760E070E053
:1056100088EB90E00E94F306842D90E00E944F07F3
:1056200060E070E082EC90E00E94F3060E94570474
:1056300040E050E00E94640780E090E00E949607FE
:105640000230110511F001E010E061E272E08FE438
:1056500093E00E945806823009F04BC0EFE4F3E07B
:1056600001900020E9F7AF014555534064E573E030
:1056700081EF92E00E94BE346BE172E081EF92E034
:105680000E945806813019F481E090E020C066E164
:1056900072E081EF92E00E945806813019F482E0B6
:1056A00090E015C061E172E081EF92E00E9458063F
:1056B000813019F483E090E00AC06BE072E081EF82
:1056C00092E00E945806813059F484E090E0909373
:1056D0000A01809309010E94620301E010E00CC0FE
:1056E0000E940E0760E070E080E092E00E94C70731
:1056F0004CC80230110541F061E272E08FE493E0A2
:105700000E9458068823C1F00E940E0760E070E0F6
:1057100088EF91E00E94F30660E08091090190918A
:105720000A010E94CE0680E090E00E9496070230B7
:10573000110511F001E010E063EF71E08FE493E0F8
:105740000E945806823079F5EFE4F3E001900020E2
:10575000E9F7AF014555534064E573E081EF92E00E
:105760000E94BE34E1EFF2E001900020E9F7E25040
:10577000F34049F00E940E0760E070E08BEE91E08C
:105780000E94C70710C080E1E1EFF2E0A1EEB2E0B5
:1057900001900D928A95E1F70E9462030E94D8124F
:1057A00001E010E003C00230110541F063EF71E049
:1057B0008FE493E00E9458068823C9F00E940E07E8
:1057C00060E070E086EE91E00E94F30640E150E078
:1057D00061EE72E084EA94E00E94C51380E090E0FC
:1057E0000E9496070230110511F001E010E061EE11
:1057F00071E08FE493E00E945806823009F04EC0B9
:10580000EFE4F3E001900020E9F7AF014555534084
:1058100064E573E081EF92E00E94BE341EA21DA2F7
:105820001CA21AA23CA53F934BA54F9359AD5F9381
:1058300088AD8F9398A59F93AFA1AF93BAA5BF935F
:10584000E9A5EF938AEA91E09F938F9381EF92E02D
:105850009F938F930E94F0340FB6F894DEBF0FBE73
:10586000CDBF049749F00E940E0760E070E088ED1C
:1058700091E00E94C70712C08EA18093E0028DA123
:105880008093DF028CA18093DE028AA18093DD02E7
:105890000E9462030E94D81201E010E0023011055C
:1058A00009F48DC361EE71E08FE493E00E94580625
:1058B000811185C363ED71E08FE493E00E94580687
:1058C0008230D9F5EFE4F3E001900020E9F7AF0171
:1058D0004555534064E573E0C6010E94BE3440E084
:1058E00050E060E070E0C6010E9486396093870353
:1058F000709388038093890390938A032B013C0162
:1059000031E0431A5108610871084DEF4416510403
:105910006104710448F00E940E0760E070E08AECB8
:1059200091E00E94C70709C060932A030E946203A6
:105930000E94D81201E010E003C00230110541F0CE
:1059400063ED71E08FE493E00E9458068823A1F094
:105950000E940E0760E070E084EC91E00E94F30684
:1059600080912A0360E070E090E00E94700C0230A9
:10597000110511F001E010E06FEB71E08FE493E0AE
:105980000E9458068230D9F5EFE4F3E00190002040
:10599000E9F7AF014555534064E573E0C6010E9445
:1059A000BE3440E050E060E070E0C6010E948639FD
:1059B00060938703709388038093890390938A038D
:1059C0002B013C0151E0451A510861087108ADEF07
:1059D0004A1651046104710448F00E940E0760E009
:1059E00070E086EB91E00E94C70709C06093DB0678
:1059F0000E9462030E94D81201E010E003C002304E
:105A0000110541F06FEB71E08FE493E00E945806BE
:105A10008823A1F00E940E0760E070E080EB91E027
:105A20000E94F3068091DB0660E070E090E00E9447
:105A3000700C0230110511F001E010E06BEA71E02A
:105A40008FE493E00E945806823069F5EFE4F3E0BA
:105A500001900020E9F7AF014555534064E573E03C
:105A6000C6010E94BE3440E050E060E070E0C60134
:105A70000E94753870934E0360934D039B012C591F
:105A80003F4F2536310548F00E940E0760E070E078
:105A900082EA91E00E94C70706C06093DC020E9480
:105AA000620301E010E06DE971E08FE493E00E9491
:105AB0005806823031F5EFE4F3E001900020E9F779
:105AC000AF014555534064E573E0C6010E94BE3402
:105AD00040E050E060E070E0C6010E947538862F1B
