:100000000C9400030C9401050C94DA040C942A035C
:100010000C942A030C942A030C9480050C942A0354
:100020000C942A030C942A030C942A030C942A039C
:100030000C942A030C942A030C942A030C942A038C
:100040000C9426200C942A030C944E050C9428053D
:100050000C942A030C942A030C942A030C942A036C
:100060000C942A030C942A0320554E0020504F0074
:100070002045580020424F0020574400525F464C14
:100080004720307800524F4D2042616400474D5365
:10009000470052544320496E6974003D424F4F540B
:1000A0003D005700412C2050524D533D0049524DC8
:1000B000533D004D74723D003A003A0020002D007F
:1000C0002D002F0054696D653D002E002E002E007E
:1000D0004E65742049643D0042616420436D6400B4
:1000E0004C45442050756C7365286D73293D004262
:1000F0006164204C45442074696D65004C4544544E
:10010000004C45443D313A00426164204C45442056
:1001100072617465004C454452004F4646004F4E94
:1001200000546573743D0054455354004D7472205F
:10013000496E74657276616C3D004D5452490049B8
:100140006D702F6B57683D0042616420496D702FC0
:100150006B5768004D54525200536574204D7472B1
:100160002056616C3D004D54525600417667205236
:1001700053534940477761793D004C617374204780
:10018000776179205353493D00546774205253538B
:10019000493D00545820506F773D0042616420541F
:1001A0005820506F770054585057004261642052D5
:1001B0005353490054525353004E6F6465204964B1
:1001C0003D00426164204E6F6465204964004E4FDB
:1001D000494400477761792049643D0042616420C9
:1001E0004777617920496400475749440042616478
:1001F0002041646472004E455449004B65793D00CE
:10020000426164204B657900454B4559004C6F674E
:100210004C65763D00426164204C6F674C6576000A
:10022000444542554700494E464F005741524E0003
:100230004552524F52004C4F474C0042616420548B
:10024000696D650054494D4500524346470043548B
:100250003D4E0043543D59004354434C004E005919
:1002600000536C6570743D0043616E20536C703DAB
:1002700000467265652052414D3D00426174742014
:10028000286D56293D00506F702049783D0050750B
:1002900073682049783D004C617374204D55503D82
:1002A00000436C6F73656420456E743D0052617746
:1002B0003D002C2056616C3D004261736520566103
:1002C0006C3D0044554D500048454C500041646A17
:1002D000204F66660041646A204F6E004E6F2070AA
:1002E00072696F7220656E747279004D52454200DA
:1002F0004D55505F004D5550430042617474657216
:1003000079205620286D56293D0047494E5200005D
:100310003E800052F4F4D0003415004FF4F4D000C5
:100320001A0B009DF4F4D0000D05013BF4F4D0004D
:1003300006830275F3F3D000034104EAF2F2D00021
:10034000022C07AEE2E2D00001000800E1E1D0009B
:1003500000801000E0E0D000024003334242D001B0
:100360003E800052F4F5D0013415004FF4F4D00172
:100370001A0B009DF4F4D0010D05013BF4F4D001FB
:1003800006830275F3F3D001034104EAF2F2D001CF
:10039000022C07AEE2E2D00101000800E1E1D00149
:1003A00000801000E0E0D001024003334242D00858
:1003B0007D0000108888D008682B0010F1F1D0086B
:1003C00034150010F5F5D0081A0B0010F4F4D0081D
:1003D0000D050010F3F3D00806830010F2F2D008E8
:1003E00003E80010E2E2D05A003000203E20002056
:1003F0005768002000C802E7035802C302490244BC
:100400000236020802F601E801CE01B401A6016637
:100410000154013A0127011501FC00436D64733A50
:1004200020003D005D002C002C002C003D5B004FA7
:1004300070656E65642000436C6F736564200041D5
:100440006C676E3D6D6D3A3030004C454420313A5A
:10045000004D73674D6772206661696C002C204106
:10046000766720525353493D005458506F773D00F2
:100470004F4646004F4E00536C703D00556E6B204A
:100480006D73673A2000476F742062636173743A3A
:1004900020004D4E4F4900476F7420505253502E4C
:1004A000204E6F207570646174650020746F2000A9
:1004B000476F7420505253503A200050525350000E
:1004C000476F7420626164204D504C4900204C45B8
:1004D000442050756C736520286D73293D00476F6B
:1004E00074204D504C493A20004D504C4900476F04
:1004F0007420626164204D494E4900207365637326
:1005000020746F2000476F74204D494E493A2000F7
:100510004D494E4900476F7420626164204D564139
:100520004900476F74204D5641493A20004D5641CD
:100530004900476F74206261642047495452007338
:10054000007320666F722000476F74204749545231
:100550003A200047495452002E2052535349203D1F
:100560002000476F74206D73673A200053656E64F6
:10057000206661696C3A20004E6F2041434B207227
:100580006563760053656E64696E673A20004D734B
:100590006720746F6F206C6F6E673A200000000058
:1005A00000250028002B00000000080002010000C8
:1005B0000304070000000000000000000000002409
:1005C0000027002A000102040810204080010204D4
:1005D0000810200102040810200404040404040488
:1005E0000402020202020203030303030350524502
:1005F00051006364696E6F70737578585B00C0302A
:100600002092670711241FBECFEFD8E0DEBFCDBF19
:1006100012E0A0E0B1E0E2E8FCE702C005900D9234
:10062000AA37B107D9F727E0AAE7B2E001C01D92C7
:10063000A736B207E1F712E0C0E0D3E004C021978B
:10064000FE010E94F531CF3FD107C9F70E9470200B
:100650000C943F3E0C9400000895CF92DF92EF92ED
:10066000FF920F931F93CF93DF936C017A018B015D
:10067000C0E0D0E0CE15DF0589F0D8016D918D0185
:10068000D601ED91FC910190F081E02DC601099514
:10069000892B11F47E0102C02196ECCFC701DF91B6
:1006A000CF911F910F91FF90EF90DF90CF90089521
:1006B000089580E090E00895FC01538D448D252F2E
:1006C00030E0842F90E0821B930B541710F0CF96EC
:1006D000089501970895FC01918D828D981761F01E
:1006E000828DDF01A80FB11D5D968C91928D9F5F69
:1006F0009F73928F90E008958FEF9FEF0895FC0114
:10070000918D828D981731F0828DE80FF11D858DC6
:1007100090E008958FEF9FEF0895FC01918D228D59
:10072000892F90E0805C9F4F821B91098F739927DE
:1007300008958AEA94E00E948D0321E0892B09F450
:1007400020E0822F0895FC01848DDF01A80FB11DE8
:10075000A35ABF4F2C91848D90E001968F739927F7
:10076000848FA689B7892C93A089B1898C918064E4
:100770008C93938D848D981306C00288F389E02DA5
:1007800080818F7D80830895EF92FF920F931F9356
:10079000CF93DF93EC0181E0888F9B8D8C8D981334
:1007A00005C0E889F989808185FD24C0F62E0B8D6E
:1007B00010E00F5F1F4F0F731127E02E8C8DE81292
:1007C0000CC00FB607FCFACFE889F989808185FF54
:1007D000F5CFCE010E94A303F1CF8B8DFE01E80F70
:1007E000F11DE35AFF4FF0820B8FEA89FB8980816C
:1007F000806207C0EE89FF896083E889F98980817A
:100800008064808381E090E0DF91CF911F910F9110
:10081000FF90EF900895CF93DF93EC01888D8823AC
:10082000C9F0EA89FB89808185FD05C0A889B9895D
:100830008C9186FD0FC00FB607FCF5CF808185FF38
:10084000F2CFA889B9898C9185FFEDCFCE010E94A6
:10085000A303E7CFDF91CF91089580E090E0892B4B
:1008600029F00E94990381110C9400000895FC0165
:10087000738362830895FC01778366830895FC0186
:10088000758364830895089508958CE308959FB750
:10089000F89480914C04882319F0815080934C0483
:1008A00080914C04811105C08CB58F7B8CBD10925A
:1008B000A2039FBF08950E948F34CF93DF93EC0172
:1008C000888D998DDC01ED91FC910680F781E02DFA
:1008D000099561E08A8D0E94AA1C61E08A8D0E94C0
:1008E0005E1C64E670E080E090E00E94331D81E0D1
:1008F000DF91CF910895CF92DF92EF92FF920F9305
:100900001F93CF93DF93EC016B018A01E881F9819A
:100910000280F381E02D0995F82E8823E1F0C114BF
:10092000D104B1F00115110599F0EFB6F89488A142
:10093000F8019081891710F488A18083F801408123
:1009400050E0BE016F5D7F4FC6010E949434EFBE40
:10095000C35ADF4F18828F2DDF91CF911F910F91D6
:10096000FF90EF90DF90CF900895E9E6F0E02081CE
:10097000880F991F880F991F237F822B8083E99A04
:100980000895952F8230A8F4E82FF0E0EE0FFF1FB6
:10099000ED5FFE4F71836083813041F0809169008B
:1009A0008C7F482B40936900E89A0895842F0C941B
:1009B000B50408951F920F920FB60F9211242F9332
:1009C0003F934F935F936F937F938F939F93AF93D7
:1009D000BF93EF93FF93E0910501F0910601099514
:1009E000FF91EF91BF91AF919F918F917F916F9107
:1009F0005F914F913F912F910F900FBE0F901F90DD
:100A000018951F920F920FB60F9211242F933F93B8
:100A10004F935F936F937F938F939F93AF93BF9306
:100A2000EF93FF93E0910301F09104010995FF9189
:100A3000EF91BF91AF919F918F917F916F915F9156
:100A40004F913F912F910F900FBE0F901F901895CF
:100A50001F920F920FB60F9211242F933F934F9333
:100A60005F936F937F938F939F93AF93BF93EF9316
:100A7000FF938AEA94E00E94A303FF91EF91BF9154
:100A8000AF919F918F917F916F915F914F913F9126
:100A90002F910F900FBE0F901F9018951F920F92DD
:100AA0000FB60F9211242F938F939F93EF93FF9381
:100AB000E091BA04F091BB048081E091C004F09110
:100AC000C10482FD12C090818091C3048F5F8F7337
:100AD0002091C404821751F0E091C304F0E0E65580
:100AE000FB4F958F8093C30401C08081FF91EF91EC
:100AF0009F918F912F910F900FBE0F901F9018957F
:100B00001F920F920FB60F9211248F930FB6F89485
:100B1000A8958091600088618093600010926000C9
:100B20000FBE8F910F900FBE0F901F90189541151B
:100B3000510529F4EAE7F0E080818F7780836A30FD
:100B40007105A9F063FD02C088E001C088E267700A
:100B5000682B88E10FB6F894A895809360000FBECB
:100B600060936000E0E6F0E0808180648083232B66
:100B7000A1F483B7817F846083BFF89483B78160D9
:100B800083BF85B7806685BF8F7D85BF7894889544
:100B900083B78E7F83BF78940EC083B7817F8460D4
:100BA00083BFF89483B7816083BF7894889583B7B7
:100BB0008E7F83BF7894452B29F4EAE7F0E08081AB
:100BC000806880830895AF92BF92DF92EF92FF9288
:100BD0000F931F93CF93DF9300D0CDB7DEB78C0177
:100BE000E62EF42EDFB6F89460E0DC015A968C9184
:100BF00029835A830E945E1CF801808D918DDC014F
:100C0000ED91FC916E2D60680190F081E02D0995C9
:100C1000E82EAF2C5A81B52E2981F20EFA1471F00C
:100C2000F801808D918DD5016D915D01DC01ED9113
:100C3000FC910190F081E02D0995F0CF61E0F80181
:100C4000828D0E945E1CDFBE8E2D0F900F90DF9173
:100C5000CF911F910F91FF90EF90DF90BF90AF90D9
:100C60000895EF92FF920F931F93CF93DF931F92FC
:100C7000CDB7DEB77C01162F0FB7F89460E0DC012A
:100C80005A968C9149830E945E1CF701808D918D4C
:100C9000DC01ED91FC91612F60680190F081E02D05
:100CA0000995182FF701808D918DDC01ED91FC9154
:100CB0000190F081E02D4981642F099561E0F701F1
:100CC000828D0E945E1C0FBF812F0F90DF91CF910C
:100CD0001F910F91FF90EF900895CF93DF93FC0148
:100CE000228133812130310549F0EC0140E061E09F
:100CF0000E94310681E090E09B838A8381E0DF914E
:100D0000CF9108950F931F93CF93DF93EC01162F8C
:100D10000FB7F89460E08A8D0E945E1C888D998DD3
:100D2000DC01ED91FC91612F6F770190F081E02D56
:100D30000995888D998DDC01ED91FC910190F081F0
:100D4000E02D60E00995182F61E08A8D0E945E1CFD
:100D50000FBF812FDF91CF911F910F9108950F93B6
:100D60001F93CF938C01C62F61E00E948206837E81
:100D7000CC71482F4C2B61E0C8010E94310667E21C
:100D8000C8010E94820687FFFACFCF911F910F9171
:100D90000895CF93DF93FC01228133812330310505
:100DA00019F1EC01828193810497D1F0878D823112
:100DB00054F045E56AE5CF010E94310640E76CE555
:100DC000CE010E94310640E465E2CE010E94310668
:100DD00060E1CE010E94AF0684E090E09B838A83AD
:100DE000C35ADF4F888101C080E0DF91CF91089521
:100DF000CF93DF93FC012281338122303105B1F0A2
:100E0000EC01878D823154F045E56AE5CF010E94FF
:100E1000310640E76CE5CE010E9431066D8DCE01B2
:100E20000E94AF0682E090E09B838A83DF91CF919E
:100E30000895BF92CF92DF92EF92FF920F931F938C
:100E4000CF93DF93EC01B62EC72E142F4D3310F045
:100E500000E08BC0E881F9810484F585E02D0995D7
:100E6000CE010E94F806E881F9810288F389E02D1D
:100E7000CE010995082F882359F3DFB6F89460E076
:100E80008A8D0E945E1C888D998DDC01ED91FC910C
:100E90000190F081E02D60E80995A88DB98DED9164
:100EA000FC9111970190F081E02D64E0610FCD017C
:100EB0000995888D998DDC01ED91FC910190F0816F
:100EC000E02D6A850995888D998DDC01ED91FC9165
:100ED0000190F081E02D6B850995888D998DDC015D
:100EE000ED91FC910190F081E02D6C850995888D44
:100EF000998DDC01ED91FC910190F081E02D6D85E3
:100F00000995EB2CFC2C115068F0888D998DF70118
:100F100061917F01DC01ED91FC910190F081E02D68
:100F20000995F1CF61E08A8D0E945E1CDFBE8A8147
:100F30009B810397D1F08F8D823154F04DE56AE5A6
:100F4000CE010E9431064CE76CE5CE010E943106CD
:100F500040E065E2CE010E9431066CE0CE010E94C5
:100F6000AF0683E090E09B838A83802FDF91CF914F
:100F70001F910F91FF90EF90DF90CF90BF90089559
:100F8000EF92FF920F931F93CF93DF93EC0168E2F0
:100F90000E948206182F8A819B81039711F413FD0A
:100FA00008C08A819B81049709F0A2C012FD0BC082
:100FB0009FC0CE010E94F8062B893C892F5F3F4FCE
:100FC0003C8B2B8BEECF64E2CE010E94820686958D
:100FD00081958E870E946D1DFE01E25AFF4F60834E
:100FE000718382839383CE010E94F806FFB6F89442
:100FF00060E08A8D0E945E1C888D998DDC01ED91E8
:10100000FC910190F081E02D60E00995888D998D2B
:10101000DC01ED91FC910190F081E02D60E00995FB
:10102000082F8CEF800F8D3300F5888D998DDC01B2
:10103000ED91FC910190F081E02D60E009958E83A7
:101040008D81811118C09E818C819817A1F08E81AD
:101050008F3F59F410C089899A8901969A8B898BA0
:1010600081E0FE01E35AFF4F808361E08A8D0E9498
:101070005E1CFFBE3DC0888D998DDC01ED91FC9119
:101080000190F081E02D60E009958F83888D998D26
:10109000DC01ED91FC910190F081E02D60E009957B
:1010A0008887888D998DDC01ED91FC910190F0810C
:1010B000E02D60E00995898718A210E0045011091D
:1010C00088A190E08017910734F6E8A0888D998D6B
:1010D000DC01ED91FC910190F081E02D60E009953B
:1010E000FE01EE0DF11D81A388A18F5F88A3E8CFDB
:1010F000DF91CF911F910F91FF90EF900895809114
:10110000A8039091A903009711F00C94C0070895CB
:101110008091A6039091A703009711F00C94C0074B
:1011200008958091A4039091A503009711F00C9469
:10113000C0070895CF93DF93EC016DE30E94820610
:10114000482F4E7F6DE3CE01DF91CF910C94310695
:101150000F931F93CF93DF93EC018B0125E0AB013D
:1011600062E00E94E305A8014B5F5F4F22E069E166
:10117000CE010E94E305F801478167E3CE01DF91CC
:10118000CF911F910F910C943106EF92FF920F9324
:101190001F93CF93DF93CDB7DEB72A970FB6F8949E
:1011A000DEBF0FBECDBF8C010E945D04E82E811111
:1011B00002C0E12CA5C0F801838D823029F0833074
:1011C000C1F7FF24F39401C0F12C60E1C8010E9433
:1011D0008206F801868F9FEF980F9E3F50F760E0E0
:1011E000F801838D0E94AA1CF801848D8F3F49F479
:1011F0008091A3038430E8F691E0980F9093A303C5
:10120000848FF801948DE92FF0E0EE0FFF1FEC556D
:10121000FC4F11830083911105C043E050E061E968
:1012200078E00EC0913029F443E050E068E878E0BF
:1012300007C0923009F0BDCF43E050E06FE778E09F
:101240008F2D0E94C104C8010E94F8064FE86CE38C
:10125000C8010E94310640E36FE6C8010E943106D2
:1012600045E56AE5C8010E94310640E76CE5C80122
:101270000E9431068DE2898784ED8A876EE2C8017B
:101280000E948206F82E22E0AE01475F5F4F6FE2B8
:10129000C8010E94E3054F2D477C48686EE2C801F3
:1012A0000E94310648E050E06FE973E0CE010196FC
:1012B0000E949F3ABE016F5F7F4FC8010E94A8083D
:1012C00040E06CE2C8010E94310644E06DE2C801D2
:1012D0000E9431064CE667E0C8010E94310640E8F2
:1012E00068E0C8010E94310640E069E0C8010E9440
:1012F0003106C8010E949A086DE0C8010E94761B61
:101300008E2D2A960FB6F894DEBF0FBECDBFDF91AB
:10131000CF911F910F91FF90EF9008958091280336
:101320009091290301969093290380932803A8950F
:1013300080912C03882351F120912D0330912E03AD
:10134000232B99F0813089F080911903823068F065
:1013500080912C038230D0F090911903923088F460
:1013600090911903923090F40FC05C9A0E946D1D09
:1013700060931A0370931B0380931C0390931D03C7
:10138000E7CF80911903815080931903089589B1A3
:1013900088708093CC03883011F40C948E095C988B
:1013A0000895BC0181EF92E00E94B33A81EF92E090
:1013B0000C945E1A0F931F93CF93DF931F92CDB7B8
:1013C000DEB7A895809109018983BE016F5F7F4FC9
:1013D00080E090E00E949A1F6CE273E081E090E070
:1013E0000E949A1F6DE273E082E090E00E94731FFA
:1013F0006FE273E084E090E00E949A1F60E373E084
:1014000085E090E00E94731F6BED72E087E090E052
:101410000E945B1FA8956CED72E088E090E00E944E
:101420005B1F61EE76E089E090E00E949A1F6AE21D
:1014300073E08AE090E00E949A1F60EE72E08BE019
:1014400090E00E949A1F6FED72E08CE090E00E94A5
:101450009A1F6EED72E08DE090E00E949A1F6DED94
:1014600072E08EE090E00E949A1F0FE010E0B80159
:101470006E527D4FC8010E949A1F0F5F1F4F0F31A0
:101480001105A9F763E273E08FE190E00E949A1FD3
:101490000F90DF91CF911F910F910895EF92FF92DE
:1014A0000F931F93CF93DF93CDB7DEB727970FB678
:1014B000F894DEBF0FBECDBF7C0160E087E00E94E4
:1014C0005E1C07E010E09E012F5F3F4F40E062E0AE
:1014D00087E495E00E94CE1E8981982F9695969577
:1014E00096959E70292F220F220F920F8F70890FD1
:1014F000F70180838A81982F9695969596959E7090
:10150000292F220F220F920F8F70890F81838B81D9
:10151000982F9695969596959670292F220F220FC3
:10152000920F8F70890F82838C81982F9695969554
:1015300096959670292F220F220F920F8F70890F88
:1015400084838D81877083838E81982F969596955D
:1015500096959270292F220F220F920F8F70890F6C
:1015600085838F81982F9695969596959E71292FB4
:10157000220F220F920F8F70890F868361E087E020
:101580000E945E1C27960FB6F894DEBF0FBECDBF3B
:10159000DF91CF911F910F91FF90EF9008958F925F
:1015A0009F92AF92BF92CF92DF92EF92FF920F93F2
:1015B0001F93CF93DF938DEC93E00E944E0AE0914E
:1015C000D303AE2FB0E020E833E341EE51E00E94B8
:1015D000E63D4B015C0122EB37E0FD01C4E6D0E0C3
:1015E00000E911E0C901825B97408E179F07DCF488
:1015F000C90183709927892B99F4C901BE010E9402
:10160000E131892B31F4C901B8010E94E131892B04
:1016100039F480E8880E81E5981E81E0A81EB11C8F
:101620002F5F3F4FDFCF0091D20310E0EE54F84F11
:10163000CF0164E670E00E94E1317C01CF0160E9F6
:1016400071E00E94E1316C01C1E0D0E0E370FF275E
:10165000C017D10724F5C230D10581F4309771F459
:10166000E114F10419F4C114D10441F480E8880EA6
:101670008BE3981E86E2A81EB11C0FC0DE01AC5E93
:10168000BE4FAC91B0E020E831E541E050E00E946F
:10169000E63D860E971EA81EB91E2196D9CF409111
:1016A000CE032091CF0330E0A0E1BEE00E94303EA7
:1016B0006B017C01242F30E0ACE3B0E00E94303EAF
:1016C000DC01CB018C0D9D1DAE1DBF1D2091CD03F6
:1016D0006C017D01C20ED11CE11CF11CA091D10353
:1016E000B0E0119720E831E541E050E00E94F13D83
:1016F000DC01CB018C0D9D1DAE1DBF1DBC01CD01BC
:10170000680D791D8A1D9B1DDF91CF911F910F914F
:10171000FF90EF90DF90CF90BF90AF909F908F9011
:1017200008958F929F92AF92BF92CF92DF92EF92E5
:10173000FF920F931F93CF93DF93EC016A017B011C
:1017400088809980AA80BB800E94CF0AC80CD91CCF
:10175000EA1CFB1C97018601061B170B280B390B93
:10176000480159010093D4039092D503A092D60367
:10177000B092D7031092D8031092D9031092DA03D3
:101780001092DB03088319832A833B83DF91CF9177
:101790001F910F91FF90EF90DF90CF90BF90AF908F
:1017A0009F908F9008954F925F926F927F928F9249
:1017B0009F92AF92BF92CF92DF92EF92FF92CF9320
:1017C000DF9380912303811104C0C12CD12C7601B9
:1017D000D6C08EE480937C0062E070E080E090E010
:1017E0000E94331D80917A00806480937A008091FA
:1017F0007A0086FDFCCF809178002091790030E05E
:10180000322F2227A901330F660B770B9A01AB0108
:10181000282B60E070E381E190E00E94C73D690100
:101820007A01C8ECD5E0809190020E941C1D909333
:10183000A1028093A002BC01990F880B990B0E9412
:1018400012334B015C014090B2025090B3026090A1
:10185000B4027090B502A30192010E94FB3120E016
:1018600030E040E85AE30E94A3339B01AC01C3017E
:10187000B2010E94FC319B01AC016093B2027093F3
:10188000B3028093B4029093B502C501B4010E94E3
:10189000FB316093AA027093AB028093AC029093E9
:1018A000AD029B01AC010E94A3336093C20270930E
:1018B000C3028093C4029093C5022091C602309166
:1018C000C7024091C8025091C9020E94FC31609346
:1018D000C6027093C7028093C8029093C9022197F1
:1018E00009F0A1CF20E030E049EB54E40E946832D7
:1018F0000E9416344B015C01B601DD0C880B990B7C
:101900000E94123320E030E04AE754E40E9468323B
:1019100020E030E040E85AE30E94A3332091960291
:101920003091970240919802509199020E94A333FE
:10193000A50194010E94A3336B017C0160938A028C
:1019400070938B0280938C0290938D021092C6024A
:101950001092C7021092C8021092C9026093C3038A
:101960007093C4038093C5039093C6032AE939E9B1
:1019700049E95EE30E949E3318160CF026CFC7019A
:10198000B601DF91CF91FF90EF90DF90CF90BF90A5
:10199000AF909F908F907F906F905F904F90089541
:1019A0000F931F93CF93DF938C01EB0182EC93E0B5
:1019B0000E94B33A62E274E082EC93E00E94A83A9B
:1019C000E2ECF3E001900020E9F73197AF01425CCF
:1019D000534062EC73E0C8010E94A434892B69F083
:1019E000CE010E94BA3AAC01BE01C8010E94C33ABE
:1019F00021E0892B19F020E001C022E0822FDF9145
:101A0000CF911F910F9108958F929F92AF92BF92A5
:101A1000CF92DF92EF92FF9249015A010E94103358
:101A200020E030E040E05FE30E94FC316B017C018C
:101A3000C501B4010E9410334B015C018091300359
:101A400090913103BC0180E090E00E9410339B0133
:101A5000AC0160E070E08AE794E40E9468329B0188
:101A6000AC01C501B4010E94A3339B01AC01C701C5
:101A7000B6010E94FC310E94E132FF90EF90DF90AE
:101A8000CF90BF90AF909F908F900895CF93009785
:101A900001F1C62F8130910519F480E392E010C066
:101AA0008230910519F48BE292E00AC083309105EF
:101AB00019F486E292E004C0049721F480E292E0F7
:101AC0000E94D109CC2329F083E092E0CF910C94BD
:101AD0005E1ACF910895CF93DF9320910901309141
:101AE0000A01261737077CF09B01EC018091080161
:101AF000882321F061E0C9010E94460DCE010E94B9
:101B0000C51A10920801DF91CF91089560E070E04E
:101B10008BEE93E00C946B0DCF93DF932091090132
:101B200030910A01261737077CF09B01EC01809168
:101B30000801882321F061E0C9010E94460DCE0111
:101B40000E945E1A10920801DF91CF910895CF9301
:101B5000DF93EA019F938F937F936F9386E092E0E8
:101B60009F938F9386EB93E09F938F930E94CB3448
:101B70008DB79EB708960FB6F8949EBF0FBE8DBF67
:101B8000BE0186EB93E0DF91CF910C948C0DCF9347
:101B9000DF93EC010A9734F460E070E089EE93E0A3
:101BA0000E946B0DBE01DD0F880B990B40E050E0E9
:101BB000DF91CF910C94A70DCF93DF93EA019F9310
:101BC0008F937F936F9385E792E09F938F938AEA39
:101BD00093E09F938F930E94CB348DB79EB7089666
:101BE0000FB6F8949EBF0FBE8DBFBE018AEA93E088
:101BF000DF91CF910C948C0D2091090130910A0155
:101C00002417350754F040E050E00E94DC0D60E0FE
:101C100070E08FEE93E00C946B0D08952091090114
:101C200030910A01281739073CF08AE092E00E94BF
:101C30005E1A81E0809308010895CF93DF930E949C
:101C4000860D60E070E08BE194E00E946B0DC5EFC3
:101C5000D3E0FE01859194910E94D10960E070E08B
:101C600083EF93E00E946B0D229684E0C931D80780
:101C700081F780E090E0DF91CF910C940E0E0F93EE
:101C80001F93CF93DF938C01EB0180910901909119
:101C90000A01861797075CF080910801882321F0DC
:101CA00061E0CE010E94460DC8010E94C51ACE0116
:101CB000DF91CF911F910F910C940E0ECF93DF9374
:101CC000C82F0E94860D0E94860D6C2F70E080E068
:101CD00090E040E050E00E94A70D60E070E08CE2F0
:101CE00094E00E946B0D8EE0C89FE0011124C65B5A
:101CF000DA4F688179818A819B8140E050E00E94BF
:101D0000DC0D60E070E08AE294E00E946B0D6C8173
:101D10007D818E819F8140E050E00E94DC0D60E07B
:101D200070E088E294E00E946B0D688579858A8571
:101D30009B850E948E1A60E070E086E294E00E942B
:101D40006B0D6C857D85072E000C880B990B40E090
:101D500050E00E94A70D60E070E084E294E0DF9123
:101D6000CF910C943F0ECF92DF92EF92FF92CF93E0
:101D7000A895882389F0E0905C04F12C0E94D30B95
:101D80002EE02E9DF0012F9DF00D1124E65BFA4F01
:101D90006087718782879387E0915C048EE0E89F7B
:101DA000F0011124E65BFA4F82E090E0958784878A
:101DB00064E070E087E394E00E946B0D809109017C
:101DC00090910A01049724F080915C040E945E0EB9
:101DD00080915C0490E001966AE070E00E94E1313D
:101DE00080935C0420915D042A3018F42F5F2093C7
:101DF0005D04009719F0EFEFE80F01C0E9E02091D2
:101E00002F03CEE0CE9FF0011124E65BFA4FC08095
:101E1000D180E280F380C20ED11CE11CF11CC89F6E
:101E2000F001C99FF00D1124E65BFA4FC082D18208
:101E3000E282F3820E94CF0A6C157D058E059F0514
:101E400080F4E0905C04F12C0E94CF0ACE9DF0015A
:101E5000CF9DF00D1124E65BFA4F6083718382837E
:101E60009383E0915C048E2F90E0009711F0E15095
:101E700001C0E9E02EE02E9FF0011124E65BFA4F4D
:101E80004481558166817781289FF001299FF00D5B
:101E90001124E65BFA4F448355836683778310866B
:101EA00011861286138681E090E09587848764E02E
:101EB00070E08FE294E00E946B0D80910901909197
:101EC0000A01049724F080915C040E945E0E8091C8
:101ED0005B0490915C04891308C090E001966AE06D
:101EE00070E00E94E13180935B04CF91FF90EF900E
:101EF000DF90CF9008950F931F93CF93A895809173
:101F00000701882381F00E94CF0A0091DC03109121
:101F1000DD032091DE033091DF0360177107820734
:101F2000930708F0A2C080912F03882319F10E9423
:101F3000CF0AE0915C042EE0E29FF0011124E65B01
:101F4000FA4F0081118122813381AB01BC01401B1A
:101F5000510B620B730B80912F0390E0A0E0B0E077
:101F6000481759076A077B0728F0848595850197EC
:101F700009F4A8C0E0915C04CEE0CE9FF0011124EA
:101F8000E65BFA4F84859585029709F0A0C00E9410
:101F9000CF0A20912F0330E0220F331F8901330F26
:101FA000220B330BDC01CB01801B910BA20BB30B7B
:101FB000E0915C04CE9FF0011124E65BFA4F0081B2
:101FC000118122813381081719072A073B0730F551
:101FD0000E94CF0AE0915C04CE9FF0011124E65BE1
:101FE000FA4F0081118122813381601B710B820BBA
:101FF000930B20912F0330E040E050E00E94A53D7C
:10200000DA01C9010197A109B1098093C70390932F
:10201000C803A093C903B093CA0308C01092C703B2
:102020001092C8031092C9031092CA0381E09091E4
:102030002303911101C080E00E94B30EC0E08C2FF9
:1020400090E0A0E0B0E04091C7035091C8036091D8
:10205000C9037091CA0384179507A607B707B8F597
:1020600080E00E94B30ECF5FEACF63E070E08FE3C1
:1020700094E00E943F0E81E090912303911101C0F2
:1020800080E00E94B30EE0915C048EE0E89FF001D6
:102090001124E65BFA4F8091DC039091DD03A0915F
:1020A000DE03B091DF0380839183A283B383109218
:1020B00007011092DC031092DD031092DE031092F0
:1020C000DF0331CF82E090E09587848753CFCF91B3
:1020D0001F910F9108958F929F92AF92BF92CF92CE
:1020E000DF92EF92FF920F93CF93DF934B015C014E
:1020F00069017A0180912F03882309F447C00111F7
:1021000045C00E947B0FE0915C04CE2FD0E03EE002
:10211000E39FF0011124E65BFA4F84809580A6804E
:10212000B7808C0C9D1CAE1CBF1C60911F0370916E
:1021300020038091210390912203A50194010E9424
:10214000040D21E061157A4E86459A4F08F420E08F
:102150002093CB03222369F010921F0310922003D7
:10216000109221031092220381E080931E03460106
:1021700057018EE08C9FF0018D9FF00D1124E65BDE
:10218000FA4F84829582A682B78277C0E0915C0480
:102190008EE0E89FF0011124E65BFA4F848195817F
:1021A000A681B781892B8A2B8B2B41F081E09091FE
:1021B0002303911101C080E00E94B30EE0915C0402
:1021C000CE2FD0E03EE0E39FF0011124E65BFA4F12
:1021D00080829182A282B38284819581A681B78117
:1021E000A7019601280F391F4A1F5B1F60911F032B
:1021F0007091200380912103909122030E94040D8D
:1022000021E061157A4E86459A4F08F420E020932C
:10221000CB03222341F010921F031092200310924F
:1022200021031092220381E080931E038EE08C9F95
:10223000F0018D9FF00D1124E65BFA4FC482D58228
:10224000E682F78281E090912303911101C080E042
:102250000E94B30E002389F0C0915C04D0E00E947C
:10226000CF0A2EE02C9FF0012D9FF00D1124E65B8C
:10227000FA4F6083718382839383DF91CF910F91B3
:10228000FF90EF90DF90CF90BF90AF909F908F9096
:1022900008952F923F924F925F926F927F928F920A
:1022A0009F92AF92BF92CF92DF92EF92FF920F93E5
:1022B0001F93CF93DF93CDB7DEB72D970FB6F8946A
:1022C000DEBF0FBECDBF6B017C0148872987AB0104
:1022D000BC018CE393E00E94910BB701A60182E35D
:1022E00093E00E94910BB701A60188E393E00E945E
:1022F000910BB701A60184E293E00E94910BB70114
:10230000A6018BE597E00E94910BB701A60180EE34
:1023100093E00E94910B8CE3882E912CA12CB12C80
:10232000C701B601A50194010E94A53D562ECA0120
:10233000B901A50194010E94A53D462ECA01B9012B
:1023400028E130E040E050E00E94A53D69017A01BB
:10235000362ECA01B9016C5F7F4F8F4F9F4F27E028
:1023600030E040E050E00E94A53D22242394260E58
:10237000812C912C540140E094E6692E712C00E9E7
:1023800011E0242F30E02E54384FF901E370FF277D
:10239000309789F4C901B3010E94E131892B31F4EE
:1023A000C901B8010E94E131892B29F48EE691E040
:1023B000A0E0B0E004C08DE691E0A0E0B0E0880EBF
:1023C000991EAA1EBB1ED501C401AA27BB27C81689
:1023D000D906EA06FB0610F04F5FD3CF309799F489
:1023E000C90164E670E00E94E131892B39F4C9012A
:1023F00060E971E00E94E131892B29F48EE691E0D9
:10240000A0E0B0E004C08DE691E0A0E0B0E0881A62
:10241000990AAA0ABB0AC818D908EA08FB08C90120
:1024200064E670E00E94E1318C01C90160E971E06D
:102430000E94E131A5E1B1E030E0313041F4309764
:1024400051F40115110529F4009729F402C02C91CB
:1024500003C02DE101C02CE1822E912CA12CB12CC6
:10246000C814D904EA04FB0440F0C818D908EA08E3
:10247000FB083F5F11963C3001F73F5FC3942AE0B1
:10248000852D622F0E94C13150E1859FB00111243A
:10249000692B6983842D622F0E94C13150E1859F91
:1024A000B0011124692B6A83832D622F0E94C131F0
:1024B00050E1859FB0011124692B6B838C2D622F15
:1024C0000E94C131592F60E1869FC0011124852BE4
:1024D0008C83822D622F0E94C1319D83832F0E94A5
:1024E000C131392F50E1859FC0011124832B8E8388
:1024F000842F0E94C131292F60E1869FC0011124E1
:10250000822B8F8307E010E09E012F5F3F4F41E059
:1025100062E087E495E00E94CE1E8985882301F160
:102520000E94CF0A6B017C010E94CF0A2CE3C20EED
:10253000D11CE11CF11C2CE330E040E050E00E9493
:10254000A53DC61AD70AE80AF90AC092DC03D09260
:10255000DD03E092DE03F092DF0381E08093070168
:1025600038853323E1F0E0915C045EE0E59FF00103
:102570001124E65BFA4F24813581468157812A87F1
:102580003B874C875D870E94CF0A01E02A853B8507
:102590004C855D850E946B1081E080931E032D9613
:1025A0000FB6F894DEBF0FBECDBFDF91CF911F9164
:1025B0000F91FF90EF90DF90CF90BF90AF909F90E2
:1025C0008F907F906F905F904F903F902F900895E5
:1025D000CF93DF93EB01BC01990F880B990BAE01F0
:1025E0000E94A70DCE01DF91CF910C940E0ECF93D8
:1025F000C62F80932C03109219035C98E9988CE203
:1026000093E0909306018093050180912C03882329
:1026100049F087EC99E0909306018093050181E0F1
:1026200090E008C08EE899E0909306018093050140
:1026300082E090E00E94B50460E070E08AE494E0FB
:102640000E946B0D80912C0360E070E090E00E948E
:10265000E812CC2319F0CF910C94DA09CF910895A8
:10266000CF93DF93EB01BC0180E090E0AE010E94CC
:10267000DC0DCE01DF91CF910C940E0EEF92FF9204
:102680000F931F93CF93DF931F92CDB7DEB77C01DB
:10269000FC0100811181C80169830E947F3D69812D
:1026A000681719F0C8010E94873DC7010F90DF919C
:1026B000CF911F910F91FF90EF900895909102019B
:1026C00081E089278093020160E070E087E794E071
:1026D0000E946B0D80910201811103C080E794E09C
:1026E00002C084E794E060E070E00C943F0ECF936A
:1026F000DF9392E1980F903210F080E060C0D62F07
:10270000C82F63E070E089E694E00E946B0D6C2FA7
:102710000C2E000C770B880B990B43E050E00E94C5
:10272000A70D63E070E08DE594E00E946B0D809151
:10273000DA0263E070E0082E000C990B0E94E812A8
:10274000C093DB021092DA02D1110E94DA09609183
:10275000DB0282EE96E00E94761B8DE890E09F936C
:102760008F93CEE5D4E0DF93CF930E94DB3A809144
:10277000DB02282F082E000C330B3F938F938DE044
:1027800092E09F938F93DF93CF9388E192E09F93A2
:102790008F93DF93CF930E94CB3460E080912A0324
:1027A0000E94E21382EE96E00E946D068DB79EB7FE
:1027B0000E960FB6F8949EBF0FBE8DBF81E0DF91DD
:1027C000CF9108952F923F924F925F926F927F9296
:1027D0008F929F92AF92BF92CF92DF92EF92FF9231
:1027E0000F931F93CF93DF9300D000D000D0CDB7CD
:1027F000DEB7082F762E5EE5E52E54E0F52EF701C4
:1028000001900020E9F73197EE55F440FD9758F01C
:1028100061E070E08EE895E00E946B0D81E090E051
:102820000E94701A22C58CE38D83E8E0F4E0DF019A
:102830001D928A95E9F763E070E084E895E00E94D4
:102840006B0D83E090E00E94701AF7010190002068
:10285000E9F73197AF014E5554406EE574E088E0DA
:1028600094E00E949434A895BD81BE831091DD054B
:102870001F5F1093DD0520E0812C912C540193946F
:1028800066246394620E9091E005921708F4B3C039
:102890008091D6059091D705DC01ED91FC91048CD7
:1028A000F58DE02D612F09958091D6059091D70582
:1028B000DC01ED91FC91068CF78DE02D40E860E0A5
:1028C0000995402F6E8188E094E00E94B41B0E941D
:1028D000A91B0F3F09F4ABC0B1E0B61598F4809185
:1028E000D9059091DA05A091DB05B091DC05019640
:1028F000A11DB11D8093D9059093DA05A093DB0546
:10290000B093DC050E946D1D1B012C01E090DE05DB
:10291000F090DF050E946538A50194010E94C73D33
:102920009B01AC01D7010E94E63DA50194010E94E4
:10293000C73D2E0D3F1D72016101C20ED31EE11C69
:10294000F11C0E946D1DA7019601261B370B480B39
:10295000590BCA01B901262D1616170618061906B5
:102960000CF08ECFA091D605B091D705ED91FC91DA
:1029700011970088F189E02DCD010995882309F38D
:102980008091D6059091D705DC01ED91FC910480F2
:10299000F581E02D40E050E060E070E0099588238B
:1029A00081F29E012F5F3F4FAE014E5F5F4FBE0130
:1029B0006D5F7F4FCE0104960E940B1C882309F2A5
:1029C0006C81898160130AC02B819091D8052913ED
:1029D00005C087FF03C09A81911749F187FDB1CFE8
:1029E0008A81E62FF0E0EA52FA4F93858913A9CF46
:1029F0000E94D71BA6CF62E070E08CE695E00E94B3
:102A00006B0D82E090E00E94701A809107048F5F46
:102A10008093070483302CF08091DB028D300CF41E
:102A200086C0A89582EE96E00E946D061EC41092A4
:102A300007047720B1F30E946D1D6B017C0130E229
:102A4000C30E33E0D31EE11CF11C0E946D1DA701D3
:102A50009601261B370B480B590BCA01B9011216F8
:102A60001306140615060CF05BC0A091D605B091B4
:102A7000D705ED91FC9111970088F189E02DCD01EA
:102A80000995882311F38091D6059091D705DC0133
:102A9000ED91FC910280F381E02D09958823A9F244
:102AA0008091D6059091D705DC01ED91FC910480D1
:102AB000F581E02DAE014B5F5F4F68E074E0099552
:102AC000882319F29E012F5F3F4FAE014E5F5F4F8B
:102AD000BE016D5F7F4FCE0104960E940B1C182F24
:102AE000882309F4B2CF898187FDAFCF9B81809184
:102AF000D805981304C06C818A810E94D71B8A81F3
:102B00009C81E92FF0E0EA52FA4F2385821709F4FD
:102B10009CCF909306048387112309F496CF0BC0B2
:102B200063E070E088E795E00E943F0E7ACF8CE981
:102B30008093DA0276CF8091F00680932B0364E0D5
:102B400070E082E695E00E946B0D64E070E088E042
:102B500094E00E948C0D64E070E088E595E00E94AE
:102B60006B0D80912B0364E070E0082E000C990B34
:102B70000E94E81269EA71E08EE594E00E949D34BB
:102B800068E074E08EE594E00E949D3463E575E0B2
:102B90008EE594E00E94D00C813009F093C0109231
:102BA000020410920304109204041092050410927F
:102BB000FE031092FF0310920004109201048DEFA7
:102BC00093E09F938F938EEF93E09F938F9382E098
:102BD00094E09F938F9381E292E09F938F938EE591
:102BE00094E09F938F930E94EE34409102045091A1
:102BF00003046091040470910504DB01CA010A9783
:102C0000A109B1090FB6F894DEBF0FBECDBF8F3456
:102C10009240A105B10508F04EC08091FE0390914D
:102C2000FF03A0910004B09101048C019D010A50A2
:102C30001109210931090F3A1B4021053105D8F549
:102C40005093010140930001909337038093360322
:102C50000E94CF0A609338037093390380933A033C
:102C600090933B0363E070E088E495E00E946B0D75
:102C70006091020470910304809104049091050412
:102C800043E050E00E94DC0D63E070E081E495E0F9
:102C90000E946B0D6091FE037091FF038091000410
:102CA0009091010443E050E00E94DC0D63E070E08D
:102CB0008FE395E004C061E070E082E395E00E945C
:102CC0003F0EF0C16DE275E08EE594E00E94D00CFD
:102CD000182F813009F066C08DEF93E09F938F939A
:102CE00089EF93E09F938F9385E392E09F938F9377
:102CF0008EE594E09F938F930E94EE348091F903C8
:102D00009091FA03A091FB03B091FC03AC01BD01CB
:102D100041505109610971090FB6F894DEBF0FBE29
:102D2000CDBF4F3F5D45604D724BB8F580931F039B
:102D300090932003A0932103B09322030E94CF0A13
:102D400001E020E030E0A9010E946B1063E070E038
:102D500082E295E00E946B0DE0915C044EE0E49FFE
:102D6000F0011124E65BFA4F2481358146815781B9
:102D700060911F03709120038091210390912203A1
:102D80000E94040D43E050E00E94FC0D83E090E0BF
:102D90000E940E0E10931E0385C161E070E085E174
:102DA00095E08DCF60E175E08EE594E00E94D00C57
:102DB000813009F054C08DEF93E09F938F9385EF9E
:102DC00093E09F938F9385E392E09F938F938EE59B
:102DD00094E09F938F930E94EE340FB6F894DEBF79
:102DE0000FBECDBF8091F5039091F603A091F7033C
:102DF000B091F8038F3F9105A105B10509F050F599
:102E000063E070E085E095E00E946B0D60912F0318
:102E100070E080E090E043E050E00E94A70D63E0A6
:102E200070E08BEF94E00E946B0D6091F503709160
:102E3000F6038091F7039091F80343E050E00E947D
:102E4000DC0D83E090E00E940E0E8091F5038093EC
:102E50002F037BC061E070E08EEE94E030CF69EE2E
:102E600074E08EE594E00E94D00C813009F075C0CA
:102E70001092F1031092F2031092F3031092F403F4
:102E80001092ED031092EE031092EF031092F003F4
:102E90008DEF93E09F938F938DEE93E09F938F93AD
:102EA00081EF93E09F938F9381E292E09F938F93C2
:102EB0008EE594E09F938F930E94EE340FB6F894C2
:102EC000DEBF0FBECDBF8091F1039091F203A091C0
:102ED000F303B091F4038F3F9105A105B10509F00B
:102EE000B8F58091ED039091EE03A091EF03B091BE
:102EF000F003893BEBE09E07A105B10548F59093EF
:102F00002E0380932D0363E070E08EED94E00E9429
:102F10003F0E60E08091F1030E94F71260912C0354
:102F200070E080E090E043E050E00E94A70D63E095
:102F300070E08DEC94E00E946B0D63E070E0809196
:102F40002D0390912E030E9430130E94DA09AAC02B
:102F500061E070E080EC94E0B2CE6BEB74E08EE563
:102F600094E00E94D00C813009F064C01092E90313
:102F70001092EA031092EB031092EC031092E50317
:102F80001092E6031092E7031092E8038DEF93E0AE
:102F90009F938F9384EE93E09F938F9385EE93E0BE
:102FA0009F938F9389EE93E09F938F9385E492E0B4
:102FB0009F938F938EE594E09F938F930E94EE34BE
:102FC0000E94CF0A0091E9031091EA032091EB03DC
:102FD0003091EC03DC01CB01801B910BA20BB30BF6
:102FE0000FB6F894DEBF0FBECDBF0497A105B105A3
:102FF00008F002C18091E5039091E603A091E703F8
:10300000B091E803892B8A2B8B2B09F4F5C00E9421
:10301000CF0A2091E5033091E603621B730BCB01CD
:1030200077FF04C088279927861B970B04970CF01D
:1030300081C0E2C062E974E08EE594E00E94D00CA9
:103040008130A9F48DEF93E09F938F938EE592E00A
:103050009F938F938EE594E09F938F930E94EE341D
:103060000F900F900F900F900F900F901BC06DE876
:1030700070E08EE594E00E94D00C813049F464E069
:1030800070E086E894E00E946B0D84E090E008C058
:1030900062E070E08CE794E00E946B0D82E090E0CB
:1030A0000E94701A69EA71E08EE594E00E949D34F6
:1030B0008091FD0387FF13C02091DA02222359F08B
:1030C000082E000C990B820F911D27FD9A9597FDF4
:1030D0000196959587958093DA021092FD03809171
:1030E000DC0287FF9ECC8091DA0287FF9ACC809128
:1030F000E0039091E103A091E203B091E303892BF7
:103100008A2B8B2B09F47DC00E94CF0A0091E0032B
:103110001091E1032091E2033091E303DC01CB0144
:10312000801B910BA20BB30BCC97A105B10508F046
:1031300068C077CC0E94CF0A0091E9031091EA039E
:103140002091EB033091EC03DC01CB01801B910B50
:10315000A20BB30BB695A795979587950091E503BC
:103160001091E6032091E7033091E803800F911F4F
:10317000A21FB31F8093E5039093E603A093E70398
:10318000B093E80364E070E080EB94E00E946B0D84
:103190000E94CF0A44E050E00E94DC0D64E070E041
:1031A0008BEA94E00E946B0D6091E5037091E60359
:1031B0008091E7039091E80344E050E00E94DC0D29
:1031C00084E090E00E940E0E8091E403813011F0C3
:1031D0001092E40321E08091E403813009F020E0C3
:1031E0006091E5037091E6038091E7039091E80315
:1031F00041E00E94491156CF63E070E087E994E016
:103200005ECD2091DA023091DC02822F022E000C7A
:10321000990B831B910937FD939597FF03C09195F7
:10322000819591090B9794F023173CF48091DB0270
:103230008F5F8E3E14F08E30A4F032173CF48091F4
:10324000DB0281508E3E14F08E305CF00E94CF0A7B
:103250006093E0037093E1038093E2039093E303B0
:10326000E0CB60E00E947713F1CF26960FB6F8947A
:10327000DEBF0FBECDBFDF91CF911F910F91FF90A9
:10328000EF90DF90CF90BF90AF909F908F907F9006
:103290006F905F904F903F902F9008951F93CF9322
:1032A000DF93CDB7DEB728970FB6F894DEBF0FBE19
:1032B000CDBF0E94CF0A6093D6027093D70280934D
:1032C000D8029093D9028091D6059091D705DC0160
:1032D000ED91FC910190F081E02D0995882309F48E
:1032E00086C08091D8050E948A1B8091E1060E94C9
:1032F0008A1B80E293E09093DF058093DE0548E02F
:1033000050E067E273E0CE0101960E949F3ABE0151
:103310006F5F7F4F82EE96E00E94A80844EE67E060
:1033200082EE96E00E94310640EC68E082EE96E084
:103330000E94310640E069E082EE96E00E9431068C
:103340006091DB0282EE96E00E94761B8091E002A3
:1033500089838091DF028A838091DE028B83809152
:10336000DD028C836EE282EE96E00E948206182FC8
:1033700024E0AE014F5F5F4F6FE282EE96E00E9465
:10338000E305412F477C48696EE282EE96E00E9499
:10339000310620E141EE52E06EE382EE96E00E94BB
:1033A000E3056DE382EE96E00E948206482F4160BD
:1033B0006DE382EE96E00E94310682EE96E00E9476
:1033C0006D066091D6027091D7028091D8029091DB
:1033D000D90220E040E00E94491128960FB6F894E7
:1033E000DEBF0FBECDBFDF91CF911F91089561E089
:1033F00070E081E594E00E943F0E77CF83E090E09B
:1034000090930A018093090160E080E00E94F71226
:1034100084E690E090932E0380932D038CE38093B9
:103420002F0388EE93E09093310380933003109242
:10343000DB0285EB8093DC0282E08093E10681E091
:1034400080932A031092E0021092DF028093DE0242
:103450008093DD0280E1E1E2F1E0A1EEB2E00190D3
:103460000D928A95E1F7109223030E94DA090C94D9
:103470004E193FB7F8948091480490914904A09167
:103480004A04B0914B0426B5A89B05C02F3F19F004
:103490000196A11DB11D3FBFBA2FA92F982F8827D4
:1034A000820F911DA11DB11DBC01CD0142E0660F2F
:1034B000771F881F991F4A95D1F70895009769F0E3
:1034C000FC0101900020E9F73197AF01481B590B2F
:1034D000BC018AEA94E00C942D0380E090E008950A
:1034E000CF93DF932091090130910A012817390702
:1034F00094F0EC0180910801882321F061E0CE0175
:103500000E94460D8EE594E00E945E1ACE01DF9186
:10351000CF910C940E0EDF91CF910895CF92DF9250
:10352000EF92FF926B017C0120E030E048EC52E426
:103530000E94A3330E94DA32CB0164E670E00E945D
:10354000E1319F938F93C701B6010E94DA327F93D6
:103550006F938AE692E09F938F9387E497E09F931F
:103560008F930E94CB348DB79EB708960FB6F89410
:103570009EBF0FBE8DBF60E070E087E497E0FF90D4
:10358000EF90DF90CF900C948C0D0F931F93CF93FF
:10359000DF938C01C0E0D0E0F801EC0FFD1F6491D7
:1035A000662371F0E091AA04F091AB040190F081E0
:1035B000E02D8AEA94E00995892B11F02196ECCF51
:1035C000CE01DF91CF911F910F910895CF93C82F16
:1035D0000E947B0F20915D04211102C080E084C015
:1035E000CC23F9F090915C0440E050E08EE0BA0109
:1035F000625071096230710568F0992311F09150A1
:1036000001C099E0899FF0011124E65BFA4F4485DF
:103610005585EDCF90934407509346074093450757
:1036200010C0E0915B04E09344078EE0E89FF00156
:103630001124E65BFA4F8485958590934607809325
:103640004507E09144074E2F50E08EE0E89FF001DF
:103650001124E65BFA4F80819181A281B38180932E
:103660004D0490934E04A0934F04B0935004848172
:103670009581A681B7818093510490935204A093C1
:103680005304B09354048485958590935A04809391
:10369000590480859185A285B385809355049093C4
:1036A0005604A0935704B093580480914507909115
:1036B0004607029709F092CF83E090E095878487D0
:1036C000CA0101966AE070E00E94E13180935B04D8
:1036D000CC2319F010925D0406C0222321F08FEF55
:1036E000820F80935D0481E0CF910895FC016E3ECE
:1036F00014F0678F02C08EEE878F878D8E3014F0A6
:103700008DE0878F478D4E5E4F71406861E1CF013C
:103710000C9431061F93CF93DF93182FC6EDD5E09D
:1037200088819981DC01ED91FC910688F789E02D73
:10373000612F099588819981DC01ED91FC91028CC2
:10374000F38DE02D612F09951A83DF91CF911F91A1
:1037500008958091D6059091D705DC01ED91FC91FB
:103760000484F585E02D0994FF920F931F93CF9366
:10377000DF938C01F62EC6EDD5E088819981DC01BE
:10378000ED91FC91008CF18DE02D642F09958881DD
:103790009981DC01ED91FC910680F781E02D4F2DA0
:1037A000B801DF91CF911F910F91FF900994FF9283
:1037B0000F931F93CF93DF931F92CDB7DEB7F62EF3
:1037C00006ED15E0F801A081B181ED91FC91119712
:1037D000048CF58DE02D682FCD010995D8018D91D0
:1037E0009C91DC01ED91FC91068CF78DE02D40E081
:1037F00060E8099581E289834F2D61E0CE01019651
:103800000E94B41B0E94A91B0F90DF91CF911F91C2
:103810000F91FF900895CF92DF92EF92FF920F9356
:103820001F93CF93DF936C017B018A01E901892B00
:1038300069F08091D6059091D705DC01ED91FC915E
:1038400004A0F5A1E02D0995F6018083E114F104AF
:1038500069F08091D6059091D705DC01ED91FC913E
:1038600002A0F3A1E02D0995F70180830115110550
:1038700069F08091D6059091D705DC01ED91FC911E
:1038800006A0F7A1E02D0995F8018083209761F04B
:103890008091D6059091D705DC01ED91FC9100A4B3
:1038A000F1A5E02D0995888381E0DF91CF911F91EB
:1038B0000F91FF90EF90DF90CF90089590E0FC0182
:1038C000E955FA4F3491FC01EB53FA4F2491FC0176
:1038D000E752FA4FE491EE2309F43BC0332339F168
:1038E000333091F038F43130A9F0323001F584B53D
:1038F0008F7D12C0373091F03830A1F03430B9F4F8
:10390000809180008F7D03C0809180008F778093AD
:1039100080000DC084B58F7784BD09C08091B00050
:103920008F7703C08091B0008F7D8093B000F0E06E
:10393000EE0FFF1FE356FA4FA591B4918FB7F8949D
:10394000EC91611103C020952E2301C02E2B2C93E6
:103950008FBF0895CF93DF9390E0FC01EB53FA4FB4
:103960002491FC01E752FA4F8491882361F190E0A1
:10397000880F991FFC01E554FA4FC591D491FC01C1
:10398000E356FA4FA591B491611109C09FB7F8941D
:103990008881209582238883EC912E230BC062308E
:1039A00061F49FB7F8943881822F809583238883B0
:1039B000EC912E2B2C939FBF06C08FB7F894E88113
:1039C0002E2B28838FBFDF91CF910895CF93CFB750
:1039D000F89480914C04811127C0E3EEF5E08491C6
:1039E000EFECF5E09491E82FF0E0EE0FFF1FE554C7
:1039F000FA4FA591B491EC91E92321F461E08AE0BA
:103A00000E945E1C61E08AE00E94AA1C8CB5806165
:103A10008CBD8CB580648CBD61E08DE00E94AA1CD9
:103A200061E08BE00E94AA1C80914C048F5F809320
:103A30004C04CFBFCF9108958E3008F08E50877020
:103A4000806480937C0080917A00806480937A0007
:103A500080917A0086FDFCCF8091780020917900DA
:103A600090E0922B08958F929F92AF92BF92CF9247
:103A7000DF92EF92FF926B017C010E94391A4B0199
:103A80005C01C114D104E104F104F1F00E94391A7F
:103A9000DC01CB0188199909AA09BB09883E93402A
:103AA000A105B10570F321E0C21AD108E108F108BF
:103AB00088EE880E83E0981EA11CB11CC114D104AD
:103AC000E104F10419F7DDCFFF90EF90DF90CF9084
:103AD000BF90AF909F908F9008952FB7F89460910A
:103AE00044047091450480914604909147042FBF8F
:103AF00008958CB58F778CBD08958CB580688CBD8A
:103B000008959CB5282F23709C7F922B9CBD2DB5CA
:103B100082FB992790F9822F8E7F892B8DBD089586
:103B200080E00895FC0181850895FC018085089559
:103B3000FC0187810895FC0186810895FC01409570
:103B400095854923642B65870895FC016487089552
:103B5000FC0163870895FC0162870895FC0164837A
:103B60000895FC016583089580E00895FC01228199
:103B7000338123303105D1F381E00895CF93DF9372
:103B8000EC01E881F9810280F381E02DCE010995F5
:103B90008823B9F3DF91CF91089581E008958EBD18
:103BA00000000DB407FEFDCF8EB50895862F0C944E
:103BB000CF1DCF93FC01268137812115310549F0B6
:103BC0002130310541F02230310539F02330310503
:103BD00031F020E005C024E003C028E001C02CE063
:103BE0009CB5937F922B9CBD848195810197C1F4F4
:103BF0008CB580628CBD8281938101978430910560
:103C000028F4FC01E957FE4FC08101C0C1E08C2FB0
:103C10000E94811D0E94E61C8C2FCF910C94811D67
:103C20009CB59F7D9CBDE7CF8F929F92AF92BF9234
:103C3000CF92DF92EF92FF92CF93DF93EC016B0173
:103C40000E946D1D4B015C01E12CF12C0E946D1D49
:103C5000DC01CB0188199909AA09BB098C159D05BE
:103C6000AE05BF0530F48A819B81039779F381E02B
:103C700001C080E0DF91CF91FF90EF90DF90CF9077
:103C8000BF90AF909F908F9008958F929F92AF9228
:103C9000BF92CF92DF92EF92FF92CF93DF93EC012E
:103CA0006B010E946D1D4B015C01E12CF12C0E9407
:103CB0006D1DDC01CB0188199909AA09BB098C1576
:103CC0009D05AE05BF0550F4E881F9810280F381BE
:103CD000E02DCE010995882351F301C080E0DF91EA
:103CE000CF91FF90EF90DF90CF90BF90AF909F90DB
:103CF0008F9008958F929F92AF92BF92CF92DF9252
:103D0000EF92FF92CF93DF93FC0126893789232B13
:103D100011F481E038C0EC010E946D1D6B017C0143
:103D200089E0882E912CA12CB12CE881F98104889E
:103D3000F589E02DCE010995882359F30E946D1D68
:103D4000AB01BC014C195D096E097F098E899F8901
:103D5000A0E0B0E084179507A607B70798F00E9487
:103D60006538A50194010E94C73D9B01AC012F5FFE
:103D70003F4F4F4F5F4FA4E6B0E00E94E63D0E94E8
:103D8000331DD3CF80E0DF91CF91FF90EF90DF9094
:103D9000CF90BF90AF909F908F900895BF92CF9299
:103DA000DF92EF92FF920F931F93CF93DF937C01EB
:103DB000C62FD42EB22EC32EFC0121818281909178
:103DC000A203992379F09FB7F8943091A203313080
:103DD00039F43DB330935F073DB33DBB9FBF02C095
:103DE00090935F072CBD8DBD61E0F70180810E943B
:103DF0005E1CDD2011F080E101C080E98C2B0E9467
:103E0000CF1DCB2DDC2D0C0F1D1FC017D10761F06E
:103E1000D11005C080E00E94CF1D888303C0888137
:103E20000E94CF1D2196F1CF60E0F70180810E94B2
:103E30005E1C8091A203882361F09FB7F8942091C3
:103E4000A20380915F07213019F48DBB9FBF01C091
:103E50008FBFDF91CF911F910F91FF90EF90DF9077
:103E6000CF90BF900895CF93DF93EB010E947F3DE9
:103E70008883CE01DF91CF9108950F931F93CF9345
:103E8000DF938C01EB010E947F3D8883C80101967E
:103E90000E947F3D8983CE01DF91CF911F910F91C9
:103EA0000895CF93DF93EB010E947F3D8883CE017D
:103EB000DF91CF9108950F931F93CF93DF9300D09D
:103EC000CDB7DEB78B01FB0160819A838983CE0178
:103ED00001960E943E13C8010F900F90DF91CF9181
:103EE0001F910F910895EF92FF920F931F93CF931D
:103EF000DF9300D0CDB7DEB78C017B01FB01608181
:103F00009A838983CE0101960E943E13F701618155
:103F10000F5F1F4F1A830983CE0101960E943E1343
:103F2000C7010F900F90DF91CF911F910F91FF90DC
:103F3000EF9008950F931F93CF93DF9300D0CDB7E9
:103F4000DEB78B01FB0160819A838983CE010196E4
:103F50000E943E13C8010F900F90DF91CF911F91E7
:103F60000F910895CF93DF93D82FC1E0DC1780F035
:103F70005C9A64EF71E080E090E00E94331D5C98F1
:103F80006AEF70E080E090E00E94331DCF5FEECFDB
:103F9000DF91CF9108950F931F93CF93DF9380917B
:103FA0005B0790915C07A0915D07B0915E07892B3C
:103FB0008A2B8B2BA9F00E94CF0A00915B071091EE
:103FC0005C0720915D0730915E07DC01CB01801B0F
:103FD000910BA20BB30B84389340A105B10588F176
:103FE0008DEE95E09F938F93CEE5D4E0DF93CF9352
:103FF0000E94DB3A0E94CF0A9F938F937F936F9327
:10400000DF93CF9382E792E09F938F93DF93CF93D9
:104010000E94CB3461E080912A030E94E2130E9447
:10402000CF0A60935B0770935C0780935D07909362
:104030005E078DB79EB70E960FB6F8949EBF0FBE63
:104040008DBFDF91CF911F910F9108951F920F9215
:104050000FB60F9211242F933F938F939F93AF939B
:10406000BF938091440490914504A0914604B0917F
:1040700047043091600723E0230F2D3720F4019689
:10408000A11DB11D05C026E8230F0296A11DB11D7B
:10409000209360078093440490934504A0934604C2
:1040A000B09347048091480490914904A0914A0438
:1040B000B0914B040196A11DB11D809348049093CB
:1040C0004904A0934A04B0934B04BF91AF919F91D0
:1040D0008F913F912F910F900FBE0F901F901895C9
:1040E000CF93DF93CDB7DEB7E9970FB6F894DEBF75
:1040F0000FBECDBF789484B5826084BD84B58160E5
:1041000084BD85B5826085BD85B5816085BD8091A2
:104110006E00816080936E0010928100809181001A
:104120008260809381008091810081608093810012
:10413000809180008160809380008091B1008460D4
:104140008093B1008091B00081608093B000809135
:104150007A00846080937A0080917A0082608093F4
:104160007A0080917A00816080937A0080917A0051
:10417000806880937A001092C10060E086E00E941F
:10418000AA1C61E084E00E94AA1C60E084E00E9416
:104190005E1C60E08EE00E94AA1C60E083E00E944A
:1041A000AA1C80912303882311F060E001C062E023
:1041B0008FE00E94AA1C62E085E00E94AA1C62E0D7
:1041C00088E00E94AA1C62E089E00E94AA1C62E0CA
:1041D00080E10E94AA1C62E081E10E94AA1C62E0C8
:1041E00082E10E94AA1C62E083E10E94AA1CE09185
:1041F000BA04F091BB0482E08083E091B604F091B0
:10420000B7041082E091B804F091B90480E1808392
:104210001092C204E091BE04F091BF0486E0808356
:10422000E091BC04F091BD04808180618083E091C5
:10423000BC04F091BD04808188608083E091BC045F
:10424000F091BD04808180688083E091BC04F0918E
:10425000BD0480818F7D808380E090E00E940E0EFF
:1042600080E090E00E940E0E60E070E08BE990E04C
:104270000E943F0E1091670760E070E08CE790E0CD
:104280000E946B0DC12ED12CE12CF12C19A2CE0174
:104290008196B701A6014F7055276627772724E03E
:1042A000F694E794D794C7942A95D1F701974A30AA
:1042B00051056105710510F4405D01C0495CDC01E8
:1042C0004C93C114D104E104F10419F70E945E1A61
:1042D00013FF07C060E070E088E790E00E946B0D7C
:1042E000177F12FF07C060E070E084E790E00E9453
:1042F0006B0D1B7F11FF07C060E070E080E790E06E
:104300000E946B0D1D7F10FF07C060E070E08CE61F
:1043100090E00E946B0D1E7F112331F060E070E091
:1043200088E690E00E946B0D80E090E00E940E0E07
:104330001DA21CA21BA21AA2FE013196FFABEEAB7E
:1043400080E111928A95E9F7A895BE016B5D7F4FD8
:1043500080E090E00E94511F8DA1853038F490E0FC
:1043600090930A018093090111E001C010E0BE01A1
:104370006B5D7F4F81E090E00E94511F8DA18F3FC8
:1043800021F060E00E94F71201C010E01E01F2E28D
:104390002F0E311CB10182E090E00E943D1F8AA1E6
:1043A0009BA1893B2BE0920728F490932E038093E6
:1043B0002D0301C010E0BE016B5D7F4F84E090E0F3
:1043C0000E94511F8DA18F3F19F080932F0301C0D0
:1043D00010E0B10185E090E00E943D1F8AA19BA101
:1043E0009C0121503109283E3D4F28F49093310320
:1043F0008093300301C010E0CE01849699AF88AF5E
:10440000BC0187E090E00E94331F8CA192E1980FDD
:10441000903208F4DEC310E0BE016C5D7F4F88E08F
:1044200090E00E94331F8CA194E6980F953618F403
:104430008093DC0201C010E0A895BE016B5D7F4F48
:1044400089E090E00E94511F8DA19FEF980F9E3F41
:1044500018F48093E10601C010E0BE016B5D7F4F50
:104460008AE090E00E94511F8DA19FEF980F9E3F20
:1044700018F480932A0301C010E0BE016B5D7F4FEA
:104480008BE090E00E94511F8DA18F3F19F0809327
:10449000E00201C010E0BE016B5D7F4F8CE090E058
:1044A0000E94511F8DA18F3F19F08093DF0201C040
:1044B00010E0BE016B5D7F4F8DE090E00E94511FC8
:1044C0008DA19FEF980F9E3F18F48093DE0201C0EC
:1044D00010E0BE016B5D7F4F8EE090E00E94511FA7
:1044E0008DA19FEF980F9E3F18F48093DD0201C0CD
:1044F00010E080E1AEA9BFA91D928A95E9F7FE01FF
:1045000031967F019FE0692E712C0EA9005FB701E3
:10451000C3010E94511FF7018081FFEFEF1AFF0ACC
:1045200080528F3508F010E02FEF621A720A0E11D8
:10453000EECF112381F080E1E1EEF2E0DF01882E81
:104540001D928A94E9F7FE013196A1EEB2E0019046
:104550000D928A95E1F7BE016B5D7F4F8FE190E090
:104560000E94511F8DA1823058F061E070E085E813
:1045700090E00E943F0E0E94FE190E94DA0904C0DA
:1045800080932303112389F30E944E1964E070E0A5
:1045900082E990E00E943F0E88E5898301E010E007
:1045A0009E012F5F3F4F41E060E087E495E00E946D
:1045B000CE1E0E94CB1F0E94CF0A6093D60270933A
:1045C000D7028093D8029093D9028B019C010058A6
:1045D00016442846384501381F4222413E4338F0F0
:1045E00020E041E060E876E488E698E512C0E091DA
:1045F0005C045EE0E59FF0011124E65BFA4F008168
:10460000118122813381012B022B032B21F421E024
:1046100041E00E94491183E00E94B21F8091D602BE
:104620009091D702A091D802B091D90280933C0317
:1046300090933D03A0933E03B0933F038DE890E039
:104640009F938F930EE514E01F930F930E94DB3A24
:10465000809167071F928F931F9288E08F931F931B
:104660000F938BE891E09F938F931F930F930E947A
:10467000CB3460E080912A030E94E2130FB6F894D5
:10468000DEBF0FBECDBF809123038130F1F48FE0F8
:1046900090E0909391028093900283E393E3AEEDD8
:1046A000B2E48093960290939702A0939802B093FD
:1046B000990280E090E0A0E0B4E48093B20290938D
:1046C000B302A093B402B093B50299E288E10FB6A9
:1046D000F894A895809360000FBE90936000DE016F
:1046E00011966D01FE01B296FCA7EBA78EE5E82EB0
:1046F00084E0F82E81E08093A1039E012B5D3F4F63
:1047000038A72FA3AE014A5D5F4F5AA749A78091F2
:10471000A103873008F05AC28AEA94E00E946B0332
:10472000A895181619067CF5E091A003E11108C0C0
:104730009C012F7D2A35310519F40E945E1323C098
:104740009C01205231092036310548F08D30910509
:1047500011F40C94BB308830910521F014C0E7327D
:1047600090F402C0E73220F48830910509F016C5B4
:10477000E150E093A003F0E0E15BFC4F108286EA99
:1047800091E00E945E1A19B116FB882780F911E0AA
:1047900018271093800380910201882339F0112398
:1047A00009F44BC00E945E1383E016C280917B0324
:1047B0001123C9F040917C0350917D0360917E03E9
:1047C00070917F03452B462B472B69F481110BC059
:1047D0000E946D1D60937C0370937D0380937E0324
:1047E00090937F032AC0811120C011111EC04090F8
:1047F0007C0350907D0360907E0370907F03411492
:1048000051046104710489F00E946D1DDC01CB012B
:1048100084199509A609B709893E9340A105B105F8
:1048200020F40E945E1385E0D7C180917B03811143
:1048300004C0112311F40C944C3080917B03882325
:1048400009F450C00E946D1D009177031091780308
:104850002091790330917A03DC01CB01801B910B0D
:10486000A20BB30B883E9340A105B105D8F10E947D
:104870006D1D609377037093780380937903909311
:104880007A030E946D1D00917C0310917D0320919D
:104890007E0330917F03DC01CB01801B910BA20BC7
:1048A000B30B81369A4EA105B105E0F060E070E0EF
:1048B0008DEC92E00E943F0E10927C0310927D03DB
:1048C00010927E0310927F03109277031092780368
:1048D0001092790310927A0310927B0360E080E0DB
:1048E0000E94F712809186038823D1F0809185037E
:1048F000882309F480C10E946D1D009181031091ED
:1049000082032091830330918403DC01CB01801B5F
:10491000910BA20BB30B0A97A105B10508F067C173
:10492000A8958091A00381112EC080912D039091B4
:104930002E03892B41F180911A0390911B03A091C2
:104940001C03B0911D03892B8A2B8B2BE1F00E9455
:104950006D1D00911A0310911B0320911C033091CF
:104960001D03AB01BC01401B510B620B730B80910B
:104970002D0390912E03A0E0B0E0481759076A0775
:104980007B0708F05EC18091A003811119C180915D
:10499000A10380FFA5C08091280390912903892B52
:1049A00089F000912803109129030E94CF0A9801F1
:1049B00040E050E000E00E946B101092290310923A
:1049C000280302C00E947B0F80911E03811112C038
:1049D00080915D04882309F464C080912403909140
:1049E0002503A0912603B0912703892B8A2B8B2BBB
:1049F00009F057C081E00E94E61A882309F449C0F3
:104A00008BEE92E09F938F93FF92EF920E94DB3A9E
:104A10002091510430915204409153045091540418
:104A200060911F03709120038091210390912203D4
:104A30000E94040D9F938F937F936F9380915004F6
:104A40008F9380914F048F9380914E048F93809128
:104A50004D048F93FF92EF928EEB91E09F938F9393
:104A6000FF92EF920E94CB3460E080912A030E9473
:104A7000E2130E94CF0A609324037093250380936E
:104A80002603909327030FB6F894DEBF0FBECDBF69
:104A900006C061E070E08CED92E00E943F0E109243
:104AA0001E0380915D04843008F0D7C0882309F488
:104AB00087C00E94CF0A0091240310912503209102
:104AC000260330912703DC01CB01801B910BA20B45
:104AD000B30B8C329140A105B10508F0BEC070C087
:104AE000823009F04DC0809100019091010188351C
:104AF0009240E1F00E94CF0A0091380310913903EF
:104B000020913A0330913B03AB01BC01401B510B98
:104B1000620B730B8091360390913703A0E0B0E0F5
:104B2000481759076A077B0708F0E8C180913203EC
:104B300090913303A0913403B0913503892B8A2BD4
:104B40008B2B09F4E2C10E94CF0A0091320310912D
:104B500033032091340330913503AB01BC01401B7A
:104B6000510B620B730B8091000190910101A0E049
:104B7000B0E0481759076A077B0708F0C6C120C094
:104B8000843019F40E94CB1F1BC08630C9F4809179
:104B900002018823A9F00E94CF0A00913C031091E2
:104BA0003D0320913E0330913F03DC01CB01801B8C
:104BB000910BA20BB30B0F97A105B10508F090C2A2
:104BC0008091A1038F5F8093A103A1CD0E942D044A
:104BD00091CD8093DB0220CC0E94B21F10927C0307
:104BE00010927D0310927E0310927F0326CE1092C6
:104BF00085035C981BC00E946D1D0091810310917C
:104C000082032091830330918403DC01CB01801B5C
:104C1000910BA20BB30B883E9340A105B10508F49C
:104C20007FCE81E0809385030E948E090E946D1DD6
:104C30006093810370938203809383039093840332
:104C40006FCE5C9810921A0310921B0310921C03F3
:104C500010921D031092190396CE80912303813088
:104C600019F485EF92E002C080EF92E09F938F935A
:104C7000FF92EF920E94DB3A0F900F900F900F90EF
:104C800080912303813011F084E001C082E08093A1
:104C90008D03E0915B04FEE0EF9FD0011124A65B41
:104CA000BA4F4D905D906D907C90A3019201215080
:104CB0003109410951092DA73EA74FA758ABEE2353
:104CC00011F0E15001C0E9E03EE0E39FF001112462
:104CD000E65BFA4F248135814681578160911F033D
:104CE0007091200380912103909122030E94040D72
:104CF0002B013C017F926F925F926F9348A94F9373
:104D00005FA55F938EA58F939DA59F93FF92EF92D2
:104D10008EEB91E09F938F93FF92EF920E94CB34A2
:104D200081E080938C0380938B030FB6F894DEBFF1
:104D30000FBECDBF1EE080918B03882309F4CEC047
:104D400090918C0380918D03891708F4C7C080E08F
:104D50000E94E61A80938B03882309F4B9C020913E
:104D60005104309152044091530450915404609185
:104D70001F037091200380912103909122030E94D0
:104D8000040D609387037093880380938903909345
:104D90008A0380904D0490904E04A0904F04B090F0
:104DA00050048AAA9BAAACAABDAA2DA53EA54FA5D0
:104DB00058A982169306A406B50608F464C06415C3
:104DC00075058605970508F45EC0DC01CB018419E2
:104DD0009509A609B709BF93AF939F938F93E0916D
:104DE0005B041E9FF0011124E65BFA4F80819181E4
:104DF000A281B38188199909AA09BB09BF93AF930E
:104E00009F938F93FF92EF92A9ECB1E0BF93AF9382
:104E1000FF92EF920E94CB340FB6F894DEBF0FBE24
:104E2000CDBF80912303813071F54090550450909F
:104E30005604609057047090580420E030E048EC2D
:104E400052E4C301B2010E94A3330E94DA32CB01C3
:104E500064E670E00E94E1319F938F93C301B20139
:104E60000E94DA327F936F93FF92EF92A4EDB1E04C
:104E7000BF93AF93FF92EF920E94CB340FB6F8949A
:104E8000DEBF0FBECDBFE0915B041E9FF001112479
:104E9000E65BFA4F408051806280738080914D04C0
:104EA00090914E04A0914F04B091500453014201DF
:104EB000881A990AAA0ABB0A8DA69EA6AFA6B8AA06
:104EC00040908703509088036090890370908A0314
:104ED00080918C038F5F80938C032DCF60E0809155
:104EE0002A030E94E2130E94CF0A60932403709366
:104EF0002503809326039093270362CE88E592E0F2
:104F0000909301018093000111CE109290031091B3
:104F10009003133068F48EE00E941C1D64E670E07C
:104F200080E090E00E94331D1F5F10939003EFCF4D
:104F300010928F0310928E031092900310919003A1
:104F40001A3088F48EE00E941C1D20918E0330914F
:104F50008F03820F931F90938F0380938E031F5FA5
:104F600010939003EBCF80918E0390918F036AE0B2
:104F700070E00E94CD3180E090E00E94103326E680
:104F800036E24BE953E40E9468322DEC3CEC4CE6EF
:104F900050E40E94A33320E030E04AE754E40E944A
:104FA000A3330E94E132709392036093910364E013
:104FB00070E08AEF92E00E946B0D64E070E08091F7
:104FC0009103909192030E9430130E94CF0A0091A6
:104FD0003C0310913D0320913E0330913F03DC01DF
:104FE000CB01801B910BA20BB30B80939303909387
:104FF0009403A0939503B09396038AE093E09F9364
:105000008F93FF92EF920E94DB3AF0913003A091D0
:105010003103E0912F0360912D0370912E033091A5
:105020002C0320912B03422F022E000C550B809154
:105030006107909162070F900F900F900F9000976B
:1050400011F488E697E0AF93FF931F92EF937F935D
:105050006F931F923F935F932F93A601481B590BA9
:10506000CA019F934F9380919A038F9380919903E4
:105070008F93809198038F93809197038F93809162
:1050800096038F93809195038F93809194038F93D0
:10509000809193038F93809192038F9380919103DA
:1050A0008F93FF92EF928FED91E09F938F93FF92FA
:1050B000EF920E94CB3461E080912A030E94E213B8
:1050C0000E94CF0A609332037093330380933403BA
:1050D000909335030FB6F894DEBF0FBECDBF70CDF1
:1050E0000E94CF0A60939C0370939D0380939E035C
:1050F00090939F0382EE96E00E946D0661E08AE045
:105100000E945E1C61E087E00E945E1C8AEA94E0D7
:105110000E940B040FB6F894A895809160008861F6
:1051200080936000109260000FBE20E030E040E00D
:1051300050E06AE070E08BE993E00E94970599E205
:1051400088E10FB6F894A895809360000FBE909305
:1051500060000E94CF0A009197031091980320915C
:10516000990330919A0340909C0350909D03609066
:105170009E0370909F030419150926093709DC0165
:10518000CB01800F911FA21FB31F809397039093B1
:105190009803A0939903B0939A0312CD8D30910593
:1051A00009F066C780E090E00E940E0E8091A00397
:1051B0001092A003882309F4E6CA84E1AEA9BFA92E
:1051C0001D928A95E9F71092870310928803109236
:1051D000890310928A0368EC72E08FE493E00E94E6
:1051E000D00C813029F40E941D0E01E010E002C0B5
:1051F00000E010E063EC72E08FE493E00E94D00CDA
:10520000813009F03AC1E0915C048EE08E9FF0019C
:105210001124E65BFA4FADE4B4E001900D928A955B
:10522000E1F70E94860D60E070E089EB92E00E9459
:105230006B0D60911F037091200380912103909169
:10524000220320E030E0A9010E94040D40E050E07C
:105250000E94FC0D60E070E082EB92E00E946B0D1A
:1052600020915104309152044091530450915404C0
:1052700060911F037091200380912103909122037C
:105280000E94040D40E050E00E94FC0D80E090E0A0
:105290000E940E0E0E94D30B609340037093410353
:1052A00080934203909343030E94860D60E070E078
:1052B0008DEA90E00E946B0D609140037091410374
:1052C00080914203909143030E948E1A60E070E047
:1052D00084EA90E00E946B0D20E030E046E653E463
:1052E0006091400370914103809142039091430388
:1052F0000E94A3330E948E1A60E070E082EA90E080
:105300000E943F0E0E94860D60E070E08DEA92E000
:105310000E946B0D809128039091290360E070E05A
:105320000E9430130E94860D60E070E081EA92E0F6
:105330000E946B0D80915D0460E070E090E00E943F
:10534000E8120E94860D60E070E087E992E00E941A
:105350006B0D609124037091250380912603909139
:10536000270340E050E00E94DC0D80E090E00E94C6
:105370000E0E0E94860D60E070E08EE892E00E94C2
:105380006B0D80915C0460E070E090E00E94E81298
:105390000E94860D60E070E086E892E00E946B0D4E
:1053A00080915B0460E070E090E00E94E8120E944F
:1053B000860D60E070E083EB90E00E943F0E10E00D
:1053C000812F0E945E0E1F5F1A30D1F70E94860D5A
:1053D00060E070E08BE792E00E946B0D60E070E0AF
:1053E00080919103909192030E9430130E94860D48
:1053F00060E070E081E792E00E946B0D80916107B0
:1054000090916207009711F488E697E060E070E001
:10541000F101E81BF90BCF010E9430130E94860DA9
:1054200060E070E088E692E00E946B0D80910201DE
:10543000811103C08DE592E002C08FE592E060E04B
:1054400070E00E943F0E0E94860D60E070E081E6F1
:1054500092E00E946B0D6091970370919803809188
:10546000990390919A0340E050E00E94DC0D80E0A7
:1054700090E00E940E0E02E010E068E572E08FE41A
:1054800093E00E94D00C813051F49091230391302D
:1054900009F480E08093230301E010E003C00230B0
:1054A000110541F068E572E08FE493E00E94D00CB2
:1054B000813069F40E94860D80912303813009F4C4
:1054C00079C58EE492E060E070E00E943F0E69E4EE
:1054D00072E08FE493E00E94D00C813021F40E94AE
:1054E000FE1901E010E064E472E08FE493E00E94B2
:1054F000D00C823081F5EFE4F3E001900020E9F771
:10550000AF014555534064E573E0C6010E94BC34C9
:1055100040E050E060E070E0C6010E948439609392
:105520008703709388038093890390938A0361159E
:1055300071058105910539F020E041E00E94491193
:1055400001E010E00BC00E94860D60E070E08BE38C
:1055500092E00E946B0D0230110549F064E472E0A4
:105560008FE493E00E94D00C882309F46CC00E9461
:10557000860D84E493E00E944E0A60E070E084ECC3
:1055800090E00E946B0D4090440370904503509052
:105590004603609048032091490380914A0340915B
:1055A000090150910A0157FD39C090E08E54984F7F
:1055B00029AB0E94C70D60E070E080EC90E00E9493
:1055C0006B0D29A9822F90E00E94C70D60E070E06A
:1055D0008EEB90E00E946B0D862D90E00E94C70D2F
:1055E00060E070E08CEB90E00E946B0D852D90E008
:1055F0000E94C70D60E070E08AEB90E00E946B0DA6
:10560000872D90E00E94C70D60E070E088EB90E08D
:105610000E946B0D842D90E00E94C70D60E070E049
:1056200082EC90E00E946B0D0E94CF0A40E050E0B7
:105630000E94DC0D80E090E00E940E0E0230110509
:1056400011F001E010E066E372E08FE493E00E9465
:10565000D00C823009F04BC0EFE4F3E00190002061
:10566000E9F7AF014555534064E573E081EF92E0FF
:105670000E94BC3460E372E081EF92E00E94D00CA3
:10568000813019F481E090E020C06BE272E081EF9C
:1056900092E00E94D00C813019F482E090E015C0B5
:1056A00066E272E081EF92E00E94D00C813019F442
:1056B00083E090E00AC060E272E081EF92E00E9435
:1056C000D00C813059F484E090E090930A018093EB
:1056D00009010E94DA0901E010E00CC00E94860D69
:1056E00060E070E085E192E00E943F0E4CC802301D
:1056F000110541F066E372E08FE493E00E94D00C64
:105700008823C1F00E94860D60E070E08DE092E099
:105710000E946B0D60E08091090190910A010E9446
:10572000460D80E090E00E940E0E0230110511F04F
:1057300001E010E068E072E08FE493E00E94D00C9A
:10574000823079F5EFE4F3E001900020E9F7AF0152
:105750004555534064E573E081EF92E00E94BC340C
:10576000E1EFF2E001900020E9F7E250F34049F068
:105770000E94860D60E070E080E092E00E943F0EA3
:1057800010C080E1E1EFF2E0A1EEB2E001900D92F5
:105790008A95E1F70E94DA090E944E1901E010E0B3
:1057A00003C00230110541F068E072E08FE493E03D
:1057B0000E94D00C8823C9F00E94860D60E070E042
:1057C0008BEF91E00E946B0D40E150E061EE72E0E2
:1057D0008AEA94E00E942D0380E090E00E940E0E81
:1057E0000230110511F001E010E066EF71E08FE486
:1057F00093E00E94D00C823009F04EC0EFE4F3E059
:1058000001900020E9F7AF014555534064E573E08E
:1058100081EF92E00E94BC341EA21DA21CA21AA21B
:105820003CA53F934BA54F9359AD5F9388AD8F93A4
:1058300098A59F93AFA1AF93BAA5BF93E9A5EF93A6
:105840008AEA91E09F938F9381EF92E09F938F93E9
:105850000E94EE340FB6F894DEBF0FBECDBF0497A2
:1058600049F00E94860D60E070E08DEE91E00E94AC
:105870003F0E12C08EA18093E0028DA18093DF02C3
:105880008CA18093DE028AA18093DD020E94DA0956
:105890000E944E1901E010E00230110509F48DC399
:1058A00066EF71E08FE493E00E94D00C811185C314
:1058B00068EE71E08FE493E00E94D00C8230D9F55D
:1058C000EFE4F3E001900020E9F7AF0145555340C4
:1058D00064E573E0C6010E94BC3440E050E060E043
:1058E00070E0C6010E948439609387037093880337
:1058F0008093890390938A032B013C0131E0431A82
:105900005108610871084DEF441651046104710497
:1059100048F00E94860D60E070E08CED91E00E94FE
:105920003F0E09C060932A030E94DA090E944E19B3
:1059300001E010E003C00230110541F068EE71E0B3
:105940008FE493E00E94D00C8823A1F00E94860D82
:1059500060E070E083ED91E00E946B0D80912A037E
:1059600060E070E090E00E94E8120230110511F052
:1059700001E010E06EEC71E08FE493E00E94D00C47
:105980008230D9F5EFE4F3E001900020E9F7AF01B0
:105990004555534064E573E0C6010E94BC3440E0C5
:1059A00050E060E070E0C6010E9484396093870394
:1059B000709388038093890390938A032B013C01A1
:1059C00051E0451A510861087108ADEF4A165104BB
:1059D0006104710448F00E94860D60E070E082EC82
:1059E00091E00E943F0E09C06093E1060E94DA092F
:1059F0000E944E1901E010E003C00230110541F091
:105A00006EEC71E08FE493E00E94D00C8823A1F04B
:105A10000E94860D60E070E089EB91E00E946B0DC2
:105A20008091E10660E070E090E00E94E8120230B0
:105A3000110511F001E010E064EB71E08FE493E0F8
:105A40000E94D00C823069F5EFE4F3E00190002071
:105A5000E9F7AF014555534064E573E0C6010E9484
:105A6000BC3440E050E060E070E0C6010E94733852
:105A700070934E0360934D039B012C593F4F253685
:105A8000310548F00E94860D60E070E08BEA91E0FD
:105A90000E943F0E06C06093DC020E94DA0901E01A
:105AA00010E066EA71E08FE493E00E94D00C82304F
:105AB00031F5EFE4F3E001900020E9F7AF0145553F
:105AC000534064E573E0C6010E94BC3440E050E0FE
:105AD00060E070E0C6010E947338862F60934B032C
