:100000000C94E2020C94A30F0C947C0F0C940C0340
:100010000C940C030C940C030C9422100C940C0301
:100020000C940C030C940C030C940C030C940C0314
:100030000C940C030C940C030C940C030C940C0304
:100040000C94F31F0C940C030C94F00F0C94CA0F37
:100050000C940C030C940C030C940C030C940C03E4
:100060000C940C030C940C0320554E0020504F00B0
:100070002045580020424F0020574400525F464C14
:100080004720307800524F4D2042616400474D5365
:10009000470052544320496E6974003D424F4F540B
:1000A0003D004F4646004F4E00536C703D005700D8
:1000B000412C2050524D533D0049524D533D004D6F
:1000C00074723D003A003A0020002D002D002F00F0
:1000D00054696D653D002E002E002E004E65742083
:1000E00049643D0042616420436D64004C454420F6
:1000F00050756C7365286D73293D00426164204C16
:1001000045442074696D65004C454454004C454499
:100110003D313A00426164204C454420726174656F
:10012000004C454452004F4646004F4E00547374F5
:100130003D0054455354004D747220496E74766CE2
:100140003D004D54524900496D702F6B57683D007A
:1001500042616420496D702F6B5768004D545252B4
:1001600000536574204D74722056616C3D004D54EF
:1001700052560041766720525353494047773D001D
:100180004C617374204777205353493D0054677482
:1001900020525353493D00545820506F773D004240
:1001A0006164205458506F77005458505700426192
:1001B0006420525353490054525353004E6F4964C4
:1001C0003D00426164204E6F4964004E4F49440037
:1001D000477749643D00426164204777496400479E
:1001E000574944004261642041646472004E4554A2
:1001F00049004B65793D00426164204B65790045BB
:100200004B4559004C6F674C65763D004261642058
:100210004C6F674C657600444542554700494E4651
:100220004F005741524E004552524F52004C4F47DB
:100230004C004261642054696D650054494D45008D
:10024000524346470043543D4E0043543D590043FA
:1002500054434C004E005900536C6570743D00537C
:100260006C703D0052414D3D00426174743D005040
:100270006F702049783D00507573682049783D00C3
:100280004C617374204D55503D00436C6F73656431
:1002900020456E743D005261773D002C2056616C04
:1002A0003D00426173653D0044554D500048454C4A
:1002B00050004E6F207072696F7220656E74727993
:1002C000004D524542004D55505F004D5550430082
:1002D00042617474657279205620286D56293D005C
:1002E00047494E52005A003000203E2000205768F7
:1002F000002000AD02E5024F02A80240023B022DA1
:1003000002FF01ED01DF01CB01B701A9016E015C24
:10031000014201320121010801436D64733A20005A
:100320003D005D002C002C002C003D5B004F7065F3
:100330006E65642000436C6F7365642000416C67D8
:100340006E3E3A3030004C454420313A004D7367E0
:100350004D6772206661696C00003E800052F4F4C3
:10036000D0003415004FF4F4D0001A0B009DF4F4C3
:10037000D0000D05013BF4F4D00006830275F3F3C1
:10038000D000034104EAF2F2D000022C07AEE2E210
:10039000D00001000800E1E1D00000801000E0E0A2
:1003A000D000024003334242D0013E800052F4F5B7
:1003B000D0013415004FF4F4D0011A0B009DF4F471
:1003C000D0010D05013BF4F4D00106830275F3F36F
:1003D000D001034104EAF2F2D001022C07AEE2E2BE
:1003E000D00101000800E1E1D00100801000E0E050
:1003F000D001024003334242D0087D0000108888BB
:10040000D008682B0010F1F1D00834150010F5F574
:10041000D0081A0B0010F4F4D0080D050010F3F307
:10042000D00806830010F2F2D00803E80010E2E2E0
:10043000D000000000250028002B0000000008006C
:10044000020100000304070000000000000000009B
:10045000000000240027002A0001020408102040A8
:100460008001020408102001020408102004040482
:10047000040404040402020202020203030303034D
:10048000032C2041766720525353493D0054585065
:100490006F773D00556E6B206D73673A2000476F94
:1004A000742062636173743A20004D4E4F490047D7
:1004B0006F7420505253502E204E6F20757064611F
:1004C00074650020746F2000476F742050525350A1
:1004D0003A20005052535000476F742062616420EC
:1004E0004D504C4900204C45442050756C7365209C
:1004F000286D73293D00476F74204D504C493A20B8
:10050000004D504C4900476F7420626164204D4992
:100510004E4900207365637320746F2000476F7429
:10052000204D494E493A20004D494E4900476F74CD
:1005300020626164204D56414900476F74204D563A
:1005400041493A20004D56414900476F742062618D
:100550006420474954520073007320666F72200074
:10056000476F7420474954523A200047495452007B
:100570002E2052535349203D2000476F743A2000EB
:1005800053656E64206661696C3A20004E6F2041AD
:10059000434B20726563760053656E64696E673AFB
:1005A00020004D736720746F6F206C6F6E673A2068
:1005B0000050524551006364696E6F7073757858CE
:1005C0005B00712F20925D0711241FBECFEFD8E092
:1005D000DEBFCDBF12E0A0E0B1E0E4EEF9E702C07B
:1005E00005900D92AA37B107D9F727E0AAE7B2E044
:1005F00001C01D92AD35B207E1F712E0C2EED2E0C4
:1006000004C02197FE010E94A630C13ED107C9F760
:100610000E943D200C94F03C0C9400008091280333
:100620009091290301969093290380932803A8951C
:1006300080912C03882351F120912D0330912E03BA
:10064000232B99F0813089F080911903823068F072
:1006500080912C038230D0F090911903923088F46D
:1006600090911903923090F40FC05C9A0E94E71F9A
:1006700060931A0370931B0380931C0390931D03D4
:10068000E7CF80911903815080931903089589B1B0
:1006900088708093BA03883011F40C940E035C9830
:1006A0000895BC0181EF92E00E94643981EF92E0ED
:1006B0000C947E140F931F93CF93DF931F92CDB7AB
:1006C000DEB7A895809109018983BE016F5F7F4FD6
:1006D00080E090E00E94741F6CE273E081E090E0A3
:1006E0000E94741F6DE273E082E090E00E944D1F53
:1006F0006FE273E084E090E00E94741F60E373E0B7
:1007000085E090E00E944D1F6BED72E087E090E085
:100710000E94351FA8956CED72E088E090E00E9481
:10072000351F6FE676E089E090E00E94741F6AE270
:1007300073E08AE090E00E94741F60EE72E08BE04C
:1007400090E00E94741F6FED72E08CE090E00E94D8
:10075000741F6EED72E08DE090E00E94741F6DEDED
:1007600072E08EE090E00E94741F0FE010E0B8018C
:100770006E527D4FC8010E94741F0F5F1F4F0F31D3
:100780001105A9F763E273E08FE190E00E94741F06
:100790000F90DF91CF911F910F910895EF92FF92EB
:1007A0000F931F93CF93DF93CDB7DEB727970FB685
:1007B000F894DEBF0FBECDBF7C0160E087E00E94F1
:1007C0006A1607E010E09E012F5F3F4F40E062E0B5
:1007D00085ED94E00E94A81E8981982F96959695A4
:1007E00096959E70292F220F220F920F8F70890FDE
:1007F000F70180838A81982F9695969596959E709D
:10080000292F220F220F920F8F70890F81838B81E6
:10081000982F9695969596959670292F220F220FD0
:10082000920F8F70890F82838C81982F9695969561
:1008300096959670292F220F220F920F8F70890F95
:1008400084838D81877083838E81982F969596956A
:1008500096959270292F220F220F920F8F70890F79
:1008600085838F81982F9695969596959E71292FC1
:10087000220F220F920F8F70890F868361E087E02D
:100880000E946A1627960FB6F894DEBF0FBECDBF42
:10089000DF91CF911F910F91FF90EF9008958F926C
:1008A0009F92AF92BF92CF92DF92EF92FF920F93FF
:1008B0001F93CF93DF938BEB93E00E94CE03E091E5
:1008C000C103AE2FB0E020E833E341EE51E00E94D7
:1008D000973C4B015C0122EB37E0FD01C4E6D0E020
:1008E00000E911E0C901825B97408E179F07DCF495
:1008F000C90183709927892B99F4C901BE010E940F
:100900009230892B31F4C901B8010E949230892BB1
:1009100039F480E8880E81E5981E81E0A81EB11C9C
:100920002F5F3F4FDFCF0091C00310E0EE54F84F30
:10093000CF0164E670E00E9492307C01CF0160E953
:1009400071E00E9492306C01C1E0D0E0E370FF27BB
:10095000C017D10724F5C230D10581F4309771F466
:10096000E114F10419F4C114D10441F480E8880EB3
:100970008BE3981E86E2A81EB11C0FC0DE01AC5EA0
:10098000BE4FAC91B0E020E831E541E050E00E947C
:10099000973C860E971EA81EB91E2196D9CF40916E
:1009A000BC032091BD0330E0A0E1BEE00E94E13C29
:1009B0006B017C01242F30E0ACE3B0E00E94E13C0D
:1009C000DC01CB018C0D9D1DAE1DBF1D2091BB0315
:1009D0006C017D01C20ED11CE11CF11CA091BF0372
:1009E000B0E0119720E831E541E050E00E94A23CE0
:1009F000DC01CB018C0D9D1DAE1DBF1DBC01CD01C9
:100A0000680D791D8A1D9B1DDF91CF911F910F915C
:100A1000FF90EF90DF90CF90BF90AF909F908F901E
:100A200008958F929F92AF92BF92CF92DF92EF92F2
:100A3000FF920F931F93CF93DF93EC016A017B0129
:100A400088809980AA80BB800E944F04C80CD91C62
:100A5000EA1CFB1C97018601061B170B280B390BA0
:100A6000480159010093C2039092C303A092C403AA
:100A7000B092C5031092C6031092C7031092C80328
:100A80001092C903088319832A833B83DF91CF9196
:100A90001F910F91FF90EF90DF90CF90BF90AF909C
:100AA0009F908F9008954F925F926F927F928F9256
:100AB0009F92AF92BF92CF92DF92EF92FF92CF932D
:100AC000DF9380912303811104C0C12CD12C7601C6
:100AD000D6C08EE480937C0062E070E080E090E01D
:100AE0000E943F1780917A00806480937A00809101
:100AF0007A0086FDFCCF809178002091790030E06B
:100B0000322F2227A901330F660B770B9A01AB0115
:100B1000282B60E070E381E190E00E94783C69015D
:100B20007A01C8ECD5E0809190020E94281790933A
:100B3000A1028093A002BC01990F880B990B0E941F
:100B4000C3314B015C014090B2025090B3026090FF
:100B5000B4027090B502A30192010E94AC3020E073
:100B600030E040E85AE30E9454329B01AC01C301DB
:100B7000B2010E94AD309B01AC016093B202709350
:100B8000B3028093B4029093B502C501B4010E94F0
:100B9000AC306093AA027093AB028093AC02909346
:100BA000AD029B01AC010E9454326093C20270936B
:100BB000C3028093C4029093C5022091C602309173
:100BC000C7024091C8025091C9020E94AD306093A3
:100BD000C6027093C7028093C8029093C9022197FE
:100BE00009F0A1CF20E030E049EB54E40E94193134
:100BF0000E94C7324B015C01B601DD0C880B990BDA
:100C00000E94C33120E030E04AE754E40E941931E9
:100C100020E030E040E85AE30E94543220919602EE
:100C20003091970240919802509199020E9454325B
:100C3000A50194010E9454326B017C0160938A02E9
:100C400070938B0280938C0290938D021092C60257
:100C50001092C7021092C8021092C9026093B103A9
:100C60007093B2038093B3039093B4032AE939E9F4
:100C700049E95EE30E944F3218160CF026CFC701F7
:100C8000B601DF91CF91FF90EF90DF90CF90BF90B2
:100C9000AF909F908F907F906F905F904F9008954E
:100CA0000F931F93CF93DF938C01EB0180EB93E0C5
:100CB0000E94643960E273E080EB93E00E9459394E
:100CC000E0EBF3E001900020E9F73197AF01405BE2
:100CD000534060EB73E0C8010E945533892B69F0E3
:100CE000CE010E946B39AC01BE01C8010E9474396B
:100CF00021E0892B19F020E001C022E0822FDF9152
:100D0000CF911F910F9108958F929F92AF92BF92B2
:100D1000CF92DF92EF92FF9249015A010E94C131B6
:100D200020E030E040E05FE30E94AD306B017C01E9
:100D3000C501B4010E94C1314B015C0180913003B7
:100D400090913103BC0180E090E00E94C1319B0191
:100D5000AC0160E070E08AE794E40E9419319B01E5
:100D6000AC01C501B4010E9454329B01AC01C70122
:100D7000B6010E94AD300E949231FF90EF90DF905B
:100D8000CF90BF90AF909F908F900895CF93009792
:100D900001F1C62F8130910519F487E292E010C06D
:100DA0008230910519F482E292E00AC08330910505
:100DB00019F48DE192E004C0049721F487E192E0F8
:100DC0000E945103CC2329F083E092E0CF910C9450
:100DD0007E14CF910895CF93DF9320910901309134
:100DE0000A01261737077CF09B01EC01809108016E
:100DF000882321F061E0C9010E94C606CE010E944D
:100E0000E51410920801DF91CF91089560E070E041
:100E100089EE92E00C94EB06CF93DF9320910901C9
:100E200030910A01261737077CF09B01EC01809175
:100E30000801882321F061E0C9010E94C606CE01A5
:100E40000E947E1410920801DF91CF910895CF93F4
:100E5000DF93EA019F938F937F936F9386E092E0F5
:100E60009F938F9384EA93E09F938F930E947C33A8
:100E70008DB79EB708960FB6F8949EBF0FBE8DBF74
:100E8000BE0184EA93E0DF91CF910C940C07CF93DD
:100E9000DF93EC010A9734F460E070E087EE92E0B3
:100EA0000E94EB06BE01DD0F880B990B40E050E07D
:100EB000DF91CF910C942707CF93DF93EA019F93A3
:100EC0008F937F936F9385E792E09F938F9388E949
:100ED00093E09F938F930E947C338DB79EB70896C3
:100EE0000FB6F8949EBF0FBE8DBFBE0188E993E098
:100EF000DF91CF910C940C072091090130910A01E8
:100F00002417350754F040E050E00E945C0760E091
:100F100070E08DEE92E00C94EB06089520910901AB
:100F200030910A01281739073CF08AE092E00E94CC
:100F30007E1481E0809308010895CF93DF930E948F
:100F4000060760E070E089E193E00E94EB06C3EFE2
:100F5000D2E0FE01859194910E94510360E070E01F
:100F600081EF92E00E94EB06229683E0C731D8071A
:100F700081F780E090E0DF91CF910C948E070F9382
:100F80001F93CF93DF938C01EB0180910901909126
:100F90000A01861797075CF080910801882321F0E9
:100FA00061E0CE010E94C606C8010E94E514CE0190
:100FB000DF91CF911F910F910C948E07CF93DF9308
:100FC000C82F0E9406070E9406076C2F70E080E081
:100FD00090E040E050E00E94270760E070E08AE285
:100FE00093E00E94EB068EE0C89FE0011124C852F6
:100FF000DB4F688179818A819B8140E050E00E94CB
:101000005C0760E070E088E293E00E94EB066C8190
:101010007D818E819F8140E050E00E945C0760E00E
:1010200070E086E293E00E94EB06688579858A8508
:101030009B850E94AE1460E070E084E293E00E9421
:10104000EB066C857D85072E000C880B990B40E024
:1010500050E00E94270760E070E082E293E0DF91B9
:10106000CF910C94BF07CF92DF92EF92FF92CF9374
:10107000A895882389F0E090EA03F12C0E9453059B
:101080002EE02E9DF0012F9DF00D1124E852FB4F14
:101090006087718782879387E091EA038EE0E89FFB
:1010A000F0011124E852FB4F82E090E0958784879D
:1010B00064E070E085E393E00E94EB068091090113
:1010C00090910A01049724F08091EA030E94DE07C0
:1010D0008091EA0390E001966AE070E00E9492300D
:1010E0008093EA032091EB032A3018F42F5F2093BA
:1010F000EB03009719F0EFEFE80F01C0E9E0209152
:101100002F03CEE0CE9FF0011124E852FB4FC080A8
:10111000D180E280F380C20ED11CE11CF11CC89F7B
:10112000F001C99FF00D1124E852FB4FC082D1821B
:10113000E282F3820E944F046C157D058E059F05A7
:1011400080F4E090EA03F12C0E944F04CE9DF00160
:10115000CF9DF00D1124E852FB4F60837183828391
:101160009383E091EA038E2F90E0009711F0E15015
:1011700001C0E9E02EE02E9FF0011124E852FB4F60
:101180004481558166817781289FF001299FF00D68
:101190001124E852FB4F448355836683778310867E
:1011A00011861286138681E090E09587848764E03B
:1011B00070E08DE293E00E94EB068091090190912E
:1011C0000A01049724F08091EA030E94DE078091CF
:1011D000E9039091EA03891308C090E001966AE060
:1011E00070E00E9492308093E903CF91FF90EF90DE
:1011F000DF90CF9008950F931F93CF93A895809180
:101200000301882381F00E944F040091CA031091CA
:10121000CB032091CC033091CD0360177107820777
:10122000930708F0A2C080912F03882319F10E9430
:101230004F04E091EA032EE0E29FF0011124E8520E
:10124000FB4F0081118122813381AB01BC01401B26
:10125000510B620B730B80912F0390E0A0E0B0E084
:10126000481759076A077B0728F0848595850197F9
:1012700009F4A8C0E091EA03CEE0CE9FF00111246A
:10128000E852FB4F84859585029709F0A0C00E9423
:101290004F0420912F0330E0220F331F8901330FB9
:1012A000220B330BDC01CB01801B910BA20BB30B88
:1012B000E091EA03CE9FF0011124E852FB4F008138
:1012C000118122813381081719072A073B0730F55E
:1012D0000E944F04E091EA03CE9FF0011124E852EE
:1012E000FB4F0081118122813381601B710B820BC6
:1012F000930B20912F0330E040E050E00E94563CD9
:10130000DA01C9010197A109B1098093B50390934E
:10131000B603A093B703B093B80308C01092B50307
:101320001092B6031092B7031092B80381E0909127
:101330002303911101C080E00E943308C0E08C2F8C
:1013400090E0A0E0B0E04091B5035091B603609109
:10135000B7037091B80384179507A607B707B8F5C8
:1013600080E00E943308CF5FEACF63E070E08DE356
:1013700093E00E94BF0781E090912303911101C087
:1013800080E00E943308E091EA038EE0E89FF001DC
:101390001124E852FB4F8091CA039091CB03A09196
:1013A000CC03B091CD0380839183A283B383109249
:1013B00003011092CA031092CB031092CC03109237
:1013C000CD0331CF82E090E09587848753CFCF91D2
:1013D0001F910F9108958F929F92AF92BF92CF92DB
:1013E000DF92EF92FF920F93CF93DF934B015C015B
:1013F00069017A0180912F03882309F447C0011104
:1014000045C00E94FB08E091EA03CE2FD0E03EE009
:10141000E39FF0011124E852FB4F84809580A68061
:10142000B7808C0C9D1CAE1CBF1C60911F0370917B
:1014300020038091210390912203A50194010E9431
:10144000840621E061157A4E86459A4F08F420E023
:101450002093B903222369F010921F0310922003F6
:10146000109221031092220381E080931E03460113
:1014700057018EE08C9FF0018D9FF00D1124E852F2
:10148000FB4F84829582A682B78277C0E091EA03FF
:101490008EE0E89FF0011124E852FB4F8481958192
:1014A000A681B781892B8A2B8B2B41F081E090910B
:1014B0002303911101C080E00E943308E091EA0308
:1014C000CE2FD0E03EE0E39FF0011124E852FB4F25
:1014D00080829182A282B38284819581A681B78124
:1014E000A7019601280F391F4A1F5B1F60911F0338
:1014F0007091200380912103909122030E94840621
:1015000021E061157A4E86459A4F08F420E0209339
:10151000B903222341F010921F031092200310926E
:1015200021031092220381E080931E038EE08C9FA2
:10153000F0018D9FF00D1124E852FB4FC482D5823B
:10154000E682F78281E090912303911101C080E04F
:101550000E943308002389F0C091EA03D0E00E9482
:101560004F042EE02C9FF0012D9FF00D1124E85226
:10157000FB4F6083718382839383DF91CF910F91BF
:10158000FF90EF90DF90CF90BF90AF909F908F90A3
:1015900008952F923F924F925F926F927F928F9217
:1015A0009F92AF92BF92CF92DF92EF92FF920F93F2
:1015B0001F93CF93DF93CDB7DEB72D970FB6F89477
:1015C000DEBF0FBECDBF6B017C0148872987AB0111
:1015D000BC018CE393E00E941105B701A60182E3F0
:1015E00093E00E941105B701A60188E393E00E94F1
:1015F0001105B701A60184E293E00E941105B7012D
:10160000A6018DE497E00E941105B701A60189EEBD
:1016100096E00E9411058CE3882E912CA12CB12C10
:10162000C701B601A50194010E94563C562ECA017D
:10163000B901A50194010E94563C462ECA01B90188
:1016400028E130E040E050E00E94563C69017A0118
:10165000362ECA01B9016C5F7F4F8F4F9F4F27E035
:1016600030E040E050E00E94563C22242394260EB5
:10167000812C912C540140E094E6692E712C00E9F4
:1016800011E0242F30E02E54384FF901E370FF278A
:10169000309789F4C901B3010E949230892B31F44B
:1016A000C901B8010E949230892B29F48EE691E09D
:1016B000A0E0B0E004C08DE691E0A0E0B0E0880ECC
:1016C000991EAA1EBB1ED501C401AA27BB27C81696
:1016D000D906EA06FB0610F04F5FD3CF309799F496
:1016E000C90164E670E00E949230892B39F4C90187
:1016F00060E971E00E949230892B29F48EE691E036
:10170000A0E0B0E004C08DE691E0A0E0B0E0881A6F
:10171000990AAA0ABB0AC818D908EA08FB08C9012D
:1017200064E670E00E9492308C01C90160E971E0CA
:101730000E949230A5E1B1E030E0313041F43097C1
:1017400051F40115110529F4009729F402C02C91D8
:1017500003C02DE101C02CE1822E912CA12CB12CD3
:10176000C814D904EA04FB0440F0C818D908EA08F0
:10177000FB083F5F11963C3001F73F5FC3942AE0BE
:10178000852D622F0E94723050E1859FB001112497
:10179000692B6983842D622F0E94723050E1859FEE
:1017A000B0011124692B6A83832D622F0E9472304D
:1017B00050E1859FB0011124692B6B838C2D622F22
:1017C0000E947230592F60E1869FC0011124852B41
:1017D0008C83822D622F0E9472309D83832F0E9402
:1017E0007230392F50E1859FC0011124832B8E83E5
:1017F000842F0E947230292F60E1869FC00111243E
:10180000822B8F8307E010E09E012F5F3F4F41E066
:1018100062E085ED94E00E94A81E8985882301F18D
:101820000E944F046B017C010E944F042CE3C20E06
:10183000D11CE11CF11C2CE330E040E050E00E94A0
:10184000563CC61AD70AE80AF90AC092CA03D092CF
:10185000CB03E092CC03F092CD0381E080930301AF
:1018600038853323E1F0E091EA035EE0E59FF00183
:101870001124E852FB4F24813581468157812A8704
:101880003B874C875D870E944F0401E02A853B859A
:101890004C855D850E94EB0981E080931E032D96A7
:1018A0000FB6F894DEBF0FBECDBFDF91CF911F9171
:1018B0000F91FF90EF90DF90CF90BF90AF909F90EF
:1018C0008F907F906F905F904F903F902F900895F2
:1018D0001F93CF93DF93CDB7DEB728970FB6F89459
:1018E000DEBF0FBECDBF0E944F046093D60270933F
:1018F000D7028093D8029093D90280916405909189
:101900006505DC01ED91FC910190F081E02D0995D8
:10191000882309F48AC0809166050E9496158091FB
:101920006F060E94961584EF91E090936D05809369
:101930006C0583E080936E0548E050E069E673E053
:10194000CE0101960E945039BE016F5F7F4F80E744
:1019500096E00E944A1344EE67E080E796E00E941A
:10196000D31040EC68E080E796E00E94D31040E09E
:1019700069E080E796E00E94D31041E06091DB02CD
:1019800080E796E00E9467138091E002898380914E
:10199000DF028A838091DE028B838091DD028C835B
:1019A0006EE280E796E00E942411182F24E0AE0139
:1019B0004F5F5F4F6FE280E796E00E948510412FF6
:1019C000477C48696EE280E796E00E94D31020E1F0
:1019D00041EE52E06EE380E796E00E9485106DE3F1
:1019E00080E796E00E942411482F41606DE380E774
:1019F00096E00E94D31080E796E00E940F1160915C
:101A0000D6027091D7028091D8029091D90220E03D
:101A100040E00E94C90A28960FB6F894DEBF0FBEB8
:101A2000CDBFDF91CF911F91089561E070E08DE40B
:101A300093E00E94BF0773CFCF93DF93EB01BC010C
:101A4000990F880B990BAE010E942707CE01DF91F9
:101A5000CF910C948E07CF93C62F80932C031092B6
:101A600019035C98E9988EEC9DE0909307018093B0
:101A7000060180912C03882349F087E493E090933A
:101A800007018093060181E090E008C08EE093E0BA
:101A9000909307018093060182E090E00E94570F27
:101AA00060E070E086E493E00E94EB0680912C03F6
:101AB00060E070E090E00E941C0DCC2319F0CF9103
:101AC0000C945A03CF91089583E090E090930A011B
:101AD0008093090160E080E00E942B0D84E690E095
:101AE00090932E0380932D038CE380932F0388EE35
:101AF00093E090933103809330038DE08093DB0279
:101B000085EB8093DC0282E080936F0681E0809316
:101B10002A031092E0021092DF028093DE0280938B
:101B2000DD0280E1E1E2F1E0A1EEB2E001900D9290
:101B30008A95E1F7109223030E945A030C94680CD3
:101B4000CF93DF93EB01BC0180E090E0AE010E94F7
:101B50005C07CE01DF91CF910C948E07EF92FF923C
:101B60000F931F93CF93DF931F92CDB7DEB77C0106
:101B7000FC0100811181C80169830E94303C6981A8
:101B8000681719F0C8010E94383CC7010F90DF9117
:101B9000CF911F910F91FF90EF9008950895CF92EC
:101BA000DF92EF92FF920F931F93CF93DF936C011D
:101BB0007A018B01C0E0D0E0CE15DF0589F0D801B5
:101BC0006D918D01D601ED91FC910190F081E02D98
:101BD000C6010995892B11F47E0102C02196ECCF34
:101BE000C701DF91CF911F910F91FF90EF90DF9090
:101BF000CF900895089580E090E00895FC01538D02
:101C0000448D252F30E0842F90E0821B930B5417D6
:101C100010F0CF96089501970895FC01918D828D63
:101C2000981761F0828DDF01A80FB11D5D968C9130
:101C3000928D9F5F9F73928F90E008958FEF9FEF3B
:101C40000895FC01918D828D981731F0828DE80FF7
:101C5000F11D858D90E008958FEF9FEF0895FC01B1
:101C6000918D228D892F90E0805C9F4F821B91097E
:101C70008F739927089588E394E00E942F0E21E046
:101C8000892B09F420E0822F0895FC01848DDF0167
:101C9000A80FB11DA35ABF4F2C91848D90E00196DF
:101CA0008F739927848FA689B7892C93A089B189CE
:101CB0008C9180648C93938D848D981306C00288D8
:101CC000F389E02D80818F7D80830895EF92FF92CC
:101CD0000F931F93CF93DF93EC0181E0888F9B8D4F
:101CE0008C8D981305C0E889F989808185FD24C011
:101CF000F62E0B8D10E00F5F1F4F0F731127E02E94
:101D00008C8DE8120CC00FB607FCFACFE889F98970
:101D1000808185FFF5CFCE010E94450EF1CF8B8DDE
:101D2000FE01E80FF11DE35AFF4FF0820B8FEA89A5
:101D3000FB898081806207C0EE89FF896083E88922
:101D4000F98980818064808381E090E0DF91CF9188
:101D50001F910F91FF90EF900895CF93DF93EC01C7
:101D6000888D8823C9F0EA89FB89808185FD05C0BB
:101D7000A889B9898C9186FD0FC00FB607FCF5CFF5
:101D8000808185FFF2CFA889B9898C9185FFEDCF3D
:101D9000CE010E94450EE7CFDF91CF91089580E0FC
:101DA00090E0892B29F00E943B0E81110C940000D9
:101DB0000895FC01738362830895FC017783668331
:101DC0000895FC01758364830895089508958CE354
:101DD00008959FB7F8948091DA03882319F0815011
:101DE0008093DA038091DA03811105C08CB58F7B73
:101DF0008CBD1092CE039FBF08950E944033CF93B5
:101E0000DF93EC01888D998DDC01ED91FC910680CA
:101E1000F781E02D099561E08A8D0E94B61661E098
:101E20008A8D0E946A1664E670E080E090E00E946D
:101E30003F1781E0DF91CF910895CF92DF92EF922B
:101E4000FF920F931F93CF93DF93EC016B018A01F5
:101E5000E881F9810280F381E02D0995F82E88232D
:101E6000E1F0C114D104B1F00115110599F0EFB6FC
:101E7000F89488A1F8019081891710F488A18083D3
:101E8000F801408150E0BE016F5D7F4FC6010E94A6
:101E90004533EFBEC35ADF4F18828F2DDF91CF91AC
:101EA0001F910F91FF90EF90DF90CF900895E9E69A
:101EB000F0E02081880F991F880F991F237F822BC4
:101EC0008083E99A0895952F8230A8F4E82FF0E0F6
:101ED000EE0FFF1FEC5FFE4F71836083813041F096
:101EE000809169008C7F482B40936900E89A08959F
:101EF000842F0C94570F08951F920F920FB60F92D4
:101F000011242F933F934F935F936F937F938F93FE
:101F10009F93AF93BF93EF93FF93E0910601F091EE
:101F200007010995FF91EF91BF91AF919F918F911B
:101F30007F916F915F914F913F912F910F900FBEC5
:101F40000F901F9018951F920F920FB60F921124A9
:101F50002F933F934F935F936F937F938F939F93B1
:101F6000AF93BF93EF93FF93E0910401F0910501CC
:101F70000995FF91EF91BF91AF919F918F917F91C3
:101F80006F915F914F913F912F910F900FBE0F90E6
:101F90001F9018951F920F920FB60F9211242F9336
:101FA0003F934F935F936F937F938F939F93AF93E1
:101FB000BF93EF93FF9388E394E00E94450EFF9157
:101FC000EF91BF91AF919F918F917F916F915F91B1
:101FD0004F913F912F910F900FBE0F901F9018952A
:101FE0001F920F920FB60F9211242F938F939F93EE
:101FF000EF93FF93E0914804F09149048081E091D0
:102000004E04F0914F0482FD12C0908180915104E2
:102010008F5F8F7320915204821751F0E091510429
:10202000F0E0E85CFB4F958F8093510401C0808104
:10203000FF91EF919F918F912F910F900FBE0F9075
:102040001F9018951F920F920FB60F9211248F9325
:102050000FB6F894A8958091600088618093600025
:10206000109260000FBE8F910F900FBE0F901F90C7
:1020700018954115510529F4EAE7F0E080818F7742
:1020800080836A307105A9F063FD02C088E001C059
:1020900088E26770682B88E10FB6F894A895809362
:1020A00060000FBE60936000E0E6F0E08081806435
:1020B0008083232BA1F483B7817F846083BFF8944E
:1020C00083B7816083BF85B7806685BF8F7D85BFFD
:1020D0007894889583B78E7F83BF78940EC083B73A
:1020E000817F846083BFF89483B7816083BF7894D5
:1020F000889583B78E7F83BF7894452B29F4EAE7D0
:10210000F0E08081806880830895AF92BF92DF9273
:10211000EF92FF920F931F93CF93DF9300D0CDB731
:10212000DEB78C01E62EF42EDFB6F89460E0DC0119
:102130005A968C9129835A830E946A16F801808DE1
:10214000918DDC01ED91FC916E2D60680190F08124
:10215000E02D0995E82EAF2C5A81B52E2981F20E7B
:10216000FA1471F0F801808D918DD5016D915D01AA
:10217000DC01ED91FC910190F081E02D0995F0CF0B
:1021800061E0F801828D0E946A16DFBE8E2D0F90ED
:102190000F90DF91CF911F910F91FF90EF90DF9003
:1021A000BF90AF900895EF92FF920F931F93CF933C
:1021B000DF931F92CDB7DEB77C01162F0FB7F894CF
:1021C00060E0DC015A968C9149830E946A16F701FF
:1021D000808D918DDC01ED91FC91612F6068019003
:1021E000F081E02D0995182FF701808D918DDC018C
:1021F000ED91FC910190F081E02D4981642F0995CA
:1022000061E0F701828D0E946A160FBF812F0F9047
:10221000DF91CF911F910F91FF90EF900895CF9391
:10222000DF93FC01228133812130310549F0EC013B
:1022300040E061E00E94D31081E090E09B838A83BC
:1022400081E0DF91CF9108950F931F93CF93DF9398
:10225000EC01162F0FB7F89460E08A8D0E946A1681
:10226000888D998DDC01ED91FC91612F6F77019044
:10227000F081E02D0995888D998DDC01ED91FC911F
:102280000190F081E02D60E00995182F61E08A8DC2
:102290000E946A160FBF812FDF91CF911F910F917E
:1022A00008950F931F93CF938C01C62F61E00E9476
:1022B0002411837ECC71482F4C2B61E0C8010E9411
:1022C000D31067E2C8010E94241187FFFACFCF9193
:1022D0001F910F910895CF93DF93FC0122813381E9
:1022E0002330310519F1EC01828193810497D1F0FB
:1022F000878D823154F045E56AE5CF010E94D31005
:1023000040E76CE5CE010E94D31040E465E2CE01C7
:102310000E94D31060E1CE010E94511184E090E050
:102320009B838A83C35ADF4F888101C080E0DF919D
:10233000CF910895CF93DF93FC0122813381223026
:102340003105B1F0EC01878D823154F045E56AE545
:10235000CF010E94D31040E76CE5CE010E94D3105C
:102360006D8DCE010E94511182E090E09B838A83A3
:10237000DF91CF910895BF92CF92DF92EF92FF92BB
:102380000F931F93CF93DF93EC01B62EC72E142F1C
:102390004D3310F000E08BC0E881F9810484F585AD
:1023A000E02D0995CE010E949A11E881F9810288F9
:1023B000F389E02DCE010995082F882359F3DFB664
:1023C000F89460E08A8D0E946A16888D998DDC01F0
:1023D000ED91FC910190F081E02D60E80995A88DC8
:1023E000B98DED91FC9111970190F081E02D64E0A1
:1023F000610FCD010995888D998DDC01ED91FC91DE
:102400000190F081E02D6A850995888D998DDC0118
:10241000ED91FC910190F081E02D6B850995888DFF
:10242000998DDC01ED91FC910190F081E02D6C859E
:102430000995888D998DDC01ED91FC910190F081D9
:10244000E02D6D850995EB2CFC2C115068F0888DE2
:10245000998DF70161917F01DC01ED91FC91019073
:10246000F081E02D0995F1CF61E08A8D0E946A1616
:10247000DFBE8A819B810397D1F08F8D823154F02A
:102480004DE56AE5CE010E94D3104CE76CE5CE0124
:102490000E94D31040E065E2CE010E94D3106CE0B0
:1024A000CE010E94511183E090E09B838A83802FAC
:1024B000DF91CF911F910F91FF90EF90DF90CF9020
:1024C000BF900895EF92FF920F931F93CF93DF93E6
:1024D000EC0168E20E942411182F8A819B810397E6
:1024E00011F413FD08C08A819B81049709F0A2C0F2
:1024F00012FD0BC09FC0CE010E949A112B893C890E
:102500002F5F3F4F3C8B2B8BEECF64E2CE010E94BE
:102510002411869581958E870E94E71FFE01E25A5D
:10252000FF4F6083718382839383CE010E949A114F
:10253000FFB6F89460E08A8D0E946A16888D998DA6
:10254000DC01ED91FC910190F081E02D60E00995B6
:10255000888D998DDC01ED91FC910190F081E02D49
:1025600060E00995082F8CEF800F8D3300F5888D82
:10257000998DDC01ED91FC910190F081E02D60E0FE
:1025800009958E838D81811118C09E818C81981749
:10259000A1F08E818F3F59F410C089899A890196E4
:1025A0009A8B898B81E0FE01E35AFF4F808361E0C3
:1025B0008A8D0E946A16FFBE3DC0888D998DDC0110
:1025C000ED91FC910190F081E02D60E009958F8301
:1025D000888D998DDC01ED91FC910190F081E02DC9
:1025E00060E009958887888D998DDC01ED91FC91DB
:1025F0000190F081E02D60E00995898718A210E034
:102600000450110988A190E08017910734F6E8A0E2
:10261000888D998DDC01ED91FC910190F081E02D88
:1026200060E00995FE01EE0DF11D81A388A18F5F89
:1026300088A3E8CFDF91CF911F910F91FF90EF908A
:1026400008958091D4039091D503009711F00C94D4
:10265000621208958091D2039091D303009711F0F4
:102660000C94621208958091D0039091D103009749
:1026700011F00C9462120895CF93DF93EC016DE397
:102680000E942411482F4E7F6DE3CE01DF91CF9140
:102690000C94D3100F931F93CF93DF93EC018B0116
:1026A00025E0AB0162E00E948510A8014B5F5F4FFF
:1026B00022E069E1CE010E948510F801478167E3BD
:1026C000CE01DF91CF911F910F910C94D310FC019B
:1026D000678F442399F06E3F14F48EEF878F478DF8
:1026E0004E3024F44E5E4F71406415C042311CF0F0
:1026F000455F4F7101C0425F40660DC06E3E14F4ED
:102700008EEE878F878D8E3014F08DE0878F478D0A
:102710004E5E4F71406861E1CF010C94D310EF928F
:10272000FF920F931F93CF93DF93CDB7DEB72A9716
:102730000FB6F894DEBF0FBECDBF8C010E94FF0E16
:10274000E82E811102C0E12CA6C0F801838D8230F1
:1027500029F08330C1F7FF24F39401C0F12C60E12C
:10276000C8010E942411F801868F9FEF980F9E3FA9
:1027700050F760E0F801838D0E94B616F801848D51
:102780008F3F49F48091CF038430E8F691E0980FB1
:102790009093CF03848FF801948DE92FF0E0EE0F32
:1027A000FF1FE053FC4F11830083911105C043E0EC
:1027B00050E063E373E10EC0913029F443E050E050
:1027C0006AE273E107C0923009F0BDCF43E050E008
:1027D00061E273E18F2D0E94630FC8010E949A117C
:1027E0004FE86CE3C8010E94D31040E36FE6C801D4
:1027F0000E94D31045E56AE5C8010E94D31040E766
:102800006CE5C8010E94D3108DE2898784ED8A8728
:102810006EE2C8010E942411F82E22E0AE01475F4B
:102820005F4F6FE2C8010E9485104F2D477C4868BA
:102830006EE2C8010E94D31048E050E069EE73E0F8
:10284000CE0101960E945039BE016F5F7F4FC801D3
:102850000E944A1340E06CE2C8010E94D31044E099
:102860006DE2C8010E94D3104CE667E0C8010E94E7
:10287000D31040E868E0C8010E94D31040E069E04E
:10288000C8010E94D310C8010E943C1340E06DE0D3
:10289000C8010E9467138E2D2A960FB6F894DEBFEA
:1028A0000FBECDBFDF91CF911F910F91FF90EF90A1
:1028B00008953FB7F8948091D6039091D703A091E3
:1028C000D803B091D90326B5A89B05C02F3F19F0B6
:1028D0000196A11DB11D3FBFBA2FA92F982F8827A0
:1028E000820F911DA11DB11DBC01CD0142E0660FFB
:1028F000771F881F991F4A95D1F70895009769F0AF
:10290000FC0101900020E9F73197AF01481B590BFA
:10291000BC0188E394E00C94CF0D80E090E0089532
:10292000CF93DF932091090130910A0128173907CD
:1029300094F0EC0180910801882321F061E0CE0140
:102940000E94C6068CEE93E00E947E14CE01DF91B9
:10295000CF910C948E07DF91CF910895CF92DF92A3
:10296000EF92FF926B017C0120E030E048EC52E4F2
:102970000E9454320E948B31CB0164E670E00E94C9
:1029800092309F938F93C701B6010E948B317F9342
:102990006F938DE092E09F938F9385ED96E09F93E8
:1029A0008F930E947C338DB79EB708960FB6F8942C
:1029B0009EBF0FBE8DBF60E070E085ED96E0FF909A
:1029C000EF90DF90CF900C940C070F931F93CF9351
:1029D000DF938C01C0E0D0E0F801EC0FFD1F6491A3
:1029E000662371F0E0913804F09139040190F08190
:1029F000E02D88E394E00995892B11F02196ECCF26
:102A0000CE01DF91CF911F910F910895CF93C82FE1
:102A10000E94FB082091EB03211102C080E084C0DA
:102A2000CC23F9F09091EA0340E050E08EE0BA0147
:102A3000625071096230710568F0992311F091506C
:102A400001C099E0899FF0011124E852FB4F4485B1
:102A50005585EDCF9093D2065093D4064093D3067C
:102A600010C0E091E903E093D2068EE0E89FF00108
:102A70001124E852FB4F848595859093D40680936A
:102A8000D306E091D2064E2F50E08EE0E89FF00191
:102A90001124E852FB4F80819181A281B381809300
:102AA000DB039093DC03A093DD03B093DE0384810A
:102AB0009581A681B7818093DF039093E003A09373
:102AC000E103B093E203848595859093E8038093B6
:102AD000E70380859185A285B3858093E303909376
:102AE000E403A093E503B093E6038091D3069091AD
:102AF000D406029709F092CF83E090E0958784870F
:102B0000CA0101966AE070E00E9492308093E90366
:102B1000CC2319F01092EB0306C0222321F08FEF93
:102B2000820F8093EB0381E0CF9108951F93CF93A1
:102B3000DF93182FC4E6D5E088819981DC01ED91FF
:102B4000FC910688F789E02D612F0995888199818C
:102B5000DC01ED91FC91028CF38DE02D612F099544
:102B60001A83DF91CF911F91089580916405909110
:102B70006505DC01ED91FC910484F585E02D099457
:102B8000FF920F931F93CF93DF938C01F62EC4E631
:102B9000D5E088819981DC01ED91FC91008CF18D6B
:102BA000E02D642F099588819981DC01ED91FC91DC
:102BB0000680F781E02D4F2DB801DF91CF911F9155
:102BC0000F91FF900994FF920F931F93CF93DF9380
:102BD0001F92CDB7DEB7F62E04E615E0F801A0810E
:102BE000B181ED91FC911197048CF58DE02D682F4A
:102BF000CD010995D8018D919C91DC01ED91FC915D
:102C0000068CF78DE02D40E060E8099581E289832C
:102C10004F2D61E0CE0101960E94C0150E94B515AE
:102C20000F90DF91CF911F910F91FF900895CF9258
:102C3000DF92EF92FF920F931F93CF93DF936C017C
:102C40007B018A01E901892B69F0809164059091EB
:102C50006505DC01ED91FC9104A0F5A1E02D09953D
:102C6000F6018083E114F10469F08091640590918C
:102C70006505DC01ED91FC9102A0F3A1E02D099521
:102C8000F70180830115110569F080916405909129
:102C90006505DC01ED91FC9106A0F7A1E02D0995F9
:102CA000F8018083209761F080916405909165051B
:102CB000DC01ED91FC9100A4F1A5E02D099588833C
:102CC00081E0DF91CF911F910F91FF90EF90DF9006
:102CD000CF90089590E0FC01E55CFB4F3491FC013E
:102CE000E75AFB4F2491FC01E359FB4FE491EE239B
:102CF00009F43BC0332339F1333091F038F43130EB
:102D0000A9F0323001F584B58F7D12C0373091F0D3
:102D10003830A1F03430B9F4809180008F7D03C049
:102D2000809180008F77809380000DC084B58F776D
:102D300084BD09C08091B0008F7703C08091B0003E
:102D40008F7D8093B000F0E0EE0FFF1FEF5CFB4F34
:102D5000A591B4918FB7F894EC91611103C02095BF
:102D60002E2301C02E2B2C938FBF0895CF93DF937A
:102D700090E0FC01E75AFB4F2491FC01E359FB4F23
:102D80008491882361F190E0880F991FFC01E15B39
:102D9000FB4FC591D491FC01EF5CFB4FA591B49121
:102DA000611109C09FB7F894888120958223888398
:102DB000EC912E230BC0623061F49FB7F8943881F8
:102DC000822F809583238883EC912E2B2C939FBF99
:102DD00006C08FB7F894E8812E2B28838FBFDF9130
:102DE000CF910895CF93CFB7F8948091DA038111F2
:102DF00027C0E7E7F4E08491E3E6F4E09491E82F5C
:102E0000F0E0EE0FFF1FE15BFB4FA591B491EC9159
:102E1000E92321F461E08AE00E946A1661E08AE019
:102E20000E94B6168CB580618CBD8CB580648CBD5B
:102E300061E08DE00E94B61661E08BE00E94B6165C
:102E40008091DA038F5F8093DA03CFBFCF9108952B
:102E50008E3008F08E508770806480937C00809163
:102E60007A00806480937A0080917A0086FDFCCF9E
:102E7000809178002091790090E0922B08958F92B4
:102E80009F92AF92BF92CF92DF92EF92FF926B012F
:102E90007C010E9459144B015C01C114D104E1046E
:102EA000F104F1F00E945914DC01CB018819990951
:102EB000AA09BB09883E9340A105B10570F321E042
:102EC000C21AD108E108F10888EE880E83E0981E46
:102ED000A11CB11CC114D104E104F10419F7DDCF28
:102EE000FF90EF90DF90CF90BF90AF909F908F902A
:102EF0000895CF93DF9392E0980F973110F080E020
:102F000061C0D62FC82F63E070E08DE894E00E9486
:102F1000EB066C2F0C2E000C770B880B990B43E003
:102F200050E00E94270763E070E081E894E00E948F
:102F3000EB068091DA0263E070E0082E000C990B3A
:102F40000E941C0DC093DB021092DA02D1110E9484
:102F50005A0341E06091DB0280E796E00E9467132C
:102F60008DE890E09F938F93CCEED3E0DF93CF93E7
:102F70000E948C398091DB02282F082E000C330B25
:102F80003F938F9385E192E09F938F93DF93CF934D
:102F900080E292E09F938F93DF93CF930E947C33E4
:102FA00060E080912A030E94E51780E796E00E9486
:102FB0000F118DB79EB70E960FB6F8949EBF0FBE39
:102FC0008DBF81E0DF91CF9108952F923F924F9274
:102FD0005F926F927F928F929F92AF92BF92CF92A9
:102FE000DF92EF92FF920F931F93CF93DF9300D066
:102FF00000D000D0CDB7DEB7082F762E5CEEE52EE0
:1030000053E0F52EF70101900020E9F73197EC5ECF
:10301000F340FD9758F061E070E082EA95E00E948D
:10302000EB0681E090E00E94901424C58CE38D8330
:10303000E1E1F7E0DF011D928A95E9F763E070E0D6
:1030400088E995E00E94EB0683E090E00E949014EE
:10305000F70101900020E9F73197AF014C5E534032
:103060006CEE73E081E197E00E944533A895BD8145
:10307000BE8310916B051F5F10936B0520E0812CC0
:10308000912C5401939466246394620E90916E0582
:10309000921708F4B3C08091640590916505DC0136
:1030A000ED91FC91048CF58DE02D612F09958091B7
:1030B000640590916505DC01ED91FC91068CF78D1E
:1030C000E02D40E860E00995402F6E8181E197E0B6
:1030D0000E94C0150E94B5150F3F09F4ABC0B1E0C6
:1030E000B61598F48091670590916805A0916905DF
:1030F000B0916A050196A11DB11D8093670590935B
:103100006805A0936905B0936A050E94E71F1B013B
:103110002C01E0906C05F0906D050E941637A5011A
:1031200094010E94783C9B01AC01D7010E94973C1E
:10313000A50194010E94783C2E0D3F1D7201610192
:10314000C20ED31EE11CF11C0E94E71FA7019601CD
:10315000261B370B480B590BCA01B901262D161631
:103160001706180619060CF08ECFA0916405B091D1
:103170006505ED91FC9111970088F189E02DCD0155
:103180000995882309F38091640590916505DC0118
:10319000ED91FC910480F581E02D40E050E060E08D
:1031A00070E00995882381F29E012F5F3F4FAE01A9
:1031B0004E5F5F4FBE016D5F7F4FCE0104960E9450
:1031C0001716882309F26C81898160130AC02B814C
:1031D00090916605291305C087FF03C09A81911756
:1031E00049F187FDB1CF8A81E62FF0E0EC59FA4F23
:1031F00093858913A9CF0E94E315A6CF62E070E002
:1032000080E895E00E94EB0682E090E00E94901436
:10321000809110078F5F8093100783302CF080918E
:10322000DB0284310CF487C0A89580E796E00E9409
:103230000F1120C410921007A8957720A9F30E94BF
:10324000E71F6B017C0138EEC30E33E0D31EE11C97
:10325000F11C0E94E71FA7019601261B370B480BA4
:10326000590BCA01B90112161306140615060CF003
:103270005BC0A0916405B0916505ED91FC9111973B
:103280000088F189E02DCD010995882311F3809103
:10329000640590916505DC01ED91FC910280F3815C
:1032A000E02D09958823A9F2809164059091650528
:1032B000DC01ED91FC910480F581E02DAE014B5FC6
:1032C0005F4F61E177E00995882319F29E012F5F36
:1032D0003F4FAE014E5F5F4FBE016D5F7F4FCE012E
:1032E00004960E941716182F882309F4B2CF8981FB
:1032F00087FDAFCF9B8180916605981304C06C81D8
:103300008A810E94E3158A819C81E92FF0E0EC59C3
:10331000FA4F2385821709F49CCF90930F07838778
:10332000112309F496CF0BC063E070E08CE895E0C0
:103330000E94BF0779CF8CE98093DA0275CFA895F8
:1033400080917E0680932B0364E070E08AE795E02D
:103350000E94EB0664E070E081E197E00E940C07B8
:1033600064E070E080E795E00E94EB0680912B031B
:1033700064E070E0082E000C990B0E941C0D69EAB5
:1033800071E08CEE93E00E944E3361E177E08CEEC9
:1033900093E00E944E336BE675E08CEE93E00E9462
:1033A0005006813009F093C010920B0710920C0761
:1033B00010920D0710920E0710920707109208073F
:1033C0001092090710920A0786E097E09F938F9367
:1033D00087E097E09F938F938BE097E09F938F9385
:1033E00089E292E09F938F938CEE93E09F938F936B
:1033F0000E949F3340910B0750910C0760910D077D
:1034000070910E07DB01CA010A97A109B1090FB635
:10341000F894DEBF0FBECDBF8F349240A105B10539
:1034200008F04EC08091070790910807A091090706
:10343000B0910A078C019D010A5011092109310937
:103440000F3A1B4021053105D8F5509301014093F7
:10345000000190933703809336030E944F046093DA
:1034600038037093390380933A0390933B0363E0EE
:1034700070E080E695E00E94EB0660910B0770918A
:103480000C0780910D0790910E0743E050E00E94D9
:103490005C0763E070E089E595E00E94EB066091CF
:1034A0000707709108078091090790910A0743E088
:1034B00050E00E945C0763E070E087E595E004C09F
:1034C00061E070E08AE495E00E94BF07F0C165E426
:1034D00075E08CEE93E00E945006182F813009F0C1
:1034E00066C086E097E09F938F9382E097E09F937A
:1034F0008F938DE392E09F938F938CEE93E09F9355
:103500008F930E949F338091020790910307A091AF
:103510000407B0910507AC01BD0141505109610993
:1035200071090FB6F894DEBF0FBECDBF4F3F5D45AA
:10353000604D724BB8F580931F0390932003A093C6
:103540002103B09322030E944F0401E020E030E009
:10355000A9010E94EB0963E070E08AE395E00E9414
:10356000EB06E091EA034EE0E49FF0011124E852FB
:10357000FB4F248135814681578160911F037091F3
:10358000200380912103909122030E94840643E04E
:1035900050E00E947C0783E090E00E948E07109329
:1035A0001E0385C161E070E08DE295E08DCF68E299
:1035B00075E08CEE93E00E945006813009F054C013
:1035C00086E097E09F938F938EEF96E09F938F9383
:1035D0008DE392E09F938F938CEE93E09F938F9374
:1035E0000E949F330FB6F894DEBF0FBECDBF80910F
:1035F000FE069091FF06A0910007B09101078F3F52
:103600009105A105B10509F050F563E070E08DE189
:1036100095E00E94EB0660912F0370E080E090E05F
:1036200043E050E00E94270763E070E083E195E00B
:103630000E94EB066091FE067091FF0680910007E4
:103640009091010743E050E00E945C0783E090E026
:103650000E948E078091FE0680932F037BC061E05D
:1036600070E086E095E030CF61E075E08CEE93E0AD
:103670000E945006813009F075C01092FA0610922F
:10368000FB061092FC061092FD061092F6061092B0
:10369000F7061092F8061092F90686E097E09F93DD
:1036A0008F9386EF96E09F938F938AEF96E09F9398
:1036B0008F9389E292E09F938F938CEE93E09F9398
:1036C0008F930E949F330FB6F894DEBF0FBECDBF1D
:1036D0008091FA069091FB06A091FC06B091FD0640
:1036E0008F3F9105A105B10509F0B8F58091F60667
:1036F0009091F706A091F806B091F906893BEBE0AE
:103700009E07A105B10548F590932E0380932D03E4
:1037100063E070E086EF94E00E94BF0760E0809174
:10372000FA060E942B0D60912C0370E080E090E07F
:1037300043E050E00E94270763E070E085EE94E0EC
:103740000E94EB0663E070E080912D0390912E03C0
:103750000E94A00D0E945A03AAC061E070E088EDAB
:1037600094E0B2CE63ED74E08CEE93E00E945006DC
:10377000813009F064C01092F2061092F3061092A4
:10378000F4061092F5061092EE061092EF061092D3
:10379000F0061092F10686E097E09F938F938DEEEE
:1037A00096E09F938F938EEE96E09F938F9382EF98
:1037B00096E09F938F938DE492E09F938F938CEE8E
:1037C00093E09F938F930E949F330E944F04009138
:1037D000F2061091F3062091F4063091F506DC0113
:1037E000CB01801B910BA20BB30B0FB6F894DEBF7D
:1037F0000FBECDBF0497A105B10508F002C18091AD
:10380000EE069091EF06A091F006B091F106892B9B
:103810008A2B8B2B09F4F5C00E944F042091EE06F1
:103820003091EF06621B730BCB0177FF04C0882732
:103830009927861B970B04970CF081C0E2C06AEAB7
:1038400074E08CEE93E00E9450068130A9F486E08B
:1038500097E09F938F9386E692E09F938F938CEEF1
:1038600093E09F938F930E949F330F900F900F9040
:103870000F900F900F901BC06DE870E08CEE93E0FE
:103880000E945006813049F464E070E08EE994E0D3
:103890000E94EB0684E090E008C062E070E084E9FA
:1038A00094E00E94EB0682E090E00E94901469EAA6
:1038B00071E08CEE93E00E944E338091060787FF03
:1038C00013C02091DA02222359F0082E000C990B24
:1038D000820F911D27FD9A9597FD019695958795E5
:1038E0008093DA02109206078091DC0287FF9CCC5D
:1038F0008091DA0287FF98CC8091E9069091EA06E0
:10390000A091EB06B091EC06892B8A2B8B2B09F446
:103910007DC00E944F040091E9061091EA062091B3
:10392000EB063091EC06DC01CB01801B910BA20B66
:10393000B30BCC97A105B10508F068C075CC0E9407
:103940004F040091F2061091F3062091F406309195
:10395000F506DC01CB01801B910BA20BB30BB695D6
:10396000A795979587950091EE061091EF06209107
:10397000F0063091F106800F911FA21FB31F8093B4
:10398000EE069093EF06A093F006B093F10664E084
:1039900070E088EC94E00E94EB060E944F0444E043
:1039A00050E00E945C0764E070E083EC94E00E94C9
:1039B000EB066091EE067091EF068091F006909113
:1039C000F10644E050E00E945C0784E090E00E9431
:1039D0008E078091ED06813011F01092ED0621E006
:1039E0008091ED06813009F020E06091EE06709143
:1039F000EF068091F0069091F10641E00E94C90A1D
:103A000056CF63E070E08FEA94E05ECD2091DA0259
:103A10003091DC02822F022E000C990B831B91093E
:103A200037FD939597FF03C09195819591090B9769
:103A300094F023173CF48091DB028F5F8E3F14F0EB
:103A40008531A4F032173CF48091DB0281508E3F27
:103A500014F085315CF00E944F046093E906709386
:103A6000EA068093EB069093EC06DECB60E00E94C2
:103A70007917F1CF26960FB6F894DEBF0FBECDBFF3
:103A8000DF91CF911F910F91FF90EF90DF90CF903A
:103A9000BF90AF909F908F907F906F905F904F906E
:103AA0003F902F9008958CB58F778CBD08958CB57D
:103AB00080688CBD08959CB5282F23709C7F922B25
:103AC0009CBD2DB582FB992790F9822F8E7F892B83
:103AD0008DBD089580E00895FC0181850895FC0165
:103AE00080850895FC0187810895FC0186810895F1
:103AF000FC01409595854923642B65870895FC0159
:103B000064870895FC0163870895FC016287089526
:103B1000FC0164830895FC016583089580E00895A5
:103B2000FC012281338123303105D1F381E00895F6
:103B3000CF93DF93EC01E881F9810280F381E02DDE
:103B4000CE0109958823B9F3DF91CF91089581E0E3
:103B500008958EBD00000DB407FEFDCF8EB508950B
:103B6000862F0C94A91DCF93FC0126813781211546
:103B7000310549F02130310541F02230310539F06D
:103B80002330310531F020E005C024E003C028E0F7
:103B900001C02CE09CB5937F922B9CBD84819581C4
:103BA0000197C1F48CB580628CBD828193810197AD
:103BB0008430910528F4FC01E957FE4FC08101C013
:103BC000C1E08C2F0E945B1D0E94F2168C2FCF91BA
:103BD0000C945B1D9CB59F7D9CBDE7CF8F929F92FF
:103BE000AF92BF92CF92DF92EF92FF92CF93DF938B
:103BF000EC016B010E94E71F4B015C01E12CF12CF1
:103C00000E94E71FDC01CB0188199909AA09BB09A9
:103C10008C159D05AE05BF0530F48A819B81039705
:103C200079F381E001C080E0DF91CF91FF90EF90C8
:103C3000DF90CF90BF90AF909F908F9008958F921C
:103C40009F92AF92BF92CF92DF92EF92FF92CF936B
:103C5000DF93EC016B010E94E71F4B015C01E12C3B
:103C6000F12C0E94E71FDC01CB0188199909AA09F0
:103C7000BB098C159D05AE05BF0550F4E881F9819F
:103C80000280F381E02DCE010995882351F301C014
:103C900080E0DF91CF91FF90EF90DF90CF90BF90C9
:103CA000AF909F908F9008958F929F92AF92BF9206
:103CB000CF92DF92EF92FF92CF93DF93FC012689A0
:103CC0003789232B11F481E038C0EC010E94E71FF3
:103CD0006B017C0189E0882E912CA12CB12CE8810C
:103CE000F9810488F589E02DCE010995882359F3DF
:103CF0000E94E71FAB01BC014C195D096E097F09E9
:103D00008E899F89A0E0B0E084179507A607B707C2
:103D100098F00E941637A50194010E94783C9B01FF
:103D2000AC012F5F3F4F4F4F5F4FA4E6B0E00E94C2
:103D3000973C0E943F17D3CF80E0DF91CF91FF9057
:103D4000EF90DF90CF90BF90AF909F908F900895AD
:103D5000BF92CF92DF92EF92FF920F931F93CF9378
:103D6000DF937C01C62FD42EB22EC32EFC012181FD
:103D700082819091CE03992379F09FB7F894309186
:103D8000CE03313039F43DB3309351073DB33DBBE1
:103D90009FBF02C0909351072CBD8DBD61E0F7011C
:103DA00080810E946A16DD2011F080E101C080E967
:103DB0008C2B0E94A91DCB2DDC2D0C0F1D1FC017B5
:103DC000D10761F0D11005C080E00E94A91D888351
:103DD00003C088810E94A91D2196F1CF60E0F70100
:103DE00080810E946A168091CE03882361F09FB77C
:103DF000F8942091CE0380915107213019F48DBBA6
:103E00009FBF01C08FBFDF91CF911F910F91FF9096
:103E1000EF90DF90CF90BF900895CF93DF93EB01A9
:103E20000E94303C8883CE01DF91CF9108950F939B
:103E30001F93CF93DF938C01EB010E94303C88836A
:103E4000C80101960E94303C8983CE01DF91CF9159
:103E50001F910F910895CF93DF93EB010E94303CA7
:103E60008883CE01DF91CF9108950F931F93CF9355
:103E7000DF9300D0CDB7DEB78B01FB0160819A8361
:103E80008983CE0101960E94AE0DC8010F900F905C
:103E9000DF91CF911F910F910895EF92FF920F93B1
:103EA0001F93CF93DF9300D0CDB7DEB78C017B019A
:103EB000FB0160819A838983CE0101960E94AE0D39
:103EC000F70161810F5F1F4F1A830983CE010196AD
:103ED0000E94AE0DC7010F900F90DF91CF911F91FF
:103EE0000F91FF90EF9008950F931F93CF93DF935F
:103EF00000D0CDB7DEB78B01FB0160819A83898347
:103F0000CE0101960E94AE0DC8010F900F90DF9177
:103F1000CF911F910F9108950F931F93CF93DF932C
:103F200080914D0790914E07A0914F07B091500797
:103F3000892B8A2B8B2BA9F00E944F0400914D07EF
:103F400010914E0720914F0730915007DC01CB01B3
:103F5000801B910BA20BB30B84389340A105B105D4
:103F600088F181EB95E09F938F93CCEED3E0DF93C4
:103F7000CF930E948C390E944F049F938F937F931D
:103F80006F93DF93CF9382E792E09F938F93DF93BA
:103F9000CF930E947C3361E080912A030E94E51751
:103FA0000E944F0460934D0770934E0780934F0714
:103FB000909350078DB79EB70E960FB6F8949EBF9C
:103FC0000FBE8DBFDF91CF911F910F9108952FB735
:103FD000F894609153077091540780915507909120
:103FE00056072FBF08951F920F920FB60F921124FC
:103FF0002F933F938F939F93AF93BF9380915307DA
:1040000090915407A0915507B091560730915207EF
:1040100023E0230F2D3720F40196A11DB11D05C00B
:1040200026E8230F0296A11DB11D2093520780930D
:10403000530790935407A0935507B0935607809168
:10404000D6039091D703A091D803B091D9030196DC
:10405000A11DB11D8093D6039093D703A093D803DD
:10406000B093D903BF91AF919F918F913F912F91C1
:104070000F900FBE0F901F901895CF93DF93CDB781
:10408000DEB7AF970FB6F894DEBF0FBECDBF789402
:1040900084B5826084BD84B5816084BD85B582604D
:1040A00085BD85B5816085BD80916E0081608093FE
:1040B0006E00109281008091810082608093810067
:1040C0008091810081608093810080918000816077
:1040D000809380008091B10084608093B1008091D2
:1040E000B00081608093B00080917A0084608093FA
:1040F0007A0080917A00826080937A0080917A00C1
:10410000816080937A0080917A00806880937A0041
:104110001092C10060E086E00E94B61661E084E083
:104120000E94B61660E084E00E946A1660E08EE0AD
:104130000E94B61660E083E00E94B61680912303C9
:10414000882311F060E001C062E08FE00E94B616A3
:1041500062E085E00E94B61662E088E00E94B61632
:1041600062E089E00E94B61662E080E10E94B61625
:1041700062E081E10E94B61662E082E10E94B6161A
:1041800062E083E10E94B616E0914804F091490490
:1041900082E08083E0914404F09145041082E09134
:1041A0004604F091470480E1808310925004E0912E
:1041B0004C04F0914D0486E08083E0914A04F09134
:1041C0004B04808180618083E0914A04F0914B042C
:1041D000808188608083E0914A04F0914B04808163
:1041E00080688083E0914A04F0914B0480818F7D48
:1041F000808380E090E00E948E0780E090E00E9443
:104200008E0760E070E08BE990E00E94BF0710919C
:104210005D0760E070E08CE790E00E94EB06C12E45
:10422000D12CE12CF12C19A2CE018196B701A60167
:104230004F7055276627772724E0F694E794D794A4
:10424000C7942A95D1F701974A3051056105710548
:1042500010F4405D01C0495CDC014C93C114D104F1
:10426000E104F10419F70E947E1413FF07C060E017
:1042700070E088E790E00E94EB06177F12FF07C00E
:1042800060E070E084E790E00E94EB061B7F11FF86
:1042900007C060E070E080E790E00E94EB061D7FC1
:1042A00010FF07C060E070E08CE690E00E94EB0633
:1042B0001E7F112331F060E070E088E690E00E94FC
:1042C000EB0680E090E00E948E071DA21CA21BA2BC
:1042D0001AA2FE013196F8A7EFA380E111928A9508
:1042E000E9F7A895BE016B5D7F4F80E090E00E94EA
:1042F0002B1F8DA1853038F490E090930A018093B4
:10430000090111E001C010E0BE016B5D7F4F81E04B
:1043100090E00E942B1F8DA18F3F21F060E00E9452
:104320002B0D01C010E0BE016E5D7F4F82E090E07A
:104330000E94171F8AA19BA1893BFBE09F0728F4DD
:1043400090932E0380932D0301C010E0BE016B5D9E
:104350007F4F84E090E00E942B1F8DA18F3F19F0CA
:1043600080932F0301C010E0BE016E5D7F4F85E09A
:1043700090E00E94171F8AA19BA19C012150310946
:10438000283E3D4F28F4909331038093300301C0C1
:1043900010E0BE016C5D7F4F87E090E00E940D1F32
:1043A0008CA192E0980F973108F45FC310E0BE0132
:1043B0006C5D7F4F88E090E00E940D1F8CA194E619
:1043C000980F953618F48093DC0201C010E0A89590
:1043D000BE016B5D7F4F89E090E00E942B1F8DA195
:1043E0009FEF980F9E3F18F480936F0601C010E076
:1043F000BE016B5D7F4F8AE090E00E942B1F8DA174
:104400009FEF980F9E3F18F480932A0301C010E09D
:10441000BE016B5D7F4F8BE090E00E942B1F8DA152
:104420008F3F19F08093E00201C010E0BE016B5D88
:104430007F4F8CE090E00E942B1F8DA18F3F19F0E1
:104440008093DF0201C010E0BE016B5D7F4F8DE005
:1044500090E00E942B1F8DA19FEF980F9E3F18F4B4
:104460008093DE0201C010E0BE016B5D7F4F8EE0E5
:1044700090E00E942B1F8DA19FEF980F9E3F18F494
:104480008093DD0201C010E080E1AFA1B8A51D92CC
:104490008A95E9F7FE0131967F019FE0C92ED12C64
:1044A0000FA1005FB701C6010E942B1FF701808199
:1044B000FFEFEF1AFF0A80528F3508F010E02FEF60
:1044C000C21AD20A0E11EECF112381F080E1E1EE83
:1044D000F2E0DF01282F1D922A95E9F7FE013196BF
:1044E000A1EEB2E001900D928A95E1F7BE016B5DFD
:1044F0007F4F8FE190E00E942B1F8DA1823058F0FA
:1045000061E070E085E890E00E94BF070E94640DC2
:104510000E945A0304C080932303112389F30E944D
:10452000680C64E070E082E990E00E94BF0788E5D3
:10453000898301E010E09E012F5F3F4F41E060E082
:1045400085ED94E00E94A81E0E948C1F0E944F04DB
:104550006093D6027093D7028093D8029093D902C9
:104560008B019C01005816442846384501381F42EB
:1045700022413E4338F020E041E060E876E488E6FE
:1045800098E512C0E091EA03AEE0EA9FF001112441
:10459000E852FB4F0081118122813381012B022BD4
:1045A000032B21F421E041E00E94C90A13E05C9A48
:1045B00064EF71E080E090E00E943F175C986AEF42
:1045C00070E080E090E00E943F17115081F78091E9
:1045D000D6029091D702A091D802B091D9028093CF
:1045E0003C0390933D03A0933E03B0933F038DE8BB
:1045F00090E09F938F930CEE13E01F930F930E9414
:104600008C3980915D071F928F931F928AE08F9360
:104610001F930F938BE891E09F938F931F930F93BA
:104620000E947C3360E080912A030E94E5170FB658
:10463000F894DEBF0FBECDBF809123038130F1F42B
:104640008FE090E0909391028093900283E393E354
:10465000AEEDB2E48093960290939702A0939802F5
:10466000B093990280E090E0A0E0B4E48093B202BD
:104670009093B302A093B402B093B50299E288E19B
:104680000FB6F894A895809360000FBE90936000D9
:104690009E012F5F3F4F6901CE0182969EA78DA795
:1046A0001E0194E2290E311C8CEEE82E83E0F82ED8
:1046B00081E080939703DE019596BAA7A9A7FE0132
:1046C000B696FCA7EBA780919703873008F0CAC184
:1046D00088E394E00E940D0EA895181619060CF0B8
:1046E0004DC0E0919603E1111DC09C012F7D2A353C
:1046F0003105C1F49091020181E089278093020184
:1047000060E070E089EA90E00E94EB06809102018F
:10471000811103C082EA90E002C086EA90E060E086
:1047200070E018C09C01205231092036310548F054
:104730008D30910511F40C946C2F8830910569F03F
:104740001DC0E732D8F40BC00E94060760E070E09D
:104750008CE092E00E94BF0711C0E73220F488305D
:10476000910509F045C4E150E0939603F0E0E15B68
:10477000FC4F108286EA91E00E947E1480917C03B7
:104780008823D1F080917B03882309F475C10E94AE
:10479000E71F0091770310917803209179033091FE
:1047A0007A03DC01CB01801B910BA20BB30B0A97A0
:1047B000A105B10508F05CC1A8958091960381110F
:1047C0002EC080912D0390912E03892B41F1809171
:1047D0001A0390911B03A0911C03B0911D03892B18
:1047E0008A2B8B2BE1F00E94E71F00911A03109196
:1047F0001B0320911C0330911D03AB01BC01401B26
:10480000510B620B730B80912D0390912E03A0E04E
:10481000B0E0481759076A077B0708F053C1809139
:104820009603811119C18091970380FFA5C08091E3
:10483000280390912903892B89F000912803109176
:1048400029030E944F04980140E050E000E00E94DC
:10485000EB09109229031092280302C00E94FB0862
:1048600080911E03811112C08091EB03882309F40B
:1048700064C08091240390912503A0912603B091F8
:104880002703892B8A2B8B2B09F057C081E00E94CC
:104890000615882309F449C081EC92E09F938F9319
:1048A000FF92EF920E948C392091DF033091E00358
:1048B0004091E1035091E20360911F037091200346
:1048C00080912103909122030E9484069F938F93ED
:1048D0007F936F938091DE038F938091DD038F939D
:1048E0008091DC038F938091DB038F93FF92EF9293
:1048F0008EEB91E09F938F93FF92EF920E947C3317
:1049000060E080912A030E94E5170E944F046093A3
:1049100024037093250380932603909327030FB6F7
:10492000F894DEBF0FBECDBF06C061E070E082EB41
:1049300092E00E94BF0710921E038091EB03843027
:1049400008F0CCC0882309F487C00E944F0400916E
:104950002403109125032091260330912703DC01C5
:10496000CB01801B910BA20BB30B8C329140A105A4
:10497000B10508F0B3C070C0823009F04DC080911D
:1049800000019091010188359240E1F00E944F04AE
:10499000009138031091390320913A0330913B0381
:1049A000AB01BC01401B510B620B730B80913603B2
:1049B00090913703A0E0B0E0481759076A077B07DA
:1049C00008F0C6C18091320390913303A091340363
:1049D000B0913503892B8A2B8B2B09F4C0C10E941F
:1049E0004F0400913203109133032091340330912E
:1049F0003503AB01BC01401B510B620B730B809163
:104A0000000190910101A0E0B0E0481759076A0742
:104A10007B0708F0A4C120C0843019F40E948C1FC9
:104A20001BC08630C9F4809102018823A9F00E943E
:104A30004F0400913C0310913D0320913E033091BF
:104A40003F03DC01CB01801B910BA20BB30B0F9733
:104A5000A105B10508F06EC2809197038F5F809326
:104A6000970331CE0E94CF0E23CE8093DB029FCCE2
:104A700010927B035C981BC00E94E71F0091770394
:104A8000109178032091790330917A03DC01CB01F6
:104A9000801B910BA20BB30B883E9340A105B1057F
:104AA00008F48ACE81E080937B030E940E030E946B
:104AB000E71F609377037093780380937903909353
:104AC0007A037ACE5C9810921A0310921B0310920C
:104AD0001C0310921D0310921903A1CE8091230391
:104AE000813019F48BEC92E002C086EC92E09F9347
:104AF0008F93FF92EF920E948C390F900F900F903E
:104B00000F9080912303813011F084E001C082E096
:104B100080938303E091E903FEE0EF9FD00111242D
:104B2000A852BB4F4D905D906D907C9021E0421A51
:104B3000510861087108EE2311F0E15001C0E9E06D
:104B40003EE0E39FF0011124E852FB4F24813581C0
:104B50004681578160911F0370912003809121034A
:104B6000909122030E9484064B015C01BF92AF9298
:104B70009F926F937F926F925F924F92FF92EF920C
:104B80008EEB91E09F938F93FF92EF920E947C3384
:104B900081E080938203809381030FB6F894DEBF97
:104BA0000FBECDBF1EE080918103882309F4C0C0F1
:104BB0009091820380918303891708F4B9C080E043
:104BC0000E94061580938103882309F4ABC02091CD
:104BD000DF033091E0034091E1035091E2036091E3
:104BE0001F037091200380912103909122030E9462
:104BF000840660937D0370937E0380937F0390937C
:104C000080032091DB033091DC034091DD03509160
:104C1000DE03241535054605570508F464C06815FC
:104C200079058A059B0508F45EC0DC01CB01881973
:104C30009909AA09BB09BF93AF939F938F93E09102
:104C4000E9031E9FF0011124E852FB4F80819181FE
:104C5000A281B381821B930BA40BB50BBF93AF93BF
:104C60009F938F93FF92EF92A9ECB1E0BF93AF9324
:104C7000FF92EF920E947C330FB6F894DEBF0FBE16
:104C8000CDBF80912303813071F54090E3035090B4
:104C9000E4036090E5037090E60320E030E048EC28
:104CA00052E4C301B2010E9454320E948B31CB0105
:104CB00064E670E00E9492309F938F93C301B2012B
:104CC0000E948B317F936F93FF92EF92A4EDB1E03E
:104CD000BF93AF93FF92EF920E947C330FB6F8948C
:104CE000DEBF0FBECDBFE091E9031E9FF00111248E
:104CF000E852FB4F40805180628073808091DB03DB
:104D00009091DC03A091DD03B091DE03481A590AAB
:104D10006A0A7B0A80907D0390907E03A0907F03B7
:104D2000B0908003809182038F5F809382033BCF9A
:104D300060E080912A030E94E5170E944F0460936F
:104D4000240370932503809326039093270384CE36
:104D500088E592E0909301018093000133CE109298
:104D6000860310918603133068F48EE00E942817A2
:104D700064E670E080E090E00E943F171F5F1093B0
:104D80008603EFCF1092850310928403109286035E
:104D9000109186031A3088F48EE00E942817209123
:104DA000840330918503820F931F90938503809332
:104DB00084031F5F10938603EBCF8091840390914F
:104DC00085036AE070E00E947E3080E090E00E94FF
:104DD000C13126E636E24BE953E40E9419312DEC4D
:104DE0003CEC4CE650E40E94543220E030E04AE7CC
:104DF00054E40E9454320E9492317093880360936D
:104E0000870364E070E080ED92E00E94EB0664E0CE
:104E100070E080918703909188030E94A00D0E940A
:104E20004F0400913C0310913D0320913E033091CB
:104E30003F03DC01CB01801B910BA20BB30B8093D2
:104E4000890390938A03A0938B03B0938C0380EE25
:104E500092E09F938F93FF92EF920E948C39F09192
:104E60003003A0913103E0912F0360912D037091E5
:104E70002E0330912C0320912B03422F022E000C85
:104E8000550B80915707909158070F900F900F90F6
:104E90000F90009711F48EE597E0AF93FF931F9268
:104EA000EF937F936F931F923F935F932F93D6015E
:104EB000A81BB90BCD019F93AF93809190038F9363
:104EC00080918F038F9380918E038F9380918D03B8
:104ED0008F9380918C038F9380918B038F9380911C
:104EE0008A038F93809189038F93809188038F9396
:104EF000809187038F93FF92EF928FED91E09F93C4
:104F00008F93FF92EF920E947C3361E080912A039D
:104F10000E94E5170E944F0460933203709333039D
:104F200080933403909335030FB6F894DEBF0FBE21
:104F3000CDBF92CD0E944F04609392037093930370
:104F4000809394039093950380E796E00E940F115D
:104F500061E08AE00E946A1661E087E00E946A16BA
:104F600088E394E00E94AD0E0FB6F894A895809166
:104F70006000886180936000109260000FBE20E0A6
:104F800030E040E050E06AE070E081E993E00E94A8
:104F9000391099E288E10FB6F894A89580936000E3
:104FA0000FBE909360000E944F0400918D031091FA
:104FB0008E0320918F033091900340909203509084
:104FC00093036090940370909503041915092609C2
:104FD0003709DC01CB01800F911FA21FB31F809303
:104FE0008D0390938E03A0938F03B093900334CDE1
:104FF0008D30910509F05CC780E090E00E948E073B
:105000008091960310929603882309F4B7CB84E12C
:10501000AFA1B8A51D928A95E9F710927D03109271
:105020007E0310927F03109280036DEA72E08FE49A
:1050300093E00E945006813029F40E949D0701E010
:1050400010E002C000E010E068EA72E08FE493E054
:105050000E945006813009F03BC1E091EA038EE0E6
:105060008E9FF0011124E852FB4FABEDB3E00190AD
:105070000D928A95E1F70E94060760E070E082EAEF
:1050800092E00E94EB0660911F03709120038091D3
:1050900021039091220320E030E0A9010E948406C0
:1050A00040E050E00E947C0760E070E08BE992E015
:1050B0000E94EB062091DF033091E0034091E10371
:1050C0005091E20360911F037091200380912103AE
:1050D000909122030E94840640E050E00E947C07E9
:1050E00080E090E00E948E070E9453056093400389
:1050F0007093410380934203909343030E940607F9
:1051000060E070E089EB90E00E94EB066091400364
:105110007091410380914203909143030E94AE1429
:1051200060E070E080EB90E00E94EB0620E030E071
:1051300046E653E46091400370914103809142033D
:10514000909143030E9454320E94AE1460E070E0DC
:105150008EEA90E00E94BF070E94060760E070E0C0
:1051600086E992E00E94EB06809128039091290342
:1051700060E070E00E94A00D0E94060760E070E011
:105180008AE892E00E94EB068091EB0360E070E019
:1051900090E00E941C0D0E94060760E070E080E82D
:1051A00092E00E94EB0660912403709125038091A8
:1051B00026039091270340E050E00E945C0780E0C6
:1051C00090E00E948E070E94060760E070E087E78B
:1051D00092E00E94EB068091EA0360E070E090E0CC
:1051E0000E941C0D0E94060760E070E08FE692E0CE
:1051F0000E94EB068091E90360E070E090E00E947D
:105200001C0D0E94060760E070E08FEB90E00E94AA
:10521000BF0710E0812F0E94DE071F5F1A30D1F711
:105220000E94060760E070E089E692E00E94EB06CB
:1052300060E070E080918703909188030E94A00D48
:105240000E94060760E070E084E692E00E94EB06B0
:105250008091570790915807009711F48EE597E0D9
:1052600060E070E0EDA5FEA5E81BF90BCF010E9400
:10527000A00D0E94060760E070E08FE592E00E94BA
:10528000EB0680910201811103C084E592E002C027
:1052900086E592E060E070E00E94BF070E9406078A
:1052A00060E070E088E592E00E94EB0660918D037B
:1052B00070918E0380918F039091900340E050E0B5
:1052C0000E945C0780E090E00E948E0702E010E000
:1052D0006FE472E08FE493E00E945006813051F455
:1052E00090912303913009F480E08093230301E03F
:1052F00010E003C00230110541F06FE472E08FE46A
:1053000093E00E945006813069F40E940607809164
:105310002303813009F474C585E492E060E070E015
:105320000E94BF0760E472E08FE493E00E945006A1
:10533000813021F40E94640D01E010E06BE372E023
:105340008FE493E00E945006823081F5EFE4F3E0B1
:1053500001900020E9F7AF014555534064E573E043
:10536000C6010E946D3340E050E060E070E0C6018D
:105370000E94353860937D0370937E0380937F0392
:1053800090938003611571058105910539F020E046
:1053900041E00E94C90A01E010E00BC00E9406072C
:1053A00060E070E082E392E00E94EB0602301105BB
:1053B00049F06BE372E08FE493E00E94500688238B
:1053C00009F46CC00E94060784E493E00E94CE03B7
:1053D00060E070E080ED90E00E94EB0620914403D5
:1053E00040904503709046035090480360904903F5
:1053F00080914A034091090150910A0157FD39C03B
:1054000090E08E54984F2FA70E94470760E070E00D
:105410008CEC90E00E94EB06862D90E00E944707FE
:1054200060E070E08AEC90E00E94EB06852D90E051
:105430000E94470760E070E088EC90E00E94EB0675
:10544000872D90E00E94470760E070E086EC90E0D6
:105450000E94EB06842D90E00E94470760E070E018
:1054600084EC90E00E94EB062FA5822F90E00E9432
:10547000470760E070E08EEC90E00E94EB060E942F
:105480004F0440E050E00E945C0780E090E00E9402
:105490008E070230110511F001E010E06DE272E0BC
:1054A0008FE493E00E945006823009F043C0EFE49D
:1054B000F3E001900020E9F7AF014555534064E562
:1054C00073E081EF92E00E946D3367E272E081EF5A
:1054D00092E00E945006813019F481E090E021C0F2
:1054E00062E272E081EF92E00E945006813019F48E
:1054F00082E090E016C06DE172E081EF92E00E94E0
:105500005006813019F483E090E00BC067E172E04F
:1055100081EF92E00E945006813009F015C984E0C5
:1055200090E090930A01809309010E945A0301E0E0
:1055300010E003C00230110541F06DE272E08FE42B
:1055400093E00E9450068823C1F00E94060760E0A5
:1055500070E084E092E00E94EB0660E08091090137
:1055600090910A010E94C60680E090E00E948E079A
:105570000230110511F001E010E06FEF71E08FE4EF
:1055800093E00E945006823079F5EFE4F3E0019059
:105590000020E9F7AF014555534064E573E081EF22
:1055A00092E00E946D33E1EFF2E001900020E9F714
:1055B000E250F34049F00E94060760E070E087EF98
:1055C00091E00E94BF0710C080E1E1EFF2E0A1EEA0
:1055D000B2E001900D928A95E1F70E945A030E9471
:1055E000680C01E010E003C00230110541F06FEFDC
:1055F00071E08FE493E00E9450068823C9F00E9476
:10560000060760E070E082EF91E00E94EB0640E167
:1056100050E061EE72E088E394E00E94CF0D80E0FC
:1056200090E00E948E070230110511F001E010E0B9
:105630006DEE71E08FE493E00E945006823009F035
:105640004CC0EFE4F3E001900020E9F7AF014555CD
:10565000534064E573E081EF92E00E946D331EA237
:105660001DA21CA21AA23EA53F934DA54F933F92A7
:105670002F928AA58F9399A59F93ACA5AF93BBA5B5
:10568000BF938AEA91E09F938F9381EF92E09F937B
:105690008F930E949F330FB6F894DEBF0FBECDBF2D
:1056A000049749F00E94060760E070E084EE91E004
:1056B0000E94BF0712C08EA18093E0028DA180934B
:1056C000DF028CA18093DE028AA18093DD020E941A
:1056D0005A030E94680C01E010E00230110509F441
:1056E00092C36DEE71E08FE493E00E945006811149
:1056F0008AC36FED71E08FE493E00E945006823020
:10570000D9F5EFE4F3E001900020E9F7AF0145554A
:10571000534064E573E0C6010E946D3340E050E001
:1057200060E070E0C6010E94353860937D0370939D
:105730007E0380937F03909380032B013C01F1E073
:105740004F1A5108610871082DEF42165104610487
:10575000710448F00E94060760E070E086ED91E079
:105760000E94BF0709C060932A030E945A030E9447
:10577000680C01E010E003C00230110541F06FED4C
:1057800071E08FE493E00E9450068823A1F00E940C
:10579000060760E070E080ED91E00E94EB068091EA
:1057A0002A0360E070E090E00E941C0D02301105B9
:1057B00011F001E010E06BEC71E08FE493E00E94E7
:1057C00050068230D9F5EFE4F3E001900020E9F7CC
:1057D000AF014555534064E573E0C6010E946D3347
:1057E00040E050E060E070E0C6010E943538609310
:1057F0007D0370937E0380937F03909380032B013E
:105800003C0131E0431A5108610871084DEF44161C
:1058100051046104710448F00E94060760E070E0E2
:1058200082EC91E00E94BF0709C060936F060E945E
:105830005A030E94680C01E010E003C00230110519
:1058400041F06BEC71E08FE493E00E9450068823F6
:10585000A1F00E94060760E070E08CEB91E00E94EE
:10586000EB0680916F0660E070E090E00E941C0DF6
:105870000230110511F001E010E067EB71E08FE4F8
:1058800093E00E945006823069F5EFE4F3E0019066
:105890000020E9F7AF014555534064E573E0C601C8
:1058A0000E946D3340E050E060E070E0C6010E946D
:1058B000243770934E0360934D039B012C593F4F47
:1058C0002536310548F00E94060760E070E08EEA58
:1058D00091E00E94BF0706C06093DC020E945A0359
:1058E00001E010E069EA71E08FE493E00E94500665
:1058F000823059F5EFE4F3E001900020E9F7AF01C1
:105900004555534064E573E0C6010E946D3340E0A5
:1059100050E060E070E0C6010E942437862F60935B
:105920004B0370934C0392E0960F973130F461E093
:105930000E94791701E010E00BC00E94060760E0AA
:1059400070E08FE991E00E94BF070230110589F0F5
:1059500067EB71E08FE493E00E945006811109C06B
:1059600069EA71E08FE493E00E945006882309F40D
:1059700049C00E94060760E070E087E991E00E945C
:10598000EB068091DB0260E070E0082E000C990BC2
:105990000E941C0D0E94060760E070E08DE891E017
:1059A0000E94EB068091DC0260E070E0082E000CA3
:1059B000990B0E941C0D0E94060760E070E080E8D1
:1059C00091E00E94EB0680912B0360E070E0082ECE
:1059D000000C990B0E941C0D0E94060760E070E00D
:1059E00083E791E00E94EB068091DA0260E070E0CC
:1059F000082E000C990B0E941C0D0230110511F0AD
:105A000001E010E06EE671E08FE493E00E94500642
:105A1000823009F05FC0EFE4F3E001900020E9F785
:105A2000AF014555534064E573E0C6010E946D33F4
:105A300040E050E060E070E0C6010E9435386093BD
:105A40007D0370937E0380937F03909380036115A1
:105A5000AEE57A07A0ED8A07A2EB9A07D8F5609326
:105A60001F037093200380932103909322030E94CD
:105A70004F0401E020E030E0A9010E94EB090E9400
:105A8000060760E070E081E691E00E94EB06E0919D
:105A9000EA03BEE0EB9FF0011124E852FB4F2481A2
:105AA00035814681578160911F0370912003809159
:105AB0002103909122030E94840640E050E00E945E
:105AC0007C0780E090E00E948E0781E080931E03B7
:105AD00001E010E06CE571E08FE493E00E94500675
