:100000000C9400030C94920F0C946B0F0C942A0325
:100010000C942A030C942A030C9486180C942A033B
:100020000C942A030C942A030C942A030C942A039C
:100030000C942A030C942A030C942A030C942A038C
:100040000C9426200C942A030C94F80F0C94D20FD5
:100050000C942A030C942A030C942A030C942A036C
:100060000C942A030C942A0320554E0020504F0074
:100070002045580020424F0020574400525F464C14
:100080004720307800524F4D2042616400474D5365
:10009000470052544320496E6974003D424F4F540B
:1000A0003D005700412C2050524D533D0049524DC8
:1000B000533D004D74723D003A003A0020002D007F
:1000C0002D002F0054696D653D002E002E002E007E
:1000D0004E65742049643D0042616420436D6400B4
:1000E0004C45442050756C7365286D73293D004262
:1000F0006164204C45442074696D65004C4544544E
:10010000004C45443D313A00426164204C45442056
:1001100072617465004C454452004F4646004F4E94
:1001200000546573743D0054455354004D7472205F
:10013000496E74657276616C3D004D5452490049B8
:100140006D702F6B57683D0042616420496D702FC0
:100150006B5768004D54525200536574204D7472B1
:100160002056616C3D004D54525600417667205236
:1001700053534940477761793D004C617374204780
:10018000776179205353493D00546774205253538B
:10019000493D00545820506F773D0042616420541F
:1001A0005820506F770054585057004261642052D5
:1001B0005353490054525353004E6F6465204964B1
:1001C0003D00426164204E6F6465204964004E4FDB
:1001D000494400477761792049643D0042616420C9
:1001E0004777617920496400475749440042616478
:1001F0002041646472004E455449004B65793D00CE
:10020000426164204B657900454B4559004C6F674E
:100210004C65763D00426164204C6F674C6576000A
:10022000444542554700494E464F005741524E0003
:100230004552524F52004C4F474C0042616420548B
:10024000696D650054494D4500524346470043548B
:100250003D4E0043543D59004354434C004E005919
:1002600000536C6570743D0043616E20536C703DAB
:1002700000467265652052414D3D00426174742014
:10028000286D56293D00506F702049783D0050750B
:1002900073682049783D004C617374204D55503D82
:1002A00000436C6F73656420456E743D0052617746
:1002B0003D002C2056616C3D004261736520566103
:1002C0006C3D0044554D500048454C500041646A17
:1002D000204F66660041646A204F6E004E6F2070AA
:1002E00072696F7220656E747279004D52454200DA
:1002F0004D55505F004D5550430042617474657216
:1003000079205620286D56293D0047494E52005A03
:10031000003000203E2000205768002000C8020F57
:10032000035802C3024902440236020802F601E8F9
:1003300001CE01B401A601660154013A012701155D
:1003400001FC00436D64733A20003D005D002C0009
:100350002C002C003D5B004F70656E6564200043EF
:100360006C6F7365642000416C676E3D6D6D3A3053
:1003700030004C454420313A004D73674D67722080
:100380006661696C002C2041766720525353493DC9
:10039000005458506F773D004F4646004F4E005373
:1003A0006C703D00556E6B206D73673A2000476F8F
:1003B000742062636173743A20004D4E4F490047C8
:1003C0006F7420505253502E204E6F207570646110
:1003D00074650020746F2000476F74205052535092
:1003E0003A20005052535000476F742062616420DD
:1003F0004D504C4900204C45442050756C7365208D
:10040000286D73293D00476F74204D504C493A20A8
:10041000004D504C4900476F7420626164204D4983
:100420004E4900207365637320746F2000476F741A
:10043000204D494E493A20004D494E4900476F74BE
:1004400020626164204D56414900476F74204D562B
:1004500041493A20004D56414900476F742062617E
:100460006420474954520073007320666F72200065
:10047000476F7420474954523A200047495452006C
:100480002E2052535349203D2000476F74206D7336
:10049000673A200053656E64206661696C3A2000FB
:1004A0004E6F2041434B20726563760053656E6446
:1004B000696E673A20004D736720746F6F206C6F10
:1004C0006E673A20005052455100003E800052F4C1
:1004D000F4D0003415004FF4F4D0001A0B009DF452
:1004E000F4D0000D05013BF4F4D00006830275F34F
:1004F000F3D000034104EAF2F2D000022C07AEE28E
:10050000E2D00001000800E1E1D00000801000E02E
:10051000E0D000024003334242D0013E800052F45A
:10052000F5D0013415004FF4F4D0011A0B009DF4FE
:10053000F4D0010D05013BF4F4D00106830275F3FC
:10054000F3D001034104EAF2F2D001022C07AEE23B
:10055000E2D00101000800E1E1D00100801000E0DC
:10056000E0D001024003334242D0087D00001088F1
:1005700088D008682B0010F1F1D00834150010F570
:10058000F5D0081A0B0010F4F4D0080D050010F394
:10059000F3D00806830010F2F2D00803E80010E25E
:1005A000E2D000000000240027002A000102040815
:1005B00010204080010204081020010204081020CD
:1005C00004040404040404040202020202020303F9
:1005D0000303030300000000250028002B00000097
:1005E00000080002010000030407000000000000F2
:1005F00000006364696E6F70737578585B00C0307B
:100600002092670711241FBECFEFD8E0DEBFCDBF19
:1006100012E0A0E0B1E0E2E8FCE702C005900D9234
:10062000AA37B107D9F727E0AAE7B2E001C01D92C7
:10063000A736B207E1F712E0C0E0D3E004C021978B
:10064000FE010E94F531CF3FD107C9F70E9470200B
:100650000C943F3E0C940000809128039091290354
:1006600001969093290380932803A89580912C03E9
:10067000882351F120912D0330912E03232B99F0E3
:10068000813089F080911903823068F080912C03C9
:100690008230D0F090911903923088F49091190330
:1006A000923090F40FC05C9A0E94601F60931A030E
:1006B00070931B0380931C0390931D03E7CF8091DD
:1006C0001903815080931903089589B1887080932C
:1006D000C403883011F40C942C035C980895BC0179
:1006E00081EF92E00E94B33A81EF92E00C94941C67
:1006F0000F931F93CF93DF931F92CDB7DEB7A895CB
:10070000809109018983BE016F5F7F4F80E090E097
:100710000E9491106CE273E081E090E00E949110E1
:100720006DE273E082E090E00E946A106FE273E095
:1007300084E090E00E94911060E373E085E090E037
:100740000E946A106BED72E087E090E00E94521008
:10075000A8956CED72E088E090E00E9452106EED7A
:1007600076E089E090E00E9491106AE273E08AE00E
:1007700090E00E94911060EE72E08BE090E00E94A9
:1007800091106FED72E08CE090E00E9491106EEDA0
:1007900072E08DE090E00E9491106DED72E08EE0CD
:1007A00090E00E9491100FE010E0B8016E527D4F72
:1007B000C8010E9491100F5F1F4F0F311105A9F75B
:1007C00063E273E08FE190E00E9491100F90DF915F
:1007D000CF911F910F910895EF92FF920F931F9366
:1007E000CF93DF93CDB7DEB727970FB6F894DEBF70
:1007F0000FBECDBF7C0160E087E00E94871E07E04E
:1008000010E09E012F5F3F4F40E062E084E495E0FE
:100810000E9421188981982F9695969596959E709D
:10082000292F220F220F920F8F70890FF7018083DB
:100830008A81982F9695969596959E70292F220FCE
:10084000220F920F8F70890F81838B81982F96953D
:10085000969596959670292F220F220F920F8F70E2
:10086000890F82838C81982F969596959695967090
:10087000292F220F220F920F8F70890F84838D8171
:10088000877083838E81982F969596959695927012
:10089000292F220F220F920F8F70890F85838F814E
:1008A000982F9695969596959E71292F220F220F37
:1008B000920F8F70890F868361E087E00E94871E08
:1008C00027960FB6F894DEBF0FBECDBFDF91CF9154
:1008D0001F910F91FF90EF9008958F929F92AF928A
:1008E000BF92CF92DF92EF92FF920F931F93CF931D
:1008F000DF9385EC93E00E94EC03E091CB03AE2FF5
:10090000B0E020E833E341EE51E00E94E63D4B01C8
:100910005C0122EB37E0FD01C4E6D0E000E911E024
:10092000C901825B97408E179F07DCF4C901837071
:100930009927892B99F4C901BE010E94E131892BC5
:1009400031F4C901B8010E94E131892B39F480E802
:10095000880E81E5981E81E0A81EB11C2F5F3F4FD5
:10096000DFCF0091CA0310E0EE54F84FCF0164E6E8
:1009700070E00E94E1317C01CF0160E971E00E94EA
:10098000E1316C01C1E0D0E0E370FF27C017D1076F
:1009900024F5C230D10581F4309771F4E114F104EB
:1009A00019F4C114D10441F480E8880E8BE3981E39
:1009B00086E2A81EB11C0FC0DE01AC5EBE4FAC913A
:1009C000B0E020E831E541E050E00E94E63D860ECF
:1009D000971EA81EB91E2196D9CF4091C60320911B
:1009E000C70330E0A0E1BEE00E94303E6B017C0115
:1009F000242F30E0ACE3B0E00E94303EDC01CB01BC
:100A00008C0D9D1DAE1DBF1D2091C5036C017D0188
:100A1000C20ED11CE11CF11CA091C903B0E01197DA
:100A200020E831E541E050E00E94F13DDC01CB01DE
:100A30008C0D9D1DAE1DBF1DBC01CD01680D791D26
:100A40008A1D9B1DDF91CF911F910F91FF90EF9019
:100A5000DF90CF90BF90AF909F908F9008958F922E
:100A60009F92AF92BF92CF92DF92EF92FF920F933D
:100A70001F93CF93DF93EC016A017B0188809980FB
:100A8000AA80BB800E946D04C80CD91CEA1CFB1C08
:100A900097018601061B170B280B390B48015901DA
:100AA0000093CC039092CD03A092CE03B092CF03DB
:100AB0001092D0031092D1031092D2031092D3035C
:100AC000088319832A833B83DF91CF911F910F9174
:100AD000FF90EF90DF90CF90BF90AF909F908F905E
:100AE00008954F925F926F927F928F929F92AF92F2
:100AF000BF92CF92DF92EF92FF92CF93DF938091DC
:100B00002303811104C0C12CD12C7601D6C08EE400
:100B100080937C0062E070E080E090E00E94261FFD
:100B200080917A00806480937A0080917A0086FDBB
:100B3000FCCF809178002091790030E0322F22277D
:100B4000A901330F660B770B9A01AB01282B60E0EC
:100B500070E381E190E00E94C73D69017A01C8EC31
:100B6000D5E0809190020E940F1F9093A102809384
:100B7000A002BC01990F880B990B0E9412334B0104
:100B80005C014090B2025090B3026090B402709049
:100B9000B502A30192010E94FB3120E030E040E861
:100BA0005AE30E94A3339B01AC01C301B2010E942E
:100BB000FC319B01AC016093B2027093B30280934D
:100BC000B4029093B502C501B4010E94FB31609359
:100BD000AA027093AB028093AC029093AD029B018A
:100BE000AC010E94A3336093C2027093C30280934E
:100BF000C4029093C5022091C6023091C702409171
:100C0000C8025091C9020E94FC316093C6027093E1
:100C1000C7028093C8029093C902219709F0A1CF1F
:100C200020E030E049EB54E40E9468320E94163420
:100C30004B015C01B601DD0C880B990B0E9412334D
:100C400020E030E04AE754E40E94683220E030E0DF
:100C500040E85AE30E94A333209196023091970214
:100C600040919802509199020E94A333A5019401EA
:100C70000E94A3336B017C0160938A0270938B0204
:100C800080938C0290938D021092C6021092C7023C
:100C90001092C8021092C9026093BB037093BC0308
:100CA0008093BD039093BE032AE939E949E95EE3E5
:100CB0000E949E3318160CF026CFC701B601DF91B3
:100CC000CF91FF90EF90DF90CF90BF90AF909F902B
:100CD0008F907F906F905F904F9008950F931F9328
:100CE000CF93DF938C01EB018AEB93E00E94B33A40
:100CF0006AE473E08AEB93E00E94A83AEAEBF3E03F
:100D000001900020E9F73197AF014A5B53406AEB4D
:100D100073E0C8010E94A434892B69F0CE010E94BF
:100D2000BA3AAC01BE01C8010E94C33A21E0892B46
:100D300019F020E001C022E0822FDF91CF911F91B6
:100D40000F9108958F929F92AF92BF92CF92DF92B0
:100D5000EF92FF9249015A010E94103320E030E0E7
:100D600040E05FE30E94FC316B017C01C501B401EE
:100D70000E9410334B015C0180913003909131034C
:100D8000BC0180E090E00E9410339B01AC0160E068
:100D900070E08AE794E40E9468329B01AC01C501CF
:100DA000B4010E94A3339B01AC01C701B6010E94AC
:100DB000FC310E94E132FF90EF90DF90CF90BF9026
:100DC000AF909F908F900895CF93009701F1C62F19
:100DD0008130910519F480E392E010C082309105D2
:100DE00019F48BE292E00AC08330910519F486E28F
:100DF00092E004C0049721F480E292E00E946F0325
:100E0000CC2329F083E092E0CF910C94941CCF91F5
:100E10000895CF93DF932091090130910A0126179D
:100E200037077CF09B01EC0180910801882321F0B9
:100E300061E0C9010E94E406CE010E94FB1C1092F1
:100E40000801DF91CF91089560E070E083E193E0C5
:100E50000C940907CF93DF932091090130910A0187
:100E6000261737077CF09B01EC018091080188234D
:100E700021F061E0C9010E94E406CE010E94941CA9
:100E800010920801DF91CF910895CF93DF93EA018B
:100E90009F938F937F936F9386E092E09F938F93BE
:100EA0008EEA93E09F938F930E94CB348DB79EB7C9
:100EB00008960FB6F8949EBF0FBE8DBFBE018EEA96
:100EC00093E0DF91CF910C942A07CF93DF93EC014D
:100ED0000A9734F460E070E081E193E00E94090732
:100EE000BE01DD0F880B990B40E050E0DF91CF9100
:100EF0000C944507CF93DF93EA019F938F937F93E1
:100F00006F938DE692E09F938F9382EA93E09F9395
:100F10008F930E94CB348DB79EB708960FB6F89486
:100F20009EBF0FBE8DBFBE0182EA93E0DF91CF91DD
:100F30000C942A072091090130910A0124173507E2
:100F400054F040E050E00E947A0760E070E087E1F2
:100F500093E00C94090708952091090130910A014A
:100F6000281739073CF08AE092E00E94941C81E047
:100F7000809308010895CF93DF930E94240760E0D7
:100F800070E083E493E00E940907CDE1D3E0FE0125
:100F9000859194910E946F0360E070E08BE193E093
:100FA0000E940907229683E0C134D80781F780E0C8
:100FB00090E0DF91CF910C94AC070F931F93CF93E8
:100FC000DF938C01EB018091090190910A01861752
:100FD00097075CF080910801882321F061E0CE0141
:100FE0000E94E406C8010E94FB1CCE01DF91CF9154
:100FF0001F910F910C94AC07CF93DF93C82F0E94E1
:1010000024070E9424076C2F70E080E090E040E00D
:1010100050E00E94450760E070E084E593E00E94A4
:1010200009078EE0C89FE0011124C95BDA4F68818F
:1010300079818A819B8140E050E00E947A0760E0DC
:1010400070E082E593E00E9409076C817D818E81CA
:101050009F8140E050E00E947A0760E070E080E508
:1010600093E00E940907688579858A859B850E949F
:10107000C41C60E070E08EE493E00E9409076C8578
:101080007D85072E000C880B990B40E050E00E94F4
:10109000450760E070E08CE493E0DF91CF910C9421
:1010A000DD07CF92DF92EF92FF92CF93A89588232E
:1010B00089F0E0905904F12C0E9471052EE02E9DDC
:1010C000F0012F9DF00D1124E95BFA4F60877187C5
:1010D00082879387E09159048EE0E89FF001112404
:1010E000E95BFA4F82E090E09587848764E070E0E6
:1010F0008FE593E00E9409078091090190910A0110
:10110000049724F0809159040E94FC0780915904AF
:1011100090E001966AE070E00E94E131809359040A
:1011200020915A042A3018F42F5F20935A04009714
:1011300019F0EFEFE80F01C0E9E020912F03CEE0B6
:10114000CE9FF0011124E95BFA4FC080D180E2808C
:10115000F380C20ED11CE11CF11CC89FF001C99F95
:10116000F00D1124E95BFA4FC082D182E282F38252
:101170000E946D046C157D058E059F0580F4E0903E
:101180005904F12C0E946D04CE9DF001CF9DF00D0D
:101190001124E95BFA4F6083718382839383E0912A
:1011A00059048E2F90E0009711F0E15001C0E9E062
:1011B0002EE02E9FF0011124E95BFA4F4481558106
:1011C00066817781289FF001299FF00D1124E95B4A
:1011D000FA4F44835583668377831086118612867F
:1011E000138681E090E09587848764E070E087E56E
:1011F00093E00E9409078091090190910A010497E8
:1012000024F0809159040E94FC0780915804909129
:101210005904891308C090E001966AE070E00E94CA
:10122000E13180935804CF91FF90EF90DF90CF9001
:1012300008950F931F93CF93A8958091030188235E
:1012400081F00E946D040091D4031091D503209188
:10125000D6033091D703601771078207930708F010
:10126000A2C080912F03882319F10E946D04E091A0
:1012700059042EE0E29FF0011124E95BFA4F00814E
:10128000118122813381AB01BC01401B510B620BE8
:10129000730B80912F0390E0A0E0B0E0481759074E
:1012A0006A077B0728F084859585019709F4A8C013
:1012B000E0915904CEE0CE9FF0011124E95BFA4F92
:1012C00084859585029709F0A0C00E946D04209145
:1012D0002F0330E0220F331F8901330F220B330B12
:1012E000DC01CB01801B910BA20BB30BE0915904E5
:1012F000CE9FF0011124E95BFA4F00811181228118
:101300003381081719072A073B0730F50E946D043F
:10131000E0915904CE9FF0011124E95BFA4F00815E
:10132000118122813381601B710B820B930B209101
:101330002F0330E040E050E00E94A53DDA01C901F2
:101340000197A109B1098093BF039093C003A093B3
:10135000C103B093C20308C01092BF031092C00330
:101360001092C1031092C20381E090912303911166
:1013700001C080E00E945108C0E08C2F90E0A0E006
:10138000B0E04091BF035091C0036091C1037091E0
:10139000C20384179507A607B707B8F580E00E9437
:1013A0005108CF5FEACF63E070E087E693E00E94E8
:1013B000DD0781E090912303911101C080E00E943C
:1013C0005108E09159048EE0E89FF0011124E95B97
:1013D000FA4F8091D4039091D503A091D603B09198
:1013E000D70380839183A283B38310920301109269
:1013F000D4031092D5031092D6031092D70331CFA5
:1014000082E090E09587848753CFCF911F910F9111
:1014100008958F929F92AF92BF92CF92DF92EF92F8
:10142000FF920F93CF93DF934B015C0169017A0127
:1014300080912F03882309F447C0011145C00E9401
:101440001909E0915904CE2FD0E03EE0E39FF0016E
:101450001124E95BFA4F84809580A680B7808C0CBC
:101460009D1CAE1CBF1C60911F03709120038091D6
:10147000210390912203A50194010E94A20621E07C
:1014800061157A4E86459A4F08F420E02093C303F5
:10149000222369F010921F0310922003109221035F
:1014A0001092220381E080931E03460157018EE0D3
:1014B0008C9FF0018D9FF00D1124E95BFA4F84821F
:1014C0009582A682B78277C0E09159048EE0E89FAA
:1014D000F0011124E95BFA4F84819581A681B781DF
:1014E000892B8A2B8B2B41F081E090912303911162
:1014F00001C080E00E945108E0915904CE2FD0E055
:101500003EE0E39FF0011124E95BFA4F8082918273
:10151000A282B38284819581A681B781A7019601B9
:10152000280F391F4A1F5B1F60911F037091200312
:1015300080912103909122030E94A20621E061156F
:101540007A4E86459A4F08F420E02093C303222365
:1015500041F010921F031092200310922103109269
:10156000220381E080931E038EE08C9FF0018D9F0B
:10157000F00D1124E95BFA4FC482D582E682F7822E
:1015800081E090912303911101C080E00E945108F5
:10159000002389F0C0915904D0E00E946D042EE030
:1015A0002C9FF0012D9FF00D1124E95BFA4F608311
:1015B000718382839383DF91CF910F91FF90EF909E
:1015C000DF90CF90BF90AF909F908F9008952F9213
:1015D0003F924F925F926F927F928F929F92AF92C3
:1015E000BF92CF92DF92EF92FF920F931F93CF9310
:1015F000DF93CDB7DEB72D970FB6F894DEBF0FBEE1
:10160000CDBF6B017C0148872987AB01BC018CE30E
:1016100093E00E942F05B701A60182E393E00E94A8
:101620002F05B701A60188E393E00E942F05B701BB
:10163000A60184E293E00E942F05B701A6018CED7C
:1016400093E00E942F05B701A60188ED93E00E9468
:101650002F058CE3882E912CA12CB12CC701B6014B
:10166000A50194010E94A53D562ECA01B901A5010C
:1016700094010E94A53D462ECA01B90128E130E03F
:1016800040E050E00E94A53D69017A01362ECA0172
:10169000B9016C5F7F4F8F4F9F4F27E030E040E0F4
:1016A00050E00E94A53D22242394260E812C912CEB
:1016B000540140E094E6692E712C00E911E0242FDA
:1016C00030E02E54384FF901E370FF27309789F44A
:1016D000C901B3010E94E131892B31F4C901B8017C
:1016E0000E94E131892B29F48EE691E0A0E0B0E080
:1016F00004C08DE691E0A0E0B0E0880E991EAA1E1D
:10170000BB1ED501C401AA27BB27C816D906EA0605
:10171000FB0610F04F5FD3CF309799F4C90164E610
:1017200070E00E94E131892B39F4C90160E971E070
:101730000E94E131892B29F48EE691E0A0E0B0E02F
:1017400004C08DE691E0A0E0B0E0881A990AAA0AE8
:10175000BB0AC818D908EA08FB08C90164E670E0AA
:101760000E94E1318C01C90160E971E00E94E13120
:10177000A5E1B1E030E0313041F4309751F401158A
:10178000110529F4009729F402C02C9103C02DE122
:1017900001C02CE1822E912CA12CB12CC814D904AB
:1017A000EA04FB0440F0C818D908EA08FB083F5FC8
:1017B00011963C3001F73F5FC3942AE0852D622FDC
:1017C0000E94C13150E1859FB0011124692B6983CA
:1017D000842D622F0E94C13150E1859FB0011124F8
:1017E000692B6A83832D622F0E94C13150E1859F4E
:1017F000B0011124692B6B838C2D622F0E94C131A3
:10180000592F60E1869FC0011124852B8C83822D86
:10181000622F0E94C1319D83832F0E94C131392FD5
:1018200050E1859FC0011124832B8E83842F0E9459
:10183000C131292F60E1869FC0011124822B8F8343
:1018400007E010E09E012F5F3F4F41E062E084E43B
:1018500095E00E9421188985882301F10E946D047A
:101860006B017C010E946D042CE3C20ED11CE11CB3
:10187000F11C2CE330E040E050E00E94A53DC61A88
:10188000D70AE80AF90AC092D403D092D503E092AD
:10189000D603F092D70381E0809303013885332388
:1018A000E1F0E09159045EE0E59FF0011124E95B6D
:1018B000FA4F24813581468157812A873B874C879F
:1018C0005D870E946D0401E02A853B854C855D851E
:1018D0000E94090A81E080931E032D960FB6F894AA
:1018E000DEBF0FBECDBFDF91CF911F910F91FF9053
:1018F000EF90DF90CF90BF90AF909F908F907F90B0
:101900006F905F904F903F902F9008951F93CF93CB
:10191000DF93CDB7DEB728970FB6F894DEBF0FBEC2
:10192000CDBF0E946D046093D6027093D70280935E
:10193000D8029093D9028091D3059091D405DC010F
:10194000ED91FC910190F081E02D0995882309F437
:1019500086C08091D5050E94C01D8091DE060E9440
:10196000C01D84EF91E09093DC058093DB0548E097
:1019700050E062E075E0CE0101960E949F3ABE0100
:101980006F5F7F4F8FED96E00E94AE1B44EE67E0E5
:101990008FED96E00E94371940EC68E08FED96E0FD
:1019A0000E94371940E069E08FED96E00E943719F8
:1019B0006091DB028FED96E00E94AC1D8091E00209
:1019C00089838091DF028A838091DE028B838091FC
:1019D000DD028C836EE28FED96E00E948819182F4D
:1019E00024E0AE014F5F5F4F6FE28FED96E00E9403
:1019F000E918412F477C48696EE28FED96E00E941E
:101A0000371920E141EE52E06EE38FED96E00E943F
:101A1000E9186DE38FED96E00E948819482F416028
:101A20006DE38FED96E00E9437198FED96E00E94EE
:101A300073196091D6027091D7028091D80290916B
:101A4000D90220E040E00E94E70A28960FB6F894F9
:101A5000DEBF0FBECDBFDF91CF911F91089561E032
:101A600070E089E793E00E94DD0777CFCF93DF93A3
:101A7000EB01BC01990F880B990BAE010E94450741
:101A8000CE01DF91CF910C94AC07CF93DF9392E11D
:101A9000980F903210F080E060C0D62FC82F63E01E
:101AA00070E081E993E00E9409076C2F0C2E000C76
:101AB000770B880B990B43E050E00E94450763E0E9
:101AC00070E085E893E00E9409078091DA0263E004
:101AD00070E0082E000C990B0E94360DC093DB02BB
:101AE0001092DA02D1110E9478036091DB028FED2F
:101AF00096E00E94AC1D8DE890E09F938F93CBE51C
:101B0000D4E0DF93CF930E94DB3A8091DB02282F51
:101B1000082E000C330B3F938F938DE092E09F9340
:101B20008F93DF93CF9388E192E09F938F93DF931E
:101B3000CF930E94CB3460E080912A030E94C210B0
:101B40008FED96E00E9473198DB79EB70E960FB673
:101B5000F8949EBF0FBE8DBF81E0DF91CF910895B5
:101B6000CF93C62F80932C03109219035C98E998A9
:101B700082E59EE0909307018093060180912C03FB
:101B8000882349F085E693E090930701809306014E
:101B900081E090E008C08CE293E09093070180938D
:101BA000060182E090E00E945F0F60E070E082E753
:101BB00093E00E94090780912C0360E070E090E0C0
:101BC0000E94360DCC2319F0CF910C947803CF915D
:101BD000089583E090E090930A018093090160E00A
:101BE00080E00E94B00D84E690E090932E038093F5
:101BF0002D038CE380932F0388EE93E090933103C1
:101C0000809330031092DB0285EB8093DC0282E04C
:101C10008093DE0681E080932A031092E002109206
:101C2000DF028093DE028093DD0280E1E1E2F1E0F9
:101C3000A1EEB2E001900D928A95E1F71092230394
:101C40000E9478030C94860CCF93DF93EB01BC01C8
:101C500080E090E0AE010E947A07CE01DF91CF9143
:101C60000C94AC07EF92FF920F931F93CF93DF93E7
:101C70001F92CDB7DEB77C01FC0100811181C80144
:101C800069830E947F3D6981681719F0C8010E942D
:101C9000873DC7010F90DF91CF911F910F91FF906A
:101CA000EF9008950895CF92DF92EF92FF920F93F5
:101CB0001F93CF93DF936C017A018B01C0E0D0E0DA
:101CC000CE15DF0589F0D8016D918D01D601ED911A
:101CD000FC910190F081E02DC6010995892B11F44A
:101CE0007E0102C02196ECCFC701DF91CF911F91F9
:101CF0000F91FF90EF90DF90CF900895089580E0CE
:101D000090E00895FC01538D448D252F30E0842F01
:101D100090E0821B930B541710F0CF960895019713
:101D20000895FC01918D828D981761F0828DDF01FD
:101D3000A80FB11D5D968C91928D9F5F9F73928FBE
:101D400090E008958FEF9FEF0895FC01918D828DB3
:101D5000981731F0828DE80FF11D858D90E0089580
:101D60008FEF9FEF0895FC01918D228D892F90E0D8
:101D7000805C9F4F821B91098F739927089587EA92
:101D800094E00E94B30E21E0892B09F420E0822F19
:101D90000895FC01848DDF01A80FB11DA35ABF4F28
:101DA0002C91848D90E001968F739927848FA6895A
:101DB000B7892C93A089B1898C9180648C93938D81
:101DC000848D981306C00288F389E02D80818F7D71
:101DD00080830895EF92FF920F931F93CF93DF9329
:101DE000EC0181E0888F9B8D8C8D981305C0E8896C
:101DF000F989808185FD24C0F62E0B8D10E00F5FE0
:101E00001F4F0F731127E02E8C8DE8120CC00FB6F8
:101E100007FCFACFE889F989808185FFF5CFCE01EB
:101E20000E94C90EF1CF8B8DFE01E80FF11DE35A20
:101E3000FF4FF0820B8FEA89FB898081806207C0A7
:101E4000EE89FF896083E889F989808180648083D5
:101E500081E090E0DF91CF911F910F91FF90EF9083
:101E60000895CF93DF93EC01888D8823C9F0EA8928
:101E7000FB89808185FD05C0A889B9898C9186FD83
:101E80000FC00FB607FCF5CF808185FFF2CFA88980
:101E9000B9898C9185FFEDCFCE010E94C90EE7CFA5
:101EA000DF91CF91089580E090E0892B29F00E9486
:101EB000BF0E81110C94000008950E948F34E9E652
:101EC000F0E02081880F991F880F991F237F822BB4
:101ED0008083E99A08951F920F920FB60F921124F2
:101EE0002F933F934F935F936F937F938F939F9322
:101EF000AF93BF93EF93FF93E0910601F091070139
:101F00000995FF91EF91BF91AF919F918F917F9133
:101F10006F915F914F913F912F910F900FBE0F9056
:101F20001F9018951F920F920FB60F9211242F93A6
:101F30003F934F935F936F937F938F939F93AF9351
:101F4000BF93EF93FF93E0910401F0910501099590
:101F5000FF91EF91BF91AF919F918F917F916F9181
:101F60005F914F913F912F910F900FBE0F901F9057
:101F70001895952F8230A8F4E82FF0E0EE0FFF1FA0
:101F8000EC5FFE4F71836083813041F08091690086
:101F90008C7F482B40936900E89A0895842F0C9415
:101FA0005F0F08951F920F920FB60F9211242F9377
:101FB0003F934F935F936F937F938F939F93AF93D1
:101FC000BF93EF93FF9387EA94E00E94C90EFF91BD
:101FD000EF91BF91AF919F918F917F916F915F91A1
:101FE0004F913F912F910F900FBE0F901F9018951A
:101FF0001F920F920FB60F9211242F938F939F93DE
:10200000EF93FF93E091B704F091B8048081E091E1
:10201000BD04F091BE0482FD12C090818091C00485
:102020008F5F8F732091C104821751F0E091C0043B
:10203000F0E0E955FB4F958F8093C00401C080818B
:10204000FF91EF919F918F912F910F900FBE0F9065
:102050001F901895CF93DF93EB010E947F3D8883FB
:10206000CE01DF91CF9108950F931F93CF93DF930C
:102070008C01EB010E947F3D8883C80101960E947C
:102080007F3D8983CE01DF91CF911F910F910895FC
:10209000CF93DF93EB010E947F3D8883CE01DF91D8
:1020A000CF9108950F931F93CF93DF9300D0CDB7B7
:1020B000DEB78B01FB0160819A838983CE01019693
:1020C0000E94320EC8010F900F90DF91CF911F91A7
:1020D0000F910895EF92FF920F931F93CF93DF9389
:1020E00000D0CDB7DEB78C017B01FB0160819A8304
:1020F0008983CE0101960E94320EF70161810F5F44
:102100001F4F1A830983CE0101960E94320EC70128
:102110000F900F90DF91CF911F910F91FF90EF9053
:1021200008950F931F93CF93DF9300D0CDB7DEB701
:102130008B01FB0160819A838983CE0101960E9405
:10214000320EC8010F900F90DF91CF911F910F9128
:102150000895CF93DF93D82FC1E0DC1780F05C9A0D
:1021600064EF71E080E090E00E94261F5C986AEFC7
:1021700070E080E090E00E94261FCF5FEECFDF91FD
:10218000CF9108952F923F924F925F926F927F92DC
:102190008F929F92AF92BF92CF92DF92EF92FF9277
:1021A0000F931F93CF93DF9300D000D000D0CDB713
:1021B000DEB7082F762E5BE5E52E54E0F52EF7010D
:1021C00001900020E9F73197EB55F440FD9758F066
:1021D00061E070E086EB94E00E94090781E090E006
:1021E0000E94A61C22C58CE38D83E4E0F4E0DF01AD
:1021F0001D928A95E9F763E070E08CEA94E00E9412
:10220000090783E090E00E94A61CF70101900020DE
:10221000E9F73197AF014B5554406BE574E084E02A
:1022200094E00E949434A895BD81BE831091DA0594
:102230001F5F1093DA0520E0812C912C54019394B8
:1022400066246394620E9091DD05921708F4B3C082
:102250008091D3059091D405DC01ED91FC91048C23
:10226000F58DE02D612F09958091D3059091D405CE
:10227000DC01ED91FC91068CF78DE02D40E860E0EB
:102280000995402F6E8184E094E00E94EA1D0E942F
:10229000DF1D0F3F09F4ABC0B1E0B61598F4809193
:1022A000D6059091D705A091D805B091D905019692
:1022B000A11DB11D8093D6059093D705A093D80595
:1022C000B093D9050E94601F1B012C01E090DB0533
:1022D000F090DC050E946538A50194010E94C73D7D
:1022E0009B01AC01D7010E94E63DA50194010E942B
:1022F000C73D2E0D3F1D72016101C20ED31EE11CB0
:10230000F11C0E94601FA7019601261B370B480B8A
:10231000590BCA01B901262D1616170618061906FB
:102320000CF08ECFA091D305B091D405ED91FC9126
:1023300011970088F189E02DCD010995882309F3D3
:102340008091D3059091D405DC01ED91FC9104803E
:10235000F581E02D40E050E060E070E009958823D1
:1023600081F29E012F5F3F4FAE014E5F5F4FBE0176
:102370006D5F7F4FCE0104960E945D17882309F29E
:102380006C81898160130AC02B819091D505291336
:1023900005C087FF03C09A81911749F187FDB1CF2E
:1023A0008A81E62FF0E0ED52FA4F93858913A9CF89
:1023B0000E942917A6CF62E070E084E994E00E94B1
:1023C000090782E090E00E94A61C809103048F5FC1
:1023D0008093030483302CF08091DB028D300CF469
:1023E00086C0A8958FED96E00E9473191EC41092C6
:1023F00003047720B1F30E94601F6B017C0130E27F
:10240000C30E33E0D31EE11CF11C0E94601FA70124
:102410009601261B370B480B590BCA01B90112163E
:102420001306140615060CF05BC0A091D305B091FD
:10243000D405ED91FC9111970088F189E02DCD0133
:102440000995882311F38091D3059091D405DC017F
:10245000ED91FC910280F381E02D09958823A9F28A
:102460008091D3059091D405DC01ED91FC9104801D
:10247000F581E02DAE014B5F5F4F64E074E009959C
:10248000882319F29E012F5F3F4FAE014E5F5F4FD1
:10249000BE016D5F7F4FCE0104960E945D17182F1D
:1024A000882309F4B2CF898187FDAFCF9B818091CA
:1024B000D505981304C06C818A810E9429178A81EE
:1024C0009C81E92FF0E0ED52FA4F2385821709F441
:1024D0009CCF909302048387112309F496CF0BC0FD
:1024E00063E070E080EA94E00E94DD077ACF8CE937
:1024F0008093DA0276CF8091ED0680932B0364E01F
:1025000070E08AE894E00E94090764E070E084E0EB
:1025100094E00E942A0764E070E080E894E00E9462
:10252000090780912B0364E070E0082E000C990BE2
:102530000E94360D69EA71E08BE594E00E949D34BB
:1025400064E074E08BE594E00E949D346BE774E0F6
:102550008BE594E00E946E06813009F093C01092E2
:10256000FE031092FF0310920004109201041092D7
:10257000FA031092FB031092FC031092FD0389EF03
:1025800093E09F938F938AEF93E09F938F938EEFC7
:1025900093E09F938F9381E292E09F938F938BE5DB
:1025A00094E09F938F930E94EE344091FE035091EC
:1025B000FF036091000470910104DB01CA010A97D6
:1025C000A109B1090FB6F894DEBF0FBECDBF8F349D
:1025D0009240A105B10508F04EC08091FA03909198
:1025E000FB03A091FC03B091FD038C019D010A50F7
:1025F0001109210931090F3A1B4021053105D8F590
:102600005093010140930001909337038093360368
:102610000E946D04609338037093390380933A03EA
:1026200090933B0363E070E080E794E00E94090729
:102630006091FE037091FF0380910004909101046A
:1026400043E050E00E947A0763E070E089E694E09E
:102650000E9409076091FA037091FB038091FC03CB
:102660009091FD0343E050E00E947A0763E070E040
:1026700087E694E004C061E070E08AE594E00E949F
:10268000DD07F0C165E574E08BE594E00E946E061D
:10269000182F813009F066C089EF93E09F938F93E4
:1026A00085EF93E09F938F9385E392E09F938F93C1
:1026B0008BE594E09F938F930E94EE348091F50315
:1026C0009091F603A091F703B091F803AC01BD011E
:1026D00041505109610971090FB6F894DEBF0FBE70
:1026E000CDBF4F3F5D45604D724BB8F580931F03E2
:1026F00090932003A0932103B09322030E946D04C2
:1027000001E020E030E0A9010E94090A63E070E0E6
:102710008AE494E00E940907E09159044EE0E49FA6
:10272000F0011124E95BFA4F2481358146815781FC
:1027300060911F03709120038091210390912203E7
:102740000E94A20643E050E00E949A0783E090E0D6
:102750000E94AC0710931E0385C161E070E08DE319
:1027600094E08DCF68E374E08BE594E00E946E0600
:10277000813009F054C089EF93E09F938F9381EFEC
:1027800093E09F938F9385E392E09F938F938BE5E4
:1027900094E09F938F930E94EE340FB6F894DEBFBF
:1027A0000FBECDBF8091F1039091F203A091F3038E
:1027B000B091F4038F3F9105A105B10509F050F5E3
:1027C00063E070E08DE294E00E94090760912F03BE
:1027D00070E080E090E043E050E00E94450763E055
:1027E00070E083E294E00E9409076091F103709128
:1027F000F2038091F3039091F40343E050E00E94D0
:102800007A0783E090E00E94AC078091F103809307
:102810002F037BC061E070E086E194E030CF61E19E
:1028200074E08BE594E00E946E06813009F075C07B
:102830001092ED031092EE031092EF031092F0034A
:102840001092E9031092EA031092EB031092EC034A
:1028500089EF93E09F938F9389EE93E09F938F93FB
:102860008DEE93E09F938F9381E292E09F938F93FD
:102870008BE594E09F938F930E94EE340FB6F8940B
:10288000DEBF0FBECDBF8091ED039091EE03A0910E
:10289000EF03B091F0038F3F9105A105B10509F059
:1028A000B8F58091E9039091EA03A091EB03B09110
:1028B000EC03893BEBE09E07A105B10548F5909339
:1028C0002E0380932D0363E070E086E094E00E9485
:1028D000DD0760E08091ED030E94B00D60912C0354
:1028E00070E080E090E043E050E00E94450763E044
:1028F00070E085EF93E00E94090763E070E080914B
:102900002D0390912E030E94240E0E947803AAC0EA
:1029100061E070E088EE93E0B2CE63EE73E08BE5A9
:1029200094E00E946E06813009F064C01092E503C5
:102930001092E6031092E7031092E8031092E1036D
:102940001092E2031092E3031092E40389EF93E004
:102950009F938F9380EE93E09F938F9381EE93E00C
:102960009F938F9385EE93E09F938F9385E492E0FE
:102970009F938F938BE594E09F938F930E94EE3407
:102980000E946D040091E5031091E6032091E70396
:102990003091E803DC01CB01801B910BA20BB30B40
:1029A0000FB6F894DEBF0FBECDBF0497A105B105E9
:1029B00008F002C18091E1039091E203A091E3034A
:1029C000B091E403892B8A2B8B2B09F4F5C00E946C
:1029D0006D042091E1033091E203621B730BCB0184
:1029E00077FF04C088279927861B970B04970CF064
:1029F00081C0E2C06AEB73E08BE594E00E946E0652
:102A00008130A9F489EF93E09F938F938EE592E054
:102A10009F938F938BE594E09F938F930E94EE3466
:102A20000F900F900F900F900F900F901BC06DE8BC
:102A300070E08BE594E00E946E06813049F464E01A
:102A400070E08EEA93E00E94090784E090E008C0FD
:102A500062E070E084EA93E00E94090782E090E07F
:102A60000E94A61C69EA71E08BE594E00E949D3407
:102A70008091F90387FF13C02091DA02222359F0D5
:102A8000082E000C990B820F911D27FD9A9597FD3A
:102A90000196959587958093DA021092F9038091BB
:102AA000DC0287FF9ECC8091DA0287FF9ACC80916E
:102AB000D8039091D903A091DA03B091DB03892B5D
:102AC0008A2B8B2B09F47DC00E946D040091D803E2
:102AD0001091D9032091DA033091DB03DC01CB01A3
:102AE000801B910BA20BB30BCC97A105B10508F08D
:102AF00068C077CC0E946D040091E5031091E60355
:102B00002091E7033091E803DC01CB01801B910B9E
:102B1000A20BB30BB695A795979587950091E10306
:102B20001091E2032091E3033091E403800F911FA1
:102B3000A21FB31F8093E1039093E203A093E303EA
:102B4000B093E40364E070E088ED93E00E9409072D
:102B50000E946D0444E050E00E947A0764E070E057
:102B600083ED93E00E9409076091E1037091E20315
:102B70008091E3039091E40344E050E00E947A07DF
:102B800084E090E00E94AC078091E003813011F076
:102B90001092E00321E08091E003813009F020E011
:102BA0006091E1037091E2038091E3039091E4036B
:102BB00041E00E94E70A56CF63E070E08FEB93E0BC
:102BC0005ECD2091DA023091DC02822F022E000CC1
:102BD000990B831B910937FD939597FF03C091953E
:102BE000819591090B9794F023173CF48091DB02B7
:102BF0008F5F8E3E14F08E30A4F032173CF480913B
:102C0000DB0281508E3E14F08E305CF00E946D0429
:102C10006093D8037093D9038093DA039093DB0316
:102C2000E0CB60E00E94450DF1CF26960FB6F894F8
:102C3000DEBF0FBECDBFDF91CF911F910F91FF90EF
:102C4000EF90DF90CF90BF90AF909F908F907F904C
:102C50006F905F904F903F902F9008950F931F9328
:102C6000CF93DF938091DC039091DD03A091DE038D
:102C7000B091DF03892B8A2B8B2BA9F00E946D0466
:102C80000091DC031091DD032091DE033091DF031E
:102C9000DC01CB01801B910BA20BB30B843893405A
:102CA000A105B10588F185EC94E09F938F93CBE566
:102CB000D4E0DF93CF930E94DB3A0E946D049F9390
:102CC0008F937F936F93DF93CF938AE692E09F93E6
:102CD0008F93DF93CF930E94CB3461E080912A03DE
:102CE0000E94C2100E946D046093DC037093DD03A8
:102CF0008093DE039093DF038DB79EB70E960FB6D9
:102D0000F8949EBF0FBE8DBFDF91CF911F910F91A1
:102D100008959091020181E089278093020160E08B
:102D200070E08FE993E00E94090780910201811110
:102D300003C088E993E002C08CE993E060E070E0B2
:102D40000C94DD07FC01738362830895FC01778393
:102D500066830895FC01758364830895089508953A
:102D60008CE308959FB7F89480914904882319F063
:102D700081508093490480914904811105C08CB52C
:102D80008F7B8CBD109248049FBF08958CB58F77C0
:102D90008CBD08958CB580688CBD0895862F0C94E9
:102DA000801ECF93DF93EC01888D998DDC01ED912E
:102DB000FC910680F781E02D099561E08A8D0E94E3
:102DC000D31E61E08A8D0E94871E64E670E080E079
:102DD00090E00E94261F81E0DF91CF910895CF926D
:102DE000DF92EF92FF920F931F93CF93DF93EC014B
:102DF0006B018A01E881F9810280F381E02D099558
:102E0000F82E8823E1F0C114D104B1F001151105A9
:102E100099F0EFB6F89488A1F8019081891710F421
:102E200088A18083F801408150E0BE016F5D7F4F33
:102E3000C6010E949434EFBEC35ADF4F18828F2D13
:102E4000DF91CF911F910F91FF90EF90DF90CF9086
:102E50000895FF920F931F93CF93DF931F92CDB7E7
:102E6000DEB7F62E03ED15E0F801A081B181ED91FA
:102E7000FC911197048CF58DE02D682FCD010995FB
:102E8000D8018D919C91DC01ED91FC91068CF78D20
:102E9000E02D40E060E8099581E289834F2D61E0F3
:102EA000CE0101960E94EA1D0E94DF1D0F90DF9166
:102EB000CF911F910F91FF900895CF92DF92EF92E3
:102EC000FF920F931F93CF93DF936C017B018A01D5
:102ED000E901892B69F08091D3059091D405DC013B
:102EE000ED91FC9104A0F5A1E02D0995F6018083F8
:102EF000E114F10469F08091D3059091D405DC01CF
:102F0000ED91FC9102A0F3A1E02D0995F7018083DA
:102F10000115110569F08091D3059091D405DC016C
:102F2000ED91FC9106A0F7A1E02D0995F8018083B1
:102F3000209761F08091D3059091D405DC01ED914B
:102F4000FC9100A4F1A5E02D0995888381E0DF9133
:102F5000CF911F910F91FF90EF90DF90CF90089548
:102F6000CF93CFB7F89480914904811127C0EAEC40
:102F7000F5E08491E6EBF5E09491E82FF0E0EE0FB8
:102F8000FF1FEE55FA4FA591B491EC91E92321F47E
:102F900061E08AE00E94871E61E08AE00E94D31E01
:102FA0008CB580618CBD8CB580648CBD61E08DE09A
:102FB0000E94D31E61E08BE00E94D31E80914904E1
:102FC0008F5F80934904CFBFCF910895CF93FC01C9
:102FD000268137812115310549F02130310541F035
:102FE0002230310539F02330310531F020E005C0C1
:102FF00024E003C028E001C02CE09CB5937F922B15
:103000009CBD848195810197C1F48CB580628CBD93
:103010008281938101978430910528F4FC01EF5C53
:10302000FE4FC08101C0C1E08C2F0E94711E0E9422
:10303000B0178C2FCF910C94711E9CB59F7D9CBDB9
:10304000E7CFBF92CF92DF92EF92FF920F931F9341
:10305000CF93DF937C01C62FD42EB22EC32EFC015A
:103060002181828190914804992379F09FB7F89447
:1030700030914804313039F43DB3309347043DB3C7
:103080003DBB9FBF02C0909347042CBD8DBD61E046
:10309000F70180810E94871EDD2011F080E101C0D0
:1030A00080E98C2B0E94801ECB2DDC2D0C0F1D1F68
:1030B000C017D10761F0D11005C080E00E94801ECA
:1030C000888303C088810E94801E2196F1CF60E032
:1030D000F70180810E94871E80914804882361F057
:1030E0009FB7F8942091480480914704213019F447
:1030F0008DBB9FBF01C08FBFDF91CF911F910F91FB
:10310000FF90EF90DF90CF90BF9008951F920F92A5
:103110000FB60F9211248F930FB6F894A895809153
:103120006000886180936000109260000FBE8F91F4
:103130000F900FBE0F901F9018954115510529F45F
:10314000EAE7F0E080818F7780836A307105A9F02B
:1031500063FD02C088E001C088E26770682B88E1E7
:103160000FB6F894A895809360000FBE609360003E
:10317000E0E6F0E0808180648083232BA1F483B7B4
:10318000817F846083BFF89483B7816083BF85B7F4
:10319000806685BF8F7D85BF7894889583B78E7F45
:1031A00083BF78940EC083B7817F846083BFF89417
:1031B00083B7816083BF7894889583B78E7F83BF00
:1031C0007894452B29F4EAE7F0E0808180688083D9
:1031D0000895AF92BF92DF92EF92FF920F931F93E9
:1031E000CF93DF9300D0CDB7DEB78C01E62EF42E5F
:1031F000DFB6F89460E0DC015A968C9129835A83FB
:103200000E94871EF801808D918DDC01ED91FC916B
:103210006E2D60680190F081E02D0995E82EAF2CAD
:103220005A81B52E2981F20EFA1471F0F801808DC1
:10323000918DD5016D915D01DC01ED91FC910190C5
:10324000F081E02D0995F0CF61E0F801828D0E94B8
:10325000871EDFBE8E2D0F900F90DF91CF911F91B3
:103260000F91FF90EF90DF90BF90AF900895EF9295
:10327000FF920F931F93CF93DF931F92CDB7DEB7CB
:103280007C01162F0FB7F89460E0DC015A968C9100
:1032900049830E94871EF701808D918DDC01ED919D
:1032A000FC91612F60680190F081E02D0995182F45
:1032B000F701808D918DDC01ED91FC910190F08101
:1032C000E02D4981642F099561E0F701828D0E940C
:1032D000871E0FBF812F0F90DF91CF911F910F910C
:1032E000FF90EF900895CF93DF93FC01228133810B
:1032F0002130310549F0EC0140E061E00E943719CE
:1033000081E090E09B838A8381E0DF91CF910895F3
:103310000F931F93CF93DF93EC01162F0FB7F89401
:1033200060E08A8D0E94871E888D998DDC01ED9169
:10333000FC91612F6F770190F081E02D0995888DC8
:10334000998DDC01ED91FC910190F081E02D60E020
:103350000995182F61E08A8D0E94871E0FBF812F6B
:10336000DF91CF911F910F9108950F931F93CF93EA
:103370008C01C62F61E00E948819837ECC71482F92
:103380004C2B61E0C8010E94371967E2C8010E9416
:10339000881987FFFACFCF911F910F910895CF938E
:1033A000DF93FC01228133812330310519F1EC01D7
:1033B000828193810497D1F0878D823154F045E565
:1033C0006AE5CF010E94371940E76CE5CE010E9403
:1033D000371940E465E2CE010E94371960E1CE0161
:1033E0000E94B51984E090E09B838A83C35ADF4F23
:1033F000888101C080E0DF91CF910895CF93DF9362
:10340000FC012281338122303105B1F0EC01878D3E
:10341000823154F045E56AE5CF010E94371940E753
:103420006CE5CE010E9437196D8DCE010E94B51951
:1034300082E090E09B838A83DF91CF910895BF92D1
:10344000CF92DF92EF92FF920F931F93CF93DF9370
:10345000EC01B62EC72E142F4D3310F000E08BC0B8
:10346000E881F9810484F585E02D0995CE010E945B
:10347000FE19E881F9810288F389E02DCE010995D2
:10348000082F882359F3DFB6F89460E08A8D0E94F4
:10349000871E888D998DDC01ED91FC910190F08162
:1034A000E02D60E80995A88DB98DED91FC911197FB
:1034B0000190F081E02D64E0610FCD010995888DC8
:1034C000998DDC01ED91FC910190F081E02D6A85F0
:1034D0000995888D998DDC01ED91FC910190F08129
:1034E000E02D6B850995888D998DDC01ED91FC911E
:1034F0000190F081E02D6C850995888D998DDC0116
:10350000ED91FC910190F081E02D6D850995EB2CFA
:10351000FC2C115068F0888D998DF70161917F0125
:10352000DC01ED91FC910190F081E02D0995F1CF46
:1035300061E08A8D0E94871EDFBE8A819B8103978E
:10354000D1F08F8D823154F04DE56AE5CE010E94B5
:1035500037194CE76CE5CE010E94371940E065E26F
:10356000CE010E9437196CE0CE010E94B51983E0AC
:1035700090E09B838A83802FDF91CF911F910F91E1
:10358000FF90EF90DF90CF90BF900895EF92FF9261
:103590000F931F93CF93DF93EC0168E20E94881989
:1035A000182F8A819B81039711F413FD08C08A812B
:1035B0009B81049709F0A2C012FD0BC09FC0CE01F1
:1035C0000E94FE192B893C892F5F3F4F3C8B2B8B30
:1035D000EECF64E2CE010E948819869581958E8790
:1035E0000E94601FFE01E25AFF4F60837183828355
:1035F0009383CE010E94FE19FFB6F89460E08A8D95
:103600000E94871E888D998DDC01ED91FC910190BF
:10361000F081E02D60E00995888D998DDC01ED91B8
:10362000FC910190F081E02D60E00995082F8CEF6E
:10363000800F8D3300F5888D998DDC01ED91FC9123
:103640000190F081E02D60E009958E838D818111DC
:1036500018C09E818C819817A1F08E818F3F59F4FC
:1036600010C089899A8901969A8B898B81E0FE0125
:10367000E35AFF4F808361E08A8D0E94871EFFBE60
:103680003DC0888D998DDC01ED91FC910190F08118
:10369000E02D60E009958F83888D998DDC01ED9197
:1036A000FC910190F081E02D60E009958887888D7C
:1036B000998DDC01ED91FC910190F081E02D60E0AD
:1036C0000995898718A210E00450110988A190E09B
:1036D0008017910734F6E8A0888D998DDC01ED9173
:1036E000FC910190F081E02D60E00995FE01EE0D66
:1036F000F11D81A388A18F5F88A3E8CFDF91CF91CF
:103700001F910F91FF90EF90089580914504909143
:103710004604009711F00C94C61A08958091430452
:1037200090914404009711F00C94C61A089580916A
:10373000410490914204009711F00C94C61A089528
:10374000CF93DF93EC016DE30E948819482F4E7FE1
:103750006DE3CE01DF91CF910C9437190F931F9336
:10376000CF93DF93EC018B0125E0AB0162E00E9477
:10377000E918A8014B5F5F4F22E069E1CE010E948A
:10378000E918F801478167E3CE01DF91CF911F91DE
:103790000F910C943719EF92FF920F931F93CF93D1
:1037A000DF93CDB7DEB72A970FB6F894DEBF0FBE12
:1037B000CDBF8C010E94D116E82E811102C0E12CF0
:1037C000A5C0F801838D823029F08330C1F7FF2432
:1037D000F39401C0F12C60E1C8010E948819F8013E
:1037E000868F9FEF980F9E3F50F760E0F801838D22
:1037F0000E94D31EF801848D8F3F49F480914004CC
:103800008430E8F691E0980F90934004848FF8019B
:10381000948DE92FF0E0EE0FFF1FEF5BFB4F11835C
:103820000083911105C043E050E067E97BE10EC0E1
:10383000913029F443E050E06EE87BE107C092301C
:1038400009F0BDCF43E050E065E87BE18F2D0E9499
:10385000B90FC8010E94FE194FE86CE3C8010E942D
:10386000371940E36FE6C8010E94371945E56AE55C
:10387000C8010E94371940E76CE5C8010E9437195A
:103880008DE2898784ED8A876EE2C8010E948819DB
:10389000F82E22E0AE01475F5F4F6FE2C8010E9441
:1038A000E9184F2D477C48686EE2C8010E9437191D
:1038B00048E050E06AE575E0CE0101960E949F3A2B
:1038C000BE016F5F7F4FC8010E94AE1B40E06CE2FB
:1038D000C8010E94371944E06DE2C8010E943719FF
:1038E0004CE667E0C8010E94371940E868E0C8016B
:1038F0000E94371940E069E0C8010E943719C801E9
:103900000E94A01B6DE0C8010E94AC1D8E2D2A965E
:103910000FB6F894DEBF0FBECDBFDF91CF911F91E0
:103920000F91FF90EF900895009769F0FC010190CE
:103930000020E9F73197AF01481B590BBC0187EA1A
:1039400094E00C94530E80E090E00895CF93DF93C1
:103950002091090130910A012817390794F0EC01F0
:1039600080910801882321F061E0CE010E94E406E5
:103970008BE594E00E94941CCE01DF91CF910C94D2
:10398000AC07DF91CF910895CF92DF92EF92FF9233
:103990006B017C0120E030E048EC52E40E94A3334C
:1039A0000E94DA32CB0164E670E00E94E1319F931D
:1039B0008F93C701B6010E94DA327F936F9381E73C
:1039C00092E09F938F9384E497E09F938F930E945C
:1039D000CB348DB79EB708960FB6F8949EBF0FBE36
:1039E0008DBF60E070E084E497E0FF90EF90DF909F
:1039F000CF900C942A070F931F93CF93DF938C01E2
:103A0000C0E0D0E0F801EC0FFD1F6491662371F077
:103A1000E091A704F091A8040190F081E02D87EADD
:103A200094E00995892B11F02196ECCFCE01DF911E
:103A3000CF911F910F910895CF93C82F0E9419091C
:103A400020915A04211102C080E084C0CC23F9F0F7
:103A50009091590440E050E08EE0BA016250710943
:103A60006230710568F0992311F0915001C099E01E
:103A7000899FF0011124E95BFA4F44855585EDCF0C
:103A800090934107509343074093420710C0E09141
:103A90005804E09341078EE0E89FF0011124E95BB0
:103AA000FA4F848595859093430780934207E09170
:103AB00041074E2F50E08EE0E89FF0011124E95BB2
:103AC000FA4F80819181A281B38180934A049093BF
:103AD0004B04A0934C04B0934D0484819581A6813E
:103AE000B78180934E0490934F04A0935004B093F9
:103AF000510484859585909357048093560480855E
:103B00009185A285B3858093520490935304A0932A
:103B10005404B09355048091420790914307029753
:103B200009F092CF83E090E095878487CA010196DF
:103B30006AE070E00E94E13180935804CC2319F0D0
:103B400010925A0406C0222321F08FEF820F809337
:103B50005A0481E0CF910895FC016E3E14F0678F06
:103B600002C08EEE878F878D8E3014F08DE0878FA8
:103B7000478D4E5E4F71406861E1CF010C9437195B
:103B80001F93CF93DF93182FC3EDD5E088819981E0
:103B9000DC01ED91FC910688F789E02D612F0995F4
:103BA00088819981DC01ED91FC91028CF38DE02DEF
:103BB000612F09951A83DF91CF911F91089580910C
:103BC000D3059091D405DC01ED91FC910484F58539
:103BD000E02D0994FF920F931F93CF93DF938C01F5
:103BE000F62EC3EDD5E088819981DC01ED91FC9141
:103BF000008CF18DE02D642F099588819981DC017D
:103C0000ED91FC910680F781E02D4F2DB801DF91F9
:103C1000CF911F910F91FF90099480E00895FC01CE
:103C200081850895FC0180850895FC0187810895B0
:103C3000FC0186810895FC01409595854923642BFC
:103C400065870895FC0164870895FC0163870895E2
:103C5000FC0162870895FC0164830895FC0165837B
:103C6000089580E00895FC012281338123303105DD
:103C7000D1F381E00895CF93DF93EC01E881F981DE
:103C80000280F381E02DCE0109958823B9F3DF91FD
:103C9000CF91089581E008953FB7F89480915D0732
:103CA00090915E07A0915F07B091600726B5A89B31
:103CB00005C02F3F19F00196A11DB11D3FBFBA2FBE
:103CC000A92F982F8827820F911DA11DB11DBC011E
:103CD000CD0142E0660F771F881F991F4A95D1F7E3
:103CE00008959CB5282F23709C7F922B9CBD2DB5E9
:103CF00082FB992790F9822F8E7F892B8DBD0895A5
:103D00008EBD00000DB407FEFDCF8EB5089590E086
:103D1000FC01E252FA4F3491FC01E455FA4F249130
:103D2000FC01E054FA4FE491EE2309F43BC0332345
:103D300039F1333091F038F43130A9F0323001F5F7
:103D400084B58F7D12C0373091F03830A1F0343017
:103D5000B9F4809180008F7D03C0809180008F77BF
:103D6000809380000DC084B58F7784BD09C0809199
:103D7000B0008F7703C08091B0008F7D8093B0003A
:103D8000F0E0EE0FFF1FEC52FA4FA591B4918FB700
:103D9000F894EC91611103C020952E2301C02E2BC5
:103DA0002C938FBF0895CF93DF9390E0FC01E455EF
:103DB000FA4F2491FC01E054FA4F8491882361F179
:103DC00090E0880F991FFC01EE55FA4FC591D491F0
:103DD000FC01EC52FA4FA591B491611109C09FB753
:103DE000F8948881209582238883EC912E230BC040
:103DF000623061F49FB7F8943881822F80958323D5
:103E00008883EC912E2B2C939FBF06C08FB7F8941C
:103E1000E8812E2B28838FBFDF91CF9108958E30BC
:103E200008F08E508770806480937C0080917A00C7
:103E3000806480937A0080917A0086FDFCCF809127
:103E400078002091790090E0922B08958F929F92B4
:103E5000AF92BF92CF92DF92EF92FF926B017C0103
:103E60000E944C1E4B015C01C114D104E104F10419
:103E7000F1F00E944C1EDC01CB0188199909AA09B6
:103E8000BB09883E9340A105B10570F321E0C21A39
:103E9000D108E108F10888EE880E83E0981EA11C85
:103EA000B11CC114D104E104F10419F7DDCFFF9076
:103EB000EF90DF90CF90BF90AF909F908F9008953C
:103EC0002FB7F8946091590770915A0780915B075A
:103ED00090915C072FBF08958F929F92AF92BF92EF
:103EE000CF92DF92EF92FF92CF93DF93FC0126896E
:103EF0003789232B11F481E038C0EC010E94601F48
:103F00006B017C0189E0882E912CA12CB12CE881D9
:103F1000F9810488F589E02DCE010995882359F3AC
:103F20000E94601FAB01BC014C195D096E097F093D
:103F30008E899F89A0E0B0E084179507A607B70790
:103F400098F00E946538A50194010E94C73D9B012D
:103F5000AC012F5F3F4F4F4F5F4FA4E6B0E00E9490
:103F6000E63D0E94261FD3CF80E0DF91CF91FF90E6
:103F7000EF90DF90CF90BF90AF909F908F9008957B
:103F80008F929F92AF92BF92CF92DF92EF92FF9269
:103F9000CF93DF93EC016B010E94601F4B015C012A
:103FA000E12CF12C0E94601FDC01CB0188199909DA
:103FB000AA09BB098C159D05AE05BF0530F48A81A1
:103FC0009B81039779F381E001C080E0DF91CF917D
:103FD000FF90EF90DF90CF90BF90AF909F908F9029
:103FE00008958F929F92AF92BF92CF92DF92EF92FD
:103FF000FF92CF93DF93EC016B010E94601F4B0196
:104000005C01E12CF12C0E94601FDC01CB018819BE
:104010009909AA09BB098C159D05AE05BF0550F489
:10402000E881F9810280F381E02DCE010995882392
:1040300051F301C080E0DF91CF91FF90EF90DF90CE
:10404000CF90BF90AF909F908F9008951F920F9246
:104050000FB60F9211242F933F938F939F93AF939B
:10406000BF938091590790915A07A0915B07B09137
:104070005C073091580723E0230F2D3720F4019679
:10408000A11DB11D05C026E8230F0296A11DB11D7B
:10409000209358078093590790935A07A0935B0782
:1040A000B0935C0780915D0790915E07A0915F07D8
:1040B000B09160070196A11DB11D80935D0790939B
:1040C0005E07A0935F07B0936007BF91AF919F9188
:1040D0008F913F912F910F900FBE0F901F901895C9
:1040E000CF93DF93CDB7DEB7E9970FB6F894DEBF75
:1040F0000FBECDBF789484B5826084BD84B58160E5
:1041000084BD85B5826085BD85B5816085BD8091A2
:104110006E00816080936E0010928100809181001A
:104120008260809381008091810081608093810012
:10413000809180008160809380008091B1008460D4
:104140008093B1008091B00081608093B000809135
:104150007A00846080937A0080917A0082608093F4
:104160007A0080917A00816080937A0080917A0051
:10417000806880937A001092C10060E086E00E941F
:10418000D31E61E084E00E94D31E60E084E00E94C0
:10419000871E60E08EE00E94D31E60E083E00E94F4
:1041A000D31E80912303882311F060E001C062E0F8
:1041B0008FE00E94D31E62E085E00E94D31E62E081
:1041C00088E00E94D31E62E089E00E94D31E62E074
:1041D00080E10E94D31E62E081E10E94D31E62E072
:1041E00082E10E94D31E62E083E10E94D31EE0912F
:1041F000B704F091B80482E08083E091B304F091B9
:10420000B4041082E091B504F091B60480E180839B
:104210001092BF04E091BB04F091BC0486E080835F
:10422000E091B904F091BA04808180618083E091CB
:10423000B904F091BA04808188608083E091B90468
:10424000F091BA04808180688083E091B904F09194
:10425000BA0480818F7D808380E090E00E94AC076B
:1042600080E090E00E94AC0760E070E08BE990E0B5
:104270000E94DD071091670760E070E08CE790E036
:104280000E940907C12ED12CE12CF12C19A2CE01DC
:104290008196B701A6014F7055276627772724E03E
:1042A000F694E794D794C7942A95D1F701974A30AA
:1042B00051056105710510F4405D01C0495CDC01E8
:1042C0004C93C114D104E104F10419F70E94941C29
:1042D00013FF07C060E070E088E790E00E940907E4
:1042E000177F12FF07C060E070E084E790E00E9453
:1042F00009071B7F11FF07C060E070E080E790E0D6
:104300000E9409071D7F10FF07C060E070E08CE687
:1043100090E00E9409071E7F112331F060E070E0F9
:1043200088E690E00E94090780E090E00E94AC07D8
:104330001DA21CA21BA21AA2FE013196FFABEEAB7E
:1043400080E111928A95E9F7A895BE016B5D7F4FD8
:1043500080E090E00E9448108DA1853038F490E014
:1043600090930A018093090111E001C010E0BE01A1
:104370006B5D7F4F81E090E00E9448108DA18F3FE0
:1043800021F060E00E94B00D01C010E01E01F2E2D9
:104390002F0E311CB10182E090E00E9434108AA1FE
:1043A0009BA1893B2BE0920728F490932E038093E6
:1043B0002D0301C010E0BE016B5D7F4F84E090E0F3
:1043C0000E9448108DA18F3F19F080932F0301C0E8
:1043D00010E0B10185E090E00E9434108AA19BA119
:1043E0009C0121503109283E3D4F28F49093310320
:1043F0008093300301C010E0CE01849699AF88AF5E
:10440000BC0187E090E00E942A108CA192E1980FF5
:10441000903208F4DEC310E0BE016C5D7F4F88E08F
:1044200090E00E942A108CA194E6980F953618F41B
:104430008093DC0201C010E0A895BE016B5D7F4F48
:1044400089E090E00E9448108DA19FEF980F9E3F59
:1044500018F48093DE0601C010E0BE016B5D7F4F53
:104460008AE090E00E9448108DA19FEF980F9E3F38
:1044700018F480932A0301C010E0BE016B5D7F4FEA
:104480008BE090E00E9448108DA18F3F19F080933F
:10449000E00201C010E0BE016B5D7F4F8CE090E058
:1044A0000E9448108DA18F3F19F08093DF0201C058
:1044B00010E0BE016B5D7F4F8DE090E00E944810E0
:1044C0008DA19FEF980F9E3F18F48093DE0201C0EC
:1044D00010E0BE016B5D7F4F8EE090E00E944810BF
:1044E0008DA19FEF980F9E3F18F48093DD0201C0CD
:1044F00010E080E1AEA9BFA91D928A95E9F7FE01FF
:1045000031967F019FE0692E712C0EA9005FB701E3
:10451000C3010E944810F7018081FFEFEF1AFF0AE4
:1045200080528F3508F010E02FEF621A720A0E11D8
:10453000EECF112381F080E1E1EEF2E0DF01882E81
:104540001D928A94E9F7FE013196A1EEB2E0019046
:104550000D928A95E1F7BE016B5D7F4F8FE190E090
:104560000E9448108DA1823058F061E070E085E82B
:1045700090E00E94DD070E94E90D0E94780304C0CC
:1045800080932303112389F30E94860C64E070E07A
:1045900082E990E00E94DD0788E5898301E010E070
:1045A0009E012F5F3F4F41E060E084E495E00E9470
:1045B00021180E942E160E946D046093D6027093FB
:1045C000D7028093D8029093D9028B019C010058A6
:1045D00016442846384501381F4222413E4338F0F0
:1045E00020E041E060E876E488E698E512C0E091DA
:1045F00059045EE0E59FF0011124E95BFA4F008168
:10460000118122813381012B022B032B21F421E024
:1046100041E00E94E70A83E00E94A9108091D6023F
:104620009091D702A091D802B091D90280933C0317
:1046300090933D03A0933E03B0933F038DE890E039
:104640009F938F930BE514E01F930F930E94DB3A27
:10465000809167071F928F931F9287E08F931F931C
:104660000F938BE891E09F938F931F930F930E947A
:10467000CB3460E080912A030E94C2100FB6F894F8
:10468000DEBF0FBECDBF809123038130F1F48FE0F8
:1046900090E0909391028093900283E393E3AEEDD8
:1046A000B2E48093960290939702A0939802B093FD
:1046B000990280E090E0A0E0B4E48093B20290938D
:1046C000B302A093B402B093B50299E288E10FB6A9
:1046D000F894A895809360000FBE90936000DE016F
:1046E00011966D01FE01B296FCA7EBA78BE5E82EB3
:1046F00084E0F82E81E08093A1039E012B5D3F4F63
:1047000038A72FA3AE014A5D5F4F5AA749A78091F2
:10471000A103873008F05AC287EA94E00E94910E04
:10472000A895181619067CF5E091A003E11108C0C0
:104730009C012F7D2A35310519F40E94891623C06A
:104740009C01205231092036310548F08D30910509
:1047500011F40C94BB308830910521F014C0E7327D
:1047600090F402C0E73220F48830910509F016C5B4
:10477000E150E093A003F0E0E15BFC4F108286EA99
:1047800091E00E94941C19B116FB882780F911E072
:1047900018271093800380910201882339F0112398
:1047A00009F44BC00E94891683E016C280917B03F6
:1047B0001123C9F040917C0350917D0360917E03E9
:1047C00070917F03452B462B472B69F481110BC059
:1047D0000E94601F60937C0370937D0380937E032F
:1047E00090937F032AC0811120C011111EC04090F8
:1047F0007C0350907D0360907E0370907F03411492
:1048000051046104710489F00E94601FDC01CB0136
:1048100084199509A609B709893E9340A105B105F8
:1048200020F40E94891685E0D7C180917B03811115
:1048300004C0112311F40C944C3080917B03882325
:1048400009F450C00E94601F009177031091780313
:104850002091790330917A03DC01CB01801B910B0D
:10486000A20BB30B883E9340A105B105D8F10E947D
:10487000601F60937703709378038093790390931C
:104880007A030E94601F00917C0310917D032091A8
:104890007E0330917F03DC01CB01801B910BA20BC7
:1048A000B30B81369A4EA105B105E0F060E070E0EF
:1048B0008DEC92E00E94DD0710927C0310927D0344
:1048C00010927E0310927F03109277031092780368
:1048D0001092790310927A0310927B0360E080E0DB
:1048E0000E94B00D809186038823D1F080918503CA
:1048F000882309F480C10E94601F009181031091F8
:1049000082032091830330918403DC01CB01801B5F
:10491000910BA20BB30B0A97A105B10508F067C173
:10492000A8958091A00381112EC080912D039091B4
:104930002E03892B41F180911A0390911B03A091C2
:104940001C03B0911D03892B8A2B8B2BE1F00E9455
:10495000601F00911A0310911B0320911C033091DA
:104960001D03AB01BC01401B510B620B730B80910B
:104970002D0390912E03A0E0B0E0481759076A0775
:104980007B0708F05EC18091A003811119C180915D
:10499000A10380FFA5C08091280390912903892B52
:1049A00089F000912803109129030E946D04980159
:1049B00040E050E000E00E94090A109229031092A2
:1049C000280302C00E94190980911E03811112C0A0
:1049D00080915A04882309F464C080912403909143
:1049E0002503A0912603B0912703892B8A2B8B2BBB
:1049F00009F057C081E00E941C1D882309F449C0BA
:104A00008BEE92E09F938F93FF92EF920E94DB3A9E
:104A100020914E0430914F04409150045091510424
:104A200060911F03709120038091210390912203D4
:104A30000E94A2069F938F937F936F9380914D0462
:104A40008F9380914C048F9380914B048F9380912E
:104A50004A048F93FF92EF928EEB91E09F938F9396
:104A6000FF92EF920E94CB3460E080912A030E9473
:104A7000C2100E946D0460932403709325038093F9
:104A80002603909327030FB6F894DEBF0FBECDBF69
:104A900006C061E070E08CED92E00E94DD071092AC
:104AA0001E0380915A04843008F0D7C0882309F48B
:104AB00087C00E946D04009124031091250320916A
:104AC000260330912703DC01CB01801B910BA20B45
:104AD000B30B8C329140A105B10508F0BEC070C087
:104AE000823009F04DC0809100019091010188351C
:104AF0009240E1F00E946D04009138031091390357
:104B000020913A0330913B03AB01BC01401B510B98
:104B1000620B730B8091360390913703A0E0B0E0F5
:104B2000481759076A077B0708F0E8C180913203EC
:104B300090913303A0913403B0913503892B8A2BD4
:104B40008B2B09F4E2C10E946D0400913203109195
:104B500033032091340330913503AB01BC01401B7A
:104B6000510B620B730B8091000190910101A0E049
:104B7000B0E0481759076A077B0708F0C6C120C094
:104B8000843019F40E942E161BC08630C9F480911F
:104B900002018823A9F00E946D0400913C0310914A
:104BA0003D0320913E0330913F03DC01CB01801B8C
:104BB000910BA20BB30B0F97A105B10508F090C2A2
:104BC0008091A1038F5F8093A103A1CD0E94530F19
:104BD00091CD8093DB0220CC0E94A91010927C031F
:104BE00010927D0310927E0310927F0326CE1092C6
:104BF00085035C981BC00E94601F00918103109187
:104C000082032091830330918403DC01CB01801B5C
:104C1000910BA20BB30B883E9340A105B10508F49C
:104C20007FCE81E0809385030E942C030E94601F49
:104C30006093810370938203809383039093840332
:104C40006FCE5C9810921A0310921B0310921C03F3
:104C500010921D031092190396CE80912303813088
:104C600019F485EF92E002C080EF92E09F938F935A
:104C7000FF92EF920E94DB3A0F900F900F900F90EF
:104C800080912303813011F084E001C082E08093A1
:104C90008D03E0915804FEE0EF9FD0011124A95B41
:104CA000BA4F4D905D906D907C90A3019201215080
:104CB0003109410951092DA73EA74FA758ABEE2353
:104CC00011F0E15001C0E9E03EE0E39FF001112462
:104CD000E95BFA4F248135814681578160911F033A
:104CE0007091200380912103909122030E94A206DB
:104CF0002B013C017F926F925F926F9348A94F9373
:104D00005FA55F938EA58F939DA59F93FF92EF92D2
:104D10008EEB91E09F938F93FF92EF920E94CB34A2
:104D200081E080938C0380938B030FB6F894DEBFF1
:104D30000FBECDBF1EE080918B03882309F4CEC047
:104D400090918C0380918D03891708F4C7C080E08F
:104D50000E941C1D80938B03882309F4B9C0209105
:104D60004E0430914F044091500450915104609191
:104D70001F037091200380912103909122030E94D0
:104D8000A2066093870370938803809389039093AE
:104D90008A0380904A0490904B04A0904C04B090F9
:104DA0004D048AAA9BAAACAABDAA2DA53EA54FA5D3
:104DB00058A982169306A406B50608F464C06415C3
:104DC00075058605970508F45EC0DC01CB018419E2
:104DD0009509A609B709BF93AF939F938F93E0916D
:104DE00058041E9FF0011124E95BFA4F80819181E4
:104DF000A281B38188199909AA09BB09BF93AF930E
:104E00009F938F93FF92EF92A9ECB1E0BF93AF9382
:104E1000FF92EF920E94CB340FB6F894DEBF0FBE24
:104E2000CDBF80912303813071F5409052045090A2
:104E30005304609054047090550420E030E048EC36
:104E400052E4C301B2010E94A3330E94DA32CB01C3
:104E500064E670E00E94E1319F938F93C301B20139
:104E60000E94DA327F936F93FF92EF92A4EDB1E04C
:104E7000BF93AF93FF92EF920E94CB340FB6F8949A
:104E8000DEBF0FBECDBFE09158041E9FF00111247C
:104E9000E95BFA4F408051806280738080914A04C0
:104EA00090914B04A0914C04B0914D0453014201E8
:104EB000881A990AAA0ABB0A8DA69EA6AFA6B8AA06
:104EC00040908703509088036090890370908A0314
:104ED00080918C038F5F80938C032DCF60E0809155
:104EE0002A030E94C2100E946D04609324037093F1
:104EF0002503809326039093270362CE88E592E0F2
:104F0000909301018093000111CE109290031091B3
:104F10009003133068F48EE00E940F1F64E670E087
:104F200080E090E00E94261F1F5F10939003EFCF58
:104F300010928F0310928E031092900310919003A1
:104F40001A3088F48EE00E940F1F20918E0330915A
:104F50008F03820F931F90938F0380938E031F5FA5
:104F600010939003EBCF80918E0390918F036AE0B2
:104F700070E00E94CD3180E090E00E94103326E680
:104F800036E24BE953E40E9468322DEC3CEC4CE6EF
:104F900050E40E94A33320E030E04AE754E40E944A
:104FA000A3330E94E132709392036093910364E013
:104FB00070E08AEF92E00E94090764E070E080915F
:104FC0009103909192030E94240E0E946D0400911F
:104FD0003C0310913D0320913E0330913F03DC01DF
:104FE000CB01801B910BA20BB30B80939303909387
:104FF0009403A0939503B09396038AE093E09F9364
:105000008F93FF92EF920E94DB3AF0913003A091D0
:105010003103E0912F0360912D0370912E033091A5
:105020002C0320912B03422F022E000C550B809154
:105030006107909162070F900F900F900F9000976B
:1050400011F488E697E0AF93FF931F92EF937F935D
:105050006F931F923F935F932F93A601481B590BA9
:10506000CA019F934F9380919A038F9380919903E4
:105070008F93809198038F93809197038F93809162
:1050800096038F93809195038F93809194038F93D0
:10509000809193038F93809192038F9380919103DA
:1050A0008F93FF92EF928FED91E09F938F93FF92FA
:1050B000EF920E94CB3461E080912A030E94C210DB
:1050C0000E946D0460933203709333038093340322
:1050D000909335030FB6F894DEBF0FBECDBF70CDF1
:1050E0000E946D0460939C0370939D0380939E03C4
:1050F00090939F038FED96E00E94731961E08AE020
:105100000E94871E61E087E00E94871E87EA94E084
:105110000E94310F0FB6F894A895809160008861C5
:1051200080936000109260000FBE20E030E040E00D
:1051300050E06AE070E08BE993E00E949D1899E2EC
:1051400088E10FB6F894A895809360000FBE909305
:1051500060000E946D0400919703109198032091C4
:10516000990330919A0340909C0350909D03609066
:105170009E0370909F030419150926093709DC0165
:10518000CB01800F911FA21FB31F809397039093B1
:105190009803A0939903B0939A0312CD8D30910593
:1051A00009F066C780E090E00E94AC078091A00300
:1051B0001092A003882309F4E6CA84E1AEA9BFA92E
:1051C0001D928A95E9F71092870310928803109236
:1051D000890310928A0368EC72E08FE493E00E94E6
:1051E0006E06813029F40E94BB0701E010E002C086
:1051F00000E010E063EC72E08FE493E00E946E0642
:10520000813009F03AC1E09159048EE08E9FF0019F
:105210001124E95BFA4FAAE4B4E001900D928A955B
:10522000E1F70E94240760E070E089EB92E00E94C1
:10523000090760911F0370912003809121039091D1
:10524000220320E030E0A9010E94A20640E050E0E5
:105250000E949A0760E070E082EB92E00E940907EA
:1052600020914E0430914F044091500450915104CC
:1052700060911F037091200380912103909122037C
:105280000E94A20640E050E00E949A0780E090E071
:105290000E94AC070E947105609340037093410324
:1052A00080934203909343030E94240760E070E0E0
:1052B0008DEA90E00E9409076091400370914103DC
:1052C00080914203909143030E94C41C60E070E00F
:1052D00084EA90E00E94090720E030E046E653E4CB
:1052E0006091400370914103809142039091430388
:1052F0000E94A3330E94C41C60E070E082EA90E048
:105300000E94DD070E94240760E070E08DEA92E0D1
:105310000E940907809128039091290360E070E0C2
:105320000E94240E0E94240760E070E081EA92E06F
:105330000E94090780915A0460E070E090E00E94AA
:10534000360D0E94240760E070E087E992E00E9439
:1053500009076091240370912503809126039091A1
:10536000270340E050E00E947A0780E090E00E942E
:10537000AC070E94240760E070E08EE892E00E9493
:1053800009078091590460E070E090E00E94360DBA
:105390000E94240760E070E086E892E00E9409071E
:1053A0008091580460E070E090E00E94360D0E9409
:1053B000240760E070E083EB90E00E94DD0710E0DE
:1053C000812F0E94FC071F5F1A30D1F70E9424072B
:1053D00060E070E08BE792E00E94090760E070E017
:1053E00080919103909192030E94240E0E942407C1
:1053F00060E070E081E792E00E9409078091610718
:1054000090916207009711F488E697E060E070E001
:10541000F101E81BF90BCF010E94240E0E94240722
:1054200060E070E088E692E00E9409078091020146
:10543000811103C08DE592E002C08FE592E060E04B
:1054400070E00E94DD070E94240760E070E081E6C2
:1054500092E00E94090760919703709198038091F0
:10546000990390919A0340E050E00E947A0780E00F
:1054700090E00E94AC0702E010E068E572E08FE483
:1054800093E00E946E06813051F490912303913095
:1054900009F480E08093230301E010E003C00230B0
:1054A000110541F068E572E08FE493E00E946E061A
:1054B000813069F40E94240780912303813009F42C
:1054C00079C58EE492E060E070E00E94DD0769E457
:1054D00072E08FE493E00E946E06813021F40E9416
:1054E000E90D01E010E064E472E08FE493E00E94D3
:1054F0006E06823081F5EFE4F3E001900020E9F7D9
:10550000AF014555534064E573E0C6010E94BC34C9
:1055100040E050E060E070E0C6010E948439609392
:105520008703709388038093890390938A0361159E
:1055300071058105910539F020E041E00E94E70AFC
:1055400001E010E00BC00E94240760E070E08BE3F4
:1055500092E00E9409070230110549F064E472E00C
:105560008FE493E00E946E06882309F46CC00E94C9
:10557000240784E493E00E94EC0360E070E084EC94
:1055800090E00E94090740904403709045035090BA
:105590004603609048032091490380914A0340915B
:1055A000090150910A0157FD39C090E08E54984F7F
:1055B00029AB0E94650760E070E080EC90E00E94FB
:1055C000090729A9822F90E00E94650760E070E03A
:1055D0008EEB90E00E940907862D90E00E946507FF
:1055E00060E070E08CEB90E00E940907852D90E070
:1055F0000E94650760E070E08AEB90E00E94090776
:10560000872D90E00E94650760E070E088EB90E0F5
:105610000E940907842D90E00E94650760E070E019
:1056200082EC90E00E9409070E946D0440E050E087
:105630000E947A0780E090E00E94AC0702301105DA
:1056400011F001E010E066E372E08FE493E00E9465
:105650006E06823009F04BC0EFE4F3E001900020C9
:10566000E9F7AF014555534064E573E081EF92E0FF
:105670000E94BC3460E372E081EF92E00E946E060B
:10568000813019F481E090E020C06BE272E081EF9C
:1056900092E00E946E06813019F482E090E015C01D
:1056A00066E272E081EF92E00E946E06813019F4AA
:1056B00083E090E00AC060E272E081EF92E00E9435
:1056C0006E06813059F484E090E090930A01809353
:1056D00009010E94780301E010E00CC00E94240739
:1056E00060E070E085E192E00E94DD074CC8023086
:1056F000110541F066E372E08FE493E00E946E06CC
:105700008823C1F00E94240760E070E08DE092E001
:105710000E94090760E08091090190910A010E94AE
:10572000E40680E090E00E94AC070230110511F021
:1057300001E010E068E072E08FE493E00E946E0602
:10574000823079F5EFE4F3E001900020E9F7AF0152
:105750004555534064E573E081EF92E00E94BC340C
:10576000E1EFF2E001900020E9F7E250F34049F068
:105770000E94240760E070E080E092E00E94DD0774
:1057800010C080E1E1EFF2E0A1EEB2E001900D92F5
:105790008A95E1F70E9478030E94860C01E010E0F0
:1057A00003C00230110541F068E072E08FE493E03D
:1057B0000E946E068823C9F00E94240760E070E012
:1057C0008BEF91E00E94090740E150E061EE72E04A
:1057D00087EA94E00E94530E80E090E00E94AC07BC
:1057E0000230110511F001E010E066EF71E08FE486
:1057F00093E00E946E06823009F04EC0EFE4F3E0C1
:1058000001900020E9F7AF014555534064E573E08E
:1058100081EF92E00E94BC341EA21DA21CA21AA21B
:105820003CA53F934BA54F9359AD5F9388AD8F93A4
:1058300098A59F93AFA1AF93BAA5BF93E9A5EF93A6
:105840008AEA91E09F938F9381EF92E09F938F93E9
:105850000E94EE340FB6F894DEBF0FBECDBF0497A2
:1058600049F00E94240760E070E08DEE91E00E9414
:10587000DD0712C08EA18093E0028DA18093DF022C
:105880008CA18093DE028AA18093DD020E947803BE
:105890000E94860C01E010E00230110509F48DC36E
:1058A00066EF71E08FE493E00E946E06811185C37C
:1058B00068EE71E08FE493E00E946E068230D9F5C5
:1058C000EFE4F3E001900020E9F7AF0145555340C4
:1058D00064E573E0C6010E94BC3440E050E060E043
:1058E00070E0C6010E948439609387037093880337
:1058F0008093890390938A032B013C0131E0431A82
:105900005108610871084DEF441651046104710497
:1059100048F00E94240760E070E08CED91E00E9466
:10592000DD0709C060932A030E9478030E94860C59
:1059300001E010E003C00230110541F068EE71E0B3
:105940008FE493E00E946E068823A1F00E94240752
:1059500060E070E083ED91E00E94090780912A03E6
:1059600060E070E090E00E94360D0230110511F009
:1059700001E010E06EEC71E08FE493E00E946E06AF
:105980008230D9F5EFE4F3E001900020E9F7AF01B0
:105990004555534064E573E0C6010E94BC3440E0C5
:1059A00050E060E070E0C6010E9484396093870394
:1059B000709388038093890390938A032B013C01A1
:1059C00051E0451A510861087108ADEF4A165104BB
:1059D0006104710448F00E94240760E070E082ECEA
:1059E00091E00E94DD0709C06093DE060E94780303
:1059F0000E94860C01E010E003C00230110541F066
:105A00006EEC71E08FE493E00E946E068823A1F0B3
:105A10000E94240760E070E089EB91E00E94090792
:105A20008091DE0660E070E090E00E94360D02306A
:105A3000110511F001E010E064EB71E08FE493E0F8
:105A40000E946E06823069F5EFE4F3E001900020D9
:105A5000E9F7AF014555534064E573E0C6010E9484
:105A6000BC3440E050E060E070E0C6010E94733852
:105A700070934E0360934D039B012C593F4F253685
:105A8000310548F00E94240760E070E08BEA91E065
:105A90000E94DD0706C06093DC020E94780301E0EB
:105AA00010E066EA71E08FE493E00E946E068230B7
:105AB00031F5EFE4F3E001900020E9F7AF0145553F
:105AC000534064E573E0C6010E94BC3440E050E0FE
:105AD00060E070E0C6010E947338862F60934B032C
